:100000000C9472000C9493000C9493000C94110FB8
:100010000C9493000C9493000C9493000C94930014
:100020000C9493000C9493000C9493000C94930004
:100030000C9493000C9493000C9493000C949300F4
:100040000C9493000C9493000C9493000C949300E4
:100050000C9493000C9495000C9493000C949300D2
:100060000C9493000C94FE000C9429010C949300C2
:100070000C9493000C9493000C9493000C949300B4
:100080000C9493000C9493000C9493000C949300A4
:100090000C9493000C9493000C9493000C94930094
:1000A0000C9493000C949B0C0C9493000C94930070
:1000B0000C9493000C9493000C94CA0C0C94930031
:1000C0000C9493000C9493000C9493000C94930064
:1000D0000C9493000C9493000C9493000C94930054
:1000E0000C94930011241FBECFEFD1E2DEBFCDBF31
:1000F00000E00CBF12E0A0E0B2E0E6EDF0E200E0CC
:100100000BBF02C007900D92A434B107D9F722E0CB
:10011000A4E4B2E001C01D92A23AB207E1F70E9446
:10012000A4060C9469100C9400001F920F920FB655
:100130000F9211240BB60F922F933F934F935F931F
:100140006F937F938F939F93AF93BF93EF93FF939F
:10015000CF93DF9300D00F92CDB7DEB780914402EA
:1001600090914502A0914602B091470289839A83FB
:10017000AB83BC832FE632E143E85AE3BC01CD01F7
:100180000E947E0F462F572F682F792F40934402ED
:100190005093450260934602709347020F900F9070
:1001A0000F900F90DF91CF91FF91EF91BF91AF91A1
:1001B0009F918F917F916F915F914F913F912F917F
:1001C0000F900BBE0F900FBE0F901F9018951092BE
:1001D00044021092450210924602109247028AEFA2
:1001E00087BD85B5836085BD84B5826084BDEEE63C
:1001F000F0E0808182608083789408950F920FB63A
:100200000F928F939F93CF93DF930F92CDB7DEB76B
:100210008091C0008C71882331F081E090E0909350
:100220004902809348028091C60089838981813088
:1002300049F00F90DF91CF919F918F910F900FBE5A
:100240000F90189581E090E090934B0280934A02C2
:10025000F0CF1F921FB61F9211248F938BB78F93ED
:100260009F93EF93FF93E0914C02F0914D02E25B7C
:10027000FD4F80818093C60080914C0290914D0289
:10028000019690934D0280934C0280914C02909184
:100290004D0204977CF0E1ECF0E080818F7D80835B
:1002A00010924D0210924C0281E090E09093530224
:1002B00080935202FF91EF919F918F918BBF8F910D
:1002C0001F901FBE1F901895CF93DF93109253027B
:1002D00010925202E1ECF0E080818F778083808180
:1002E0008F7E80838081877F8083A4E6B0E08C91BD
:1002F0008D7F8C93A2ECB0E08C918F7B8C938C9152
:100300008F778C9387E690E09093C5008093C4002C
:10031000C0ECD0E088818D7F88838C918E7F8C9318
:100320008C918E7F8C938C91877F8C9380818E7F34
:1003300080838C918C938C9181608C938881837E57
:1003400088838081806880837894808180618083C5
:1003500080818860808381E090E090935302809355
:100360005202DF91CF910895382F292F80915202A8
:10037000909153020097E1F01092530210925202B2
:10038000E32FF22F80E090E02191DC01A25BBD4FD2
:100390002C93019684309105B9F7E1ECF0E080816F
:1003A0008062808310924B0210924A0281E090E0BA
:1003B0000895CF93DF9300D00F92CDB7DEB791E0D1
:1003C00099838A836B834C83CE0101960E94B4018A
:1003D0000F900F900F900F90DF91CF910895CF93D2
:1003E000DF9300D00F92CDB7DEB792E099838A8376
:1003F0006B834C83CE0101960E94B4010F900F9045
:100400000F900F90DF91CF910895CF93DF9300D09D
:100410000F92CDB7DEB793E099838A836B834C83C9
:10042000CE0101960E94B4010F900F900F900F9093
:10043000DF91CF910895869A879A859A08958F982B
:1004400047E050E0E1E0F0E070E06C5F7F4F8E98B5
:100450008D9891B39F01042E02C0220F331F0A947E
:10046000E2F7062E02C0359527950A94E2F7A1E03F
:100470002A2721702295220F207E292B21BB8E9ABC
:100480004150510920F747E050E0682F70E08E9806
:100490008D9891B39B01042E02C0359527950A943F
:1004A000E2F7220F331F22953295307F3227207FCB
:1004B00032272072922B91BB8E9A4150510938F706
:1004C0008F9A0895E82F9FEB980F9A3138F09FE9A3
:1004D000980F9A3160F0803299F008950E2E000C3A
:1004E000FF0BE154FE4F80810E941F0208950E2EE3
:1004F000000CFF0BE156FE4F80810E941F02089501
:1005000080E00E941F02E9CF0F931F93CF93082F23
:10051000192FC0E06C2FF80181918F010E946202B7
:100520008FE99FE00197F1F700C00000CF5FC43072
:1005300089F760E080E00E941F02CF911F910F9128
:1005400008951F93CF93DF93C82FD92F13E09E01F7
:10055000ADECBCEC0E946E0F9C013695279536954C
:10056000279536952795C901880F991F880F991FE0
:10057000820F931F880F991FFE01E81BF90BE65E9F
:10058000FD4F612F80810E941F029E01ADECBCECEB
:100590000E946E0FEC01D695C795D695C795D69556
:1005A000C7958FE99FE00197F1F700C00000115057
:1005B00070F660E080E00E941F02DF91CF911F91F2
:1005C0000895E7E0F1E080818C7F80830895CF92E9
:1005D000DF92EF92FF92CF93DF9300D00F92CDB7CF
:1005E000DEB720914402309145024091460250917D
:1005F000470260915C0270915D0280915E02909171
:100600005F020E946410181644F410925C0210926B
:100610005D0210925E0210925F028091060180FDE1
:1006200043C080915A0290915B02892B09F055C01A
:10063000C0904402D0904502E0904602F0904702FC
:100640002DEC3CEC4CE45DE360915C0270915D024A
:1006500080915E0290915F020E947E0FA701960139
:1006600069837A838B839C8369817A818B819C8166
:100670000E94EA0F88230CF06DC081E090E0909317
:100680005B0280935A028091440290914502A091AE
:100690004602B091470280935C0290935D02A09362
:1006A0005E02B0935F020AC08091060180FF06C01F
:1006B00080915A0290915B02892B99F480915A02A1
:1006C00090915B020F900F900F900F90DF91CF9160
:1006D000FF90EF90DF90CF9008958091060180FF0A
:1006E000EDCFC0904402D0904502E0904602F090D9
:1006F00047022DEC3CEC4CE45DE360915C027091B0
:100700005D0280915E0290915F020E947E0FA701C0
:10071000960169837A838B839C8369817A818B813B
:100720009C810E94EA0F88234CF610925B02109283
:100730005A028091440290914502A0914602B091E4
:10074000470280935C0290935D02A0935E02B09397
:100750005F02B4CF80910601B1CFCF92DF92EF92CA
:10076000FF92CF93DF9300D00F92CDB7DEB72091E9
:1007700044023091450240914602509147026091F7
:1007800056027091570280915802909159020E942E
:100790006410181644F410925602109257021092E8
:1007A0005802109259028091060181FD43C0809148
:1007B000540290915502892B09F055C0C090440213
:1007C000D0904502E0904602F09047022DEC3CECC0
:1007D0004CE45DE36091560270915702809158029B
:1007E000909159020E947E0FA701960169837A8336
:1007F0008B839C8369817A818B819C810E94EA0F23
:1008000088230CF06DC081E090E0909355028093B6
:1008100054028091440290914502A0914602B09109
:1008200047028093560290935702A0935802B093C8
:1008300059020AC08091060181FF06C080915402CE
:1008400090915502892B99F4809154029091550210
:100850000F900F900F900F90DF91CF91FF90EF903E
:10086000DF90CF9008958091060181FFEDCFC09079
:100870004402D0904502E0904602F09047022DECF1
:100880003CEC4CE45DE3609156027091570280911C
:100890005802909159020E947E0FA7019601698328
:1008A0007A838B839C8369817A818B819C810E946E
:1008B000EA0F88234CF61092550210925402809150
:1008C000440290914502A0914602B0914702809364
:1008D000560290935702A0935802B0935902B4CF96
:1008E00080910601B1CF80B3876080BB81B3876000
:1008F00081BB0895CF92DF92EF92FF92CF93DF9367
:1009000000D00F92CDB7DEB7282F392F2130310517
:1009100009F482C02230310509F4EDC080E090E096
:10092000232B59F00F900F900F900F90DF91CF91E4
:10093000FF90EF90DF90CF90089520914402309186
:100940004502409146025091470260916E027091BB
:100950006F0280917002909171020E9464101816CB
:1009600044F410926E0210926F0210927002109274
:100970007102789943C080916C0290916D02892B2D
:1009800009F028C1C0904402D0904502E090460290
:10099000F09047022BE037ED43E25CE360916E029A
:1009A00070916F0280917002909171020E947E0F8F
:1009B000A701960169837A838B839C8369817A81FD
:1009C0008B819C810E94EA0F88230CF03FC181E05B
:1009D00090E090936D0280936C028091440290911C
:1009E0004502A0914602B091470280936E02909317
:1009F0006F02A0937002B093710209C0789B07C088
:100A000080916C0290916D02892B09F0E5C0809174
:100A10006C0290916D0286CF209144023091450284
:100A200040914602509147026091680270916902BC
:100A300080916A0290916B020E946410181644F42F
:100A4000109268021092690210926A0210926B0270
:100A50007A9943C08091660290916702892B09F0D0
:100A6000F7C0C0904402D0904502E0904602F0905A
:100A700047022BE037ED43E25CE36091680270913E
:100A8000690280916A0290916B020E947E0FA70119
:100A9000960169837A838B839C8369817A818B81B8
:100AA0009C810E94EA0F88230CF00EC181E090E047
:100AB0009093670280936602809144029091450270
:100AC000A0914602B0914702809368029093690218
:100AD000A0936A02B0936B0209C07A9B07C0809111
:100AE000660290916702892B09F0B4C0809166027A
:100AF0009091670217CF20914402309145024091B6
:100B000046025091470260916202709163028091A7
:100B10006402909165020E946410181644F41092C9
:100B20006202109263021092640210926502799937
:100B300043C08091600290916102892B09F0C8C086
:100B4000C0904402D0904502E0904602F0904702E7
:100B50002BE037ED43E25CE3609162027091630247
:100B600080916402909165020E947E0FA701960118
:100B700069837A838B839C8369817A818B819C8151
:100B80000E94EA0F88230CF0A1C081E090E09093CE
:100B90006102809360028091440290914502A0918D
:100BA0004602B09147028093620290936302A09341
:100BB0006402B093650209C0799B07C0809160020E
:100BC00090916102892B09F085C08091600290911B
:100BD0006102A8CE789B1BCFC0904402D090450202
:100BE000E0904602F09047022BE037ED43E25CE3F1
:100BF00060916E0270916F0280917002909171020B
:100C00000E947E0FA701960169837A838B839C8360
:100C100069817A818B819C810E94EA0F88230CF084
:100C2000F6CE10926D0210926C0280914402909167
:100C30004502A0914602B091470280936E029093C4
:100C40006F02A0937002B0937102E1CE8FB1DFCE3C
:100C50007A9B4CCFC0904402D0904502E09046026F
:100C6000F09047022BE037ED43E25CE360916802CD
:100C70007091690280916A0290916B020E947E0FCE
:100C8000A701960169837A838B839C8369817A812A
:100C90008B819C810E94EA0F88230CF027CF109251
:100CA0006702109266028091440290914502A091E1
:100CB0004602B09147028093680290936902A09324
:100CC0006A02B0936B0212CF8FB110CF8FB17DCF7C
:100CD000799B7BCFC0904402D0904502E0904602C1
:100CE000F09047022BE037ED43E25CE36091620253
:100CF0007091630280916402909165020E947E0F60
:100D0000A701960169837A838B839C8369817A81A9
:100D10008B819C810E94EA0F88230CF056CF1092A1
:100D20006102109260028091440290914502A0916C
:100D30004602B09147028093620290936302A093AF
:100D40006402B093650241CF00D000D000D00F9272
:100D5000CDB7DEB78091440290914502A091460242
:100D6000B091470289839A83AB83BC8301E010E092
:100D700066246A9477247A94AFEFBFEF44244394B7
:100D8000512C0F2EF3E02F2EF02D312CBA87A9878E
:100D90005BC5C982DA82EB82FC8221E030E03A87CF
:100DA000298752C5C982DA82EB82FC8232E0398718
:100DB0001A864AC569847A84C982DA82EB82FC8207
:100DC00083E090E09A8789873FC569847A848C01A3
:100DD000C982DA82EB82FC82A3E0B0E0BA87A987FD
:100DE00033C569847A848C01C982DA82EB82FC8201
:100DF00023E030E03A87298727C569847A848C010B
:100E0000C982DA82EB82FC8283E090E09A8789874C
:100E10001BC569847A848C01C982DA82EB82FC82E8
:100E2000A3E0B0E0BA87A9870FC569847A848C01F2
:100E3000C982DA82EB82FC8223E030E03A8729879C
:100E400003C5C982DA82EB82FC8234E039871A86D4
:100E5000FBC4009709F449C08130910591F52985BB
:100E60003A852130310509F49DC00E94E7000E94B7
:100E7000E1020E94630D10929F0210929E02109256
:100E80009D0210929C020E941B020E9473040E9409
:100E900064014FEF60E08FE70E94D901892BC9F30D
:100EA00060E080E00E941F0269847A84042D152D81
:100EB00030E020E090E080E0C32ED22EE92EF82E24
:100EC000B2C469847A84C982DA82EB82FC829A870E
:100ED0008987BAC469847A84C982DA82EB82FC8207
:100EE0009A878987B1C469867A864FEF60E08FE779
:100EF0000E94D901892BC9F3809144029091450247
:100F0000A0914602B091470280E392E00E948402E1
:100F100080E090E00E947A04892BC1F080918A02DF
:100F200090918B02892B79F4942D852D9093280232
:100F30008093290269847A84C982DA82EB82FC82F6
:100F40001A86198681C499858A85F0CF842D952DBE
:100F50000E947A04892BB9F0942D852D20918A0264
:100F600030918B02232B11F090E080E090938A0265
:100F700080938B0269847A84C982DA82EB82FC8254
:100F80001A86198661C482E090E00E947A04892B57
:100F900019F769847A84C982DA82EB82FC821A8624
:100FA000198652C469847A843EC4842D952D0E948A
:100FB0007A04892B39F0C982DA82EB82FC82498675
:100FC0005A8642C482E090E00E947A04892B09F09C
:100FD000E0CE82E090E09093290280932802C982BB
:100FE000DA82EB82FC8221E030E03A8729872CC448
:100FF00089859A85029701F14FEF60E08FE70E94A3
:10100000D901892BC9F369847A848AE392E00E942A
:10101000840280E090E00E947A04892B09F4C2CE19
:101020002092280230922902C982DA82EB82FC8265
:10103000B2E0B9871A8608C469847A84E6CF6986E3
:101040007A8610922702109226020115110509F4E2
:1010500087C0109289021092880220922402309256
:101060002502109287021092860240922602509228
:1010700027028091440290914502A0914602B091CE
:1010800047028093820290938302A0938402B093DC
:1010900085024FEF6FE08FEF0E94D901892BC9F3D2
:1010A0008091880290918902029709F436C180915B
:1010B000800290918102892B09F462C129813A81D1
:1010C0004B815C81C501B4010E947D0F162F072F53
:1010D000B82EA92E80917A0290917B02892B09F477
:1010E000E6C18091740290917502892B09F402C2C5
:1010F000212F302F4B2D5A2D60917C0270917D0253
:1011000080917E0290917F020E947E0F60937C020C
:1011100070937D0280937E0290937F0280917A0289
:1011200090917B02892B09F060C100914A021091D5
:101130004B020115110509F43DCE81E090E090933A
:1011400087028093860269847A84C982DA82EB827C
:10115000FC8200E010E0A3E0B0E0BA87A98774C386
:101160008091860290918702009709F4B3C3809121
:101170008802909189020196909389028093880257
:101180008330910584F024E02093280210922902F4
:1011900069847A84C982DA82EB82FC82042D152D5F
:1011A00029863A8651C3880F991FFC01E65DFD4FE1
:1011B000808191819093250280932402409226029F
:1011C0005092270210928702109286028430910575
:1011D00009F48EC218F58230910509F4B8C2833043
:1011E000910509F446CF019781F4809144029091D2
:1011F0004502A0914602B09147024FEF6FE081E0B7
:101200000E94EF01892BC9F38AC269847A84C9825A
:10121000DA82EB82FC8229863A8616C385309105F4
:1012200009F4C3C2069781F480914402909145026B
:10123000A0914602B09147024FEF6FE082E00E941A
:101240000502892BC9F35FC369847A84C982DA8273
:10125000EB82FC8283E090E09A878987F5C2213097
:10126000310509F455C222303105F9F48091260286
:1012700090912702892B09F06AC280914A029091CD
:101280004B02009709F4B9CD81E090E0909387027A
:101290008093860269847A84C982DA82EB82FC8236
:1012A000A3E0B0E0BA87A987CFC269847A848C01B1
:1012B000C982DA82EB82FC82A3E0B0E0BA87A98718
:1012C000C3C224303105F9F480912602909127029F
:1012D000892B09F00DC280914A0290914B02009730
:1012E00009F473CD81E090E09093870280938602A9
:1012F00069847A84C982DA82EB82FC82A3E0B0E05E
:10130000BA87A987A1C269847A848C01C982DA82EA
:10131000EB82FC8229863A8697C2809044029090A4
:101320004502A0904602B090470220E030E040E83D
:101330005FE36091820270918302809184029091B8
:1013400085020E947E0FA501940169837A838B83B5
:101350009C8369817A818B819C810E94EA0F88231A
:101360000CF0E3CE4FEF60E08FE70E94D901892BAC
:10137000C9F381E090E09093870280938602D5CEF6
:101380000E94E702892BB9F08091440290914502B6
:10139000A0914602B091470280937C0290937D0217
:1013A000A0937E02B0937F0281E090E0909381024F
:1013B0008093800283CE29813A814B815C81C50173
:1013C000B4010E947D0F162F072FB82EA92E8091F1
:1013D0007A0290917B02892B09F469C08091800286
:1013E00090918102892B09F07CCE809172029091BC
:1013F0007302892B09F0D2C02DEC3CEC4CEC5DE380
:1014000060917602709177028091780290917902D2
:101410000E947E0F20914402309145024091460285
:101420005091470269837A838B839C8369817A8197
:101430008B819C810E94641018160CF476CE20E0FB
:1014400030E040E85FE369817A818B819C810E9472
:101450007E0FA62EB72E082F192F2091440230910F
:101460004502409146025091470269837A838B83FB
:101470009C8369817A818B819C810E9464101816FB
:101480000CF0F9C08091740290917502892B09F0DB
:101490004CCE4FEF60E08FE70E94D901892BC9F352
:1014A00081E090E090937502809374023ECE0E949A
:1014B000AD03892BB9F08091440290914502A0912F
:1014C0004602B09147028093760290937702A093F0
:1014D0007802B093790281E090E090937B02809350
:1014E0007A027CCF8091800290918102892B09F44D
:1014F00015CEF7CD2DEC3CEC4CEC5DE360917C021D
:1015000070917D0280917E0290917F020E947E0FF9
:101510002091440230914502409146025091470289
:1015200069837A838B839C8369817A818B819C8197
:101530000E94641018160CF4F1CD20E030E040E871
:101540005FE369817A818B819C810E947E0F6D832C
:101550007E838F8398872091440230914502409189
:1015600046025091470269837A839F819B83A885B5
:10157000AC8369817A818B819C810E9464101816EA
:1015800094F58091720290917302892BF1F0809111
:101590007A0290917B02892B09F4C7CD212F302F3D
:1015A0004B2D5A2D609176027091770280917802CE
:1015B000909179020E947E0F609376027093770279
:1015C0008093780290937902B0CD4FEF60E08FE77F
:1015D0000E94D901892BC9F381E090E090937302B6
:1015E00080937202D4CF6090440270904502809044
:1015F00046029090470220E030E040E05FE39D81AA
:101600009983AE81AA83BF81BB8388858C836981DE
:101610007A818B819C810E947E0FE62FA401930129
:10162000E9837A838B839C8369817A818B819C8116
:101630000E9464101816D4F4809172029091730283
:10164000892B41F480917A0290917B02892B09F4D5
:101650006CCDD2CE4FEF6FE08FEF0E94D901892B76
:10166000C9F31092730210927202ECCF10928102B1
:101670001092800253CD6090440270904502809099
:1016800046029090470220E030E040E05FE3A9820C
:10169000BA820B831C8369817A818B819C810E9431
:1016A0007E0FE62FA4019301E9837A838B839C83C9
:1016B00069817A818B819C810E94641018169CF448
:1016C0008091740290917502892B09F42ECD4FEF11
:1016D0006FE08FEF0E94D901892BC9F31092750238
:1016E0001092740222CD10927B0210927A021DCDCC
:1016F0008091440290914502A0914602B091470228
:101700004FEF6FE080E00E94D901892BC9F3E3CD50
:101710008091260290912702892B09F066CD809155
:101720004A0290914B02009709F45BCB81E090E074
:10173000909387028093860269847A84C982DA82D0
:10174000EB82FC82A3E0B0E0BA87A9877DC08091DC
:10175000440290914502A0914602B09147024FEF9A
:101760006FE082E00E94EF01892BC9F386CD809162
:10177000260290912702892BC1F480914A02909110
:101780004B02009709F445CB81E090E090938702EB
:101790008093860269847A84C982DA82EB82FC8231
:1017A000A3E0B0E0BA87A9874FC08091440290912E
:1017B0004502A0914602B09147024FEF6FE081E0F1
:1017C0000E940502892BC9F3D8CF69847A840DC0A1
:1017D0008230910509F419CCF8F08330910509F4B1
:1017E0002ECC8430910509F06EC08FE392E00E9408
:1017F000840280E090E00E947A04892B09F421CBD6
:101800004092280250922902C982DA82EB82FC823D
:1018100094E099871A8618C0009709F464CB813048
:10182000910509F049C085E392E00E94840280E0BE
:1018300090E00E947A04892B09F4B7CBC982DA823E
:10184000EB82FC8249865A86809044029090450241
:10185000A0904602B0904702C0904402D09045024A
:10186000E0904602F0904702809128029091290270
:10187000A985BA85A817B90709F4AACF82309105BE
:1018800009F4B6CB08F4E5CA8330910509F4D9CB45
:101890008430910509F01ECB29853A852430310525
:1018A00009F493CF4FEF60E08FE70E94D901892BB5
:1018B000C9F369847A8499CFC982DA82EB82FC8287
:1018C0009A878987C1CFC982DA82EB82FC829A87A4
:1018D0008987BACF20912402309125022330310527
:1018E00009F4DECB08F4BBCC2530310509F43FCF39
:1018F0002630310509F0E5CC80912602909127022F
:10190000892B09F091CC80914A0290914B0200976B
:1019100009F48BCA81E090E090938702809386025D
:1019200069847A84C982DA82EB82FC82A3E0B0E027
:10193000BA87A98789CF1F921FB61F9211242F93B0
:101940003F934F938F939F93AF93BF938091A60044
:101950009091A700A0E0B0E0803A2FE09207A105A7
:10196000B1056CF421E030E080399140A105B1056A
:1019700014F020E030E030938F0220938E02BF916C
:10198000AF919F918F914F913F912F911F901FBECB
:101990001F9018951F921FB61F9211242F933F93EB
:1019A0004F938F939F93AF93BF9380912601909114
:1019B0002701A0E0B0E0803A2FE09207A105B10531
:1019C0006CF421E030E080399140A105B10514F0BC
:1019D00020E030E030938F0220938E02BF91AF91D0
:1019E0009F918F914F913F912F911F901FBE1F90FC
:1019F0001895E1EAF0E080818C7F80831092A70047
:101A00001092A600A1E0B1E08C9180618C93AAE0D5
:101A1000B1E08C918E7F8C93A0EAB0E08C918360D2
:101A20008C938081886180838C9180628C9380818B
:101A30008160808380E89EE39093A9008093A80052
:101A400080EA9FE09093AB008093AA00808180643D
:101A50008083E2E7F0E08081806280830895E1E2A4
:101A6000F1E080818C7F8083109227011092260103
:101A7000AAE0B1E08C9180618C938C918D7F8C93E6
:101A8000A0E2B1E08C9183608C9380818861808337
:101A90008C9180628C9380818160808380E89EE35A
:101AA000909329018093280180EA9FE090932B0175
:101AB00080932A01808180648083E3E7F0E0808165
:101AC0008062808308950E94F90C0E942F0D789403
:101AD0000895CF92DF92EF92FF92CF93DF9300D0E1
:101AE0000F92CDB7DEB7209144023091450240916C
:101AF000460250914702609198027091990280913C
:101B00009A0290919B020E946410181644F410925D
:101B100098021092990210929A0210929B02809160
:101B20008E0290918F02892B09F043C0809196021A
:101B300090919702892B09F057C0C0904402D09031
:101B40004502E0904602F09047022BE037ED43E279
:101B50005CE3609198027091990280919A02909151
:101B60009B020E947E0FA701960169837A838B8373
:101B70009C8369817A818B819C810E94EA0F8823F2
:101B80000CF071C081E090E09093970280939602F0
:101B90008091440290914502A0914602B091470283
:101BA0008093980290939902A0939A02B0939B021B
:101BB0000CC080918E0290918F02892B31F0809120
:101BC000960290919702892BA9F4809196029091A8
:101BD00097020F900F900F900F90DF91CF91FF9091
:101BE000EF90DF90CF90089580918E0290918F02B8
:101BF000892B59F3C0904402D0904502E0904602F0
:101C0000F09047022BE037ED43E25CE360919802ED
:101C10007091990280919A0290919B020E947E0F8E
:101C2000A701960169837A838B839C8369817A817A
:101C30008B819C810E94EA0F88233CF610929702C8
:101C4000109296028091440290914502A091460222
:101C5000B09147028093980290939902A0939A02C0
:101C6000B0939B02B2CF80918E0290918F02ADCF44
:101C7000CF92DF92EF92FF92CF93DF9300D00F923B
:101C8000CDB7DEB720914402309145024091460223
:101C90005091470260919202709193028091940258
:101CA000909195020E946410181644F410929202CA
:101CB00010929302109294021092950280918C02DD
:101CC00090918D02892B09F043C0809190029091F0
:101CD0009102892B09F057C0C0904402D090450270
:101CE000E0904602F09047022BE037ED43E25CE3E0
:101CF000609192027091930280919402909195026A
:101D00000E947E0FA701960169837A838B839C834F
:101D100069817A818B819C810E94EA0F88230CF073
:101D200071C081E090E09093910280939002809145
:101D3000440290914502A0914602B09147028093DF
:101D4000920290939302A0939402B09395020CC0D8
:101D500080918C0290918D02892B31F080919002BC
:101D600090919102892BA9F4809190029091910217
:101D70000F900F900F900F90DF91CF91FF90EF9009
:101D8000DF90CF90089580918C0290918D02892BE5
:101D900059F3C0904402D0904502E0904602F09082
:101DA00047022BE037ED43E25CE3609192027091D1
:101DB000930280919402909195020E947E0FA70158
:101DC000960169837A838B839C8369817A818B8175
:101DD0009C810E94EA0F88233CF610929102109297
:101DE00090028091440290914502A0914602B091E8
:101DF00047028093920290939302A0939402B0932F
:101E00009502B2CF80918C0290918D02ADCF229835
:101E10002A9AE9E6F0E0808185608083E99A7894E7
:101E200008951F921FB61F9211242F938F939F9393
:101E300010922902109228022FEF89EF90E0215092
:101E400080409040E1F700C000009F918F912F915A
:101E50001F901FBE1F9018950E94690D892B99F045
:101E600080919E0290919F02019690939F02809391
:101E70009E028091A0029091A10201969093A102EE
:101E80008093A002089580919C0290919D020196FA
:101E900090939D0280939C02ECCF0E94380E892B78
:101EA00099F080919E0290919F02019690939F02DB
:101EB00080939E028091A0029091A102019690933E
:101EC000A1028093A002089580919C0290919D02AE
:101ED000019690939D0280939C02ECCFA29FB0014B
:101EE000B39FC001A39F700D811D1124911DB29F4E
:101EF000700D811D1124911D08955058BB27AA27EC
:101F00000E94950F0C942A100E941C1038F00E9419
:101F1000231020F039F49F3F19F426F40C94191083
:101F20000EF4E095E7FB0C941310E92F0E943B1090
:101F300058F3BA17620773078407950720F079F4FE
:101F4000A6F50C945D100EF4E0950B2EBA2FA02D83
:101F50000B01B90190010C01CA01A0011124FF2756
:101F6000591B99F0593F50F4503E68F11A16F04051
:101F7000A22F232F342F4427585FF3CF4695379550
:101F80002795A795F0405395C9F77EF41F16BA0B15
:101F9000620B730B840BBAF09150A1F0FF0FBB1FC3
:101FA000661F771F881FC2F70EC0BA0F621F731F0C
:101FB000841F48F4879577956795B795F7959E3F69
:101FC00008F0B0CF9395880F08F09927EE0F9795FA
:101FD000879508950E94EF0F08F481E00895990F06
:101FE0000008550FAA0BE0E8FEEF16161706E807E3
:101FF000F907C0F012161306E407F50798F0621B04
:10200000730B840B950B39F40A2661F0232B242BD8
:10201000252B21F408950A2609F4A140A6958FEFF7
:10202000811D811D089597F99F6780E870E060E049
:1020300008959FEF80EC089500240A941616170661
:1020400018060906089500240A94121613061406A9
:1020500005060895092E0394000C11F4882352F00C
:10206000BB0F40F4BF2B11F460FF04C06F5F7F4FC4
:102070008F4F9F4F089557FD9058440F551F59F0AB
:102080005F3F71F04795880F97FB991F61F09F3F65
:1020900079F087950895121613061406551FF2CF8E
:1020A0004695F1DF08C0161617061806991FF1CFDE
:1020B00086957105610508940895E894BB27662705
:1020C0007727CB0197F908950E94EF0F08F48FEF5F
:0620D0000895F894FFCF13
:1020D600777C395E79713D74061E753855545C738C
:1020E60067506D783E1C6A766E5B3F065B4F666D89
:1020F6007D077F6F0300010001000300020003005B
:1021060053544F5000727365740069646C650065C2
:042116006E642000D3
:00000001FF
