:100000000C9482000C94A3000C94A3000C94A808F8
:100010000C94A3000C94A3000C94A3000C94A300D4
:100020000C94A3000C94A3000C94A3000C94A300C4
:100030000C94A3000C94A3000C94A3000C94A300B4
:100040000C94A3000C94A3000C94A3000C94A300A4
:100050000C94A3000C94A5000C94A3000C94A30092
:100060000C94A3000C940E010C9439010C94A30081
:100070000C94A3000C94A3000C94A3000C94A30074
:100080000C94A3000C94A3000C94A3000C94A30064
:100090000C94A3000C94A3000C94A3000C94A30054
:1000A0000C94A3000C94A3000C94A3000C94A30044
:1000B0000C94A3000C94A3000C94A3000C94A30034
:1000C0000C94A3000C94A3000C94A3000C94A30024
:1000D0000C94A3000C94A3000C94A3000C94A30014
:1000E0000C94A3000C942B070C940D060C94B805EB
:1000F0000C94E6060C9490060C9406070C94E90701
:100100000C94AC0711241FBECFEFD1E2DEBFCDBFF0
:1001100000E00CBF12E0A0E0B2E0E6EDF3E100E0A9
:100120000BBF02C007900D92AA30B107D9F722E0A9
:10013000AAE0B2E001C01D92AD33B207E1F70E9420
:10014000B6040C94E1090C9400001F920F920FB6B4
:100150000F9211240BB60F922F933F934F935F93FF
:100160006F937F938F939F93AF93BF93EF93FF937F
:10017000CF93DF9300D00F92CDB7DEB780910A0204
:1001800090910B02A0910C02B0910D0289839A8389
:10019000AB83BC832FE632E143E85AE3BC01CD01D7
:1001A0000E94F608462F572F682F792F40930A0296
:1001B00050930B0260930C0270930D020F900F90FE
:1001C0000F900F90DF91CF91FF91EF91BF91AF9181
:1001D0009F918F917F916F915F914F913F912F915F
:1001E0000F900BBE0F900FBE0F901F90189510929E
:1001F0000A0210920B0210920C0210920D028AEF6A
:1002000087BD85B5836085BD84B5826084BDEEE61B
:10021000F0E0808182608083789408950F920FB619
:100220000F928F939F93CF93DF930F92CDB7DEB74B
:100230008091C0008C71882331F081E090E0909330
:100240000F0280930E028091C600898389818130DC
:1002500049F00F90DF91CF919F918F910F900FBE3A
:100260000F90189581E090E0909311028093100216
:10027000F0CF1F921FB61F9211248F938BB78F93CD
:100280009F93EF93FF93E0911202F0911302EC5EC3
:10029000FD4F80818093C6008091120290911302DD
:1002A0000196909313028093120280911202909112
:1002B000130204977CF0E1ECF0E080818F7D808375
:1002C000109213021092120281E090E090931902B2
:1002D00080931802FF91EF919F918F918BBF8F9127
:1002E0001F901FBE1F901895CF93DF931092190295
:1002F00010921802E1ECF0E080818F77808380819A
:100300008F7E80838081877F8083A4E6B0E08C919C
:100310008D7F8C93A2ECB0E08C918F7B8C938C9131
:100320008F778C9387E690E09093C5008093C4000C
:10033000C0ECD0E088818D7F88838C918E7F8C93F8
:100340008C918E7F8C938C91877F8C9380818E7F14
:1003500080838C918C938C9181608C938881837E37
:1003600088838081806880837894808180618083A5
:1003700080818860808381E090E09093190280936F
:100380001802DF91CF910895382F292F80911802FC
:10039000909119020097E1F0109219021092180240
:1003A000E32FF22F80E090E02191DC01AC5EBD4FA5
:1003B0002C93019684309105B9F7E1ECF0E080814F
:1003C00080628083109211021092100281E090E00E
:1003D0000895CF93DF9300D00F92CDB7DEB791E0B1
:1003E00099838A836B834C83CE0101960E94C4015A
:1003F0000F900F900F900F90DF91CF910895CF93B2
:10040000DF9300D00F92CDB7DEB792E099838A8355
:100410006B834C83CE0101960E94C4010F900F9014
:100420000F900F90DF91CF910895CF93DF9300D07D
:100430000F92CDB7DEB793E099838A836B834C83A9
:10044000CE0101960E94C4010F900F900F900F9063
:10045000DF91CF9108956C980895CF92DF92EF923B
:10046000FF92CF93DF9300D00F92CDB7DEB72091EC
:100470000A0230910B0240910C0250910D026091E2
:100480001C0270911D0280911E0290911F020E9419
:10049000DC09181644F410921C0210921D021092EE
:1004A0001E0210921F02649943C080911A0290911B
:1004B0001B02892B09F053C0C0900A02D0900B0296
:1004C000E0900C02F0900D022DEC3CEC4CE45DE36E
:1004D00060911C0270911D0280911E0290911F027A
:1004E0000E94F608A701960169837A838B839C8317
:1004F00069817A818B819C810E94620988230CF03A
:1005000069C081E090E090931B0280931A02809171
:100510000A0290910B02A0910C02B0910D028093FF
:100520001C0290931D02A0931E02B0931F0208C0EC
:10053000649B06C080911A0290911B02892B89F45A
:1005400080911A0290911B020F900F900F900F90C4
:10055000DF91CF91FF90EF90DF90CF900895649B53
:10056000EFCFC0900A02D0900B02E0900C02F09006
:100570000D022DEC3CEC4CE45DE360911C027091AB
:100580001D0280911E0290911F020E94F608A70191
:10059000960169837A838B839C8369817A818B81BD
:1005A0009C810E94620988235CF610921B021092C3
:1005B0001A0280910A0290910B02A0910C02B09154
:1005C0000D0280931C0290931D02A0931E02B09313
:1005D0001F02B6CF8CB1B4CF83B3836083BB84B327
:1005E000836084BB0895CF92DF92EF92FF92CF9306
:1005F000DF9300D00F92CDB7DEB7282F392F21150A
:10060000310509F467C080E090E02130310509F040
:10061000CEC020910A0230910B0240910C02509101
:100620000D02609122027091230280912402909128
:1006300025020E94DC09181644F41092220210923E
:10064000230210922402109225029099BBC080913F
:10065000200290912102892B09F000C1C0900A026A
:10066000D0900B02E0900C02F0900D022BE037EDE1
:1006700043E25CE3609122027091230280912402A4
:10068000909125020E94F608A701960169837A835A
:100690008B839C8369817A818B819C810E94620912
:1006A00088230CF017C181E090E0909321028093A1
:1006B000200280910A0290910B02A0910C02B0914D
:1006C0000D028093220290932302A0932402B09300
:1006D000250281C020910A0230910B0240910C0248
:1006E00050910D02609128027091290280912A0296
:1006F00090912B020E94DC09181644F410922802F3
:100700001092290210922A0210922B02919943C052
:100710008091260290912702892B09F061C0C09038
:100720000A02D0900B02E0900C02F0900D022BE038
:1007300037ED43E25CE360912802709129028091D9
:100740002A0290912B020E94F608A7019601698364
:100750007A838B839C8369817A818B819C810E94BF
:10076000620988230CF078C081E090E09093270222
:100770008093260280910A0290910B02A0910C02B4
:10078000B0910D028093280290932902A0932A022F
:10079000B0932B0208C0919B06C0809126029091D5
:1007A0002702892BF9F480912602909127020F905D
:1007B0000F900F900F90DF91CF91FF90EF90DF900F
:1007C000CF900895909B07C08091200290912102C4
:1007D000892B09F045C08091200290912102E7CF3A
:1007E000919BE1CFC0900A02D0900B02E0900C02E6
:1007F000F0900D022BE037ED43E25CE360912802BC
:100800007091290280912A0290912B020E94F60891
:10081000A701960169837A838B839C8369817A819E
:100820008B819C810E94620988230CF0BCCF1092BE
:1008300027021092260280910A0290910B02A09149
:100840000C02B0910D028093280290932902A0938C
:100850002A02B0932B02A7CF82B3A5CF909BBBCF28
:10086000C0900A02D0900B02E0900C02F0900D02B2
:100870002BE037ED43E25CE36091220270912302AA
:1008800080912402909125020E94F608A70196010A
:1008900069837A838B839C8369817A818B819C8134
:1008A0000E94620988230CF096CF109221021092C8
:1008B000200280910A0290910B02A0910C02B0914B
:1008C0000D028093220290932302A0932402B093FE
:1008D000250281CF82B37FCF84B1806684B985B190
:1008E0008F7985B910922C020895282F392F862FE1
:1008F000972F2115310581F4892B39F02D9A80919C
:100900002C02816080932C0208952D9880912C02F6
:100910008E7F80932C0208952130310509F00895CF
:10092000892B39F02E9A80912C02826080932C02C0
:1009300008952E9880912C028D7F80932C02EFCF0A
:10094000282F392F2115310531F02130310541F0A3
:1009500080E090E0089580912C02817090E00895ED
:1009600080912C028695817090E0089500D000D08F
:10097000CDB7DEB780910A0290910B02A0910C02D4
:10098000B0910D028FEF9FEF0F2EF3E0EF2EF12CC1
:10099000F02D02E010E006C021E030E03E832D8320
:1009A0008D819E8140910A0250910B0260910C0250
:1009B00070910D02A0910002B0910102BE83AD833F
:1009C000A230B10509F454C0C8F02D813E81233016
:1009D000310509F463C02430310511F7049709F09B
:1009E000A5C380E090E00E94F302892BC9F281E068
:1009F00090E09093010280930002D2CFAB2B89F05C
:100A0000019721F580E090E00E94F302892B21F606
:100A1000109301020093000281E090E09E838D8399
:100A2000BFCF4FEF60E08FE70E94E901892BC9F348
:100A300080E090E00E94F302892B09F4B1CF81E0BD
:100A400090E09093010280930002AACF0E94F700E9
:100A50000E942B020E946C040E94EC020E9474010E
:100A60004FEF60E08FE70E94E901892BC9F3CACFFD
:100A7000029761F480E090E00E94F302892B09F470
:100A80008FCFF0920102E09200028ACF4FEF60E038
:100A90008FE70E94E901892BC9F3ECCFE09137027F
:100AA000F0913802E830F1056CF4FF230CF478CFB4
:100AB000E830F10508F074CF8827ED51F64F8F4FDD
:100AC0000C94ED08E035F10509F06ACF809135020C
:100AD00090913602892B09F45DC180910A029091B0
:100AE0000B02A0910C02B0910D0289839A83AB8313
:100AF000BC832091310230913202409133025091F7
:100B00003402BC01CD010E94F5082AE939E949E91E
:100B10005EE369837A838B839C8369817A818B818D
:100B20009C810E94DC0988230CF457C183E090E08B
:100B30009093380280933702109236021092350259
:100B40004FEF6EE182E00E941502892BC9F381E02C
:100B500090E0909336028093350260E070E080E090
:100B600090E00E947504109211021092100235C19B
:100B70008091350290913602892B99F10E942D02C5
:100B8000892B09F40DCF80910A0290910B02A0915C
:100B90000C02B0910D0289839A83AB83BC832091B0
:100BA0003102309132024091330250913402BC0143
:100BB000CD010E94F50860932D0270932E02809360
:100BC0002F02909330028091370290913802019663
:100BD00090933802809337021092360210923502B9
:100BE000DFCE4FEF6EE18FEF0E94E90180910A02A4
:100BF00090910B02A0910C02B0910D0280933102F2
:100C000090933202A0933302B093340281E090E0DB
:100C10009093360280933502B1CF80913502909146
:100C20003602892B09F459C061E070E080E090E061
:100C30000E94750481E090E00E94F302892B09F084
:100C400068C080910A0290910B02A0910C02B091B1
:100C50000D0289839A83AB83BC832091310230914A
:100C600032024091330250913402BC01CD010E9406
:100C7000F50820E030E040E050E469837A838B831C
:100C80009C8369817A818B819C810E94DC09882305
:100C90000CF486CE80910A0290910B02A0910C0276
:100CA000B0910D028093310290933202A0933302EF
:100CB000B09334024FEF60E08FE70E94E90180912A
:100CC0003702909138020196909338028093370250
:100CD000109236021092350263CE4FEF68E08FEF2C
:100CE0000E94E90180910A0290910B02A0910C02EE
:100CF000B0910D028093310290933202A09333029F
:100D0000B093340281E090E09093360280933502F4
:100D10008BCF61E070E081E090E00E94750491CF9C
:100D200080910A0290910B02A0910C02B0910D02E9
:100D300089839A83AB83BC83209131023091320244
:100D40004091330250913402BC01CD010E94F5085C
:100D500020E030E040E85FE369837A838B839C8303
:100D600069817A818B819C810E94DC0988230CF443
:100D700017CE60E070E081E090E00E94750480E5AD
:100D800090E09093380280933702109236021092CE
:100D9000350206CE4FEF6EE180E00E94E9018091BE
:100DA0000A0290910B02A0910C02B0910D02809367
:100DB000310290933202A0933302B093340281E067
:100DC00090E0909336028093350287CE8091350271
:100DD00090913602892B09F4B3CE80911002909144
:100DE0001102892B09F4DCCD8091370290913802F1
:100DF0000196909338028093370210923602109237
:100E000035021092110210921002CACD8091350263
:100E100090913602892B99F00E942D02892B09F4BA
:100E2000BFCD80913702909138020196909338029D
:100E3000809337021092360210923502B1CD4FEFF7
:100E40006EE18FEF0E94E90181E090E0909336021D
:100E500080933502E1CF8091350290913602892B43
:100E600009F45EC061E070E080E090E00E947504EB
:100E700080910A0290910B02A0910C02B0910D0298
:100E800089839A83AB83BC832091310230913202F3
:100E90004091330250913402BC01CD010E94F5080B
:100EA00020E030E040E050E469837A838B839C83C8
:100EB00069817A818B819C810E94DC0988233CF4C2
:100EC00081E090E00E94F302892B09F469CD61E092
:100ED00070E081E090E00E94750480910A02909198
:100EE0000B02A0910C02B0910D02809331029093FD
:100EF0003202A0933302B09334024FEF60E08FE7E9
:100F00000E94E901809137029091380201969093F6
:100F1000380280933702109236021092350240CD8B
:100F20004FEF68E08FEF0E94E90180910A029091F3
:100F30000B02A0910C02B0910D02809331029093AC
:100F40003202A0933302B093340281E090E0909398
:100F500036028093350286CF80910A0290910B026F
:100F6000A0910C02B0910D0289839A83AB83BC835C
:100F7000209131023091320240913302509134027B
:100F8000BC01CD010E94F50820E030E040E85FE3BD
:100F900069837A838B839C8369817A818B819C812D
:100FA0000E94DC0988230CF4FBCC60E070E081E057
:100FB00090E00E947504809137029091380201966A
:100FC00090933802809337021092360210923502C5
:100FD000E7CC8091350290913602892B09F47AC0D2
:100FE00080910A0290910B02A0910C02B0910D0227
:100FF00089839A83AB83BC83209131023091320282
:101000004091330250913402BC01CD010E94F50899
:1010100020912D0230912E0240912F0250913002EA
:1010200069837A838B839C8369817A818B819C819C
:101030000E94620918163CF08091100290911102F2
:10104000892B09F069C080910A0290910B02A0914E
:101050000C02B0910D0289839A83AB83BC832091EB
:101060003102309132024091330250913402BC017E
:10107000CD010E94F508A62EB72EC82ED92E20E04D
:1010800030E040E85FE360912D0270912E02809184
:101090002F02909130020E94F608262F372F482FFA
:1010A000592FA982BA82CB82DC8269817A818B81B5
:1010B0009C810E94DC0988230CF472CC4FEF60E025
:1010C0008FE70E94E90184E090E090930102809311
:1010D000000266CC4FEF6EE180E00E94E901809152
:1010E0000A0290910B02A0910C02B0910D02809324
:1010F000310290933202A0933302B093340260E045
:1011000070E080E090E00E94750481E090E09093B0
:1011100036028093350264CF4FEF6EE180E00E948B
:10112000E90110921102109210028DCF4FEF60E092
:101130008FE70E94E901892BC9F353CC22982A9AA0
:10114000E9E6F0E0808185608083E99A78940895EB
:101150001F921FB61F9211242F938F939F9310926B
:101160000102109200022FEF89EF90E021508040A1
:101170009040E1F700C000009F918F912F911F9048
:101180001FBE1F90189580913B0290913C02892BC5
:1011900049F00E942D02892BF9F410923C02109222
:1011A0003B021AC00E942D02892B81F081E090E061
:1011B00090933C0280933B028091390290913A02D5
:1011C000019690933A0280933902089580913B02F0
:1011D00090913C02892BE9F60895EE0FFF1F881FBE
:1011E0008BBF0790F691E02D19945058BB27AA2782
:1011F0000E940D090C94A2090E94940938F00E94E3
:101200009B0920F039F49F3F19F426F40C949109BE
:101210000EF4E095E7FB0C948B09E92F0E94B309CB
:1012200058F3BA17620773078407950720F079F41B
:10123000A6F50C94D5090EF4E0950B2EBA2FA02D2F
:101240000B01B90190010C01CA01A0011124FF2773
:10125000591B99F0593F50F4503E68F11A16F0406E
:10126000A22F232F342F4427585FF3CF469537956D
:101270002795A795F0405395C9F77EF41F16BA0B32
:10128000620B730B840BBAF09150A1F0FF0FBB1FE0
:10129000661F771F881FC2F70EC0BA0F621F731F29
:1012A000841F48F4879577956795B795F7959E3F86
:1012B00008F0B0CF9395880F08F09927EE0F979517
:1012C000879508950E94670908F481E00895990FB1
:1012D0000008550FAA0BE0E8FEEF16161706E80700
:1012E000F907C0F012161306E407F50798F0621B21
:1012F000730B840B950B39F40A2661F0232B242BF6
:10130000252B21F408950A2609F4A140A6958FEF14
:10131000811D811D089597F99F6780E870E060E066
:1013200008959FEF80EC089500240A94161617067E
:1013300018060906089500240A94121613061406C6
:1013400005060895092E0394000C11F4882352F029
:10135000BB0F40F4BF2B11F460FF04C06F5F7F4FE1
:101360008F4F9F4F089557FD9058440F551F59F0C8
:101370005F3F71F04795880F97FB991F61F09F3F82
:1013800079F087950895121613061406551FF2CFAB
:101390004695F1DF08C0161617061806991FF1CFFB
:1013A00086957105610508940895E894BB27662722
:1013B0007727CB0197F908950E94670908F48FEF0A
:1013C0000895F894FFCFB8050D069006E6060607C7
:0613D0002B07AC07E90742
:0A13D60001000300060003000400FC
:00000001FF
