:100000000C9472000C9493000C9493000C949A0F2F
:100010000C9493000C9493000C9493000C94930014
:100020000C9493000C9493000C9493000C94930004
:100030000C9493000C9493000C9493000C949300F4
:100040000C9493000C9493000C9493000C949300E4
:100050000C9493000C9495000C9493000C949300D2
:100060000C9493000C94FE000C9429010C949300C2
:100070000C9493000C9493000C9493000C949300B4
:100080000C9493000C9493000C9493000C949300A4
:100090000C9493000C9493000C9493000C94930094
:1000A0000C9493000C94570D0C9493000C949300B3
:1000B0000C9493000C9493000C94220E0C949300D7
:1000C0000C9493000C9493000C9493000C94930064
:1000D0000C9493000C9493000C9493000C94930054
:1000E0000C94930011241FBECFEFD1E2DEBFCDBF31
:1000F00000E00CBF12E0A0E0B2E0E6EAF2E200E0CD
:100100000BBF02C007900D92A434B107D9F725E0C8
:10011000A4E4B2E001C01D92AA3CB207E1F70E943C
:10012000B9060C9451110C9400001F920F920FB657
:100130000F9211240BB60F922F933F934F935F931F
:100140006F937F938F939F93AF93BF93EF93FF939F
:10015000CF93DF9300D00F92CDB7DEB780914402EA
:1001600090914502A0914602B091470289839A83FB
:10017000AB83BC832FE632E143E85AE3BC01CD01F7
:100180000E942910462F572F682F792F4093440241
:100190005093450260934602709347020F900F9070
:1001A0000F900F90DF91CF91FF91EF91BF91AF91A1
:1001B0009F918F917F916F915F914F913F912F917F
:1001C0000F900BBE0F900FBE0F901F9018951092BE
:1001D00044021092450210924602109247028AEFA2
:1001E00087BD85B5836085BD84B5826084BDEEE63C
:1001F000F0E0808182608083789408950F920FB63A
:100200000F928F939F93CF93DF930F92CDB7DEB76B
:100210008091C0008C71882331F081E090E0909350
:100220004902809348028091C60089838981813088
:1002300049F00F90DF91CF919F918F910F900FBE5A
:100240000F90189581E090E090934B0280934A02C2
:10025000F0CF1F921FB61F9211248F938BB78F93ED
:100260009F93EF93FF93E0914C02F0914D02E25B7C
:10027000FD4F80818093C60080914C0290914D0289
:10028000019690934D0280934C0280914C02909184
:100290004D0204977CF0E1ECF0E080818F7D80835B
:1002A00010924D0210924C0281E090E09093530224
:1002B00080935202FF91EF919F918F918BBF8F910D
:1002C0001F901FBE1F901895CF93DF93109253027B
:1002D00010925202E1ECF0E080818F778083808180
:1002E0008F7E80838081877F8083A4E6B0E08C91BD
:1002F0008D7F8C93A2ECB0E08C918F7B8C938C9152
:100300008F778C9387E690E09093C5008093C4002C
:10031000C0ECD0E088818D7F88838C918E7F8C9318
:100320008C918E7F8C938C91877F8C9380818E7F34
:1003300080838C918C938C9181608C938881837E57
:1003400088838081806880837894808180618083C5
:1003500080818860808381E090E090935302809355
:100360005202DF91CF910895382F292F80915202A8
:10037000909153020097E1F01092530210925202B2
:10038000E32FF22F80E090E02191DC01A25BBD4FD2
:100390002C93019684309105B9F7E1ECF0E080816F
:1003A0008062808310924B0210924A0281E090E0BA
:1003B0000895CF93DF9300D00F92CDB7DEB791E0D1
:1003C00099838A836B834C83CE0101960E94B4018A
:1003D0000F900F900F900F90DF91CF910895CF93D2
:1003E000DF9300D00F92CDB7DEB792E099838A8376
:1003F0006B834C83CE0101960E94B4010F900F9045
:100400000F900F90DF91CF910895CF93DF9300D09D
:100410000F92CDB7DEB793E099838A836B834C83C9
:10042000CE0101960E94B4010F900F900F900F9093
:10043000DF91CF910895869A879A859A08958F982B
:1004400047E050E0E1E0F0E070E06C5F7F4F8E98B5
:100450008D9891B39F01042E02C0220F331F0A947E
:10046000E2F7062E02C0359527950A94E2F7A1E03F
:100470002A2721702295220F207E292B21BB8E9ABC
:100480004150510920F747E050E0682F70E08E9806
:100490008D9891B39B01042E02C0359527950A943F
:1004A000E2F7220F331F22953295307F3227207FCB
:1004B00032272072922B91BB8E9A4150510938F706
:1004C0008F9A0895E82F9FEB980F9A3138F09FE9A3
:1004D000980F9A3160F0803299F008950E2E000C3A
:1004E000FF0BE154FE4F80810E941F0208950E2EE3
:1004F000000CFF0BE156FE4F80810E941F02089501
:1005000080E00E941F02E9CF0F931F93CF93082F23
:10051000192FC0E06C2FF80181918F010E946202B7
:100520008FE99FE00197F1F700C00000CF5FC43072
:1005300089F760E080E00E941F02CF911F910F9128
:1005400008951F93CF93DF93C82FD92F13E09E01F7
:10055000ADECBCEC0E9419109C01369527953695A0
:10056000279536952795C901880F991F880F991FE0
:10057000820F931F880F991FFE01E81BF90BE65E9F
:10058000FD4F612F80810E941F029E01ADECBCECEB
:100590000E941910EC01D695C795D695C795D695AA
:1005A000C7958FE99FE00197F1F700C00000115057
:1005B00070F660E080E00E941F02DF91CF911F91F2
:1005C0000895E1E0F1E080818F7980830895CF92F2
:1005D000DF92EF92FF92CF93DF9300D00F92CDB7CF
:1005E000DEB720914402309145024091460250917D
:1005F000470260915C0270915D0280915E02909171
:100600005F020E944C11181644F410925C02109282
:100610005D0210925E0210925F028091000185FDE2
:1006200043C080915A0290915B02892B09F055C01A
:10063000C0904402D0904502E0904602F0904702FC
:100640002DEC3CEC4CE45DE360915C0270915D024A
:1006500080915E0290915F020E942910A70196018D
:1006600069837A838B839C8369817A818B819C8166
:100670000E94951088230CF06DC081E090E090936B
:100680005B0280935A028091440290914502A091AE
:100690004602B091470280935C0290935D02A09362
:1006A0005E02B0935F020AC08091000185FF06C020
:1006B00080915A0290915B02892B99F480915A02A1
:1006C00090915B020F900F900F900F90DF91CF9160
:1006D000FF90EF90DF90CF9008958091000185FF0B
:1006E000EDCFC0904402D0904502E0904602F090D9
:1006F00047022DEC3CEC4CE45DE360915C027091B0
:100700005D0280915E0290915F020E942910A70114
:10071000960169837A838B839C8369817A818B813B
:100720009C810E94951088234CF610925B021092D7
:100730005A028091440290914502A0914602B091E4
:10074000470280935C0290935D02A0935E02B09397
:100750005F02B4CF80910001B1CFCF92DF92EF92D0
:10076000FF92CF93DF9300D00F92CDB7DEB72091E9
:1007700044023091450240914602509147026091F7
:1007800056027091570280915802909159020E942E
:100790004C11181644F410925602109257021092FF
:1007A0005802109259028091000186FD43C0809149
:1007B000540290915502892B09F055C0C090440213
:1007C000D0904502E0904602F09047022DEC3CECC0
:1007D0004CE45DE36091560270915702809158029B
:1007E000909159020E942910A701960169837A838A
:1007F0008B839C8369817A818B819C810E94951077
:1008000088230CF06DC081E090E0909355028093B6
:1008100054028091440290914502A0914602B09109
:1008200047028093560290935702A0935802B093C8
:1008300059020AC08091000186FF06C080915402CF
:1008400090915502892B99F4809154029091550210
:100850000F900F900F900F90DF91CF91FF90EF903E
:10086000DF90CF9008958091000186FFEDCFC0907A
:100870004402D0904502E0904602F09047022DECF1
:100880003CEC4CE45DE3609156027091570280911C
:100890005802909159020E942910A701960169837C
:1008A0007A838B839C8369817A818B819C810E946E
:1008B000951088234CF610925502109254028091A4
:1008C000440290914502A0914602B0914702809364
:1008D000560290935702A0935802B0935902B4CF96
:1008E00080910001B1CFCF92DF92EF92FF92CF9330
:1008F000DF9300D00F92CDB7DEB7282F392F2130EC
:10090000310509F482C02230310509F4EDC080E0E0
:1009100090E0232B59F00F900F900F900F90DF91E4
:10092000CF91FF90EF90DF90CF90089520914402F7
:1009300030914502409146025091470260916E020B
:1009400070916F0280917002909171020E944C111F
:10095000181644F410926E0210926F0210927002F8
:1009600010927102789943C080916C0290916D024F
:10097000892B09F028C1C0904402D0904502E09034
:100980004602F09047022BE037ED43E25CE36091D2
:100990006E0270916F0280917002909171020E94BC
:1009A0002910A701960169837A838B839C836981CF
:1009B0007A818B819C810E94951088230CF03FC125
:1009C00081E090E090936D0280936C0280914402EC
:1009D00090914502A0914602B091470280936E0229
:1009E00090936F02A0937002B093710209C0789B3C
:1009F00007C080916C0290916D02892B09F0E5C0CF
:100A000080916C0290916D0286CF209144023091CA
:100A100045024091460250914702609168027091F0
:100A2000690280916A0290916B020E944C11181623
:100A300044F4109268021092690210926A021092B5
:100A40006B02799943C08091660290916702892B6D
:100A500009F0F7C0C0904402D0904502E0904602F1
:100A6000F09047022BE037ED43E25CE360916802CF
:100A70007091690280916A0290916B020E94291024
:100A8000A701960169837A838B839C8369817A812C
:100A90008B819C810E94951088230CF00EC181E00F
:100AA00090E0909367028093660280914402909157
:100AB0004502A0914602B09147028093680290934C
:100AC0006902A0936A02B0936B0209C0799B07C0C8
:100AD0008091660290916702892B09F0B4C08091E1
:100AE00066029091670217CF20914402309145022F
:100AF00040914602509147026091620270916302F8
:100B000080916402909165020E944C11181644F481
:100B100010926202109263021092640210926502B7
:100B20007A9943C08091600290916102892B09F00B
:100B3000C8C0C0904402D0904502E0904602F090B8
:100B400047022BE037ED43E25CE360916202709173
:100B5000630280916402909165020E942910A701AE
:100B6000960169837A838B839C8369817A818B81E7
:100B70009C810E94951088230CF0A1C081E090E038
:100B800090936102809360028091440290914502AB
:100B9000A0914602B0914702809362029093630253
:100BA000A0936402B093650209C07A9B07C080914C
:100BB000600290916102892B09F085C080916002EA
:100BC00090916102A8CE789B1BCFC0904402D09038
:100BD0004502E0904602F09047022BE037ED43E2F9
:100BE0005CE360916E0270916F028091700290914F
:100BF00071020E942910A701960169837A838B8371
:100C00009C8369817A818B819C810E9495108823C5
:100C10000CF0F6CE10926D0210926C02809144029C
:100C200090914502A0914602B091470280936E02D6
:100C300090936F02A0937002B0937102E1CE8FB1D6
:100C4000DFCE799B4CCFC0904402D0904502E0901B
:100C50004602F09047022BE037ED43E25CE36091FF
:100C600068027091690280916A0290916B020E9401
:100C70002910A701960169837A838B839C836981FC
:100C80007A818B819C810E94951088230CF027CF5C
:100C90001092670210926602809144029091450280
:100CA000A0914602B0914702809368029093690236
:100CB000A0936A02B0936B0212CF8FB110CF8FB1A5
:100CC0007DCF7A9B7BCFC0904402D0904502E090CC
:100CD0004602F09047022BE037ED43E25CE360917F
:100CE00062027091630280916402909165020E9499
:100CF0002910A701960169837A838B839C8369817C
:100D00007A818B819C810E94951088230CF056CFAC
:100D1000109261021092600280914402909145020B
:100D2000A0914602B09147028093620290936302C1
:100D3000A0936402B093650241CF80B3876080BB0B
:100D400081B3876081BB80E090E00E94730481E002
:100D500090E00E94730482E090E00E9473042FEF01
:100D600089EF90E0215080409040E1F700C0000002
:100D7000089500D000D000D00F92CDB7DEB780919B
:100D8000440290914502A0914602B09147028983A6
:100D90009A83AB83BC8301E010E0AA24AA94BB240D
:100DA000BA94AFEFBFEF88248394912C68943324D6
:100DB00032F8212CBA87A98703C6C982DA82EB826E
:100DC000FC8221E030E03A872987FAC5C982DA82BD
:100DD000EB82FC8232E039871A86F2C5A984BA8494
:100DE0008C01C982DA82EB82FC8283E090E09A87F0
:100DF0008987E6C5A984BA84C982DA82EB82FC823B
:100E0000A3E0B0E0BA87A987DBC5A984BA848C01C6
:100E1000C982DA82EB82FC8223E030E03A872987BC
:100E2000CFC5A984BA848C01C982DA82EB82FC82A4
:100E300083E090E09A878987C3C5A984BA848C012E
:100E4000C982DA82EB82FC82A3E0B0E0BA87A9878C
:100E5000B7C5A984BA848C01C982DA82EB82FC828C
:100E600023E030E03A872987ABC5C982DA82EB827A
:100E7000FC8239862A86A4C5009709F457C08130C0
:100E8000910509F03FC029853A852130310509F4E3
:100E9000AEC00E94E7000E94E1020E94570F10922C
:100EA000C7051092C6051092C5051092C4053FEF04
:100EB0008BE792E9315080409040E1F700C000009C
:100EC0000E94670F0E94780F0E941B020E949D06DD
:100ED0000E9464014FEF60E08FE70E94D901892BE7
:100EE000C9F360E080E00E941F02A984BA84082D43
:100EF000192D30E020E090E080E0C32ED22EE92EC4
:100F0000F82E4DC5A984BA84C982DA82EB82FC82AC
:100F10009A87898755C5A984BA84C982DA82EB8207
:100F2000FC829A8789874CC5A986BA864FEF60E014
:100F30008FE70E94D901892BC9F3809144029091D7
:100F40004502A0914602B091470280E392E00E94E0
:100F500084020E94920F892BF1F480E090E00E94BD
:100F60007304892BC1F080918A0290918B02892BA6
:100F700079F4982D892D9093280280932902A984D1
:100F8000BA84C982DA82EB82FC821A86198618C575
:100F900099858A85F0CF882D992D0E947304892B1D
:100FA000B9F0982D892D20918A0230918B02232B44
:100FB00011F090E080E090938A0280938B02A984E4
:100FC000BA84C982DA82EB82FC821A861986F8C456
:100FD00082E090E00E947304892B19F7A984BA84F7
:100FE000C982DA82EB82FC821A861986E9C4A98456
:100FF000BA84D5C4882D992D0E947304892B39F0A9
:10100000C982DA82EB82FC8289869A86D9C482E020
:1010100090E00E947304892B09F0CFCE82E090E02B
:101020009093290280932802C982DA82EB82FC82A3
:1010300081E090E09A878987C3C4A985BA85129711
:1010400009F14FEF60E08FE70E94D901892BC9F3C6
:10105000A984BA848AE392E00E94840280E090E04E
:101060000E947304892B09F4B1CE33E03093280237
:1010700010922902C982DA82EB82FC8282E089879F
:101080001A869EC4A984BA84E5CFA986BA8610922E
:1010900027021092260201151105C9F1109289024A
:1010A0001092880230922402209225021092870228
:1010B0001092860280922602909227028091260248
:1010C00090912702892B09F023C180918802909189
:1010D0008902029709F42CC100914A0210914B0237
:1010E0000115110509F486CE81E090E09093870206
:1010F00080938602A984BA84C982DA82EB82FC8258
:1011000000E010E0A3E0B0E0BA87A98759C480915D
:10111000860290918702009709F498C48091880212
:10112000909189020196909389028093880283307E
:10113000910584F03092280220922902A984BA8471
:10114000C982DA82EB82FC82082D192D93E09987FF
:101150001A8636C4880F991FFC01E65DFD4F808119
:10116000918190932502809324028092260290928E
:10117000270210928702109286028430910509F4AA
:10118000C7C008F051C08230910509F49DC3833077
:10119000910571F58091440290914502A09146021B
:1011A000B09147024FEF6FE08FEF0E94D901892B7A
:1011B000C9F38091880290918902029709F495C041
:1011C00080914A0290914B02009709F407CE81E08A
:1011D00090E09093870280938602A984BA84C982A2
:1011E000DA82EB82FC8223E030E03A872987E8C389
:1011F000019781F48091440290914502A0914602AA
:10120000B09147024FEF6FE081E00E94EF01892B20
:10121000C9F342C3A984BA84C982DA82EB82FC8210
:10122000A3E0A9871A86CCC38530910509F47AC357
:10123000069781F48091440290914502A091460264
:10124000B09147024FEF6FE082E00E940502892BC8
:10125000C9F324C0A984BA84C982DA82EB82FC82F1
:1012600023E030E03A872987ABC3A984BA848C0194
:10127000C982DA82EB82FC8283E090E09A878987D8
:101280009FC32530310509F42FC326303105F1F411
:101290008091260290912702892B61F680914A0263
:1012A00090914B02009709F4D4CD81E090E09093A7
:1012B000870280938602A984BA84C982DA82EB828B
:1012C000FC82A3E0B0E0BA87A9877AC32430310555
:1012D00009F4F4CEA984BA848C01C982DA82EB8243
:1012E000FC8293E099871A866BC38091C405909124
:1012F000C50544E6489F9001499F300D1124809117
:10130000C6059091C705820F931F0E94A10258CF76
:101310008091440290914502A0914602B09147020B
:101320004FEF6FE080E00E94D901892BC9F3CDCE49
:101330008091C4059091C50544E6489F9001499F5E
:10134000300D11248091C6059091C705820F931F1F
:101350000E94A1028091840290918502892BC1F1A3
:1013600029813A814B815C81C301B2010E9428101E
:10137000162F072FB82EA92E80917E0290917F0202
:10138000892B09F477C08091780290917902892B9A
:1013900009F493C0212F302F4B2D5A2D60918002DC
:1013A0007091810280918202909183020E942910A3
:1013B00060938002709381028093820290938302F3
:1013C00080917E0290917F02892B09F485CE34C0F2
:1013D0000E94E702892BB9F0809144029091450266
:1013E000A0914602B09147028093800290938102BF
:1013F000A0938202B093830281E090E090938502F3
:1014000080938402ADCF29813A814B815C81C301F5
:10141000B2010E942810162F072FB82EA92E8091F6
:101420007E0290917F02892B29F180918402909114
:101430008502892B09F0A7CF8091760290917702DF
:10144000892B09F41FC1212F302F4B2D5A2D60916C
:101450007A0270917B0280917C0290917D020E94C1
:10146000291060937A0270937B0280937C029093A0
:101470007D0232CE0E94AD03892BB9F080914402E7
:1014800090914502A0914602B091470280937A0262
:1014900090937B02A0937C02B0937D0281E090E068
:1014A00090937F0280937E02C0CF809184029091BE
:1014B0008502892B09F484CF66CF23E333E343EB22
:1014C0005EE360918002709181028091820290912E
:1014D00083020E94291020914402309145024091DC
:1014E00046025091470269837A838B839C8369818A
:1014F0007A818B819C810E944C1118160CF460CF6C
:1015000020E030E040E85FE369817A818B819C8153
:101510000E9429106D837E838F83988720914402D7
:1015200030914502409146025091470269837A8387
:101530008B839C8369817A818B819C810E944C1171
:1015400018160CF067C08091760290917702892B73
:1015500009F445C040904402509045026090460214
:101560007090470223E333E343EB5EE36091800234
:101570007091810280918202909183020E942910D1
:10158000E62F20E030E040E05FE3E9837A838B835D
:101590009C8369817A818B819C810E942910E62F2E
:1015A000A3019201E9837A838B839C8369817A8189
:1015B0008B819C810E94951088230CF001CF809133
:1015C000740290917502892B09F0FACE81E090E0C7
:1015D00090937502809374020E94B50FF1CE4FEF85
:1015E00060E08FE70E94D901892BC9F38091C8057B
:1015F0009091C9050F9738F084E090E0909329020C
:101600008093280269CD81E090E0909377028093E7
:101610007602A0CF4090440250904502609046026E
:101620007090470220E030E040E05FE39D819983C5
:10163000AE81AA83BF81BB8388858C8369817A81CF
:101640008B819C810E942910E62FA3019201E983DE
:101650007A838B839C8369817A818B819C810E94B0
:101660004C1118160CF0ACC0809176029091770264
:10167000892B09F099C080917E0290917F02892B7D
:1016800009F42ACD23E333E343EB5EE360917A026E
:1016900070917B0280917C0290917D020E942910C2
:1016A00020914402309145024091460250914702F8
:1016B00069837A838B839C8369817A818B819C8106
:1016C0000E944C1118160CF407CD20E030E040E8E1
:1016D0005FE369817A818B819C810E942910A62E0B
:1016E000B72E082F192F20914402309145024091C6
:1016F00046025091470269837A838B839C83698178
:101700007A818B819C810E944C1118160CF07CC050
:101710008091780290917902892B09F45AC0409007
:10172000440250904502609046027090470223E3C5
:1017300033E343EB5EE360917A0270917B02809128
:101740007C0290917D020E942910E62F20E030E07B
:1017500040E05FE3E9837A838B839C8369817A81AC
:101760008B819C810E942910E62FA3019201E983BD
:101770007A838B839C8369817A818B819C810E948F
:10178000951088230CF0A8CC80917202909173027E
:10179000892B09F0A1CC81E090E0909373028093B3
:1017A00072020E94D60F98CC4FEF6FE080E00E944B
:1017B000D901892BC9F310927702109276025BCF80
:1017C0001092850210928402109275021092740297
:1017D000F7CD4FEF60E08FE70E94D901892BC9F365
:1017E0008091C8059091C9050F9738F084E090E08A
:1017F00090932902809328026FCC81E090E090932F
:101800007902809378028BCF409044025090450239
:10181000609046027090470220E030E040E05FE3D5
:10182000A982BA820B831C8369817A818B819C8116
:101830000E942910E62FA3019201E9837A838B830A
:101840009C8369817A818B819C810E944C1118163E
:101850009CF48091780290917902892B09F43CCC18
:101860004FEF6FE080E00E94D901892BC9F31092FD
:1018700079021092780230CC10927F0210927E0290
:10188000109273021092720227CC809126029091DE
:101890002702892B09F0AECC80914A0290914B022D
:1018A000009709F4B2CA81E090E090938702809398
:1018B0008602A984BA84C982DA82EB82FC82A3E020
:1018C000B0E0BA87A9877CC080914402909145021C
:1018D000A0914602B09147024FEF6FE082E00E9474
:1018E000EF01892BC9F3CBC080912602909127028A
:1018F000892BC1F480914A0290914B02009709F420
:101900009CCA81E090E09093870280938602A9842C
:10191000BA84C982DA82EB82FC82A3E0B0E0BA87A3
:10192000A9874EC08091440290914502A091460241
:10193000B09147024FEF6FE081E00E940502892BD2
:10194000C9F3D8CFA984BA840DC08230910509F4B7
:1019500081CBF0F08330910509F497CB8430910569
:1019600009F06DC08FE392E00E94840280E090E075
:101970000E947304892B09F478CA809228029092FD
:101980002902C982DA82EB82FC8239862A8618C053
:10199000009709F4C9CA8130910509F049C085E36F
:1019A00092E00E94840280E090E00E947304892B00
:1019B00009F420CBC982DA82EB82FC8289869A867E
:1019C0004090440250904502609046027090470259
:1019D000C0904402D0904502E0904602F090470249
:1019E0008091280290912902A985BA85A817B90784
:1019F00009F4ABCF8230910509F41FCB08F43CCA3F
:101A00008330910509F443CB8430910509F083CAF2
:101A100029853A852430310509F494CF4FEF60E0F1
:101A20008FE70E94D901892BC9F3A984BA849ACF80
:101A3000C982DA82EB82FC829A878987C1CFC98208
:101A4000DA82EB82FC829A878987BACF20912402BE
:101A5000309125022330310509F4ABCB08F011CCCD
:101A60002130310509F411CF2230310509F0FDCBC9
:101A70008091260290912702892B09F025CF809131
:101A80004A0290914B02009709F4CBC981E090E0A3
:101A90009093870280938602A984BA84C982DA82ED
:101AA000EB82FC82A3E0B0E0BA87A98789CF1F92BE
:101AB0000F920FB60F9211240BB60F92CF92DF92B6
:101AC000EF92FF920F931F932F933F934F935F9348
:101AD0006F937F938F939F93AF93BF93EF93FF93F6
:101AE000CF93DF9300D00F92CDB7DEB7C090A600A2
:101AF000D090A700E12CF12C81ECC81683E0D80629
:101B0000E104F1040CF47FC0C701B6010E949C10EF
:101B100020E030E84DEE54E469837A838B839C8324
:101B200069817A818B819C810E94951088230CF0B9
:101B30006AC0E0912C04F0912D04EE0FFF1FEE0F10
:101B4000FF1FE25DFB4FC082D182E282F38280916F
:101B50002C0490912D04019690932D0480932C04D5
:101B600080912C0490912D048436910524F01092DC
:101B70002D0410922C0480E090E040E050E0BA0187
:101B8000FC01EE0FFF1FEE0FFF1FE25DFB4F008118
:101B9000118122813381400F511F621F731F0196F3
:101BA0008436910569F7CB01BA0124E630E040E0C4
:101BB00050E00E94F70F2093BE053093BF0540937D
:101BC000C0055093C1058091280490912904A091EB
:101BD0002A04B0912B044091BE055091BF0560913D
:101BE000C0057091C1050A96A11DB11D21E030E02C
:101BF00084179507A607B70710F020E030E0309370
:101C0000C3052093C2050F900F900F900F90DF91A6
:101C1000CF91FF91EF91BF91AF919F918F917F9164
:101C20006F915F914F913F912F911F910F91FF9075
:101C3000EF90DF90CF900F900BBE0F900FBE0F90E4
:101C40001F9018951F920F920FB60F9211240BB68A
:101C50000F92CF92DF92EF92FF920F931F932F93E9
:101C60003F934F935F936F937F938F939F93AF9324
:101C7000BF93EF93FF93CF93DF9300D00F92CDB735
:101C8000DEB7C0902601D0902701E12CF12C81EC29
:101C9000C81683E0D806E104F1040CF47FC0C70144
:101CA000B6010E949C1020E030E84DEE54E46983B8
:101CB0007A838B839C8369817A818B819C810E944A
:101CC000951088230CF06AC0E0918C02F0918D028F
:101CD000EE0FFF1FEE0FFF1FE257FD4FC082D182B4
:101CE000E282F38280918C0290918D020196909312
:101CF0008D0280938C0280918C0290918D028436AB
:101D0000910524F010928D0210928C0280E090E0F8
:101D100040E050E0BA01FC01EE0FFF1FEE0FFF1F85
:101D2000E257FD4F0081118122813381400F511F05
:101D3000621F731F01968436910569F7CB01BA01C2
:101D400024E630E040E050E00E94F70F20931E04AC
:101D500030931F0440932004509321048091240465
:101D600090912504A0912604B091270440911E046F
:101D700050911F0460912004709121040A96A11DC6
:101D8000B11D21E030E084179507A607B70710F0D2
:101D900020E030E030932304209322040F900F9032
:101DA0000F900F90DF91CF91FF91EF91BF91AF9185
:101DB0009F918F917F916F915F914F913F912F9163
:101DC0001F910F91FF90EF90DF90CF900F900BBE7F
:101DD0000F900FBE0F901F901895E1EAF0E0808100
:101DE0008C7F80831092A7001092A600A1E0B1E042
:101DF0008C9180618C93AAE0B1E08C918E7F8C9362
:101E0000A0EAB0E08C9183608C93808188618083AC
:101E10008C9180628C9380818160808380E09AEFD6
:101E20009093A9008093A80080ED97E09093AB0079
:101E30008093AA0080818F7B8083E2E7F0E080813D
:101E4000806280830895E1E2F1E080818C7F80836D
:101E50001092270110922601AAE0B1E08C918061D6
:101E60008C938C918D7F8C93A0E2B1E08C918360F8
:101E70008C938081886180838C9180628C93808137
:101E80008160808380E09AEF9093290180932801FC
:101E900080ED97E090932B0180932A0180818F7BC6
:101EA0008083E3E7F0E080818062808308950E9470
:101EB000ED0E0E94230F789408958091C2059091B1
:101EC000C305089580912204909123040895809180
:101ED000BE059091BF05A091C005B091C10580934A
:101EE000280490932904A0932A04B0932B04089506
:101EF00080911E0490911F04A0912004B0912104B0
:101F00008093240490932504A0932604B09327047F
:101F1000089522982A9AE9E6F0E08081856080831E
:101F20007894089583B18695869591E0892781708C
:101F300090E008951F921FB61F9211242F938F9344
:101F40009F9310922902109228022FEF89EF90E0C0
:101F5000215080409040E1F700C000009F918F9198
:101F60002F911F901FBE1F9018950E945D0F892B07
:101F700099F08091C6059091C70501969093C70589
:101F80008093C6058091C8059091C90501969093EC
:101F9000C9058093C80508958091C4059091C50531
:101FA00001969093C5058093C405ECCF0E94620F03
:101FB000892B99F08091C6059091C7050196909361
:101FC000C7058093C6058091C8059091C905019603
:101FD0009093C9058093C80508958091C405909198
:101FE000C50501969093C5058093C405ECCFA1E289
:101FF0001A2EAA1BBB1BFD010DC0AA1FBB1FEE1F83
:10200000FF1FA217B307E407F50720F0A21BB30BCD
:10201000E40BF50B661F771F881F991F1A9469F749
:1020200060957095809590959B01AC01BD01CF01A5
:102030000895A29FB001B39FC001A39F700D811DA1
:102040001124911DB29F700D811D1124911D0895C1
:102050005058BB27AA270E9440100C9412110E94CE
:10206000041138F00E940B1120F039F49F3F19F44D
:1020700026F40C9401110EF4E095E7FB0C94FB1090
:10208000E92F0E94231158F3BA17620773078407D8
:10209000950720F079F4A6F50C9445110EF4E0951F
:1020A0000B2EBA2FA02D0B01B90190010C01CA0112
:1020B000A0011124FF27591B99F0593F50F4503EBD
:1020C00068F11A16F040A22F232F342F4427585FAF
:1020D000F3CF469537952795A795F0405395C9F7C7
:1020E0007EF41F16BA0B620B730B840BBAF091507F
:1020F000A1F0FF0FBB1F661F771F881FC2F70EC01E
:10210000BA0F621F731F841F48F4879577956795F0
:10211000B795F7959E3F08F0B0CF9395880F08F0DC
:102120009927EE0F9795879508950E94D71008F488
:1021300081E00895E89409C097FB3EF4909580955E
:10214000709561957F4F8F4F9F4F9923A9F0F92F7D
:1021500096E9BB279395F695879577956795B795FB
:10216000F111F8CFFAF4BB0F11F460FF1BC06F5FE1
:102170007F4F8F4F9F4F16C0882311F096E911C0F3
:10218000772321F09EE8872F762F05C0662371F014
:1021900096E8862F70E060E02AF09A95660F771F28
:1021A000881FDAF7880F9695879597F90895990F04
:1021B0000008550FAA0BE0E8FEEF16161706E80711
:1021C000F907C0F012161306E407F50798F0621B32
:1021D000730B840B950B39F40A2661F0232B242B07
:1021E000252B21F408950A2609F4A140A6958FEF26
:1021F000811D811D089597F99F6780E870E060E078
:1022000008959FEF80EC089500240A94161617068F
:1022100018060906089500240A94121613061406D7
:1022200005060895092E0394000C11F4882352F03A
:10223000BB0F40F4BF2B11F460FF04C06F5F7F4FF2
:102240008F4F9F4F089557FD9058440F551F59F0D9
:102250005F3F71F04795880F97FB991F61F09F3F93
:1022600079F087950895121613061406551FF2CFBC
:102270004695F1DF08C0161617061806991FF1CF0C
:1022800086957105610508940895E894BB27662733
:102290007727CB0197F908950E94D71008F48FEFA4
:0622A0000895F894FFCF41
:1022A600777C395E79713D74061E753855545C73BA
:1022B60067506D783E1C6A766E5B3F065B4F666DB7
:1022C6007D077F6F04000100010004000200040086
:1022D60053544F5000727365740069646C650065F1
:0422E6006E64200002
:00000001FF
