:100000000C9472000C9493000C9493000C947E0951
:100010000C9493000C9493000C9493000C94930014
:100020000C9493000C9493000C9493000C94930004
:100030000C9493000C9493000C9493000C949300F4
:100040000C9493000C9493000C9493000C949300E4
:100050000C9493000C9495000C9493000C949300D2
:100060000C9493000C94FE000C9429010C949300C2
:100070000C9493000C9493000C9493000C949300B4
:100080000C9493000C9493000C9493000C949300A4
:100090000C9493000C9493000C9493000C94930094
:1000A0000C9493000C9493000C9493000C94930084
:1000B0000C9493000C9493000C9493000C94930074
:1000C0000C9493000C9493000C9493000C94930064
:1000D0000C9493000C9493000C9493000C94930054
:1000E0000C94930011241FBECFEFD1E2DEBFCDBF31
:1000F00000E00CBF12E0A0E0B2E0E0E8F5E100E0D3
:100100000BBF02C007900D92A434B107D9F722E0CB
:10011000A4E4B2E001C01D92A238B207E1F70E9448
:1001200056050C94BE0A0C9400001F920F920FB655
:100130000F9211240BB60F922F933F934F935F931F
:100140006F937F938F939F93AF93BF93EF93FF939F
:10015000CF93DF9300D00F92CDB7DEB780914402EA
:1001600090914502A0914602B091470289839A83FB
:10017000AB83BC832FE632E143E85AE3BC01CD01F7
:100180000E94D309462F572F682F792F409344029E
:100190005093450260934602709347020F900F9070
:1001A0000F900F90DF91CF91FF91EF91BF91AF91A1
:1001B0009F918F917F916F915F914F913F912F917F
:1001C0000F900BBE0F900FBE0F901F9018951092BE
:1001D00044021092450210924602109247028AEFA2
:1001E00087BD85B5836085BD84B5826084BDEEE63C
:1001F000F0E0808182608083789408950F920FB63A
:100200000F928F939F93CF93DF930F92CDB7DEB76B
:100210008091C0008C71882331F081E090E0909350
:100220004902809348028091C60089838981813088
:1002300049F00F90DF91CF919F918F910F900FBE5A
:100240000F90189581E090E090934B0280934A02C2
:10025000F0CF1F921FB61F9211248F938BB78F93ED
:100260009F93EF93FF93E0914C02F0914D02E25B7C
:10027000FD4F80818093C60080914C0290914D0289
:10028000019690934D0280934C0280914C02909184
:100290004D0204977CF0E1ECF0E080818F7D80835B
:1002A00010924D0210924C0281E090E09093530224
:1002B00080935202FF91EF919F918F918BBF8F910D
:1002C0001F901FBE1F901895CF93DF93109253027B
:1002D00010925202E1ECF0E080818F778083808180
:1002E0008F7E80838081877F8083A4E6B0E08C91BD
:1002F0008D7F8C93A2ECB0E08C918F7B8C938C9152
:100300008F778C9387E690E09093C5008093C4002C
:10031000C0ECD0E088818D7F88838C918E7F8C9318
:100320008C918E7F8C938C91877F8C9380818E7F34
:1003300080838C918C938C9181608C938881837E57
:1003400088838081806880837894808180618083C5
:1003500080818860808381E090E090935302809355
:100360005202DF91CF910895382F292F80915202A8
:10037000909153020097E1F01092530210925202B2
:10038000E32FF22F80E090E02191DC01A25BBD4FD2
:100390002C93019684309105B9F7E1ECF0E080816F
:1003A0008062808310924B0210924A0281E090E0BA
:1003B0000895CF93DF9300D00F92CDB7DEB791E0D1
:1003C00099838A836B834C83CE0101960E94B4018A
:1003D0000F900F900F900F90DF91CF910895CF93D2
:1003E000DF9300D00F92CDB7DEB792E099838A8376
:1003F0006B834C83CE0101960E94B4010F900F9045
:100400000F900F90DF91CF910895CF93DF9300D09D
:100410000F92CDB7DEB793E099838A836B834C83C9
:10042000CE0101960E94B4010F900F900F900F9093
:10043000DF91CF910895869A879A859A08958F982B
:1004400047E050E0E1E0F0E070E06C5F7F4F8E98B5
:100450008D9891B39F01042E02C0220F331F0A947E
:10046000E2F7062E02C0359527950A94E2F7A1E03F
:100470002A2721702295220F207E292B21BB8E9ABC
:100480004150510920F747E050E0682F70E08E9806
:100490008D9891B39B01042E02C0359527950A943F
:1004A000E2F7220F331F22953295307F3227207FCB
:1004B00032272072922B91BB8E9A4150510938F706
:1004C0008F9A0895E82F9FEB980F9A3138F09FE9A3
:1004D000980F9A3160F0803299F008950E2E000C3A
:1004E000FF0BE154FE4F80810E941F0208950E2EE3
:1004F000000CFF0BE156FE4F80810E941F02089501
:1005000080E00E941F02E9CF0F931F93CF93082F23
:10051000192FC0E06C2FF80181918F010E946202B7
:100520008FE99FE00197F1F700C00000CF5FC43072
:1005300089F760E080E00E941F02CF911F910F9128
:1005400008951F93CF93DF93C82FD92F13E09E01F7
:10055000ADECBCEC0E94C3099C01369527953695FD
:10056000279536952795C901880F991F880F991FE0
:10057000820F931F880F991FFE01E81BF90BE65E9F
:10058000FD4F612F80810E941F029E01ADECBCECEB
:100590000E94C309EC01D695C795D695C795D69507
:1005A000C7958FE99FE00197F1F700C00000115057
:1005B00070F660E080E00E941F02DF91CF911F91F2
:1005C0000895E7E0F1E080818E7F80830895CF92E7
:1005D000DF92EF92FF92CF93DF9300D00F92CDB7CF
:1005E000DEB720914402309145024091460250917D
:1005F0004702609156027091570280915802909183
:1006000059020E94B90A181644F410925602109228
:10061000570210925802109259028091060180FDF3
:1006200043C08091540290915502892B09F055C026
:10063000C0904402D0904502E0904602F0904702FC
:100640002DEC3CEC4CE45DE3609156027091570256
:1006500080915802909159020E94D309A7019601F6
:1006600069837A838B839C8369817A818B819C8166
:100670000E943F0A88230CF06DC081E090E09093C7
:100680005502809354028091440290914502A091BA
:100690004602B09147028093560290935702A0936E
:1006A0005802B09359020AC08091060180FF06C02B
:1006B0008091540290915502892B99F480915402B3
:1006C000909155020F900F900F900F90DF91CF9166
:1006D000FF90EF90DF90CF9008958091060180FF0A
:1006E000EDCFC0904402D0904502E0904602F090D9
:1006F00047022DEC3CEC4CE45DE3609156027091B6
:10070000570280915802909159020E94D309A70183
:10071000960169837A838B839C8369817A818B813B
:100720009C810E943F0A88234CF610925502109239
:1007300054028091440290914502A0914602B091EA
:1007400047028093560290935702A0935802B093A9
:100750005902B4CF80910601B1CF83B3836083BBCC
:1007600084B3836084BB0895CF92DF92EF92FF92AF
:10077000CF93DF9300D00F92CDB7DEB7282F392F5C
:100780002115310509F467C080E090E02130310582
:1007900009F0CEC0209144023091450240914602BA
:1007A0005091470260915C0270915D0280915E02FF
:1007B00090915F020E94B90A181644F410925C02EC
:1007C00010925D0210925E0210925F029099BBC07F
:1007D00080915A0290915B02892B09F000C1C09070
:1007E0004402D0904502E0904602F09047022BE090
:1007F00037ED43E25CE360915C0270915D028091B1
:100800005E0290915F020E94D309A701960169835D
:100810007A838B839C8369817A818B819C810E94FE
:100820003F0A88230CF017C181E090E090935B02AF
:1008300080935A028091440290914502A091460211
:10084000B091470280935C0290935D02A0935E0298
:10085000B0935F0281C020914402309145024091E3
:10086000460250914702609162027091630280914A
:100870006402909165020E94B90A181644F410921D
:1008800062021092630210926402109265029199C2
:1008900043C08091600290916102892B09F061C090
:1008A000C0904402D0904502E0904602F09047028A
:1008B0002BE037ED43E25CE36091620270916302EA
:1008C00080916402909165020E94D309A70196016C
:1008D00069837A838B839C8369817A818B819C81F4
:1008E0000E943F0A88230CF078C081E090E090934A
:1008F0006102809360028091440290914502A09130
:100900004602B09147028093620290936302A093E3
:100910006402B093650208C0919B06C0809160029A
:1009200090916102892BF9F48091600290916102AB
:100930000F900F900F900F90DF91CF91FF90EF905D
:10094000DF90CF900895909B07C080915A029091BC
:100950005B02892B09F045C080915A0290915B029D
:10096000E7CF919BE1CFC0904402D0904502E09048
:100970004602F09047022BE037ED43E25CE36091E2
:1009800062027091630280916402909165020E94FC
:10099000D309A701960169837A838B839C8369813C
:1009A0007A818B819C810E943F0A88230CF0BCCF06
:1009B000109261021092600280914402909145026F
:1009C000A0914602B0914702809362029093630225
:1009D000A0936402B0936502A7CF82B3A5CF909B8A
:1009E000BBCFC0904402D0904502E0904602F09008
:1009F00047022BE037ED43E25CE360915C027091CB
:100A00005D0280915E0290915F020E94D309A7016E
:100A1000960169837A838B839C8369817A818B8138
:100A20009C810E943F0A88230CF096CF10925B02B3
:100A300010925A028091440290914502A091460280
:100A4000B091470280935C0290935D02A0935E0296
:100A5000B0935F0281CF82B37FCF84B18F7984B9A5
:100A600085B18F7985B908950E94E702019781F0D9
:100A70000E94E70281E090E00E94B403892B89F094
:100A80002E9A81E090E00E94B403892B41F00895F2
:100A90002D9A0E94E702892B69F72D98EBCF2E98AB
:100AA000089581E090E00E94B403089500D000D042
:100AB0000F920F92CDB7DEB780904402909045021E
:100AC000A0904602B090470201E010E08FEF9FEF48
:100AD00033243394212C06C03F82288653014201DF
:100AE0008F819885C0904402D0904502E0904602E4
:100AF000F0904702409044025090450260904602B8
:100B000070904702209128023091290238872F8364
:100B10002230310509F47CC020F1AF81B885A330C3
:100B2000B10509F491C01497C9F6049709F0AEC352
:100B30008FE392E00E94840280E090E00E94B40380
:100B4000892B61F23092280220922902C7CF8C01B2
:100B5000C5CF8C01C3CF8C01C1CF8C01BFCF8C011D
:100B6000BDCF232BB1F0019799F585E392E00E9468
:100B7000840280E090E00E94B403892B09F0ACCF9E
:100B800082E090E090932902809328023F82288699
:100B9000A5CF4FEF60E08FE70E94D901892BC9F301
:100BA0008091440290914502A0914602B091470283
:100BB00080E392E00E94840280E090E00E94B4030F
:100BC000892B09F48BCF309228022092290286CFFC
:100BD0000E94E7000E94E1020E942D050E94AD03E1
:100BE0000E9464014FEF60E08FE70E94D901892BDA
:100BF000C9F360E080E00E941F02032D122D50E037
:100C000040E030E020E0452E542E632E722EADCF12
:100C1000029791F48AE392E00E94840280E090E0DF
:100C20000E94B403892B09F459CF83E090E090939C
:100C300029028093280252CF4FEF60E08FE70E9495
:100C4000D901892BC9F3E6CF109227021092260210
:100C50000115110509F45FC010927D0210927C020B
:100C6000A3E0B0E0B0932502A093240210927B028F
:100C700010927A023092260220922702809144023A
:100C800090914502A0914602B0914702809376026E
:100C900090937702A0937802B09379024FEF6FE0C0
:100CA0008FEF0E94D901892BC9F380917C0290912A
:100CB0007D02029709F4CCC0A5019401C701B601D9
:100CC0000E94D209162F072FF82EE92E8091740268
:100CD00090917502892B09F4EDC080916E0290917C
:100CE0006F02892B09F420C1212F302F4F2D5E2D4B
:100CF0006091700270917102809172029091730202
:100D00000E94D30960937002709371028093720203
:100D100090937302F1C020917A0230917B022115E9
:100D2000310509F4BBC280917C0290917D0201964D
:100D300090937D0280937C02833091054CF024E0F7
:100D400030E03093290220932802032D122DC6CEC5
:100D5000880F991FFC01E65DFD4F80819181909382
:100D600025028093240230922602209227021092BC
:100D70007B0210927A028430910509F42EC2D8F4D5
:100D80008230910509F44EC28330910509F476CF83
:100D9000019709F0A3CE8091440290914502A09161
:100DA0004602B09147024FEF6FE081E00E94EF01F1
:100DB000892BC9F329C28530910509F457C20697DA
:100DC00009F08CCE8091440290914502A091460298
:100DD000B09147024FEF6FE082E00E940502892B3D
:100DE000C9F374C28130910509F407C20297A9F4CE
:100DF0008091260290912702892B09F013C28091DD
:100E00004A0290914B02009709F4A5CE81E090E050
:100E100090937B0280937A0261CE89015FCE049722
:100E2000A9F48091260290912702892B09F0D5C15F
:100E300080914A0290914B02009709F488CE81E09C
:100E400090E090937B0280937A0248CE890146CE4F
:100E5000C0904402D0904502E0904602F0904702D4
:100E600020E030E040E85FE3609176027091770225
:100E700080917802909179020E94D309A70196018E
:100E800069837A838B839C8369817A818B819C813E
:100E90000E943F0A8823BCF54FEF60E08FE70E9475
:100EA000D901892BC9F381E090E090937B02809374
:100EB0007A0229C00E94E702892BB9F0809144028E
:100EC00090914502A0914602B09147028093700232
:100ED00090937102A0937202B093730281E090E04C
:100EE0009093750280937402F8CE80917402909171
:100EF0007502892B09F0F1CE80916A0290916B0204
:100F0000892B09F0CCC000914A0210914B020115C7
:100F1000110509F4E3CD81E090E090937B0280938A
:100F20007A0200E010E0DACD2DEC3CEC4CEC5DE315
:100F300060917002709171028091720290917302BF
:100F40000E94D3092091440230914502409146020B
:100F50005091470269837A838B839C8369817A816C
:100F60008B819C810E94B90A181634F220E030E08F
:100F700040E85FE369817A818B819C810E94D3097B
:100F8000C62ED72E8D839E83209144023091450238
:100F9000409146025091470269837A838B839C83F8
:100FA00069817A818B819C810E94B90A181694F517
:100FB00080916C0290916D02892BF1F080916A0210
:100FC00090916B02892B09F49ECF212F302F4F2D4A
:100FD0005E2D609166027091670280916802909127
:100FE00069020E94D309609366027093670280933E
:100FF00068029093690287CF4FEF60E08FE70E940D
:10100000D901892BC9F381E090E090936D02809320
:101010006C02D4CF8090440290904502A09046028A
:10102000B090470220E030E040E05FE3C982DA821E
:101030008D818B839E819C8369817A818B819C8148
:101040000E94D309E62FA5019401E9837A838B835B
:101050009C8369817A818B819C810E94B90A1816D0
:10106000CCF480916C0290916D02892B39F48091BF
:101070006A0290916B02892BC9F445CF4FEF6FE064
:101080008FEF0E94D901892BC9F310926D02109243
:101090006C02EDCF10927502109274022DCF8091E8
:1010A0006C0290916D02892B09F08FCF2DEC3CECF6
:1010B0004CEC5DE36091660270916702809168027A
:1010C000909169020E94D309209144023091450217
:1010D000409146025091470269837A838B839C83B7
:1010E00069817A818B819C810E94B90A18160CF45F
:1010F0000ACF20E030E040E85FE369817A818B81AC
:101100009C810E94D309E62EF72E082F192F2091DB
:101110004402309145024091460250914702698352
:101120007A838B839C8369817A818B819C810E94E5
:10113000B90A1816ACF480916E0290916F02892B57
:1011400009F0E1CE4FEF60E08FE70E94D901892BD3
:10115000C9F381E090E090936F0280936E02D3CE4A
:101160008090440290904502A0904602B0904702C1
:1011700020E030E040E05FE3E982FA820B831C83E9
:1011800069817A818B819C810E94D309E62FA50118
:101190009401E9837A838B839C8369817A818B8133
:1011A0009C810E94B90A18169CF480916E0290915D
:1011B0006F02892B09F4A7CE4FEF6FE08FEF0E94EB
:1011C000D901892BC9F310926F0210926E029BCE47
:1011D00010926B0210926A0296CE80914402909116
:1011E0004502A0914602B09147024FEF6FE080E0C8
:1011F0000E94D901892BC9F31BCE809126029091C0
:101200002702892B09F0C7CD80914A0290914B02A9
:10121000009709F49ECC81E090E090937B0280934C
:101220007A025CCC8091440290914502A0914602E2
:10123000B09147024FEF6FE082E00E94EF01892BEF
:10124000C9F3DDCD8091260290912702892B71F49C
:1012500080914A0290914B02009709F47ECC81E084
:1012600090E090937B0280937A0238CC8091440284
:1012700090914502A0914602B09147024FEF6FE076
:1012800081E00E940502892BC9F3E2CF4FEF60E0B5
:101290008FE70E94D901892BC9F34ACC809124029F
:1012A000909125028330910509F4FFCC08F49ACD82
:1012B0008530910539F28630910509F0B0CD8091E5
:1012C000260290912702892B09F07CCD80914A0259
:1012D00090914B02009709F442CC81E090E090930A
:1012E0007B0280937A02FACB22982A9AE9E6F0E010
:1012F000808185608083E99A789408951F921FB653
:101300001F9211242F938F939F9310922902109272
:1013100028022FEF89EF90E0215080409040E1F7C4
:1013200000C000009F918F912F911F901FBE1F90B2
:1013300018958091800290918102892B49F00E943A
:10134000E702892BF9F410928102109280021AC0F0
:101350000E94E702892B81F081E090E09093810266
:101360008093800280917E0290917F0201969093FB
:101370007F0280937E020895809180029091810285
:10138000892BE9F60895A29FB001B39FC001A39FE6
:10139000700D811D1124911DB29F700D811D1124AE
:1013A000911D08955058BB27AA270E94EA090C9462
:1013B0007F0A0E94710A38F00E94780A20F039F4FE
:1013C0009F3F19F426F40C946E0A0EF4E095E7FBA7
:1013D0000C94680AE92F0E94900A58F3BA17620722
:1013E00073078407950720F079F4A6F50C94B20AE8
:1013F0000EF4E0950B2EBA2FA02D0B01B901900130
:101400000C01CA01A0011124FF27591B99F0593F73
:1014100050F4503E68F11A16F040A22F232F342FBB
:101420004427585FF3CF469537952795A795F04009
:101430005395C9F77EF41F16BA0B620B730B840B1E
:10144000BAF09150A1F0FF0FBB1F661F771F881FD6
:10145000C2F70EC0BA0F621F731F841F48F487952E
:1014600077956795B795F7959E3F08F0B0CF939520
:10147000880F08F09927EE0F9795879508950E9499
:10148000440A08F481E00895990F0008550FAA0B4B
:10149000E0E8FEEF16161706E807F907C0F0121687
:1014A0001306E407F50798F0621B730B840B950B8A
:1014B00039F40A2661F0232B242B252B21F40895DF
:1014C0000A2609F4A140A6958FEF811D811D08957C
:1014D00097F99F6780E870E060E008959FEF80ECE7
:1014E000089500240A94161617061806090608958A
:1014F00000240A9412161306140605060895092EF0
:101500000394000C11F4882352F0BB0F40F4BF2B5E
:1015100011F460FF04C06F5F7F4F8F4F9F4F08959E
:1015200057FD9058440F551F59F05F3F71F0479594
:10153000880F97FB991F61F09F3F79F08795089579
:10154000121613061406551FF2CF4695F1DF08C098
:10155000161617061806991FF1CF869571056105B5
:1015600008940895E894BB2766277727CB0197F95D
:1015700008950E94440A08F48FEF0895F894FFCF6D
:10158000777C395E79713D74061E753855545C73ED
:1015900067506D783E1C6A766E5B3F065B4F666DEA
:1015A0007D077F6F030001000100030006000300B8
:1015B00053544F5000727365740069646C65006524
:0415C0006E64200035
:00000001FF
