:100000000C9480000C94A1000C94A1000C94641238
:100010000C94A1000C94A1000C94A1000C94A100DC
:100020000C94A1000C94A1000C94A1000C94A100CC
:100030000C94A1000C94A1000C94A1000C94A100BC
:100040000C94A1000C94A1000C94A1000C94A100AC
:100050000C94A1000C94A3000C94A1000C94A1009A
:100060000C94A1000C940C010C94A1000C94A10020
:100070000C94A1000C94A1000C94A1000C94A1007C
:100080000C94A1000C94A1000C94A1000C94A1006C
:100090000C94A1000C94A1000C94A1000C94A1005C
:1000A0000C94A1000C9467140C94A1000C94A10072
:1000B0000C94A1000C94A1000C9456140C94A10073
:1000C0000C94A1000C94A1000C94A1000C94A1002C
:1000D0000C94A1000C94A1000C94A1000C94A1001C
:1000E0000C94A1000C94E6080C949A060C94E20778
:1000F0000C944F0A0C943C080C94C7070C9491067E
:1001000011241FBECFEFD1E2DEBFCDBF00E00CBF98
:1001100012E0A0E0B2E0EEE0F1E300E00BBF02C0CD
:1001200007900D92AC32B107D9F722E0ACE2B2E011
:1001300001C01D92A63AB207E1F70E944E060C9448
:100140007E180C9400001F920F920FB60F9211248C
:100150000BB60F922F933F934F935F936F937F93C1
:100160008F939F93AF93BF93EF93FF93CF93DF93BF
:1001700000D00F92CDB7DEB780912C0290912D0266
:10018000A0912E02B0912F0289839A83AB83BC8306
:100190002FE632E143E85AE3BC01CD010E9441164B
:1001A000462F572F682F792F40932C0250932D0202
:1001B00060932E0270932F020F900F900F900F906C
:1001C000DF91CF91FF91EF91BF91AF919F918F916F
:1001D0007F916F915F914F913F912F910F900BBE47
:1001E0000F900FBE0F901F90189510922C02109236
:1001F0002D0210922E0210922F028AEF87BD85B534
:10020000836085BD84B5826084BDEEE6F0E08081C8
:1002100082608083789408950F920FB60F921F9298
:1002200011242F932BB72F938F939F93AF93BF934B
:10023000EF93FF93CF93DF930F92CDB7DEB780910B
:10024000C0008C71882331F081E090E090933802F7
:10025000809337028091C600898380913902909102
:100260003A022981FC01E55CFD4F20830196843030
:1002700091052CF490933A02809339021FC010929A
:100280003A0210923902ABE3B2E08C91082E000CD6
:10029000990BE0E3F2E09183808311968C911197A2
:1002A000828312968C911297838313968C91848308
:1002B00081E090E090933602809335020F90DF91B9
:1002C000CF91FF91EF91BF91AF919F918F912F911E
:1002D0002BBF2F911F900F900FBE0F901895CF93AB
:1002E000DF93E1ECF0E080818F77808380818F7EE7
:1002F00080838081877F8083A4E6B0E08C918D7FAE
:100300008C93A2ECB0E08C918F7B8C938C918F7747
:100310008C9387E690E09093C5008093C400C0EC76
:10032000D0E088818D7F88838C918E7F8C938C9197
:100330008E7F8C938C91877F8C9380818E7F80833E
:100340008C918C938C9181608C938881837E88833F
:1003500080818068808378948081806180838081BF
:1003600088608083DF91CF9108959091C00095FFC0
:1003700005C08093C60081E090E0089580E090E0A1
:10038000089581E00E94B5010895869A879A859A1A
:1003900008958F9847E050E0E1E0F0E070E06C5F96
:1003A0007F4F8E988D9891B39F01042E02C0220F2B
:1003B000331F0A94E2F7062E02C0359527950A945A
:1003C000E2F7A1E02A2721702295220F207E292B17
:1003D00021BB8E9A4150510920F747E050E0682F29
:1003E00070E08E988D9891B39B01042E02C03595D4
:1003F00027950A94E2F7220F331F22953295307F1A
:100400003227207F32272072922B91BB8E9A415047
:10041000510938F78F9A0895E82F9FEB980F9A317A
:1004200038F09FE9980F9A3160F0803299F0089582
:100430000E2E000CFF0BE154FE4F80810E94C9017B
:1004400008950E2E000CFF0BE156FE4F80810E9496
:10045000C901089580E00E94C901E9CF0F931F935D
:10046000CF93082F192FC0E06C2FF80181918F01D5
:100470000E940C028FE99FE00197F1F700C0000095
:10048000CF5FC43089F760E080E00E94C901CF915E
:100490001F910F9108951F93CF93DF93C82FD92FEA
:1004A00013E09E01ADECBCEC0E9431169C01369528
:1004B00027953695279536952795C901880F991F59
:1004C000880F991F820F931F880F991FFE01E81B49
:1004D000F90BE65EFD4F612F80810E94C9019E01EC
:1004E000ADECBCEC0E943116EC01D695C795D695C3
:1004F000C795D695C7958FE99FE00197F1F700C0A2
:100500000000115070F660E080E00E94C901DF91A8
:10051000CF911F910895E7E0F1E080818C7F808387
:100520000895CF92DF92EF92FF92CF93DF9300D0A6
:100530000F92CDB7DEB720912C0230912D02409161
:100540002E0250912F0260914702709148028091D3
:10055000490290914A020E940C18181644F4109215
:100560004702109248021092490210924A0280916A
:10057000060180FD43C08091450290914602892B7F
:1005800009F055C0C0902C02D0902D02E0902E02B0
:10059000F0902F022DEC3CEC4CE45DE360914702BF
:1005A000709148028091490290914A020E9441163E
:1005B000A701960169837A838B839C8369817A8101
:1005C0008B819C810E94AD1688230CF06DC081E068
:1005D00090E0909346028093450280912C02909186
:1005E0002D02A0912E02B0912F028093470290938A
:1005F0004802A0934902B0934A020AC080910601C2
:1006000080FF06C08091450290914602892B99F4A3
:1006100080914502909146020F900F900F900F909D
:10062000DF91CF91FF90EF90DF90CF900895809170
:10063000060180FFEDCFC0902C02D0902D02E090FB
:100640002E02F0902F022DEC3CEC4CE45DE3609127
:100650004702709148028091490290914A020E949B
:100660004116A701960169837A838B839C836981F4
:100670007A818B819C810E94AD1688234CF6109262
:1006800046021092450280912C0290912D02A09179
:100690002E02B0912F028093470290934802A093BC
:1006A0004902B0934A02B4CF80910601B1CFCF92F4
:1006B000DF92EF92FF92CF93DF9300D00F92CDB7EE
:1006C000DEB720912C0230912D0240912E025091E4
:1006D0002F026091410270914202809143029091F9
:1006E00044020E940C18181644F410924102109211
:1006F000420210924302109244028091060181FD51
:1007000043C080913F0290914002892B09F055C06F
:10071000C0902C02D0902D02E0902E02F0902F027B
:100720002DEC3CEC4CE45DE360914102709142029F
:1007300080914302909144020E944116A7019601C4
:1007400069837A838B839C8369817A818B819C8185
:100750000E94AD1688230CF06DC081E090E090936C
:10076000400280933F0280912C0290912D02A09133
:100770002E02B0912F028093410290934202A093E7
:100780004302B09344020AC08091060181FF06C073
:1007900080913F0290914002892B99F480913F0211
:1007A000909140020F900F900F900F90DF91CF919A
:1007B000FF90EF90DF90CF9008958091060181FF28
:1007C000EDCFC0902C02D0902D02E0902E02F09040
:1007D0002F022DEC3CEC4CE45DE360914102709102
:1007E000420280914302909144020E944116A70167
:1007F000960169837A838B839C8369817A818B815B
:100800009C810E94AD1688234CF6109240021092F3
:100810003F0280912C0290912D02A0912E02B09166
:100820002F028093410290934202A0934302B0931F
:100830004402B4CF80910601B1CF80B3876080BB02
:1008400081B3876081BB0895CF92DF92EF92FF92D0
:10085000CF93DF9300D00F92CDB7DEB7282F392F7B
:100860002130310509F482C02230310509F4EDC090
:1008700080E090E0232B59F00F900F900F900F9095
:10088000DF91CF91FF90EF90DF90CF90089520916E
:100890002C0230912D0240912E0250912F02609136
:1008A000590270915A0280915B0290915C020E9401
:1008B0000C18181644F41092590210925A02109211
:1008C0005B0210925C02789943C08091570290912C
:1008D0005802892B09F028C1C0902C02D0902D021B
:1008E000E0902E02F0902F022BE037ED43E25CE324
:1008F0006091590270915A0280915B0290915C0262
:100900000E944116A701960169837A838B839C8399
:1009100069817A818B819C810E94AD1688230CF0BD
:100920003FC181E090E090935802809357028091FC
:100930002C0290912D02A0912E02B0912F02809353
:10094000590290935A02A0935B02B0935C0209C0D3
:10095000789B07C08091570290915802892B09F02B
:10096000E5C0809157029091580286CF20912C02C9
:1009700030912D0240912E0250912F02609153022E
:100980007091540280915502909156020E940C1869
:10099000181644F410925302109254021092550209
:1009A000109256027A9943C080915102909152025E
:1009B000892B09F0F7C0C0902C02D0902D02E09056
:1009C0002E02F0902F022BE037ED43E25CE36091C2
:1009D00053027091540280915502909156020E94E8
:1009E0004116A701960169837A838B839C83698171
:1009F0007A818B819C810E94AD1688230CF00EC1F8
:100A000081E090E0909352028093510280912C02F9
:100A100090912D02A0912E02B0912F02809353024B
:100A200090935402A0935502B093560209C07A9B4A
:100A300007C08091510290915202892B09F0B4C0F5
:100A4000809151029091520217CF20912C02309147
:100A50002D0240912E0250912F0260914D02709113
:100A60004E0280914F02909150020E940C1818166D
:100A700044F410924D0210924E0210924F021092C6
:100A80005002799943C080914B0290914C02892B7E
:100A900009F0C8C0C0902C02D0902D02E0902E0228
:100AA000F0902F022BE037ED43E25CE360914D02C2
:100AB00070914E0280914F02909150020E94411617
:100AC000A701960169837A838B839C8369817A81EC
:100AD0008B819C810E94AD1688230CF0A1C081E01F
:100AE00090E090934C0280934B0280912C02909165
:100AF0002D02A0912E02B0912F0280934D0290936F
:100B00004E02A0934F02B093500209C0799B07C0D8
:100B100080914B0290914C02892B09F085C0809105
:100B20004B0290914C02A8CE789B1BCFC0902C0218
:100B3000D0902D02E0902E02F0902F022BE037EDA6
:100B400043E25CE36091590270915A0280915B022A
:100B500090915C020E944116A701960169837A83F5
:100B60008B839C8369817A818B819C810E94AD16E5
:100B700088230CF0F6CE1092580210925702809102
:100B80002C0290912D02A0912E02B0912F02809301
:100B9000590290935A02A0935B02B0935C02E1CE9B
:100BA0008FB1DFCE7A9B4CCFC0902C02D0902D021B
:100BB000E0902E02F0902F022BE037ED43E25CE351
:100BC00060915302709154028091550290915602A7
:100BD0000E944116A701960169837A838B839C83C7
:100BE00069817A818B819C810E94AD1688230CF0EB
:100BF00027CF109252021092510280912C029091B4
:100C00002D02A0912E02B0912F0280935302909357
:100C10005402A0935502B093560212CF8FB110CF59
:100C20008FB17DCF799B7BCFC0902C02D0902D02CD
:100C3000E0902E02F0902F022BE037ED43E25CE3D0
:100C400060914D0270914E0280914F02909150023E
:100C50000E944116A701960169837A838B839C8346
:100C600069817A818B819C810E94AD1688230CF06A
:100C700056CF10924C0210924B0280912C02909110
:100C80002D02A0912E02B0912F0280934D029093DD
:100C90004E02A0934F02B093500241CF00D000D03B
:100CA0000F92CDB7DEB700912402109125020F2ECE
:100CB000F0E3EF2EF2E0FF2EF02D0F2EF5E08F2E59
:100CC000F02D912C412C512C6894662467F80F2E3E
:100CD000FFE37F2EF02D6894AA24A1F8B12C2224E2
:100CE0002394312C0F2EFFE6CF2EF2E0DF2EF02DD5
:100CF00052C10D811E814FC10E94A511892B09F09F
:100D000051C185E0F701D60101900D928A95E1F776
:100D1000D6018D919C91039749F0A0922402B09244
:100D200025020E94890A0A2D1B2D35C180922402BA
:100D3000909225020115110559F10530110541F177
:100D40008091740290917502A0917602B091770221
:100D50008093650290936602A0936702B093680245
:100D60001092610210926202109263021092640269
:100D70008091780290917902A0917A02B0917B02E1
:100D800080935D0290935E02A0935F02B093600235
:100D9000F701828162E170E0082E000C990B0E943D
:100DA000A40A20E030E0A901609161027091620222
:100DB00080916302909164020E94AD16882309F429
:100DC0006AC22091610230916202409163025091A7
:100DD0006402609165027091660280916702909151
:100DE00068020E944116262F372F482F592F6091F5
:100DF00074027091750280917602909177020E9440
:100E00004016062F172F8F839D8322EF30EB40E98A
:100E10005EE369837A838B839C8369817A818B818A
:100E20009C810E94AD1688230CF497C222EF30EB10
:100E300040E15FE309831A83BF81BB83ED81EC83CB
:100E400069817A818B819C810E94AD1688230CF484
:100E5000AEC220E030E0A90160915D0270915E02B7
:100E600080915F02909160020E94AD168111CAC20A
:100E7000742D652D962D872D392F282F872F962F8E
:100E8000A32FB22F8093780290937902A0937A02D5
:100E9000B0937B02F7018381282F880F330B440B1B
:100EA000550B29833A834B835C83CA01B9010E94A5
:100EB0005C1769837A838B839C8369817A818B81B8
:100EC0009C810E9409112091650230916602409137
:100ED000670250916802609174027091750280916E
:100EE0007602909177020E944016062F172F8F836B
:100EF0009D838091610290916202A0916302B09102
:100F0000640289839A83AB83BC839C01AD01BC01DD
:100F1000CD010E94411622EF30EB40E95FE3698387
:100F20007A838B839C8369817A818B819C810E94E7
:100F30004116262F372F482F592F09831A839F8157
:100F40009B83AD81AC8369817A818B819C810E9476
:100F5000AD1688239CF40E943D1520E030E040E768
:100F600051E469837A838B839C8369817A818B8145
:100F70009C810E94AD1688230CF449C260E070E0A9
:100F800083E090E00E94A40A082D192D04C00E945D
:100F9000890A0D811E818091350290913602892B3C
:100FA00009F0AACEE0912402F0912502FE83ED83A0
:100FB000E730F10508F09DCE8827E058F74E8F4FB7
:100FC0000C94291680916D0290916E02892B49F143
:100FD00086E292E00E942E0280E090E00E942404CB
:100FE0000D811E81892BB9F6822D932D0E94240438
:100FF0000D811E81892B79F68A2D9B2D0E94240458
:101000000D811E81892B39F610926E0210926D02AD
:1010100082E090E090932502809324020D811E814E
:10102000BACF0E94F5000E9437150E9451140E9409
:10103000540A60E070E080E490E40E94091160E0EE
:1010400070E080E490E40E9452110E948B021092A2
:101050009702109296020E94C5010E941D040E94F0
:101060006F010E94890A60E080E00E94C90120921D
:101070006D0230926E02ACCFD60112968C918F37F2
:1010800009F470C0742D652D962D872D392F282FCA
:10109000872F962FA32FB22F8093780290937902F7
:1010A000A0937A02B0937B02F6018381282F880FE8
:1010B000330B440B550B29833A834B835C83CA0162
:1010C000B9010E945C1769837A838B839C83698151
:1010D0007A818B819C810E9409110E943D1520E03C
:1010E00030E040E751E469837A838B839C83698194
:1010F0007A818B819C810E940C18181694F40E94AE
:10110000B31520E030E040E751E469837A838B83B4
:101110009C8369817A818B819C810E940C181816AE
:1011200034F10E943D1520E030E040E751E469834E
:101130007A838B839C8369817A818B819C810E94D5
:101140000C181816ECF40E94B31569837A838B830C
:101150009C8369817A818B819C810E942E100D81F4
:101160001E8119CF70E060E090E080E08FCF0E9498
:10117000C101A0922402B09225020D811E810BCFE5
:101180000E94B31520E030E040E751E469837A83A0
:101190008B839C8369817A818B819C810E940C184E
:1011A00018167CF40E943D1569837A838B839C8397
:1011B00069817A818B819C810E94530F0D811E81F0
:1011C000EACE0E94960E0D811E81E5CE0B7F012B8B
:1011D00081F08091740290917502A0917602B09195
:1011E00077028093690290936A02A0936B02B09396
:1011F0006C02D70113968C91282F880F330B440B68
:10120000550B29833A834B835C83CA01B9010E9441
:101210005C1769837A838B839C8369817A818B8154
:101220009C810E940911D70112968C9162E170E0B5
:10123000082E000C990B0E94A40A2091690230919B
:101240006A0240916B0250916C026091740270913D
:10125000750280917602909177020E94401622EFEB
:1012600030EB40E15FE369837A838B839C83698100
:101270007A818B819C810E940C180D811E81181629
:101280000CF089CE0E94C101A0922402B0922502E6
:101290000D811E8180CED70113968C91282F880F47
:1012A000330B440B550B29833A834B835C83CA0170
:1012B000B9010E945C1769837A838B839C8369815F
:1012C0007A818B819C810E9409110E94960ED70120
:1012D00012968C91823071F10E943D1520E030E031
:1012E00040E751E469837A838B839C8369817A81A7
:1012F0008B819C810E940C1818160CF062CD2091F5
:1013000065023091660240916702509168026091D7
:1013100074027091750280917602909177020E941A
:10132000401660936102709362028093630290930F
:10133000640247CD0E94B31520E030E040E751E45D
:1013400069837A838B839C8369817A818B819C8179
:101350000E940C1818169CF234CDF7018381282FB7
:10136000880F330B440B550B29833A834B835C83E3
:10137000CA01B9010E945C1769837A838B839C83BD
:1013800069817A818B819C810E940911D701129613
:101390008C91823049F0822D932D62E170E00E94A1
:1013A000A40A082D192DF7CD8A2D9B2DF6CFD70134
:1013B00013968C91282F880F330B440B550B2983E0
:1013C0003A834B835C83CA01B9010E945C1769832D
:1013D0007A838B839C8369817A818B819C810E9433
:1013E0000911D70112968C91823049F08A2D9B2DDC
:1013F00062E170E00E94A40A082D192DCCCD81E095
:1014000090E0F6CF70E060E090E080E035CD0E94A3
:10141000B31520E030E040E751E469837A838B83A1
:101420009C8369817A818B819C810E94AD1688237F
:101430000CF0A4CD0E943D1520E030E040E751E4DF
:1014400069837A838B839C8369817A818B819C8178
:101450000E940C1818169CF40E94B315E62F20E089
:1014600030E040E751E4E9837A838B839C83698190
:101470007A818B819C810E940C1818162CF00E9496
:10148000960E05E010E087CD0E94C10182E090E059
:10149000909325028093240205E010E07CCD0E9409
:1014A000890A0D811E8177CD1092800210928102EF
:1014B000109282021092830210928C0210928D027E
:1014C00010928E0210928F0280E090E0A0E8BFE3BD
:1014D00080937C0290937D02A0937E02B0937F0262
:1014E0001092740210927502109276021092770296
:1014F00080912C0290912D02A0912E02B0912F028A
:101500008093880290938902A0938A02B0938B0201
:10151000089560E070E0CB010E94C31260E070E0CB
:10152000CB010E948A1310928002109281021092C5
:1015300082021092830210928C0210928D021092FD
:101540008E0210928F0208954F925F926F927F9257
:101550008F929F92AF92BF92EF92FF920F931F9341
:10156000CF93DF9300D000D000D0CDB7DEB7082FE7
:10157000192FE62EF72E80912C0290912D02A0912A
:101580002E02B0912F0289839A83AB83BC83809013
:10159000880290908902A0908A02B0908B02A501E7
:1015A0009401BC01CD010E9440162091840230912B
:1015B0008502409186025091870269837A838B83EA
:1015C0009C8369817A818B819C810E941118262FCE
:1015D000372F482F592F60917402709175028091B6
:1015E0007602909177020E94411660937402709384
:1015F0007502809376029093770280918C0290918D
:101600008D02A0918E02B0918F0289839A83AB8361
:10161000BC83409080025090810260908202709062
:101620008302A3019201BC01CD010E94AD16882363
:101630000CF093C080912C0290912D02A0912E026B
:10164000B0912F028D839E83AF83B887A50194014B
:10165000BC01CD010E94401620917C0230917D0298
:1016600040917E0250917F026D837E838F839887A5
:101670006D817E818F8198850E94111829813A8120
:101680004B815C8169837A838B839C8369817A81B6
:101690008B819C810E944116A62EB72E8D83998343
:1016A000262F372F482F592FC301B2010E94AD16A4
:1016B00088230CF449C08A2D9B2DAD81B98180937C
:1016C0008C0290938D02A0938E02B0938F02809132
:1016D0002C0290912D02A0912E02B0912F028093A6
:1016E000880290938902A0938A02B0938B02ED82C4
:1016F000FE82AD81BE81199724F489E090E09E833B
:101700008D830230110509F49AC10330110509F4E3
:1017100086C20130110509F482C060E070E0CB019F
:101720000E94C31260E070E0CB010E948A13109205
:101730008C0210928D0210928E0210928F0230E075
:1017400020E080E090E05AC140928C0250928D02DD
:1017500060928E0270928F02BACFA30192016981CA
:101760007A818B819C810E940C1818160CF0AFCFE7
:1017700080912C0290912D02A0912E02B0912F0207
:101780008D839E83AF83B887A5019401BC01CD01F1
:101790000E94401620917C0230917D0240917E0291
:1017A00050917F026D837E838F8398876D817E81C8
:1017B0008F8198850E941118262F372F482F592F77
:1017C00069817A818B819C810E944016A62EB72E5A
:1017D00089879D8320E030E0A90169837A838B8328
:1017E0009C8369817A818B819C810E94AD168823BC
:1017F0006CF08A2D9B2DA985BD8180938C029093DE
:101800008D02A0938E02B0938F0261CF10928C0252
:1018100010928D0210928E0210928F0258CFAD81DD
:10182000BE81AA0FBB1FCD01092E000CAA0BBB0B5A
:1018300089839A83AB83BC83BC01CD010E945C1772
:10184000062F172F89879D8320E030E044E951E47B
:1018500069837A838B839C8369817A818B819C8164
:101860000E944116A62EB72EE82EF92E20E030E079
:1018700044E951E469817A818B819C810E94401600
:101880002A2D3B2D4E2D5F2D69837A838B839C837C
:1018900069817A818B819C810E94B21620E030E8B8
:1018A00044ED53E469837A838B839C8369817A81D5
:1018B0008B819C810E94111820918C0230918D02A5
:1018C00040918E0250918F0269837A838B839C832F
:1018D00069817A818B819C810E941118662E772EF6
:1018E000882E992E20E030E0A90160917802709155
:1018F000790280917A0290917B020E94AD1620E0DD
:1019000030E040E85FEB811104C020E030E040E8C7
:101910005FE369827A828B829C8269817A818B8182
:101920009C810E94111869837A838B839C836981CF
:101930007A818B819C810E94C31220E030E844EDC3
:1019400053E460918C0270918D0280918E0290918F
:101950008F020E941118662E772E882E992E20E075
:1019600030E0A901609178027091790280917A0249
:1019700090917B020E94AD1620E030E040E85FEBE2
:10198000811104C020E030E040E85FE369827A82A0
:101990008B829C8269817A818B819C810E94111843
:1019A00069837A838B839C8369817A818B819C8113
:1019B0000E948A132A2D3B2D4E2D5F2D09831A83F9
:1019C000B985BB838D818C8369817A818B819C8170
:1019D0000E94B21620918C0230918D0240918E02AD
:1019E00050918F0269837A838B839C8369817A818A
:1019F0008B819C810E941118362F272F432F522F45
:101A0000682F792F40938402509385026093860259
:101A10007093870229960FB6F894DEBF0FBECDBF34
:101A2000DF91CF911F910F91FF90EF90BF90AF90FA
:101A30009F908F907F906F905F904F90089520E0DF
:101A400030E844ED53E460918C0270918D028091F6
:101A50008E0290918F020E941118E62EF72E082F09
:101A6000192F20E030E0A90160917802709179028D
:101A700080917A0290917B020E94AD1620E030E0C6
:101A800040E85FEB811104C020E030E040E85FE314
:101A9000E982FA820B831C8369817A818B819C8124
:101AA0000E94111869837A838B839C8369817A8170
:101AB0008B819C810E94C312AD81BE81AA0FBB1F86
:101AC000CD01092E000CAA0BBB0B89839A83AB8333
:101AD000BC83BC01CD010E945C17062F172F89879C
:101AE0009D8320E030E044E951E469837A838B836D
:101AF0009C8369817A818B819C810E944116A62EEC
:101B0000B72EE82EF92E20E030E044E951E4698157
:101B10007A818B819C810E9440162A2D3B2D4E2D6F
:101B20005F2D69837A838B839C8369817A818B8122
:101B30009C810E94B21620918C0230918D024091BE
:101B40008E0250918F0269837A838B839C83698193
:101B50007A818B819C810E94111820E030E844ED4D
:101B600053E469837A838B839C8369817A818B8137
:101B70009C810E941118662E772E882E992E20E0C7
:101B800030E0A901609178027091790280917A0227
:101B900090917B020E94AD1620E030E040E85FEBC0
:101BA000811104C020E030E040E85FE369827A827E
:101BB0008B829C8269817A818B819C810E94111821
:101BC00069837A838B839C8369817A818B819C81F1
:101BD0000E948A132A2D3B2D4E2D5F2D09831A83D7
:101BE000B985BB838D818C8369817A818B819C814E
:101BF0000E94B21620918C0230918D0240918E028B
:101C000050918F0269837A838B839C8369817A8167
:101C10008B819C810E941118362F272FEFCE20E058
:101C200030E844ED53E460918C0270918D02809114
:101C30008E0290918F020E941118062F172F89870C
:101C40009D8320E030E0A9016091780270917902D3
:101C500080917A0290917B020E94AD1620E030E0E4
:101C600040E85FEB811104C020E030E040E85FE332
:101C700009831A8399859B83AD81AC8369817A81BD
:101C80008B819C810E94111869837A838B839C834A
:101C900069817A818B819C810E94C31220E030E8A7
:101CA00044ED53E460918C0270918D0280918E021C
:101CB00090918F020E941118062F172F89879D83FC
:101CC00020E030E0A9016091780270917902809162
:101CD0007A0290917B020E94AD1620E030E040E84D
:101CE0005FEB811104C020E030E040E85FE309834E
:101CF0001A83B985BB838D818C8369817A818B81BD
:101D00009C810E94111869837A838B839C836981EB
:101D10007A818B819C810E948A1330918C02209160
:101D20008D0280918E0290918F0268CECF92DF92C9
:101D3000EF92FF920F931F93CF93DF9300D000D0C9
:101D4000CDB7DEB70E943D15062F172F8E839D83DA
:101D50000E94B315C62ED72EE82EF92E20E030E0D3
:101D600040E05FE309831A838E818B838D818C83AE
:101D700069817A818B819C810E9441162C2D3D2D99
:101D80004E2D5F2D69837A838B839C8369817A8151
:101D90008B819C810E94AD1688230CF456C020E0F4
:101DA00030E040E05FE3C982DA82EB82FC82698145
:101DB0007A818B819C810E944116202F312F4E8188
:101DC0005D8169837A838B839C8369817A818B812E
:101DD0009C810E94AD1688230CF05EC02C2D3D2DF9
:101DE0004E2D5F2D09831A838E818B838D818C8389
:101DF00069817A818B819C810E944016262F372F22
:101E0000482F592F60E070E080E89FE30E94B216EF
:101E100069837A838B839C8369817A818B819C819E
:101E20000E94241781E090E00E94A40A0F900F9076
:101E30000F900F900F900F90DF91CF911F910F9106
:101E4000FF90EF90DF90CF900895202F312F4E819B
:101E50005D81C982DA82EB82FC8269817A818B8121
:101E60009C810E944016262F372F482F592F60E063
:101E700070E080E89FE30E94B21669837A838B83C7
:101E80009C8369817A818B819C810E94241782E0E6
:101E900090E00E94A40ACACF60E070E083E090E086
:101EA0000E94A40AC3CFCF92DF92EF92FF920F93CA
:101EB0001F93CF93DF9300D000D0CDB7DEB7C62EEF
:101EC000D72EE82EF92E0E943D15062F172F8E8350
:101ED0009D83262F372F482F592FC982DA82EB8214
:101EE000FC8269817A818B819C810E9440162C2D15
:101EF0003D2D4E2D5F2D69837A838B839C83698171
:101F00007A818B819C810E944116C62ED72EE82EA5
:101F1000F92E20E030E040E05FE309831A838E81F0
:101F20008B838D818C8369817A818B819C810E94D6
:101F300041162C2D3D2D4E2D5F2D69837A838B8389
:101F40009C8369817A818B819C810E94AD16882354
:101F50000CF456C020E030E040E05FE3C982DA8252
:101F6000EB82FC8269817A818B819C810E9441167F
:101F7000202F312F4E815D8169837A838B839C83EF
:101F800069817A818B819C810E94AD1688230CF037
:101F90005EC02C2D3D2D4E2D5F2D09831A838E8121
:101FA0008B838D818C8369817A818B819C810E9456
:101FB0004016262F372F482F592F60E070E080E819
:101FC0009FE30E94B21669837A838B839C83698125
:101FD0007A818B819C810E94241781E090E00E948D
:101FE000A40A0F900F900F900F900F900F90DF9119
:101FF000CF911F910F91FF90EF90DF90CF900895B8
:10200000202F312F4E815D81C982DA82EB82FC82E2
:1020100069817A818B819C810E944016262F372FFF
:10202000482F592F60E070E080E89FE30E94B216CD
:1020300069837A838B839C8369817A818B819C817C
:102040000E94241782E090E00E94A40ACACF60E0B8
:1020500070E083E090E00E94A40AC3CFCF92DF92A9
:10206000EF92FF920F931F93CF93DF9300D000D096
:10207000CDB7DEB7C62ED72EE82EF92E0E94B315A7
:10208000062F172F8E839D83262F372F482F592FEA
:10209000C982DA82EB82FC8269817A818B819C81A0
:1020A0000E9440162C2D3D2D4E2D5F2D69837A8385
:1020B0008B839C8369817A818B819C810E944116EC
:1020C000C62ED72EE82EF92E20E030E040E05FE368
:1020D00069837A838B839C8369817A818B819C81DC
:1020E0000E944116202F312F4E815D8169837A83B2
:1020F0008B839C8369817A818B819C810E94AD1640
:1021000088230CF456C020E030E040E05FE3098310
:102110001A838E818B838D818C8369817A818B81F7
:102120009C810E9441162C2D3D2D4E2D5F2D6983E3
:102130007A838B839C8369817A818B819C810E94C5
:10214000AD1688230CF05EC0202F312F4E815D81AB
:10215000C982DA82EB82FC8269817A818B819C81DF
:102160000E944016262F372F482F592F60E070E02D
:1021700080E89FE30E94B21669837A838B839C83F5
:1021800069817A818B819C810E94241781E090E093
:102190000E94A40A0F900F900F900F900F900F9035
:1021A000DF91CF911F910F91FF90EF90DF90CF9033
:1021B00008952C2D3D2D4E2D5F2D09831A838E8180
:1021C0008B838D818C8369817A818B819C810E9434
:1021D0004016262F372F482F592F60E070E080E8F7
:1021E0009FE30E94B21669837A838B839C83698103
:1021F0007A818B819C810E94241782E090E00E946A
:10220000A40AC8CF60E070E083E090E00E94A40AD6
:10221000C1CF0F931F93CF93DF9300D000D0CDB7E2
:10222000DEB7062F172F8E839D832DEC3CEC4CE4FC
:102230005EE369837A838B839C8369817A818B8156
:102240009C810E94AD16882384F420E030E0A9012F
:1022500069817A818B819C810E94AD1688235CF410
:1022600000E010E01E821D8206C00DEC1CEC8CE428
:102270008E838EE38D83802F912FAE81BD818093DD
:10228000800290938102A0938202B09383020F9008
:102290000F900F900F900F900F90DF91CF911F91A3
:1022A0000F9108950F931F93CF93DF9300D000D029
:1022B000CDB7DEB7062F172F8E839D8320E030E049
:1022C00040E85FE369837A838B839C8369817A81A9
:1022D0008B819C810E94AD168823ECF000E010E019
:1022E00080E88E838FE38D83802F912FAE81BD8117
:1022F00080937C0290937D02A0937E02B0937F0234
:102300000F900F900F900F900F900F90DF91CF9143
:102310001F910F91089520E030E0A90169817A8131
:102320008B819C810E94AD168823F4F600E010E0BA
:102330001E821D82D9CF22982A9AE9E6F0E0808198
:1023400085608083E99A78940895CF92DF92EF9226
:10235000FF92CF93DF9300D00F92CDB7DEB72091DD
:102360002C0230912D0240912E0250912F0260914B
:1023700092027091930280919402909195020E9432
:102380000C18181644F410929202109293021092B4
:102390009402109295021A9943C0809190029091F4
:1023A0009102892B09F053C0C0902C02D0902D02CD
:1023B000E0902E02F0902F022BE037ED43EA5CE331
:1023C0006091920270919302809194029091950293
:1023D0000E944116A701960169837A838B839C83AF
:1023E00069817A818B819C810E94AD1688230CF0D3
:1023F00069C081E090E09093910280939002809177
:102400002C0290912D02A0912E02B0912F02809368
:10241000920290939302A0939402B093950208C005
:102420001A9B06C08091900290919102892B89F4A9
:1024300080919002909191020F900F900F900F90C9
:10244000DF91CF91FF90EF90DF90CF9008951A9B8E
:10245000EFCFC0902C02D0902D02E0902E02F09091
:102460002F022BE037ED43EA5CE36091920270911A
:10247000930280919402909195020E944116A701C7
:10248000960169837A838B839C8369817A818B81AE
:102490009C810E94AD1688235CF6109291021092E6
:1024A000900280912C0290912D02A0912E02B09169
:1024B0002F028093920290939302A0939402B09380
:1024C0009502B6CF83B1B4CF1F921FB61F921124CD
:1024D00010922502109224021F901FBE1F90189583
:1024E00080919A0290919B02892B49F00E9491025F
:1024F000892BF9F410929B0210929A021AC00E9442
:102500009102892B81F081E090E090939B0280936F
:102510009A02809196029091970201969093970269
:102520008093960206C080919A0290919B02892B1B
:10253000E9F68091980290919902892B49F00E94C6
:102540005703892BF9F410929902109298021AC03D
:102550000E945703892B81F081E090E090939902CB
:1025600080939802809196029091970201969093A1
:102570009702809396020895809198029091990213
:10258000892BE9F60895CF93DF9300D00F92CDB752
:10259000DEB7462F572F682F792F49835A836B83D5
:1025A0007C8320E030E048EC52E469817A818B81C1
:1025B0009C810E940C1818165CF120E030E048EC79
:1025C00052EC69817A818B819C810E94AD168823AF
:1025D0009CF480E090E0A8ECB2EC89839A83AB8312
:1025E000BC832D9889819A81AB81BC81B058898345
:1025F0009A83AB83BC8315C020E030E0A9016981D8
:102600007A818B819C810E94AD1688234CF4E9CF9E
:1026100080E090E0A8ECB2E489839A83AB83BC832A
:102620002D9A20E030E040EE50E469817A818B8180
:102630009C810E94AD1688233CF483E090E0909347
:1026400089008093880038C028E134E146E759E3E7
:1026500069817A818B819C810E94111820E030E091
:1026600040E857E369837A838B839C8369817A810D
:102670008B819C810E944116262F372F482F592F7E
:1026800060E070E088EC92E40E94B21669837A837D
:102690008B839C8369817A818B819C810E942B171B
:1026A000862F972F803AAFE09A0710F480EA9FE0D8
:1026B00090938900809388000F900F900F900F9057
:1026C000DF91CF910895E1E8F0E080818E7F8083F3
:1026D000269AA0E8B0E08C9183608C938081886119
:1026E00080838C9180628C9380818160808380EA7A
:1026F0009FE0909389008093880080E290E090931F
:102700008B0080938A00259A60E070E0CB010E94E4
:10271000C3120895CF93DF9300D00F92CDB7DEB7E9
:10272000462F572F682F792F49835A836B837C83D9
:1027300020E030E048EC52E469817A818B819C8111
:102740000E940C1818165CF120E030E048EC52ECC6
:1027500069817A818B819C810E94AD1688239CF4CB
:1027600080E090E0A8ECB2EC89839A83AB83BC83D1
:10277000759889819A81AB81BC81B05889839A838D
:10278000AB83BC8315C020E030E0A90169817A8168
:102790008B819C810E94AD1688234CF4E9CF80E0A8
:1027A00090E0A8ECB2E489839A83AB83BC83759AEA
:1027B00020E030E040EE50E469817A818B819C8199
:1027C0000E94AD1688233CF483E090E0909399003A
:1027D0008093980038C028E134E146E759E36981E5
:1027E0007A818B819C810E94111820E030E040E8C2
:1027F00057E369837A838B839C8369817A818B8198
:102800009C810E944116262F372F482F592F60E0B8
:1028100070E088EC92E40E94B21669837A838B831D
:102820009C8369817A818B819C810E942B17862FE2
:10283000972F803AAFE09A0710F480EA9FE09093D8
:102840009900809398000F900F900F900F90DF9158
:10285000CF910895E1E9F0E080818E7F80836C9ACA
:10286000A0E9B0E08C9183608C9380818861808343
:102870008C9180628C9380818160808380EA9FE06C
:10288000909399008093980080E290E090939B0051
:1028900080939A006D9A60E070E0CB010E948A13E9
:1028A00008950E9463130E942A1408951F921FB670
:1028B0001F9211248F93109225011092240181E020
:1028C00080939D028F911F901FBE1F9018951F929D
:1028D0001FB61F9211248F931092A5001092A4008E
:1028E00081E080939C028F911F901FBE1F901895CE
:1028F000282F392F1092A9001092A8001092AB0037
:102900001092AA001092AD001092AC001092290112
:102910001092280110922B0110922A0110922D0181
:1029200010922C012130310579F022303105B1F0BF
:10293000232BF1F483E090E09093A9008093A8000A
:10294000909329018093280183E090E09093AB005D
:102950008093AA0090932B0180932A0183E090E05A
:102960009093AD008093AC0090932D0180932C0147
:102970000895CF93DF93C1E2D1E088818C7F888373
:10298000109227011092260110929D02EAE0F1E0D8
:1029900080818061808380818D7F8083E0E2F1E0AF
:1029A0008081836080838881886088838081806261
:1029B0008083888183608883109229011092280186
:1029C00010922B0110922A0110922D0110922C01CD
:1029D00081E090E00E94781488818F7B8883E3E710
:1029E000F0E0808180628083DF91CF910895CF9362
:1029F000DF93C1EAD0E088818C7F88831092A700A2
:102A00001092A60010929C02E1E0F1E080818061CA
:102A10008083EAE0F1E080818E7F8083E0EAF0E06D
:102A200080818360808388818860888380818062E0
:102A300080838881836088831092A9001092A80007
:102A40001092AB001092AA001092AD001092AC0050
:102A500081E090E00E94781488818F7B8883E2E790
:102A6000F0E0808180628083DF91CF9108950E94A1
:102A7000B9140E94F71478940895CF93DF9300D08F
:102A80000F92CDB7DEB780919D02882309F456C01E
:102A900010929D022091260130912701C901A0E0EA
:102AA000B0E02732324070F186529240A109B1095C
:102AB000880F991FAA1FBB1F880F991FAA1FBB1F32
:102AC0009C01AD012C7F5F7029833A834B835C832B
:102AD000CA01B9010E945A1720E030E048E652E4EA
:102AE00069837A838B839C8369817A818B819C81C2
:102AF0000E94B2166093A2027093A3028093A40274
:102B00009093A50220E030E040EF51E46091A202F2
:102B10007091A3028091A4029091A5020E940C18CA
:102B2000181664F480E090E0A0EFB1E48093A20274
:102B30009093A302A093A402B093A5028091A20255
:102B40009091A302A091A402B091A50289839A83D7
:102B5000AB83BC83BC01CD010F900F900F900F9001
:102B6000DF91CF910895CF93DF9300D00F92CDB72F
:102B7000DEB780919C02882309F456C010929C0213
:102B80002091A6003091A700C901A0E0B0E0273253
:102B9000324070F186529240A109B109880F991F05
:102BA000AA1FBB1F880F991FAA1FBB1F9C01AD0145
:102BB0002C7F5F7029833A834B835C83CA01B90100
:102BC0000E945A1720E030E048E652E469837A8395
:102BD0008B839C8369817A818B819C810E94B21650
:102BE00060939E0270939F028093A0029093A10233
:102BF00020E030E040EF51E460919E0270919F022E
:102C00008091A0029091A1020E940C18181664F401
:102C100080E090E0A0EFB1E480939E0290939F0249
:102C2000A093A002B093A10280919E0290919F0276
:102C3000A091A002B091A10289839A83AB83BC8347
:102C4000BC01CD010F900F900F900F90DF91CF91AD
:102C50000895EE0FFF1F881F8BBF0790F691E02DA0
:102C60001994A29FB001B39FC001A39F700D811D55
:102C70001124911DB29F700D811D1124911D089585
:102C80005058BB27AA270E9458160C94D2170E94AE
:102C9000C41738F00E94CB1720F039F49F3F19F485
:102CA00026F40C94C1170EF4E095E7FB0C94BB17C7
:102CB000E92F0E94E31758F3BA17620773078407D6
:102CC000950720F079F4A6F50C9405180EF4E0951C
:102CD0000B2EBA2FA02D0B01B90190010C01CA01D6
:102CE000A0011124FF27591B99F0593F50F4503E81
:102CF00068F11A16F040A22F232F342F4427585F73
:102D0000F3CF469537952795A795F0405395C9F78A
:102D10007EF41F16BA0B620B730B840BBAF0915042
:102D2000A1F0FF0FBB1F661F771F881FC2F70EC0E1
:102D3000BA0F621F731F841F48F4879577956795B4
:102D4000B795F7959E3F08F0B0CF9395880F08F0A0
:102D50009927EE0F9795879508950E94971708F485
:102D600081E008950E94C6160C94D2170E94CB17DA
:102D700058F00E94C41740F029F45F3F29F00C94EA
:102D8000BB1751110C9406180C94C1170E94E3173D
:102D900068F39923B1F3552391F3951B550BBB278A
:102DA000AA2762177307840738F09F5F5F4F220FCF
:102DB000331F441FAA1FA9F335D00E2E3AF0E0E8C6
:102DC00032D091505040E695001CCAF72BD0FE2F10
:102DD00029D0660F771F881FBB1F261737074807A4
:102DE000AB07B0E809F0BB0B802DBF01FF2793585C
:102DF0005F4F3AF09E3F510578F00C94BB170C944E
:102E000006185F3FE4F3983ED4F38695779567956F
:102E1000B795F7959F5FC9F7880F911D9695879590
:102E200097F90895E1E0660F771F881FBB1F6217AF
:102E300073078407BA0720F0621B730B840BBA0B6D
:102E4000EE1F88F7E09508950E942B176894B11142
:102E50000C94061808950E94EB1788F09F5798F07D
:102E6000B92F9927B751B0F0E1F0660F771F881F8F
:102E7000991F1AF0BA95C9F714C0B13091F00E94A9
:102E80000518B1E008950C940518672F782F88274E
:102E9000B85F39F0B93FCCF3869577956795B395D0
:102EA000D9F73EF490958095709561957F4F8F4F3F
:102EB0009F4F0895E89409C097FB3EF49095809544
:102EC000709561957F4F8F4F9F4F9923A9F0F92FF0
:102ED00096E9BB279395F695879577956795B7956E
:102EE000F111F8CFFAF4BB0F11F460FF1BC06F5F54
:102EF0007F4F8F4F9F4F16C0882311F096E911C066
:102F0000772321F09EE8872F762F05C0662371F086
:102F100096E8862F70E060E02AF09A95660F771F9A
:102F2000881FDAF7880F9695879597F90895990F76
:102F30000008550FAA0BE0E8FEEF16161706E80783
:102F4000F907C0F012161306E407F50798F0621BA4
:102F5000730B840B950B39F40A2661F0232B242B79
:102F6000252B21F408950A2609F4A140A6958FEF98
:102F7000811D811D089597F99F6780E870E060E0EA
:102F800008959FEF80EC089500240A941616170602
:102F900018060906089500240A941216130614064A
:102FA00005060895092E0394000C11F4882352F0AD
:102FB000BB0F40F4BF2B11F460FF04C06F5F7F4F65
:102FC0008F4F9F4F089557FD9058440F551F59F04C
:102FD0005F3F71F04795880F97FB991F61F09F3F06
:102FE00079F087950895121613061406551FF2CF2F
:102FF0004695F1DF08C0161617061806991FF1CF7F
:1030000086957105610508940895E894BB276627A5
:103010007727CB0197F908950E94971708F48FEF4F
:1030200008950E9424180C94D2170E94C41738F0F7
:103030000E94CB1720F0952311F00C94BB170C9431
:10304000C11711240C9406180E94E31770F3959F82
:10305000C1F3950F50E0551F629FF001729FBB278F
:10306000F00DB11D639FAA27F00DB11DAA1F649F2B
:103070006627B00DA11D661F829F2227B00DA11DDE
:10308000621F739FB00DA11D621F839FA00D611D64
:10309000221F749F3327A00D611D231F849F600D85
:1030A000211D822F762F6A2F11249F5750409AF0AE
:1030B000F1F088234AF0EE0FFF1FBB1F661F771F3A
:1030C000881F91505040A9F79E3F510580F00C9405
:1030D000BB170C9406185F3FE4F3983ED4F3869533
:1030E00077956795B795F795E7959F5FC1F7FE2BA5
:1030F000880F911D9695879597F90895F894FFCFBD
:0E310000C707E20791063C08E6089A064F0A48
:10310E00777C395E79713D74061E753855545C7343
:10311E0067506D783E1C6A766E5B3F065B4F666D40
:0C312E007D077F6F010072736574000064
:00000001FF
