:100000000C9472000C9493000C9493000C94ED05E6
:100010000C9493000C9493000C9493000C94930014
:100020000C9493000C9493000C9493000C94930004
:100030000C9493000C9493000C9493000C949300F4
:100040000C9493000C9493000C9493000C949300E4
:100050000C9493000C9495000C9493000C949300D2
:100060000C9493000C94FE000C9429010C949300C2
:100070000C9493000C9493000C9493000C949300B4
:100080000C9493000C9493000C9493000C949300A4
:100090000C9493000C9493000C9493000C94930094
:1000A0000C9493000C9493000C9493000C94930084
:1000B0000C9493000C9493000C9493000C94930074
:1000C0000C9493000C9493000C9493000C94930064
:1000D0000C9493000C9493000C9493000C94930054
:1000E0000C94930011241FBECFEFD1E2DEBFCDBF31
:1000F00000E00CBF12E0A0E0B2E0EEE5FEE000E0C0
:100100000BBF02C007900D92AC33B107D9F722E0C4
:10011000ACE3B2E001C01D92A436B207E1F70E9441
:100120002D050C942D070C9400001F920F920FB612
:100130000F9211240BB60F922F933F934F935F931F
:100140006F937F938F939F93AF93BF93EF93FF939F
:10015000CF93DF9300D00F92CDB7DEB780913C02F2
:1001600090913D02A0913E02B0913F0289839A8313
:10017000AB83BC832FE632E143E85AE3BC01CD01F7
:100180000E944206462F572F682F792F40933C023A
:1001900050933D0260933E0270933F020F900F9088
:1001A0000F900F90DF91CF91FF91EF91BF91AF91A1
:1001B0009F918F917F916F915F914F913F912F917F
:1001C0000F900BBE0F900FBE0F901F9018951092BE
:1001D0003C0210923D0210923E0210923F028AEFC2
:1001E00087BD85B5836085BD84B5826084BDEEE63C
:1001F000F0E0808182608083789408950F920FB63A
:100200000F928F939F93CF93DF930F92CDB7DEB76B
:100210008091C0008C71882331F081E090E0909350
:100220004102809340028091C60089838981813098
:1002300049F00F90DF91CF919F918F910F900FBE5A
:100240000F90189581E090E09093430280934202D2
:10025000F0CF1F921FB61F9211248F938BB78F93ED
:100260009F93EF93FF93E0914402F0914502EA5B84
:10027000FD4F80818093C600809144029091450299
:10028000019690934502809344028091440290919C
:10029000450204977CF0E1ECF0E080818F7D808363
:1002A000109245021092440281E090E090934B023C
:1002B00080934A02FF91EF919F918F918BBF8F9115
:1002C0001F901FBE1F901895CF93DF9310924B0283
:1002D00010924A02E1ECF0E080818F778083808188
:1002E0008F7E80838081877F8083A4E6B0E08C91BD
:1002F0008D7F8C93A2ECB0E08C918F7B8C938C9152
:100300008F778C9387E690E09093C5008093C4002C
:10031000C0ECD0E088818D7F88838C918E7F8C9318
:100320008C918E7F8C938C91877F8C9380818E7F34
:1003300080838C918C938C9181608C938881837E57
:1003400088838081806880837894808180618083C5
:1003500080818860808381E090E090934B0280935D
:100360004A02DF91CF910895382F292F80914A02B8
:1003700090914B020097E1F010924B0210924A02CA
:10038000E32FF22F80E090E02191DC01AA5BBD4FCA
:100390002C93019684309105B9F7E1ECF0E080816F
:1003A00080628083109243021092420281E090E0CA
:1003B0000895CF93DF9300D00F92CDB7DEB791E0D1
:1003C00099838A836B834C83CE0101960E94B4018A
:1003D0000F900F900F900F90DF91CF910895CF93D2
:1003E000DF9300D00F92CDB7DEB792E099838A8376
:1003F0006B834C83CE0101960E94B4010F900F9045
:100400000F900F90DF91CF910895CF93DF9300D09D
:100410000F92CDB7DEB793E099838A836B834C83C9
:10042000CE0101960E94B4010F900F900F900F9093
:10043000DF91CF910895869A879A859A08958F982B
:1004400047E050E0E1E0F0E070E06C5F7F4F8E98B5
:100450008D9891B39F01042E02C0220F331F0A947E
:10046000E2F7062E02C0359527950A94E2F7A1E03F
:100470002A2721702295220F207E292B21BB8E9ABC
:100480004150510920F747E050E0682F70E08E9806
:100490008D9891B39B01042E02C0359527950A943F
:1004A000E2F7220F331F22953295307F3227207FCB
:1004B00032272072922B91BB8E9A4150510938F706
:1004C0008F9A0895E82F9FEB980F9A3138F09FE9A3
:1004D000980F9A3160F0803299F008950E2E000C3A
:1004E000FF0BE154FE4F80810E941F0208950E2EE3
:1004F000000CFF0BE156FE4F80810E941F02089501
:1005000080E00E941F02E9CF0F931F93CF93082F23
:10051000192FC0E06C2FF80181918F010E946202B7
:100520008FE99FE00197F1F700C00000CF5FC43072
:1005300089F760E080E00E941F02CF911F910F9128
:1005400008951F93CF93DF93C82FD92F13E09E01F7
:10055000ADECBCEC0E9432069C0136952795369591
:10056000279536952795C901880F991F880F991FE0
:10057000820F931F880F991FFE01E81BF90BE65E9F
:10058000FD4F612F80810E941F029E01ADECBCECEB
:100590000E943206EC01D695C795D695C795D6959B
:1005A000C7958FE99FE00197F1F700C00000115057
:1005B00070F660E080E00E941F02DF91CF911F91F2
:1005C0000895E7E0F1E080818E7F80830895CF92E7
:1005D000DF92EF92FF92CF93DF9300D00F92CDB7CF
:1005E000DEB720913C0230913D0240913E02509195
:1005F0003F0260914E0270914F02809150029091A3
:1006000051020E942807181644F410924E021092CC
:100610004F0210925002109251028091060180FD0B
:1006200043C080914C0290914D02892B09F055C036
:10063000C0903C02D0903D02E0903E02F0903F021C
:100640002DEC3CEC4CE45DE360914E0270914F0266
:1006500080915002909151020E944206A70196019A
:1006600069837A838B839C8369817A818B819C8166
:100670000E94AE0688230CF06DC081E090E090935C
:100680004D0280934C0280913C0290913D02A091DA
:100690003E02B0913F0280934E0290934F02A0938E
:1006A0005002B09351020AC08091060180FF06C03B
:1006B00080914C0290914D02892B99F480914C02CB
:1006C00090914D020F900F900F900F90DF91CF916E
:1006D000FF90EF90DF90CF9008958091060180FF0A
:1006E000EDCFC0903C02D0903D02E0903E02F090F1
:1006F0003F022DEC3CEC4CE45DE360914E027091C6
:100700004F0280915002909151020E944206A7012F
:10071000960169837A838B839C8369817A818B813B
:100720009C810E94AE0688234CF610924D021092D6
:100730004C0280913C0290913D02A0913E02B0910A
:100740003F0280934E0290934F02A0935002B093C9
:100750005102B4CF80910601B1CF83B3836083BBD4
:1007600084B3836084BB0895CF92DF92EF92FF92AF
:10077000CF93DF9300D00F92CDB7DEB7282F392F5C
:100780002115310509F467C080E090E02130310582
:1007900009F0CEC020913C0230913D0240913E02D2
:1007A00050913F026091540270915502809156021F
:1007B000909157020E942807181644F41092540290
:1007C0001092550210925602109257029099BBC097
:1007D0008091520290915302892B09F000C1C09080
:1007E0003C02D0903D02E0903E02F0903F022BE0B0
:1007F00037ED43E25CE360915402709155028091C1
:100800005602909157020E944206A7019601698301
:100810007A838B839C8369817A818B819C810E94FE
:10082000AE0688230CF017C181E090E0909353024C
:100830008093520280913C0290913D02A0913E0231
:10084000B0913F028093540290935502A0935602B8
:10085000B093570281C020913C0230913D024091FB
:100860003E0250913F0260915A0270915B0280916A
:100870005C0290915D020E942807181644F41092C1
:100880005A0210925B0210925C0210925D029199E2
:1008900043C08091580290915902892B09F061C0A0
:1008A000C0903C02D0903D02E0903E02F0903F02AA
:1008B0002BE037ED43E25CE360915A0270915B02FA
:1008C00080915C0290915D020E944206A701960110
:1008D00069837A838B839C8369817A818B819C81F4
:1008E0000E94AE0688230CF078C081E090E09093DF
:1008F00059028093580280913C0290913D02A09150
:100900003E02B0913F0280935A0290935B02A09303
:100910005C02B0935D0208C0919B06C080915802B2
:1009200090915902892BF9F48091580290915902C3
:100930000F900F900F900F90DF91CF91FF90EF905D
:10094000DF90CF900895909B07C0809152029091C4
:100950005302892B09F045C08091520290915302B5
:10096000E7CF919BE1CFC0903C02D0903D02E09058
:100970003E02F0903F022BE037ED43E25CE36091F2
:100980005A0270915B0280915C0290915D020E941C
:100990004206A701960169837A838B839C836981D0
:1009A0007A818B819C810E94AE0688230CF0BCCF9B
:1009B000109259021092580280913C0290913D028F
:1009C000A0913E02B0913F0280935A0290935B0245
:1009D000A0935C02B0935D02A7CF82B3A5CF909B9A
:1009E000BBCFC0903C02D0903D02E0903E02F09020
:1009F0003F022BE037ED43E25CE3609154027091DB
:100A0000550280915602909157020E944206A7011A
:100A1000960169837A838B839C8369817A818B8138
:100A20009C810E94AE0688230CF096CF1092530250
:100A30001092520280913C0290913D02A0913E02A0
:100A4000B0913F028093540290935502A0935602B6
:100A5000B093570281CF82B37FCF8FEF9FEF0F2EDE
:100A6000F3E0EF2EF12CF02D0F2EF5E0AF2EB12C90
:100A7000F02D01E010E06894CC24C1F8D12C01C025
:100A8000CE01C0912402D0912502C230D10509F4D3
:100A900063C008F1C430D10509F46FC0CE01C53080
:100AA000D10579F787E392E00E94840280E090E02C
:100AB0000E94B403892B69F000932402109325024D
:100AC000CE01DFCF802F912FDCCFCE01DACFCE0148
:100AD000D8CFCE01D6CF209799F0019751F58DE26E
:100AE00092E00E94840280E090E00E94B403892B8F
:100AF00049F7D0922502C0922402802F912FC1CFB6
:100B000080913C0290913D02A0913E02B0913F0243
:100B100088E292E00E94840280E090E00E94B403A8
:100B2000892B09F4ADCF0093240210932502CE0146
:100B3000A8CF0E94E7000E94E10210926102109289
:100B400060020E941B020E94AD030E94640160E0EB
:100B500080E00E941F02C3CF82E392E00E948402E1
:100B600080E090E00E94B403892B09F4AECFF092AC
:100B70002502E0922402CE0184CF039769F0809190
:100B8000420290914302892B09F4A1CFF0922502F1
:100B9000E0922402CE0175CF80915E0290915F02B7
:100BA00001968230910554F010925F0210925E021D
:100BB000B0922502A0922402CE0163CF90935F02EF
:100BC00080935E02DCCF22982A9AE9E6F0E08081E9
:100BD00085608083E99A789408951F921FB61F92CA
:100BE00011242F938F939F93109225021092240229
:100BF0002FEF89EF90E0215080409040E1F700C056
:100C000000009F918F912F911F901FBE1F901895EC
:100C10008091620290916302892B49F00E94E70261
:100C2000892BF9F410926302109262021AC00E949A
:100C3000E702892B81F081E090E09093630280933A
:100C4000620280916002909161020196909361022C
:100C50008093600208958091620290916302892BD3
:100C6000E9F60895A29FB001B39FC001A39F700D44
:100C7000811D1124911DB29F700D811D1124911DA4
:100C800008955058BB27AA270E9459060C94EE06D7
:100C90000E94E00638F00E94E70620F039F49F3FFA
:100CA00019F426F40C94DD060EF4E095E7FB0C94A1
:100CB000D706E92F0E94FF0658F3BA176207730799
:100CC0008407950720F079F4A6F50C9421070EF41B
:100CD000E0950B2EBA2FA02D0B01B90190010C014C
:100CE000CA01A0011124FF27591B99F0593F50F464
:100CF000503E68F11A16F040A22F232F342F4427BC
:100D0000585FF3CF469537952795A795F0405395B3
:100D1000C9F77EF41F16BA0B620B730B840BBAF083
:100D20009150A1F0FF0FBB1F661F771F881FC2F7EE
:100D30000EC0BA0F621F731F841F48F48795779502
:100D40006795B795F7959E3F08F0B0CF9395880FBC
:100D500008F09927EE0F9795879508950E94B3069E
:100D600008F481E00895990F0008550FAA0BE0E8F8
:100D7000FEEF16161706E807F907C0F0121613065D
:100D8000E407F50798F0621B730B840B950B39F49D
:100D90000A2661F0232B242B252B21F408950A2603
:100DA00009F4A140A6958FEF811D811D089597F943
:100DB0009F6780E870E060E008959FEF80EC089501
:100DC00000240A941616170618060906089500242A
:100DD0000A9412161306140605060895092E0394A4
:100DE000000C11F4882352F0BB0F40F4BF2B11F418
:100DF00060FF04C06F5F7F4F8F4F9F4F089557FD77
:100E00009058440F551F59F05F3F71F04795880F78
:100E100097FB991F61F09F3F79F08795089512160F
:100E200013061406551FF2CF4695F1DF08C01616BB
:100E300017061806991FF1CF86957105610508946C
:100E40000895E894BB2766277727CB0197F9089583
:0E0E50000E94B30608F48FEF0895F894FFCFC8
:100E5E00777C395E79713D74061E753855545C7316
:100E6E0067506D783E1C6A766E5B3F065B4F666D13
:100E7E007D077F6F0100010053544F500072736560
:0C0E8E00740069646C6500656E642000EF
:00000001FF
