:100000000C9472000C9493000C9493000C94380C94
:100010000C9493000C9493000C9493000C94930014
:100020000C9493000C9493000C9493000C94930004
:100030000C9493000C9493000C9493000C949300F4
:100040000C9493000C9493000C9493000C949300E4
:100050000C9493000C9495000C9493000C949300D2
:100060000C9493000C94FE000C9429010C949300C2
:100070000C9493000C9493000C9493000C949300B4
:100080000C9493000C9493000C9493000C949300A4
:100090000C9493000C9493000C9493000C94930094
:1000A0000C9493000C94C2090C9493000C9493004C
:1000B0000C9493000C9493000C94F1090C9493000D
:1000C0000C9493000C9493000C9493000C94930064
:1000D0000C9493000C9493000C9493000C94930054
:1000E0000C94930011241FBECFEFD1E2DEBFCDBF31
:1000F00000E00CBF12E0A0E0B2E0E2EEFAE100E0C6
:100100000BBF02C007900D92A634B107D9F722E0C9
:10011000A6E4B2E001C01D92A03AB207E1F70E9446
:10012000A4060C946F0D0C9400001F920F920FB652
:100130000F9211240BB60F922F933F934F935F931F
:100140006F937F938F939F93AF93BF93EF93FF939F
:10015000CF93DF9300D00F92CDB7DEB780914602E8
:1001600090914702A0914802B091490289839A83F5
:10017000AB83BC832FE632E143E85AE3BC01CD01F7
:100180000E94840C462F572F682F792F40934602E8
:100190005093470260934802709349020F900F906A
:1001A0000F900F90DF91CF91FF91EF91BF91AF91A1
:1001B0009F918F917F916F915F914F913F912F917F
:1001C0000F900BBE0F900FBE0F901F9018951092BE
:1001D00046021092470210924802109249028AEF9A
:1001E00087BD85B5836085BD84B5826084BDEEE63C
:1001F000F0E0808182608083789408950F920FB63A
:100200000F928F939F93CF93DF930F92CDB7DEB76B
:100210008091C0008C71882331F081E090E0909350
:100220004B0280934A028091C60089838981813084
:1002300049F00F90DF91CF919F918F910F900FBE5A
:100240000F90189581E090E090934D0280934C02BE
:10025000F0CF1F921FB61F9211248F938BB78F93ED
:100260009F93EF93FF93E0914E02F0914F02E05B7A
:10027000FD4F80818093C60080914E0290914F0285
:10028000019690934F0280934E0280914E0290917E
:100290004F0204977CF0E1ECF0E080818F7D808359
:1002A00010924F0210924E0281E090E0909355021E
:1002B00080935402FF91EF919F918F918BBF8F910B
:1002C0001F901FBE1F901895CF93DF931092550279
:1002D00010925402E1ECF0E080818F77808380817E
:1002E0008F7E80838081877F8083A4E6B0E08C91BD
:1002F0008D7F8C93A2ECB0E08C918F7B8C938C9152
:100300008F778C9387E690E09093C5008093C4002C
:10031000C0ECD0E088818D7F88838C918E7F8C9318
:100320008C918E7F8C938C91877F8C9380818E7F34
:1003300080838C918C938C9181608C938881837E57
:1003400088838081806880837894808180618083C5
:1003500080818860808381E090E090935502809353
:100360005402DF91CF910895382F292F80915402A4
:10037000909155020097E1F01092550210925402AC
:10038000E32FF22F80E090E02191DC01A05BBD4FD4
:100390002C93019684309105B9F7E1ECF0E080816F
:1003A0008062808310924D0210924C0281E090E0B6
:1003B0000895CF93DF9300D00F92CDB7DEB791E0D1
:1003C00099838A836B834C83CE0101960E94B4018A
:1003D0000F900F900F900F90DF91CF910895CF93D2
:1003E000DF9300D00F92CDB7DEB792E099838A8376
:1003F0006B834C83CE0101960E94B4010F900F9045
:100400000F900F90DF91CF910895CF93DF9300D09D
:100410000F92CDB7DEB793E099838A836B834C83C9
:10042000CE0101960E94B4010F900F900F900F9093
:10043000DF91CF910895869A879A859A08958F982B
:1004400047E050E0E1E0F0E070E06C5F7F4F8E98B5
:100450008D9891B39F01042E02C0220F331F0A947E
:10046000E2F7062E02C0359527950A94E2F7A1E03F
:100470002A2721702295220F207E292B21BB8E9ABC
:100480004150510920F747E050E0682F70E08E9806
:100490008D9891B39B01042E02C0359527950A943F
:1004A000E2F7220F331F22953295307F3227207FCB
:1004B00032272072922B91BB8E9A4150510938F706
:1004C0008F9A0895E82F9FEB980F9A3138F09FE9A3
:1004D000980F9A3160F0803299F008950E2E000C3A
:1004E000FF0BE154FE4F80810E941F0208950E2EE3
:1004F000000CFF0BE156FE4F80810E941F02089501
:1005000080E00E941F02E9CF0F931F93CF93082F23
:10051000192FC0E06C2FF80181918F010E946202B7
:100520008FE99FE00197F1F700C00000CF5FC43072
:1005300089F760E080E00E941F02CF911F910F9128
:1005400008951F93CF93DF93C82FD92F13E09E01F7
:10055000ADECBCEC0E94740C9C0136952795369549
:10056000279536952795C901880F991F880F991FE0
:10057000820F931F880F991FFE01E81BF90BE65E9F
:10058000FD4F612F80810E941F029E01ADECBCECEB
:100590000E94740CEC01D695C795D695C795D69553
:1005A000C7958FE99FE00197F1F700C00000115057
:1005B00070F660E080E00E941F02DF91CF911F91F2
:1005C0000895E7E0F1E080818C7F80830895CF92E9
:1005D000DF92EF92FF92CF93DF9300D00F92CDB7CF
:1005E000DEB7209146023091470240914802509177
:1005F000490260915E0270915F0280916002909169
:1006000061020E946A0D181644F410925E02109264
:100610005F0210926002109261028091060180FDDB
:1006200043C080915C0290915D02892B09F055C016
:10063000C0904602D0904702E0904802F0904902F4
:100640002DEC3CEC4CE45DE360915E0270915F0246
:1006500080916002909161020E94840CA701960132
:1006600069837A838B839C8369817A818B819C8166
:100670000E94F00C88230CF06DC081E090E0909314
:100680005D0280935C028091460290914702A091A6
:100690004802B091490280935E0290935F02A0935A
:1006A0006002B09361020AC08091060180FF06C01B
:1006B00080915C0290915D02892B99F480915C029B
:1006C00090915D020F900F900F900F90DF91CF915E
:1006D000FF90EF90DF90CF9008958091060180FF0A
:1006E000EDCFC0904602D0904702E0904802F090D3
:1006F00049022DEC3CEC4CE45DE360915E027091AC
:100700005F0280916002909161020E94840CA701B7
:10071000960169837A838B839C8369817A818B813B
:100720009C810E94F00C88234CF610925D0210927E
:100730005C028091460290914702A0914802B091DC
:10074000490280935E0290935F02A0936002B0938F
:100750006102B4CF80910601B1CFCF92DF92EF92C8
:10076000FF92CF93DF9300D00F92CDB7DEB72091E9
:1007700046023091470240914802509149026091EF
:1007800058027091590280915A0290915B020E9426
:100790006A0D181644F410925802109259021092E1
:1007A0005A0210925B028091060181FD43C0809144
:1007B000560290915702892B09F055C0C09046020D
:1007C000D0904702E0904802F09049022DEC3CECBA
:1007D0004CE45DE3609158027091590280915A0295
:1007E00090915B020E94840CA701960169837A8331
:1007F0008B839C8369817A818B819C810E94F00C20
:1008000088230CF06DC081E090E0909357028093B4
:1008100056028091460290914702A0914802B09101
:1008200049028093580290935902A0935A02B093C0
:100830005B020AC08091060181FF06C080915602CA
:1008400090915702892B99F480915602909157020A
:100850000F900F900F900F90DF91CF91FF90EF903E
:10086000DF90CF9008958091060181FFEDCFC09079
:100870004602D0904702E0904802F09049022DECE9
:100880003CEC4CE45DE36091580270915902809118
:100890005A0290915B020E94840CA7019601698321
:1008A0007A838B839C8369817A818B819C810E946E
:1008B000F00C88234CF61092570210925602809149
:1008C000460290914702A0914802B091490280935C
:1008D000580290935902A0935A02B0935B02B4CF8E
:1008E00080910601B1CF80B3876080BB81B3876000
:1008F00081BB0895CF92DF92EF92FF92CF93DF9367
:1009000000D00F92CDB7DEB7282F392F2130310517
:1009100009F482C02230310509F4EDC080E090E096
:10092000232B59F00F900F900F900F90DF91CF91E4
:10093000FF90EF90DF90CF90089520914602309184
:1009400047024091480250914902609170027091B3
:10095000710280917202909173020E946A0D1816C2
:1009600044F410927002109271021092720210926E
:100970007302789943C080916E0290916F02892B27
:1009800009F028C1C0904602D0904702E09048028A
:10099000F09049022BE037ED43E25CE36091700296
:1009A0007091710280917202909173020E94840C86
:1009B000A701960169837A838B839C8369817A81FD
:1009C0008B819C810E94F00C88230CF03FC181E058
:1009D00090E090936F0280936E0280914602909116
:1009E0004702A0914802B09149028093700290930F
:1009F0007102A0937202B093730209C0789B07C082
:100A000080916E0290916F02892B09F0E5C0809170
:100A10006E0290916F0286CF20914602309147027C
:100A2000409148025091490260916A0270916B02B4
:100A300080916C0290916D020E946A0D181644F428
:100A400010926A0210926B0210926C0210926D0268
:100A50007A9943C08091680290916902892B09F0CC
:100A6000F7C0C0904602D0904702E0904802F09054
:100A700049022BE037ED43E25CE360916A0270913A
:100A80006B0280916C0290916D020E94840CA70110
:100A9000960169837A838B839C8369817A818B81B8
:100AA0009C810E94F00C88230CF00EC181E090E044
:100AB0009093690280936802809146029091470268
:100AC000A0914802B091490280936A0290936B0210
:100AD000A0936C02B0936D0209C07A9B07C080910D
:100AE000680290916902892B09F0B4C08091680274
:100AF0009091690217CF20914602309147024091B0
:100B0000480250914902609164027091650280919F
:100B10006602909167020E946A0D181644F41092C2
:100B2000640210926502109266021092670279992F
:100B300043C08091620290916302892B09F0C8C082
:100B4000C0904602D0904702E0904802F0904902DF
:100B50002BE037ED43E25CE3609164027091650243
:100B600080916602909167020E94840CA701960111
:100B700069837A838B839C8369817A818B819C8151
:100B80000E94F00C88230CF0A1C081E090E09093CB
:100B90006302809362028091460290914702A09185
:100BA0004802B09149028093640290936502A09339
:100BB0006602B093670209C0799B07C08091620208
:100BC00090916302892B09F085C080916202909117
:100BD0006302A8CE789B1BCFC0904602D0904702FC
:100BE000E0904802F09049022BE037ED43E25CE3ED
:100BF0006091700270917102809172029091730203
:100C00000E94840CA701960169837A838B839C835D
:100C100069817A818B819C810E94F00C88230CF081
:100C2000F6CE10926F0210926E0280914602909161
:100C30004702A0914802B0914902809370029093BC
:100C40007102A0937202B0937302E1CE8FB1DFCE36
:100C50007A9B4CCFC0904602D0904702E090480269
:100C6000F09049022BE037ED43E25CE360916A02C9
:100C700070916B0280916C0290916D020E94840CC5
:100C8000A701960169837A838B839C8369817A812A
:100C90008B819C810E94F00C88230CF027CF10924E
:100CA0006902109268028091460290914702A091D9
:100CB0004802B091490280936A0290936B02A0931C
:100CC0006C02B0936D0212CF8FB110CF8FB17DCF78
:100CD000799B7BCFC0904602D0904702E0904802BB
:100CE000F09049022BE037ED43E25CE3609164024F
:100CF0007091650280916602909167020E94840C57
:100D0000A701960169837A838B839C8369817A81A9
:100D10008B819C810E94F00C88230CF056CF10929E
:100D20006302109262028091460290914702A09164
:100D30004802B09149028093640290936502A093A7
:100D40006602B093670241CF00D000D0CDB7DEB7C6
:100D50000FEF1FEF2FEF3FEF3E832D83EE24E39441
:100D6000F12C6894CC24C2F8D12C0F2EF3E08F2EF6
:100D7000F02D912C6894AA24A1F8B12C4EC281E0E8
:100D800090E09E838D8349C2AD82BE8246C20D81B2
:100D90001E8123E030E03E832D833FC20D811E8102
:100DA00083E090E09E838D8338C20D811E8123E015
:100DB00030E03E832D8331C20D811E8183E090E0BF
:100DC0009E838D832AC20D811E8123E030E03E8305
:100DD0002D8323C20D811E8183E090E09E838D834D
:100DE0001CC20D811E81CD82DE8217C2009779F16F
:100DF0008130910501F58D819E81019709F471C0C3
:100E00000E94E7000E94E1020E948A0A10929D025D
:100E100010929C0210929B0210929A020E941B0256
:100E20000E9473040E94640160E080E00E941F023F
:100E30000D811E81E5C10D811E819E838D83EDC1D3
:100E40000D811E819E838D83E8C10D831E83809159
:100E5000460290914702A0914802B091490282E374
:100E600092E00E94840280E090E00E947A04892B44
:100E7000A1F08091880290918902892B59F49E2DCE
:100E80008F2D90932802809329020D811E811E824E
:100E90001D82C3C19D818E81F4CF8E2D9F2D0E9416
:100EA0007A04892B99F09E2D8F2D20918802309104
:100EB0008902232B11F090E080E0909388028093C8
:100EC00089020D811E811E821D82A7C18A2D9B2D44
:100ED0000E947A04892B39F70D811E811E821D82A2
:100EE0009CC10D811E818CC18E2D9F2D0E947A0484
:100EF000892B19F0ED82FE8290C18A2D9B2D0E94D4
:100F00007A04892B09F03BCF82E090E0909329028C
:100F10008093280221E030E03E832D837EC10D8145
:100F20001E818CE392E00E94840280E090E00E94A7
:100F30007A04892B09F428CF809228029092290202
:100F4000AD82BE826AC10D831E8310928702109209
:100F500086028091260290912702892B09F4D3C042
:100F60002091840230918502C901029690938502F6
:100F700080938402233031058CF0C0922802D092F5
:100F800029021092850210928402E0922602F092C9
:100F900027020D811E818D829E823FC1880F991F7D
:100FA000FC01E65DFD4F8081918190932502809345
:100FB0002402E0928602F09287028430910509F4BF
:100FC000B5C108F048C08230910509F457C183309B
:100FD000910509F580918202909183020196909388
:100FE0008302809382028091460290914702A091F1
:100FF0004802B091490280937E0290937F02A093B1
:101000008002B09381024FEF6FEF8FEF0E94D90102
:10101000892BC9F388C00197C9F480917A02909115
:101020007B02019690937B0280937A028091460224
:1010300090914702A0914802B09149024FEF6FEFA3
:1010400081E00E94EF01892BC9F38AC00D811E81C6
:101050008D829E82E2C08530910509F43BC10697DE
:10106000C9F4809174029091750201969093750273
:10107000809374028091460290914702A0914802A9
:10108000B09149024FEF6FEF82E00E940502892B79
:10109000C9F385C00D811E8183E090E09E838D831E
:1010A000BCC0409046025090470260904802709049
:1010B000490220E030E040E85FE360917E027091F9
:1010C0007F0280918002909181020E94840CA30192
:1010D000920169837A838B839C8369817A818B8176
:1010E0009C810E946A0D18162CF54FEF60E08FE787
:1010F0000E94D901892BC9F381E090E090932702E7
:101100008093260217C0809124029091250284309A
:10111000910509F423C1E8F58230910509F4C6C0B0
:1011200083309105D9F480918202909183020297D5
:1011300009F4B7CF80914C0290914D02892B09F4AC
:1011400026CE81E090E090932702809326020D81C5
:101150001E8123E030E03E832D835FC00197A1F420
:1011600080914C0290914D02892B09F41ECE81E0B2
:1011700090E090932702809326020D811E8123E048
:1011800030E03E832D8349C00D811E818D829E8279
:1011900044C08530910509F4B5C00697A1F480914B
:1011A0004C0290914D02892B09F414CE81E090E01D
:1011B00090932702809326020D811E8183E090E0A8
:1011C0009E838D832AC00D811E8123E030E03E8303
:1011D0002D8323C08230910509F4A3CE58F08330CB
:1011E000910509F4B0CE8430910509F044C00D8317
:1011F0001E832AC0009709F428CE81309105C1F5DD
:1012000087E392E00E94840280E090E00E947A04EA
:10121000892B09F469CEED82FE828091280290919B
:1012200029022D813E8128173907A1F282309105CC
:1012300009F475CE08F4DACD8330910509F485CE32
:101240008430910509F0FCCD81E492E00E94840293
:1012500080E090E00E947A04892B09F4C2CDE092EC
:101260002802F09229020D811E81CD82DE82D5CF27
:101270009E838D83D2CF9E838D83CFCF8091780242
:1012800090917902019690937902809378028091EF
:10129000460290914702A0914802B09149024FEF57
:1012A0006FEF82E00E94EF01892BC9F380914C021D
:1012B00090914D02892B09F47FCD81E090E09093CD
:1012C0002702809326020D811E8183E090E09E8399
:1012D0008D83A3CF809176029091770201969093AF
:1012E0007702809376028091460290914702A09106
:1012F0004802B09149024FEF6FEF81E00E94050272
:10130000892BC9F380914C0290914D02892B09F4ED
:101310005ACD81E090E090932702809326020D81C0
:101320001E8123E030E03E832D8377CF80917C02C5
:1013300090917D02019690937D0280937C02809132
:10134000460290914702A0914802B09149024FEFA6
:101350006FEF80E00E94D901892BC9F380914C0284
:1013600090914D02892B09F419CD81E090E0909382
:101370002702809326020D811E8183E090E09E83E8
:101380008D834BCF1F921FB61F9211242F933F9333
:101390004F938F939F93AF93BF938091A6009091AB
:1013A000A700A0E0B0E0803A2FE09207A105B105C8
:1013B0006CF421E030E080399140A105B10514F0D2
:1013C00020E030E030938D0220938C02BF91AF91EA
:1013D0009F918F914F913F912F911F901FBE1F9012
:1013E00018951F921FB61F9211242F933F934F936E
:1013F0008F939F93AF93BF93809126019091270184
:10140000A0E0B0E0803A2FE09207A105B1056CF4AE
:1014100021E030E080399140A105B10514F020E0D1
:1014200030E030938D0220938C02BF91AF919F9159
:101430008F914F913F912F911F901FBE1F90189534
:10144000E1EAF0E080818C7F80831092A700109207
:10145000A600A1E0B1E08C9180618C93AAE0B1E09C
:101460008C918E7F8C93A0EAB0E08C9183608C93FA
:101470008081886180838C9180628C93808181607F
:10148000808380E89EE39093A9008093A80080EA7F
:101490009FE09093AB008093AA008081806480835A
:1014A000E2E7F0E08081806280830895E1E2F1E08C
:1014B00080818C7F80831092270110922601AAE000
:1014C000B1E08C9180618C938C918D7F8C93A0E2A4
:1014D000B1E08C9183608C938081886180838C9152
:1014E00080628C9380818160808380E89EE390930A
:1014F00029018093280180EA9FE090932B0180933B
:101500002A01808180648083E3E7F0E0808180624B
:10151000808308950E94200A0E94560A78940895B4
:10152000CF92DF92EF92FF92CF93DF9300D00F9292
:10153000CDB7DEB720914602309147024091480274
:1015400050914902609196027091970280919802A1
:10155000909199020E946A0D181644F41092960216
:1015600010929702109298021092990280918C0228
:1015700090918D02892B09F043C080919402909143
:101580009502892B09F057C0C0904602D0904702BF
:10159000E0904802F09049022BE037ED43E25CE333
:1015A00060919602709197028091980290919902B1
:1015B0000E94840CA701960169837A838B839C83A4
:1015C00069817A818B819C810E94F00C88230CF0C8
:1015D00071C081E090E09093950280939402809195
:1015E000460290914702A0914802B091490280932F
:1015F000960290939702A0939802B09399020CC020
:1016000080918C0290918D02892B31F0809194020F
:1016100090919502892BA9F4809194029091950262
:101620000F900F900F900F90DF91CF91FF90EF9060
:10163000DF90CF90089580918C0290918D02892B3C
:1016400059F3C0904602D0904702E0904802F090D3
:1016500049022BE037ED43E25CE360919602709122
:10166000970280919802909199020E94840CA701A0
:10167000960169837A838B839C8369817A818B81CC
:101680009C810E94F00C88233CF6109295021092E7
:1016900094028091460290914702A0914802B09135
:1016A00049028093960290939702A0939802B09378
:1016B0009902B2CF80918C0290918D02ADCFCF92E2
:1016C000DF92EF92FF92CF93DF9300D00F92CDB7CE
:1016D000DEB7209146023091470240914802509176
:1016E00049026091900270919102809192029091D2
:1016F00093020E946A0D181644F410929002109200
:101700009102109292021092930280918A0290911B
:101710008B02892B09F043C080918E0290918F0239
:10172000892B09F057C0C0904602D0904702E09044
:101730004802F09049022BE037ED43E25CE3609110
:1017400090027091910280919202909193020E9476
:10175000840CA701960169837A838B839C836981BA
:101760007A818B819C810E94F00C88230CF071C0DF
:1017700081E090E090938F0280938E0280914602E8
:1017800090914702A0914802B09149028093900243
:1017900090939102A0939202B09393020CC0809117
:1017A0008A0290918B02892B31F080918E02909168
:1017B0008F02892BA9F480918E0290918F020F9055
:1017C0000F900F900F90DF91CF91FF90EF90DF90EF
:1017D000CF90089580918A0290918B02892B59F3C2
:1017E000C0904602D0904702E0904802F090490233
:1017F0002BE037ED43E25CE360919002709191023F
:1018000080919202909193020E94840CA70196010C
:1018100069837A838B839C8369817A818B819C81A4
:101820000E94F00C88233CF610928F0210928E02D8
:101830008091460290914702A0914802B0914902DE
:101840008093900290939102A0939202B09393029E
:10185000B2CF80918A0290918B02ADCF22982A9AC2
:10186000E9E6F0E0808185608083E99A78940895C4
:101870001F921FB61F9211242F938F939F93109244
:101880002902109228022FEF89EF90E0215080402A
:101890009040E1F700C000009F918F912F911F9021
:1018A0001FBE1F9018950E94900A892B99F0809175
:1018B0009C0290919D02019690939D0280939C02C0
:1018C00080919E0290919F02019690939F02809337
:1018D0009E02089580919A0290919B0201969093A6
:1018E0009B0280939A02ECCFA29FB001B39FC001EC
:1018F000A39F700D811D1124911DB29F700D811D3C
:101900001124911D08955058BB27AA270E949B0CB3
:101910000C94300D0E94220D38F00E94290D20F009
:1019200039F49F3F19F426F40C941F0D0EF4E09542
:10193000E7FB0C94190DE92F0E94410D58F3BA17DB
:10194000620773078407950720F079F4A6F50C94D5
:10195000630D0EF4E0950B2EBA2FA02D0B01B901EB
:1019600090010C01CA01A0011124FF27591B99F015
:10197000593F50F4503E68F11A16F040A22F232F21
:10198000342F4427585FF3CF469537952795A79571
:10199000F0405395C9F77EF41F16BA0B620B730B18
:1019A000840BBAF09150A1F0FF0FBB1F661F771F89
:1019B000881FC2F70EC0BA0F621F731F841F48F43E
:1019C000879577956795B795F7959E3F08F0B0CFC7
:1019D0009395880F08F09927EE0F979587950895AE
:1019E0000E94F50C08F481E00895990F0008550F46
:1019F000AA0BE0E8FEEF16161706E807F907C0F095
:101A000012161306E407F50798F0621B730B840B9C
:101A1000950B39F40A2661F0232B242B252B21F476
:101A200008950A2609F4A140A6958FEF811D811D16
:101A3000089597F99F6780E870E060E008959FEF50
:101A400080EC089500240A94161617061806090655
:101A5000089500240A941216130614060506089524
:101A6000092E0394000C11F4882352F0BB0F40F4AC
:101A7000BF2B11F460FF04C06F5F7F4F8F4F9F4FEC
:101A8000089557FD9058440F551F59F05F3F71F06E
:101A90004795880F97FB991F61F09F3F79F08795D5
:101AA0000895121613061406551FF2CF4695F1DF5E
:101AB00008C0161617061806991FF1CF86957105EE
:101AC000610508940895E894BB2766277727CB0122
:101AD00097F908950E94F50C08F48FEF0895F89493
:021AE000FFCF36
:101AE200777C395E79713D74061E753855545C7386
:101AF20067506D783E1C6A766E5B3F065B4F666D83
:101B02007D077F6F03000100010003000200030054
:101B1200000053544F5000727365740069646C6521
:061B220000656E64200066
:00000001FF
