:100000000C9472000C9493000C9493000C94970938
:100010000C9493000C9493000C9493000C94930014
:100020000C9493000C9493000C9493000C94930004
:100030000C9493000C9493000C9493000C949300F4
:100040000C9493000C9493000C9493000C949300E4
:100050000C9493000C9495000C9493000C949300D2
:100060000C9493000C9493000C9493000C949300C4
:100070000C9493000C9493000C9493000C949300B4
:100080000C9493000C9493000C9493000C949300A4
:100090000C9493000C9493000C9493000C94930094
:1000A0000C9493000C94730B0C9493000C94930099
:1000B0000C9493000C9493000C94620B0C9493009A
:1000C0000C9493000C9493000C9493000C94930064
:1000D0000C9493000C9493000C9493000C94930054
:1000E0000C94930011241FBECFEFD1E2DEBFCDBF31
:1000F00000E00CBF12E0A0E0B2E0EAEBFEE100E0BD
:100100000BBF02C007900D92A433B107D9F722E0CC
:10011000A4E3B2E001C01D92AA38B207E1F70E9441
:1001200013040C945B0F0C9400001F920F920FB6F7
:100130000F9211240BB60F922F933F934F935F931F
:100140006F937F938F939F93AF93BF93EF93FF939F
:10015000CF93DF9300D00F92CDB7DEB780913402FA
:1001600090913502A0913602B091370289839A832B
:10017000AB83BC832FE632E143E85AE3BC01CD01F7
:100180000E941E0D462F572F682F792F409334025F
:100190005093350260933602709337020F900F90A0
:1001A0000F900F90DF91CF91FF91EF91BF91AF91A1
:1001B0009F918F917F916F915F914F913F912F917F
:1001C0000F900BBE0F900FBE0F901F9018951092BE
:1001D00034021092350210923602109237028AEFE2
:1001E00087BD85B5836085BD84B5826084BDEEE63C
:1001F000F0E080818260808378940895869A879A5F
:10020000859A08958F9847E050E0E1E0F0E070E0D3
:100210006C5F7F4F8E988D9891B39F01042E02C022
:10022000220F331F0A94E2F7062E02C03595279558
:100230000A94E2F7A1E02A2721702295220F207E5E
:10024000292B21BB8E9A4150510920F747E050E0FD
:10025000682F70E08E988D9891B39B01042E02C098
:10026000359527950A94E2F7220F331F2295329590
:10027000307F3227207F32272072922B91BB8E9ABB
:100280004150510938F78F9A0895E82F9FEB980F46
:100290009A3128F09FE9980F9A3150F008950E2E68
:1002A000000CFF0BE154FE4F80810E940201089573
:1002B0000E2E000CFF0BE156FE4F80810E940201C2
:1002C000EDCF0F931F93CF93082F192FC0E06C2F02
:1002D000F80181918F010E9445018FE99FE001970C
:1002E000F1F700C00000CF5FC43089F760E080E024
:1002F0000E940201CF911F910F9108951F93CF93F8
:10030000DF93C82FD92F13E09E01ADECBCEC0E9407
:10031000FA0C9C01369527953695279536952795A5
:10032000C901880F991F880F991F820F931F880F8B
:10033000991FFE01E81BF90BE65EFD4F612F8081DE
:100340000E9402019E01ADECBCEC0E94FA0CEC0193
:10035000D695C795D695C795D695C7958FE99FE051
:100360000197F1F700C00000115070F660E080E0E6
:100370000E940201DF91CF911F91089580913A026E
:1003800090913B0244E6489F9001499F300D112413
:100390008091380290913902820F931F0E947E0152
:1003A000089580913A0290913B0244E6489F900163
:1003B000499F300D11248091380290913902820FAB
:1003C000931F0E947E010895E7E0F1E080818C7F19
:1003D000808308958091060180FD0DC08FE39CE924
:1003E0000197F1F700C000008091060191E0892794
:1003F000817090E0089580E090E00895809106017A
:1004000081FD0EC08FE39CE90197F1F700C0000069
:1004100080910601869591E08927817090E008958A
:1004200080E090E008950E94FE01892BD1F0809138
:100430003E0290913F02892B79F480913C02909189
:100440003D02019690933D0280933C0281E090E052
:1004500090933F0280933E0280913C0290913D0236
:1004600008950E94EA01892BB9F3E1CF80B3876038
:1004700080BB81B3876081BB0895CF92DF92EF92FA
:10048000FF92CF93DF9300D00F92CDB7DEB7282F26
:10049000392F2130310509F466C02230310509F4C5
:1004A000B5C080E090E0232B59F00F900F900F9093
:1004B0000F90DF91CF91FF90EF90DF90CF90089554
:1004C000789943C08091500290915102892B09F094
:1004D000F0C0C0903402D0903502E0903602F09027
:1004E000370220E030E040E251E460914C0270912C
:1004F0004D0280914E0290914F020E941E0DA70165
:10050000960169837A838B839C8369817A818B814D
:100510009C810E948A0D88230CF007C181E090E045
:100520009093510280935002809134029091350251
:10053000A0913602B091370280934C0290934D0205
:10054000A0934E02B0934F0209C0789B07C08091E0
:10055000500290915102892B09F0ADC08091500258
:1005600090915102A2CF7A9943C080914A02909112
:100570004B02892B09F0DBC0C0903402D0903502C9
:10058000E0903602F090370220E030E040E251E4A3
:100590006091460270914702809148029091490211
:1005A0000E941E0DA701960169837A838B839C8329
:1005B00069817A818B819C810E948A0D88230CF04D
:1005C000F2C081E090E090934B0280934A028091C8
:1005D000340290913502A0913602B0913702809397
:1005E000460290934702A0934802B093490209C083
:1005F0007A9B07C080914A0290914B02892B09F0A7
:1006000098C080914A0290914B024FCF799943C094
:100610008091440290914502892B09F0C8C0C09096
:100620003402D0903502E0903602F090370220E09C
:1006300030E040E251E460914002709141028091CB
:100640004202909143020E941E0DA7019601698308
:100650007A838B839C8369817A818B819C810E94C0
:100660008A0D88230CF0A1C081E090E090934502B0
:10067000809344028091340290913502A091360219
:10068000B09137028093400290934102A0934202BE
:10069000B093430209C0799B07C0809144029091B6
:1006A0004502892B09F085C0809144029091450252
:1006B000FCCE789B53CFC0903402D0903502E090AE
:1006C0003602F090370220E030E040E251E46091E1
:1006D0004C0270914D0280914E0290914F020E9407
:1006E0001E0DA701960169837A838B839C836981A0
:1006F0007A818B819C810E948A0D88230CF02ECFF9
:100700001092510210925002809134029091350261
:10071000A0913602B091370280934C0290934D0223
:10072000A0934E02B0934F0219CF8FB117CF7A9B8F
:1007300068CFC0903402D0903502E0903602F0903D
:10074000370220E030E040E251E4609146027091CF
:10075000470280914802909149020E941E0DA70114
:10076000960169837A838B839C8369817A818B81EB
:100770009C810E948A0D88230CF043CF10924B027B
:1007800010924A028091340290913502A091360273
:10079000B09137028093460290934702A09348029B
:1007A000B09349022ECF8FB12CCF8FB17DCF799BE3
:1007B0007BCFC0903402D0903502E0903602F090AA
:1007C000370220E030E040E251E460914002709155
:1007D000410280914202909143020E941E0DA701A6
:1007E000960169837A838B839C8369817A818B816B
:1007F0009C810E948A0D88230CF056CF10924502EE
:10080000109244028091340290913502A0913602F8
:10081000B09137028093400290934102A09342022C
:10082000B093430241CF00D00F92CDB7DEB70E9404
:10083000E7000E94F40B0E945D0B0E94E4010E94FD
:10084000FE000E9436020E94BB06D3C00E94BB0677
:10085000D9C08091340290913502A0913602B091B6
:10086000370289839A83AB83BC83209164023091E1
:1008700065024091660250916702BC01CD010E9461
:10088000E90E18160CF58091340290913502A09172
:100890003602B091370289839A83AB83BC8320915F
:1008A00068023091690240916A0250916B02BC016A
:1008B000CD010E94E90E18163CF480916C029091D3
:1008C0006D02892B09F0F9C00E94FE01892B09F401
:1008D0001EC18091600290916102892B09F017C1BD
:1008E0008091340290913502A0913602B091370286
:1008F00089839A83AB83BC8320915C0230915D0233
:1009000040915E0250915F02BC01CD010E94E90E50
:1009100018160CF0FCC091E09093600210926102F6
:1009200080915202909153020196909353028093CA
:10093000520290933B0280933A028091340290914C
:100940003502A0913602B091370289839A83AB8336
:10095000BC8320E030E040E85FE3BC01CD010E94B1
:100960001E0D609358027093590280935A0290931F
:100970005B0291E0909356021092570290E080E063
:1009800090932402809325022091520230915302C9
:100990008091380290913902281739070CF42FC141
:1009A0001092250210922402809134029091350217
:1009B000A0913602B091370289839A83AB83BC83BE
:1009C0009C01AD01BC01CD010E941E0D69837A839B
:1009D0008B839C8369817A818B819C810E94010E2B
:1009E000462F572F41705527452B09F403C10E940C
:1009F000D1018091240290912502892B09F426CF00
:100A00000E9444080E94EA01892B09F422CF8091B8
:100A10006C0290916D02892B09F01BCF80913402FA
:100A200090913502A0913602B091370289839A8362
:100A3000AB83BC83209168023091690240916A02C5
:100A400050916B02BC01CD010E94E90E18160CF00A
:100A500000CF91E090936C0210926D02809152024F
:100A60009091530201969093530280935202909377
:100A70003B0280933A028091340290913502A0911A
:100A80003602B091370289839A83AB83BC8320E01E
:100A900030E040E85FE3BC01CD010E941E0D609391
:100AA000640270936502809366029093670291E0FE
:100AB000909362021092630207CF10926302109229
:100AC00062028091340290913502A0913602B09179
:100AD000370289839A83AB83BC832DEC3CEC4CECCE
:100AE0005DE3BC01CD010E941E0D6093680270930E
:100AF000690280936A0290936B020E94EA01892B3B
:100B000009F0E2CE10926D0210926C02DDCE80915F
:100B1000340290913502A0913602B0913702898358
:100B20009A83AB83BC832091580230915902409143
:100B30005A0250915B02BC01CD010E94E90E1816C9
:100B400004F58091340290913502A0913602B09163
:100B5000370289839A83AB83BC8320915C023091F6
:100B60005D0240915E0250915F02BC01CD010E9486
:100B7000E90E181634F48091600290916102892B7D
:100B800081F480916202909163022091560230912B
:100B90005702822B932B892B09F0F0CE91E080E055
:100BA000EFCE10925702109256028091340290912B
:100BB0003502A0913602B091370289839A83AB83C4
:100BC000BC832DEC3CEC4CEC5DE3BC01CD010E9400
:100BD0001E0D60935C0270935D0280935E029093A1
:100BE0005F020E94FE01892B61F610926102109251
:100BF0006002C7CF60E080E00E940201FACE0E944E
:100C0000D101F7CECF93DF9300D00F92CDB7DEB7EF
:100C100003E010E06894EE24E2F8F12C2FC0892B59
:100C200039F10E94E7000E94F40B0E945D0B0E94C4
:100C3000920660E070E080E490E40E941D0960E0AC
:100C400070E080E490E40E9455090E94E4010E9453
:100C5000FE000E9436020E94BB0660E080E00E9417
:100C6000020182E090E0909327028093260206C062
:100C70000E94BB068EE292E00E94610180912602F2
:100C80009091270282309105B1F048F283309105AE
:100C9000F9F084309105B1F7E0916E02F0916F02A6
:100CA000EE0FFF1FE85DFD4F61E170E080819181F3
:100CB0000E94CE06E3CF0E94BB0680E090E00E9437
:100CC0003D02892BD9F21093270200932602D6CF3A
:100CD0000E94FA0B20E030E040E751E469837A8318
:100CE0008B839C8369817A818B819C810E94E90E30
:100CF000181624F60E94700C20E030E040E751E422
:100D000069837A838B839C8369817A818B819C81BF
:100D10000E94E90E18160CF0B1CFF0922702E09273
:100D20002602ACCF10927C0210927D0210927E02BD
:100D300010927F02109278021092790210927A0239
:100D400010927B0210927402109275021092760239
:100D5000109277028091340290913502A091360270
:100D6000B09137028093700290937102A093720247
:100D7000B0937302089560E070E0CB010E94CD094A
:100D800060E070E0CB010E94940A10927802109209
:100D9000790210927A0210927B0208958F929F92AC
:100DA000AF92BF92EF92FF920F931F93CF93DF9377
:100DB00000D000D0CDB7DEB7082F192FE62EF72EC2
:100DC0008091340290913502A0913602B0913702A1
:100DD00089839A83AB83BC83209170023091710226
:100DE0004091720250917302BC01CD010E941D0D11
:100DF00020917402309175024091760250917702F1
:100E000069837A838B839C8369817A818B819C81BE
:100E10000E94EE0E209178023091790240917A0280
:100E200050917B0269837A838B839C8369817A8169
:100E30008B819C810E941E0DF62FE72F462F572F86
:100E4000682F792F409378025093790260937A0249
:100E500070937B0280907C0290907D02A0907E0235
:100E6000B0907F02A5019401F983EA838B839C8370
:100E700069817A818B819C810E94E90E181644F465
:100E80008092780290927902A0927A02B0927B02CC
:100E90008091340290913502A0913602B0913702D0
:100EA0008093700290937102A0937202B0937302C8
:100EB000ED82FE82AD81BE811C9724F48CE090E02F
:100EC0009E838D830130110509F46DC00230110538
:100ED00009F4A9C0012B99F060E070E0CB010E94F9
:100EE000CD0960E070E0CB010E94940A1092780274
:100EF0001092790210927A0210927B0243C0AD8167
:100F0000BE81AA0FBB1FCD014997BD01675E7F4F10
:100F10000E94E60CCB01770FAA0BBB0B89839A8347
:100F2000AB83BC83BC01CD010E94390E20917802B5
:100F30003091790240917A0250917B0269837A83E1
:100F40008B839C8369817A818B819C810E94EE0EC8
:100F500069837A838B839C8369817A818B819C816D
:100F60000E94CD098091780290917902A0917A0235
:100F7000B0917B0289839A83AB83BC83BC01CD0192
:100F80000E94940A0F900F900F900F900F900F9067
:100F9000DF91CF911F910F91FF90EF90BF90AF9095
:100FA0009F908F9008958091780290917902A091FE
:100FB0007A02B0917B02BC01CD010E94CD09AD81C6
:100FC000BE81AA0FBB1FCD014997BD01675E7F4F50
:100FD0000E94E60CCB01770FAA0BBB0B89839A8387
:100FE000AB83BC83BC01CD010E94390E20917802F5
:100FF0003091790240917A0250917B0269837A8321
:101000008B839C8369817A818B819C810E94EE0E07
:1010100069837A838B839C8369817A818B819C81AC
:101020000E94940AAFCF2DEC3CEC4CEC5DE3609158
:1010300078027091790280917A0290917B020E94ED
:10104000EE0E69837A838B839C8369817A818B819D
:101050009C810E94CD092DEC3CEC4CEC5DE3609151
:1010600078027091790280917A0290917B020E94BD
:10107000EE0E69837A838B839C8369817A818B816D
:101080009C810E94940A7ECFCF92DF92EF92FF92D2
:101090000F931F93CF93DF9300D000D0CDB7DEB76F
:1010A0000E94FA0B062F172F8E839D830E94700CCF
:1010B000C62ED72EE82EF92E20E030E040E05FE388
:1010C00009831A838E818B838D818C8369817A81D8
:1010D0008B819C810E941E0D2C2D3D2D4E2D5F2D50
:1010E00069837A838B839C8369817A818B819C81DC
:1010F0000E948A0D88230CF464C020E030E040E0B8
:101100005FE3C982DA82EB82FC8269817A818B811A
:101110009C810E941E0D202F312F4E815D8169839D
:101120007A838B839C8369817A818B819C810E94E5
:101130008A0D88230CF07AC02C2D3D2D4E2D5F2D6D
:1011400009831A838E818B838D818C8369817A8157
:101150008B819C810E941D0D262F372F482F592FE0
:1011600060E070E080E89FE30E948F0D20E030E0B7
:1011700040E251E469837A838B839C8369817A811D
:101180008B819C810E94EE0E69837A838B839C8382
:1011900069817A818B819C810E94010E80E090E0C0
:1011A0000E94CE060F900F900F900F900F900F900F
:1011B000DF91CF911F910F91FF90EF90DF90CF9033
:1011C0000895202F312F4E815D81C982DA82EB8212
:1011D000FC8269817A818B819C810E941D0D262F62
:1011E000372F482F592F60E070E080E89FE30E947E
:1011F0008F0D20E030E040E251E469837A838B83F5
:101200009C8369817A818B819C810E94EE0E698327
:101210007A838B839C8369817A818B819C810E94F4
:10122000010E81E090E00E94CE06BCCF60E070E04D
:1012300082E090E00E94CE06B5CF0F931F93CF932C
:10124000DF9300D000D0CDB7DEB7062F172F8E83E7
:101250009D8320E030E040E050E469837A838B8313
:101260009C8369817A818B819C810E948A0D88236D
:101270002CF000E010E01E8280E48D83402F512F7F
:101280006E817D8140937C0250937D0260937E024B
:1012900070937F020F900F900F900F900F900F9010
:1012A000DF91CF911F910F9108950F931F93CF93CB
:1012B000DF9300D000D0CDB7DEB7062F172F8E8377
:1012C0009D8320E030E040E050E469837A838B83A3
:1012D0009C8369817A818B819C810E948A0D8823FD
:1012E0002CF000E010E01E8280E48D83402F512F0F
:1012F0006E817D81409374025093750260937602F3
:10130000709377020F900F900F900F900F900F90A7
:10131000DF91CF911F910F91089522982A9AE9E6C3
:10132000F0E0808185608083E99A789408951F9227
:101330000F920FB60F9211240BB60F922F933F937B
:101340004F935F936F937F938F939F93AF93BF93CD
:10135000EF93FF932FEF89EF90E021508040904072
:10136000E1F700C000001A9913C0FF91EF91BF91FF
:10137000AF919F918F917F916F915F914F913F912D
:101380002F910F900BBE0F900FBE0F901F901895CE
:1013900088EE93E00E947E01E8CFCF93DF9300D0E8
:1013A0000F92CDB7DEB7462F572F682F792F49837D
:1013B0005A836B837C8320E030E048EC52E46981FF
:1013C0007A818B819C810E94E90E18165CF120E0E5
:1013D00030E048EC52EC69817A818B819C810E94DB
:1013E0008A0D88239CF480E090E0A8ECB2EC89831D
:1013F0009A83AB83BC832D9889819A81AB81BC8110
:10140000B05889839A83AB83BC8315C020E030E059
:10141000A90169817A818B819C810E948A0D882330
:101420004CF4E9CF80E090E0A8ECB2E489839A83A1
:10143000AB83BC832D9A20E030E040EE50E469811C
:101440007A818B819C810E948A0D88233CF483E001
:1014500090E0909389008093880038C028E134E1BF
:1014600046E759E369817A818B819C810E94EE0E67
:1014700020E030E040E857E369837A838B839C83E4
:1014800069817A818B819C810E941E0D262F372FC6
:10149000482F592F60E070E088EC92E40E948F0D95
:1014A00069837A838B839C8369817A818B819C8118
:1014B0000E94080E862F972F803AAFE09A0710F40B
:1014C00080EA9FE090938900809388000F900F90AE
:1014D0000F900F90DF91CF910895E1E8F0E08081C7
:1014E0008E7F8083269AA0E8B0E08C9183608C93F5
:1014F0008081886180838C9180628C9380818160FF
:10150000808380EA9FE0909389008093880080E246
:1015100090E090938B0080938A00259A60E070E0C1
:10152000CB010E94CD090895CF93DF9300D00F9295
:10153000CDB7DEB7462F572F682F792F49835A83AF
:101540006B837C8320E030E048EC52E469817A814F
:101550008B819C810E94E90E18165CF120E030E03E
:1015600048EC52EC69817A818B819C810E948A0DC2
:1015700088239CF480E090E0A8ECB2EC89839A8305
:10158000AB83BC83759889819A81AB81BC81B0584B
:1015900089839A83AB83BC8315C020E030E0A90126
:1015A00069817A818B819C810E948A0D88234CF409
:1015B000E9CF80E090E0A8ECB2E489839A83AB8322
:1015C000BC83759A20E030E040EE50E469817A8176
:1015D0008B819C810E948A0D88233CF483E090E0FB
:1015E000909399008093980038C028E134E146E751
:1015F00059E369817A818B819C810E94EE0E20E003
:1016000030E040E857E369837A838B839C83698168
:101610007A818B819C810E941E0D262F372F482FA7
:10162000592F60E070E088EC92E40E948F0D69838E
:101630007A838B839C8369817A818B819C810E94D0
:10164000080E862F972F803AAFE09A0710F480EAB1
:101650009FE090939900809398000F900F900F90C7
:101660000F90DF91CF910895E1E8F0E080818E7FC7
:1016700080836C9AA0E9B0E08C9183608C93E1E95F
:10168000F0E08081886180838C9180628C9380817E
:101690008160808380EA9FE0909399008093980016
:1016A00080E290E090939B0080939A006D9A60E0B6
:1016B00070E0CB010E94940A08950E946D0A0E9476
:1016C000340B08951F921FB61F9211248F9310920E
:1016D00025011092240181E0809381028F911F9057
:1016E0001FBE1F9018951F921FB61F9211248F9333
:1016F000109225011092240181E0809380028F9145
:101700001F901FBE1F901895E1E2F1E080818C7F51
:101710008083109227011092260110928102AAE084
:10172000B1E08C9180618C938C918D7F8C93A0E241
:10173000B1E08C9183608C938081886180838C91EF
:1017400080628C9380818360808388E99AE39093A0
:1017500029018093280183E090E090932B018093EE
:101760002A0180818F7B8083E3E7F0E080818062C3
:1017700080830895E1E2F1E080818C7F8083109284
:10178000A7001092A60010928002E1E0F1E08081B3
:1017900080618083EAE0F1E080818E7F8083A0EA2F
:1017A000B0E08C9183608C93E1EAF0E08081886105
:1017B00080838C9180628C9380818360808388E9B0
:1017C0009AE39093A9008093A80083E090E090931F
:1017D000AB008093AA0080818F7B8083E2E7F0E0FA
:1017E00080818062808308950E94840B0E94BA0BDE
:1017F00078940895CF93DF9300D00F92CDB7DEB7E2
:1018000080918102882309F456C0109281022091B0
:10181000260130912701C901A0E0B0E02732324013
:1018200070F186529240A109B109880F991FAA1F31
:10183000BB1F880F991FAA1FBB1F9C01AD012C7FE6
:101840005F7029833A834B835C83CA01B9010E948C
:10185000370E20E030E048E652E469837A838B83D8
:101860009C8369817A818B819C810E948F0D60931A
:10187000860270938702809388029093890220E009
:1018800030E040EF51E460918602709187028091D0
:101890008802909189020E94E90E181664F480E093
:1018A00090E0A0EFB1E48093860290938702A0932A
:1018B0008802B09389028091860290918702A0915C
:1018C0008802B091890289839A83AB83BC83BC016F
:1018D000CD010F900F900F900F90DF91CF91089551
:1018E000CF93DF9300D00F92CDB7DEB78091800207
:1018F000882309F456C0109280022091A6003091EE
:10190000A700C901A0E0B0E02732324070F1865252
:101910009240A109B109880F991FAA1FBB1F880F08
:10192000991FAA1FBB1F9C01AD012C7F5F702983EB
:101930003A834B835C83CA01B9010E94370E20E0D1
:1019400030E048E652E469837A838B839C83698123
:101950007A818B819C810E948F0D609382027093AB
:101960008302809384029093850220E030E040EF70
:1019700051E460918202709183028091840290917F
:1019800085020E94E90E181664F480E090E0A0EF52
:10199000B1E48093820290938302A0938402B09377
:1019A00085028091820290918302A0918402B0917D
:1019B000850289839A83AB83BC83BC01CD010F90E0
:1019C0000F900F900F90DF91CF91089597FB072E06
:1019D00016F4009407D077FD09D00E94090D07FC8A
:1019E00005D03EF4909581959F4F0895709561952F
:1019F0007F4F0895A29FB001B39FC001A39F700DB8
:101A0000811D1124911DB29F700D811D1124911D06
:101A10000895AA1BBB1B51E107C0AA1FBB1FA61735
:101A2000B70710F0A61BB70B881F991F5A95A9F787
:101A300080959095BC01CD0108955058BB27AA27E9
:101A40000E94350D0C94AF0E0E94A10E38F00E943A
:101A5000A80E20F039F49F3F19F426F40C949E0E42
:101A60000EF4E095E7FB0C94980EE92F0E94C00E4F
:101A700058F3BA17620773078407950720F079F4C3
:101A8000A6F50C94E20E0EF4E0950B2EBA2FA02DC5
:101A90000B01B90190010C01CA01A0011124FF271B
:101AA000591B99F0593F50F4503E68F11A16F04016
:101AB000A22F232F342F4427585FF3CF4695379515
:101AC0002795A795F0405395C9F77EF41F16BA0BDA
:101AD000620B730B840BBAF09150A1F0FF0FBB1F88
:101AE000661F771F881FC2F70EC0BA0F621F731FD1
:101AF000841F48F4879577956795B795F7959E3F2E
:101B000008F0B0CF9395880F08F09927EE0F9795BE
:101B1000879508950E94740E08F481E008950E944C
:101B2000A30D0C94AF0E0E94A80E58F00E94A10EB7
:101B300040F029F45F3F29F00C94980E51110C9459
:101B4000E30E0C949E0E0E94C00E68F39923B1F32D
:101B5000552391F3951B550BBB27AA2762177307D3
:101B6000840738F09F5F5F4F220F331F441FAA1F67
:101B7000A9F335D00E2E3AF0E0E832D09150504023
:101B8000E695001CCAF72BD0FE2F29D0660F771FD1
:101B9000881FBB1F261737074807AB07B0E809F0B7
:101BA000BB0B802DBF01FF2793585F4F3AF09E3F3C
:101BB000510578F00C94980E0C94E30E5F3FE4F31B
:101BC000983ED4F3869577956795B795F7959F5F7F
:101BD000C9F7880F911D9695879597F90895E1E0CB
:101BE000660F771F881FBB1F621773078407BA072A
:101BF00020F0621B730B840BBA0BEE1F88F7E09585
:101C000008950E94080E6894B1110C94E30E089593
:101C10000E94C80E88F09F5798F0B92F9927B751A6
:101C2000B0F0E1F0660F771F881F991F1AF0BA9580
:101C3000C9F714C0B13091F00E94E20EB1E00895EE
:101C40000C94E20E672F782F8827B85F39F0B93FE0
:101C5000CCF3869577956795B395D9F73EF4909533
:101C60008095709561957F4F8F4F9F4F0895E894B1
:101C700009C097FB3EF490958095709561957F4FD4
:101C80008F4F9F4F9923A9F0F92F96E9BB27939582
:101C9000F695879577956795B795F111F8CFFAF492
:101CA000BB0F11F460FF1BC06F5F7F4F8F4F9F4FC3
:101CB00016C0882311F096E911C0772321F09EE821
:101CC000872F762F05C0662371F096E8862F70E087
:101CD00060E02AF09A95660F771F881FDAF7880F61
:101CE0009695879597F90895990F0008550FAA0BB7
:101CF000E0E8FEEF16161706E807F907C0F012161F
:101D00001306E407F50798F0621B730B840B950B21
:101D100039F40A2661F0232B242B252B21F4089576
:101D20000A2609F4A140A6958FEF811D811D089513
:101D300097F99F6780E870E060E008959FEF80EC7E
:101D4000089500240A941616170618060906089521
:101D500000240A9412161306140605060895092E87
:101D60000394000C11F4882352F0BB0F40F4BF2BF6
:101D700011F460FF04C06F5F7F4F8F4F9F4F089536
:101D800057FD9058440F551F59F05F3F71F047952C
:101D9000880F97FB991F61F09F3F79F08795089511
:101DA000121613061406551FF2CF4695F1DF08C030
:101DB000161617061806991FF1CF8695710561054D
:101DC00008940895E894BB2766277727CB0197F9F5
:101DD00008950E94740E08F48FEF08950E94010F79
:101DE0000C94AF0E0E94A10E38F00E94A80E20F0B5
:101DF000952311F00C94980E0C949E0E11240C94C3
:101E0000E30E0E94C00E70F3959FC1F3950F50E052
:101E1000551F629FF001729FBB27F00DB11D639F9C
:101E2000AA27F00DB11DAA1F649F6627B00DA11D42
:101E3000661F829F2227B00DA11D621F739FB00DE8
:101E4000A11D621F839FA00D611D221F749F332758
:101E5000A00D611D231F849F600D211D822F762FF1
:101E60006A2F11249F5750409AF0F1F088234AF0CE
:101E7000EE0FFF1FBB1F661F771F881F915050403A
:101E8000A9F79E3F510580F00C94980E0C94E30E38
:101E90005F3FE4F3983ED4F3869577956795B795C1
:101EA000F795E7959F5FC1F7FE2B880F911D9695DB
:0A1EB000879597F90895F894FFCF85
:101EBA00777C395E79713D74061E753855545C73AA
:101ECA0067506D783E1C6A766E5B3F065B4F666DA7
:101EDA007D077F6F010001000100000001005354DB
:041EEA004F50000055
:00000001FF
