:100000000C9472000C9493000C9493000C94AD0B20
:100010000C9493000C9493000C9493000C94930014
:100020000C9493000C9493000C9493000C94930004
:100030000C9493000C9493000C9493000C949300F4
:100040000C9493000C9493000C9493000C949300E4
:100050000C9493000C9495000C9493000C949300D2
:100060000C9493000C9493000C9493000C949300C4
:100070000C9493000C9493000C9493000C949300B4
:100080000C9493000C9493000C9493000C949300A4
:100090000C9493000C9493000C9493000C94930094
:1000A0000C9493000C94DE0D0C9493000C9493002C
:1000B0000C9493000C9493000C94CD0D0C9493002D
:1000C0000C9493000C9493000C9493000C94930064
:1000D0000C9493000C9493000C9493000C94930054
:1000E0000C94930011241FBECFEFD1E2DEBFCDBF31
:1000F00000E00CBF12E0A0E0B2E0ECE3F3E200E0CD
:100100000BBF02C007900D92AC33B107D9F722E0C4
:10011000ACE3B2E001C01D92A039B207E1F70E9442
:1001200087050C949C110C9400001F920F920FB63F
:100130000F9211240BB60F922F933F934F935F931F
:100140006F937F938F939F93AF93BF93EF93FF939F
:10015000CF93DF9300D00F92CDB7DEB780913C02F2
:1001600090913D02A0913E02B0913F0289839A8313
:10017000AB83BC832FE632E143E85AE3BC01CD01F7
:100180000E945F0F462F572F682F792F40933C0214
:1001900050933D0260933E0270933F020F900F9088
:1001A0000F900F90DF91CF91FF91EF91BF91AF91A1
:1001B0009F918F917F916F915F914F913F912F917F
:1001C0000F900BBE0F900FBE0F901F9018951092BE
:1001D0003C0210923D0210923E0210923F028AEFC2
:1001E00087BD85B5836085BD84B5826084BDEEE63C
:1001F000F0E080818260808378940895869A879A5F
:10020000859A08958F9847E050E0E1E0F0E070E0D3
:100210006C5F7F4F8E988D9891B39F01042E02C022
:10022000220F331F0A94E2F7062E02C03595279558
:100230000A94E2F7A1E02A2721702295220F207E5E
:10024000292B21BB8E9A4150510920F747E050E0FD
:10025000682F70E08E988D9891B39B01042E02C098
:10026000359527950A94E2F7220F331F2295329590
:10027000307F3227207F32272072922B91BB8E9ABB
:100280004150510938F78F9A0895E82F9FEB980F46
:100290009A3138F09FE9980F9A3160F0803299F0E6
:1002A00008950E2E000CFF0BE154FE4F80810E943A
:1002B000020108950E2E000CFF0BE156FE4F8081C7
:1002C0000E940201089580E00E940201E9CF0F938D
:1002D0001F93CF93082F192FC0E06C2FF801819145
:1002E0008F010E9445018FE99FE00197F1F700C05F
:1002F0000000CF5FC43089F760E080E00E94020117
:10030000CF911F910F9108951F93CF93DF93C82F23
:10031000D92F13E09E01ADECBCEC0E944F0F9C0165
:10032000369527953695279536952795C901880FD7
:10033000991F880F991F820F931F880F991FFE0125
:10034000E81BF90BE65EFD4F612F80810E940201E0
:100350009E01ADECBCEC0E944F0FEC01D695C79509
:10036000D695C795D695C7958FE99FE00197F1F788
:1003700000C00000115070F660E080E00E940201B1
:10038000DF91CF911F910895E7E0F1E080818C7FAC
:1003900080830895CF92DF92EF92FF92CF93DF9305
:1003A00000D00F92CDB7DEB720913C0230913D02D4
:1003B00040913E0250913F02609148027091490283
:1003C00080914A0290914B020E942A11181644F41F
:1003D000109248021092490210924A0210924B0267
:1003E0008091060180FD43C08091460290914702B2
:1003F000892B09F055C0C0903C02D0903D02E0909E
:100400003E02F0903F022DEC3CEC4CE45DE3609149
:1004100048027091490280914A0290914B020E94D9
:100420005F0FA701960169837A838B839C8369811F
:100430007A818B819C810E94CB0F88230CF06DC048
:1004400081E090E0909347028093460280913C02C5
:1004500090913D02A0913E02B0913F0280934802EC
:1004600090934902A0934A02B0934B020AC0809134
:10047000060180FF06C08091460290914702892BB9
:1004800099F480914602909147020F900F900F903F
:100490000F90DF91CF91FF90EF90DF90CF90089574
:1004A0008091060180FFEDCFC0903C02D0903D02CC
:1004B000E0903E02F0903F022DEC3CEC4CE45DE31A
:1004C000609148027091490280914A0290914B02DA
:1004D0000E945F0FA701960169837A838B839C83B7
:1004E00069817A818B819C810E94CB0F88234CF695
:1004F000109247021092460280913C0290913D0278
:10050000A0913E02B0913F0280934802909349022D
:10051000A0934A02B0934B02B4CF80910601B1CFB1
:10052000CF92DF92EF92FF92CF93DF9300D00F92A2
:10053000CDB7DEB720913C0230913D0240913E02A2
:1005400050913F02609142027091430280914402B7
:10055000909145020E942A11181644F4109242020A
:1005600010924302109244021092450280910601BB
:1005700081FD43C08091400290914102892B09F096
:1005800055C0C0903C02D0903D02E0903E02F090F9
:100590003F022DEC3CEC4CE45DE360914202709133
:1005A000430280914402909145020E945F0FA7018F
:1005B000960169837A838B839C8369817A818B819D
:1005C0009C810E94CB0F88230CF06DC081E090E0ED
:1005D000909341028093400280913C0290913D02B1
:1005E000A0913E02B0913F02809342029093430259
:1005F000A0934402B09345020AC08091060181FF96
:1006000006C08091400290914102892B99F480911B
:100610004002909141020F900F900F900F90DF9148
:10062000CF91FF90EF90DF90CF90089580910601D9
:1006300081FFEDCFC0903C02D0903D02E0903E02A1
:10064000F0903F022DEC3CEC4CE45DE36091420203
:100650007091430280914402909145020E945F0F85
:10066000A701960169837A838B839C8369817A8150
:100670008B819C810E94CB0F88234CF61092410203
:100680001092400280913C0290913D02A0913E0266
:10069000B0913F028093420290934302A0934402A0
:1006A000B0934502B4CF80910601B1CF80B387608B
:1006B00080BB81B3876081BB0895CF92DF92EF92B8
:1006C000FF92CF93DF9300D00F92CDB7DEB7282FE4
:1006D000392F2130310509F482C02230310509F467
:1006E000EDC080E090E0232B59F00F900F900F9019
:1006F0000F90DF91CF91FF90EF90DF90CF90089512
:1007000020913C0230913D0240913E0250913F02C7
:1007100060915A0270915B0280915C0290915D023F
:100720000E942A11181644F410925A0210925B0289
:1007300010925C0210925D02789943C08091580239
:1007400090915902892B09F028C1C0903C02D090A9
:100750003D02E0903E02F0903F022BE037ED43E295
:100760005CE360915A0270915B0280915C0290910F
:100770005D020E945F0FA701960169837A838B83D4
:100780009C8369817A818B819C810E94CB0F882315
:100790000CF03FC181E090E09093590280935802A1
:1007A00080913C0290913D02A0913E02B0913F02A7
:1007B00080935A0290935B02A0935C02B0935D0217
:1007C00009C0789B07C08091580290915902892BEB
:1007D00009F0E5C0809158029091590286CF20918E
:1007E0003C0230913D0240913E0250913F026091A7
:1007F00054027091550280915602909157020E94C6
:100800002A11181644F410925402109255021092B4
:100810005602109257027A9943C0809152029091E9
:100820005302892B09F0F7C0C0903C02D0903D02E2
:10083000E0903E02F0903F022BE037ED43E25CE3B4
:100840006091540270915502809156029091570226
:100850000E945F0FA701960169837A838B839C8333
:1008600069817A818B819C810E94CB0F88230CF057
:100870000EC181E090E090935302809352028091E8
:100880003C0290913D02A0913E02B0913F028093C4
:10089000540290935502A0935602B093570209C098
:1008A0007A9B07C08091520290915302892B09F0E4
:1008B000B4C0809152029091530217CF20913C0214
:1008C00030913D0240913E0250913F0260914E02B4
:1008D00070914F0280915002909151020E942A1112
:1008E000181644F410924E0210924F0210925002C9
:1008F00010925102799943C080914C0290914D021F
:10090000892B09F0C8C0C0903C02D0903D02E09015
:100910003E02F0903F022BE037ED43E25CE3609152
:100920004E0270914F0280915002909151020E94AC
:100930005F0FA701960169837A838B839C8369810A
:100940007A818B819C810E94CB0F88230CF0A1C0FF
:1009500081E090E090934D0280934C0280913C02A4
:1009600090913D02A0913E02B0913F0280934E02D1
:1009700090934F02A0935002B093510209C0799B0B
:1009800007C080914C0290914D02892B09F085C0DF
:1009900080914C0290914D02A8CE789B1BCFC090C5
:1009A0003C02D0903D02E0903E02F0903F022BE0EE
:1009B00037ED43E25CE360915A0270915B028091F3
:1009C0005C0290915D020E945F0FA701960169830E
:1009D0007A838B839C8369817A818B819C810E943D
:1009E000CB0F88230CF0F6CE1092590210925802C9
:1009F00080913C0290913D02A0913E02B0913F0255
:100A000080935A0290935B02A0935C02B0935D02C4
:100A1000E1CE8FB1DFCE7A9B4CCFC0903C02D0901C
:100A20003D02E0903E02F0903F022BE037ED43E2C2
:100A30005CE360915402709155028091560290914E
:100A400057020E945F0FA701960169837A838B8307
:100A50009C8369817A818B819C810E94CB0F882342
:100A60000CF027CF109253021092520280913C0258
:100A700090913D02A0913E02B0913F0280935402BA
:100A800090935502A0935602B093570212CF8FB1A4
:100A900010CF8FB17DCF799B7BCFC0903C02D0909F
:100AA0003D02E0903E02F0903F022BE037ED43E242
:100AB0005CE360914E0270914F02809150029091E0
:100AC00051020E945F0FA701960169837A838B838D
:100AD0009C8369817A818B819C810E94CB0F8823C2
:100AE0000CF056CF10924D0210924C0280913C02B5
:100AF00090913D02A0913E02B0913F0280934E0240
:100B000090934F02A0935002B093510241CF00D076
:100B100000D00F920F92CDB7DEB780912402909152
:100B20002502082F192F212C312C412C0F2EFEE3EA
:100B30005F2EF02D0F2EF5E0CF2ED12CF02D0F2EA5
:100B4000F8EE8F2EF3E09F2EF02D0F2EF3E0AF2E58
:100B5000B12CF02D66246394712C26C0452B11F521
:100B60000E94CE0780913C0290913D02A0913E02EE
:100B7000B0913F0288E292E00E94670180E090E03D
:100B80000E945D03892B09F457C080916602909101
:100B90006702892B09F44DC0902F812F9093240276
:100BA000809325028F81988520912402309125021F
:100BB00038872F838217930711F0082F192F4F8141
:100BC00058854330510509F4A7C0C0F441305105A0
:100BD00009F44FC04230510509F60E94CE0782E366
:100BE00092E00E94670180E090E00E945D03892B03
:100BF000C9F2B0922502A0922402D4CF2F81388569
:100C00002430310509F4D8C02530310559F687E381
:100C100092E00E9467010E94CE0780E090E00E946F
:100C20005D03892B09F4BECF6092240270922502E5
:100C3000B9CF962D872DB2CF862D972D0E945D03BB
:100C4000892B79F0962D872D2091660230916702CD
:100C5000232B11F090E080E090936602809367026E
:100C6000A1CF82E090E00E945D03892B09F49ACF26
:100C7000E9CF8091640290916502892B21F18DE288
:100C800092E00E94670180E090E00E945D03892B62
:100C900009F088CF862D972D0E945D03892B09F0DE
:100CA00081CF82E090E00E945D03892B09F07ACF2A
:100CB000109265021092640282E090E09093250207
:100CC000809324026FCF0E94E7000E945D0E0E9475
:100CD000C80D0E949D0760E070E080E490E40E94EF
:100CE000310B60E070E080E490E40E946A0B0E94A7
:100CF000C40110928102109280020E94FE000E94A4
:100D000056030E94CE0760E080E00E9402016092DC
:100D1000640270926502B3CF822D932DA42DB52D60
:100D20008093740290937502A0937602B093770239
:100D30000E94740A0E94E70B8091800290918102C8
:100D40008C509E4F0E94840180918002909181027C
:100D5000059728F0D0922502C092240223CF0E944A
:100D6000630E20E030E040E751E469837A838B83AF
:100D70009C8369817A818B819C810E942A1118163B
:100D80000CF010CF0E94D90E20E030E040E751E493
:100D900069837A838B839C8369817A818B819C812F
:100DA0000E942A1118160CF0FDCE84E090E090937A
:100DB000250280932402F6CE039721F580916202EA
:100DC0009091630201969093630280936202409136
:100DD00068025091690260916A0270916B024093BF
:100DE0005E0250935F02609360027093610202970B
:100DF0004CF01092630210926202D0922502C092CF
:100E00002402D0CE822D932DA42DB52D8093740273
:100E100090937502A0937602B0937702E0916202FC
:100E2000F0916302EE0FFF1FEC5DFD4F62E170E099
:100E3000808191810E94E10720915E0230915F02E2
:100E40004091600250916102609168027091690264
:100E500080916A0290916B020E945E0F20E030E068
:100E600040E251E469837A838B839C8369817A8130
:100E70008B819C810E942F11E62EF72E8D839E83FD
:100E80002091620230916302289DC001299D900D3E
:100E9000389D900D11249C01990F440B550B29830B
:100EA0003A834B835C83CA01B9010E947A10262FD2
:100EB000372F482F592FE982FA828D818B839E81AB
:100EC0009C8369817A818B819C810E945F0F6983F9
:100ED0007A838B839C8369817A818B819C810E9438
:100EE0004910862F972F0E94840120915E02309135
:100EF0005F024091600250916102609168027091BE
:100F0000690280916A0290916B020E945E0F22EF4B
:100F100030EB40E15FE369837A838B839C83698153
:100F20007A818B819C810E942A1118160CF03ACE8E
:100F3000B0922502A092240235CE10927402109233
:100F4000750210927602109277021092700210923F
:100F50007102109272021092730210926C0210923F
:100F60006D0210926E0210926F021092680210923F
:100F7000690210926A0210926B0280913C02909179
:100F80003D02A0913E02B0913F0280937C0290937B
:100F90007D02A0937E02B0937F02089560E070E02E
:100FA000CB010E943A0C60E070E0CB010E94010D81
:100FB00010927002109271021092720210927302DB
:100FC00008958F929F92AF92BF92EF92FF920F93EC
:100FD0001F93CF93DF9300D000D00F92CDB7DEB731
:100FE000082F192FE62EF72E80913C0290913D029A
:100FF000A0913E02B0913F0289839A83AB83BC8368
:1010000080907C0290907D02A0907E02B0907F0242
:10101000A5019401BC01CD010E945E0F20917802D0
:101020003091790240917A0250917B0269837A83F0
:101030008B839C8369817A818B819C810E942F1193
:10104000262F372F482F592F60916802709169021F
:1010500080916A0290916B020E945F0F6093680218
:101060007093690280936A0290936B0280913C02B4
:1010700090913D02A0913E02B0913F0289839A83F4
:10108000AB83BC83A5019401BC01CD010E945E0F1E
:1010900020916C0230916D0240916E0250916F026E
:1010A00069837A838B839C8369817A818B819C811C
:1010B0000E942F11209170023091710240917202B2
:1010C0005091730269837A838B839C8369817A81CF
:1010D0008B819C810E945F0FF62FE72F462F572FA1
:1010E000682F792F409370025093710260937202BF
:1010F000709373028090740290907502A0907602B3
:10110000B0907702A5019401F983EA838B839C83D5
:1011100069817A818B819C810E942A11181644F47E
:101120008092700290927102A0927202B092730249
:1011300080913C0290913D02A0913E02B0913F020D
:1011400080937C0290937D02A0937E02B0937F02F5
:10115000ED82FE82AD81BE81199724F489E090E092
:101160009E838D830130110509F4DFC00230110523
:1011700009F481C1012BB9F060E070E0CB010E945D
:101180003A0C60E070E0CB010E94010D10927002F9
:1011900010927102109272021092730230E020E0FD
:1011A00080E090E0A5C0AD81BE81AA0FBB1FCD013C
:1011B000092E000CAA0BBB0B89839A83AB83BC83DB
:1011C000BC01CD010E947A10062F172F8F839D83BB
:1011D00020E030E044E951E469837A838B839C8387
:1011E00069817A818B819C810E945F0FA62EB72E28
:1011F000E82EF92E20E030E044E951E469817A815B
:101200008B819C810E945E0F2A2D3B2D4E2D5F2DE0
:1012100069837A838B839C8369817A818B819C81AA
:101220000E94D00F20E030E844ED53E469837A83D4
:101230008B839C8369817A818B819C810E942F1191
:1012400020917002309171024091720250917302AC
:1012500069837A838B839C8369817A818B819C816A
:101260000E942F1169837A838B839C8369817A81A1
:101270008B819C810E943A0C20E030E844ED53E4DD
:10128000609170027091710280917202909173026C
:101290000E942F1169837A838B839C8369817A8171
:1012A0008B819C810E94010D2A2D3B2D4E2D5F2D9F
:1012B00009831A83BF81BB838D818C8369817A8185
:1012C0008B819C810E94D00F20917002309171021D
:1012D000409172025091730269837A838B839C835D
:1012E00069817A818B819C810E942F11362F272F53
:1012F000432F522F682F792F409378025093790211
:1013000060937A0270937B0227960FB6F894DEBF43
:101310000FBECDBFDF91CF911F910F91FF90EF9046
:10132000BF90AF909F908F90089520E030E844EDFB
:1013300053E46091700270917102809172029091F9
:1013400073020E942F1169837A838B839C83698146
:101350007A818B819C810E943A0CAD81BE81AA0F5B
:10136000BB1FCD01092E000CAA0BBB0B89839A83EE
:10137000AB83BC83BC01CD010E947A10062F172FCE
:101380008F839D8320E030E044E951E469837A83D0
:101390008B839C8369817A818B819C810E945F0F02
:1013A000A62EB72EE82EF92E20E030E044E951E4D5
:1013B00069817A818B819C810E945E0F2A2D3B2D51
:1013C0004E2D5F2D69837A838B839C8369817A811B
:1013D0008B819C810E94D00F20917002309171020C
:1013E000409172025091730269837A838B839C834C
:1013F00069817A818B819C810E942F1120E030E8E5
:1014000044ED53E469837A838B839C8369817A8179
:101410008B819C810E942F1169837A838B839C83AB
:1014200069817A818B819C810E94010D2A2D3B2D3F
:101430004E2D5F2D09831A83BF81BB838D818C83E1
:1014400069817A818B819C810E94D00F20917002EA
:1014500030917102409172025091730269837A83D4
:101460008B839C8369817A818B819C810E942F115F
:10147000362F272F3DCF20E030E844ED53E4609134
:1014800070027091710280917202909173020E94B9
:101490002F1169837A838B839C8369817A818B8105
:1014A0009C810E943A0C20E030E844ED53E46091C6
:1014B00070027091710280917202909173020E9489
:1014C0002F1169837A838B839C8369817A818B81D5
:1014D0009C810E94010D30917002209171028091D7
:1014E00072029091730204CFCF92DF92EF92FF923B
:1014F0000F931F93CF93DF9300D000D0CDB7DEB70B
:101500000E94630E062F172F8E839D830E94D90E93
:10151000C62ED72EE82EF92E20E030E040E05FE323
:1015200009831A838E818B838D818C8369817A8173
:101530008B819C810E945F0F2C2D3D2D4E2D5F2DA8
:1015400069837A838B839C8369817A818B819C8177
:101550000E94CB0F88230CF456C020E030E040E01E
:101560005FE3C982DA82EB82FC8269817A818B81B6
:101570009C810E945F0F202F312F4E815D816983F6
:101580007A838B839C8369817A818B819C810E9481
:10159000CB0F88230CF05EC02C2D3D2D4E2D5F2DE2
:1015A00009831A838E818B838D818C8369817A81F3
:1015B0008B819C810E945E0F262F372F482F592F39
:1015C00060E070E080E89FE30E94D00F69837A8337
:1015D0008B839C8369817A818B819C810E944210DC
:1015E00080E090E00E94E1070F900F900F900F9025
:1015F0000F900F90DF91CF911F910F91FF90EF907F
:10160000DF90CF900895202F312F4E815D81C982C8
:10161000DA82EB82FC8269817A818B819C810E94D3
:101620005E0F262F372F482F592F60E070E080E89B
:101630009FE30E94D00F69837A838B839C836981A7
:101640007A818B819C810E94421081E090E00E940F
:10165000E107CACF60E070E082E090E00E94E1071D
:10166000C3CF0F931F93CF93DF9300D000D0CDB79C
:10167000DEB7062F172F8E839D832DEC3CEC4CE4B8
:101680005EE369837A838B839C8369817A818B8112
:101690009C810E94CB0F882334F00DEC1CEC8CE471
:1016A0008E838EE38D83402F512F6E817D814093F9
:1016B00074025093750260937602709377020F90D4
:1016C0000F900F900F900F900F90DF91CF911F917F
:1016D0000F9108950F931F93CF93DF9300D000D005
:1016E000CDB7DEB7062F172F8E839D8320E030E025
:1016F00040E85FE369837A838B839C8369817A8185
:101700008B819C810E94CB0F882334F000E010E095
:1017100080E88E838FE38D83402F512F6E817D81F2
:1017200040936C0250936D0260936E0270936F024F
:101730000F900F900F900F900F900F90DF91CF911F
:101740001F910F91089522982A9AE9E6F0E080818E
:1017500085608083E99A789408951F920F920FB65E
:101760000F9211240BB60F922F933F934F935F93D9
:101770006F937F938F939F93AF93BF93EF93FF9359
:1017800010922502109224022FEF89EF90E0215051
:1017900080409040E1F700C000001A9913C0FF910B
:1017A000EF91BF91AF919F918F917F916F915F91D9
:1017B0004F913F912F910F900BBE0F900FBE0F9046
:1017C0001F90189588E292E00E946701E8CF80910F
:1017D000840290918502892B49F00E94CA01892BCD
:1017E000F9F410928502109284021AC00E94CA0174
:1017F000892B81F081E090E09093850280938402B0
:101800008091800290918102019690938102809351
:10181000800206C08091840290918502892BE9F6AE
:101820008091820290918302892B49F00E9490025C
:10183000892BF9F410928302109282021AC00E943E
:101840009002892B81F081E090E090938302809355
:101850008202809180029091810201969093810290
:101860008093800208958091820290918302892B57
:10187000E9F60895CF93DF9300D00F92CDB7DEB78E
:10188000462F572F682F792F49835A836B837C8388
:1018900020E030E048EC52E469817A818B819C81C0
:1018A0000E942A1118165CF120E030E048EC52EC5E
:1018B00069817A818B819C810E94CB0F88239CF463
:1018C00080E090E0A8ECB2EC89839A83AB83BC8380
:1018D0002D9889819A81AB81BC81B05889839A8384
:1018E000AB83BC8315C020E030E0A90169817A8117
:1018F0008B819C810E94CB0F88234CF4E9CF80E040
:1019000090E0A8ECB2E489839A83AB83BC832D9AE0
:1019100020E030E040EE50E469817A818B819C8147
:101920000E94CB0F88233CF483E090E090938900E1
:101930008093880038C028E134E146E759E36981A3
:101940007A818B819C810E942F1120E030E040E859
:1019500057E369837A838B839C8369817A818B8146
:101960009C810E945F0F262F372F482F592F60E050
:1019700070E088EC92E40E94D00F69837A838B83B5
:101980009C8369817A818B819C810E944910862F7A
:10199000972F803AAFE09A0710F480EA9FE0909387
:1019A0008900809388000F900F900F900F90DF9127
:1019B000CF910895E1E8F0E080818E7F8083269AC0
:1019C000A0E8B0E08C9183608C93808188618083F3
:1019D0008C9180628C9380818160808380EA9FE01B
:1019E000909389008093880080E290E090938B0030
:1019F00080938A00259A60E070E0CB010E943A0C47
:101A00000895CF93DF9300D00F92CDB7DEB7462F66
:101A1000572F682F792F49835A836B837C8320E06B
:101A200030E048EC52E469817A818B819C810E948C
:101A30002A1118165CF120E030E048EC52EC698184
:101A40007A818B819C810E94CB0F88239CF480E05B
:101A500090E0A8ECB2EC89839A83AB83BC83759841
:101A600089819A81AB81BC81B05889839A83AB8389
:101A7000BC8315C020E030E0A90169817A818B81A7
:101A80009C810E94CB0F88234CF4E9CF80E090E04A
:101A9000A8ECB2E489839A83AB83BC83759A20E077
:101AA00030E040EE50E469817A818B819C810E9414
:101AB000CB0F88233CF483E090E0909399008093CF
:101AC000980038C028E134E146E759E369817A811A
:101AD0008B819C810E942F1120E030E040E857E389
:101AE00069837A838B839C8369817A818B819C81D2
:101AF0000E945F0F262F372F482F592F60E070E08C
:101B000088EC92E40E94D00F69837A838B839C8354
:101B100069817A818B819C810E944910862F972F41
:101B2000803AAFE09A0710F480EA9FE09093990022
:101B3000809398000F900F900F900F90DF91CF91AE
:101B40000895E1E9F0E080818E7F80836C9AA0E9BE
:101B5000B0E08C9183608C938081886180838C91CC
:101B600080628C9380818160808380EA9FE0909383
:101B700099008093980080E290E090939B0080937E
:101B80009A006D9A60E070E0CB010E94010D08950B
:101B90000E94DA0C0E94A10D08951F921FB61F9299
:101BA00011248F93109225011092240181E08093DB
:101BB00087028F911F901FBE1F9018951F921FB60E
:101BC0001F9211248F931092A5001092A40081E01F
:101BD000809386028F911F901FBE1F901895E1E29F
:101BE000F1E080818C7F8083109227011092260182
:101BF00010928702AAE0B1E08C9180618C938C9165
:101C00008D7F8C93A0E2B1E08C9183608C93808176
:101C1000886180838C9180628C93808183608083D3
:101C200088E99AE3909329018093280183E090E06A
:101C300090932B0180932A0180818F7B8083E3E73F
:101C4000F0E08081806280830895E1EAF0E08081A5
:101C50008C7F80831092A7001092A60010928602BB
:101C6000A1E0B1E08C9180618C93AAE0B1E08C910D
:101C70008E7F8C93A0EAB0E08C9183608C938081FE
:101C8000886180838C9180628C9380818360808363
:101C900088E99AE39093A9008093A80083E090E0FC
:101CA0009093AB008093AA0080818F7B8083E2E7D2
:101CB000F0E080818062808308950E94EF0D0E9491
:101CC000250E78940895CF93DF9300D00F92CDB76F
:101CD000DEB780918702882309F456C010928702EC
:101CE0002091260130912701C901A0E0B0E0273200
:101CF000324070F186529240A109B109880F991FB4
:101D0000AA1FBB1F880F991FAA1FBB1F9C01AD01F3
:101D10002C7F5F7029833A834B835C83CA01B901AE
:101D20000E94781020E030E048E652E469837A832C
:101D30008B839C8369817A818B819C810E94D00FE7
:101D400060938C0270938D0280938E0290938F0229
:101D500020E030E040EF51E460918C0270918D0200
:101D600080918E0290918F020E942A11181664F4BD
:101D700080E090E0A0EFB1E480938C0290938D021C
:101D8000A0938E02B0938F0280918C0290918D026D
:101D9000A0918E02B0918F0289839A83AB83BC831A
:101DA000BC01CD010F900F900F900F90DF91CF915C
:101DB0000895CF93DF9300D00F92CDB7DEB7809117
:101DC0008602882309F456C0109286022091A6004C
:101DD0003091A700C901A0E0B0E02732324070F195
:101DE00086529240A109B109880F991FAA1FBB1FF3
:101DF000880F991FAA1FBB1F9C01AD012C7F5F702C
:101E000029833A834B835C83CA01B9010E9478100D
:101E100020E030E048E652E469837A838B839C8338
:101E200069817A818B819C810E94D00F60938802A6
:101E30007093890280938A0290938B0220E030E0B5
:101E400040EF51E4609188027091890280918A028A
:101E500090918B020E942A11181664F480E090E0A1
:101E6000A0EFB1E48093880290938902A0938A0244
:101E7000B0938B028091880290918902A0918A028E
:101E8000B0918B0289839A83AB83BC83BC01CD0163
:101E90000F900F900F900F90DF91CF910895A29F18
:101EA000B001B39FC001A39F700D811D1124911D2E
:101EB000B29F700D811D1124911D08955058BB27AC
:101EC000AA270E94760F0C94F0100E94E21038F0BE
:101ED0000E94E91020F039F49F3F19F426F40C9485
:101EE000DF100EF4E095E7FB0C94D910E92F0E9467
:101EF000011158F3BA17620773078407950720F09A
:101F000079F4A6F50C9423110EF4E0950B2EBA2F5C
:101F1000A02D0B01B90190010C01CA01A0011124EF
:101F2000FF27591B99F0593F50F4503E68F11A169B
:101F3000F040A22F232F342F4427585FF3CF46952C
:101F400037952795A795F0405395C9F77EF41F164E
:101F5000BA0B620B730B840BBAF09150A1F0FF0F18
:101F6000BB1F661F771F881FC2F70EC0BA0F621F04
:101F7000731F841F48F4879577956795B795F795F4
:101F80009E3F08F0B0CF9395880F08F09927EE0F89
:101F90009795879508950E94B51008F481E00895FB
:101FA0000E94E40F0C94F0100E94E91058F00E9477
:101FB000E21040F029F45F3F29F00C94D910511140
:101FC0000C9424110C94DF100E94011168F39923E2
:101FD000B1F3552391F3951B550BBB27AA27621725
:101FE0007307840738F09F5F5F4F220F331F441F32
:101FF000AA1FA9F335D00E2E3AF0E0E832D0915066
:102000005040E695001CCAF72BD0FE2F29D0660F52
:10201000771F881FBB1F261737074807AB07B0E895
:1020200009F0BB0B802DBF01FF2793585F4F3AF09B
:102030009E3F510578F00C94D9100C9424115F3F09
:10204000E4F3983ED4F3869577956795B795F79521
:102050009F5FC9F7880F911D9695879597F9089509
:10206000E1E0660F771F881FBB1F621773078407A5
:10207000BA0720F0621B730B840BBA0BEE1F88F7B4
:10208000E09508950E9449106894B1110C942411B0
:1020900008950E94091188F09F5798F0B92F992749
:1020A000B751B0F0E1F0660F771F881F991F1AF043
:1020B000BA95C9F714C0B13091F00E942311B1E074
:1020C00008950C942311672F782F8827B85F39F073
:1020D000B93FCCF3869577956795B395D9F73EF4DC
:1020E00090958095709561957F4F8F4F9F4F089584
:1020F000E89409C097FB3EF49095809570956195A2
:102100007F4F8F4F9F4F9923A9F0F92F96E9BB2757
:102110009395F695879577956795B795F111F8CFD3
:10212000FAF4BB0F11F460FF1BC06F5F7F4F8F4F3E
:102130009F4F16C0882311F096E911C0772321F034
:102140009EE8872F762F05C0662371F096E8862FCC
:1021500070E060E02AF09A95660F771F881FDAF723
:10216000880F9695879597F90895990F0008550F50
:10217000AA0BE0E8FEEF16161706E807F907C0F00D
:1021800012161306E407F50798F0621B730B840B15
:10219000950B39F40A2661F0232B242B252B21F4EF
:1021A00008950A2609F4A140A6958FEF811D811D8F
:1021B000089597F99F6780E870E060E008959FEFC9
:1021C00080EC089500240A941616170618060906CE
:1021D000089500240A94121613061406050608959D
:1021E000092E0394000C11F4882352F0BB0F40F425
:1021F000BF2B11F460FF04C06F5F7F4F8F4F9F4F65
:10220000089557FD9058440F551F59F05F3F71F0E6
:102210004795880F97FB991F61F09F3F79F087954D
:102220000895121613061406551FF2CF4695F1DFD6
:1022300008C0161617061806991FF1CF8695710566
:10224000610508940895E894BB2766277727CB019A
:1022500097F908950E94B51008F48FEF08950E9431
:1022600042110C94F0100E94E21038F00E94E91024
:1022700020F0952311F00C94D9100C94DF10112448
:102280000C9424110E94011170F3959FC1F3950FD6
:1022900050E0551F629FF001729FBB27F00DB11DEA
:1022A000639FAA27F00DB11DAA1F649F6627B00D7A
:1022B000A11D661F829F2227B00DA11D621F739F63
:1022C000B00DA11D621F839FA00D611D221F749F71
:1022D0003327A00D611D231F849F600D211D822FB8
:1022E000762F6A2F11249F5750409AF0F1F08823DF
:1022F0004AF0EE0FFF1FBB1F661F771F881F91500C
:102300005040A9F79E3F510580F00C94D9100C94D1
:1023100024115F3FE4F3983ED4F386957795679553
:10232000B795F795E7959F5FC1F7FE2B880F911D35
:0C2330009695879597F90895F894FFCFD3
:10233C00777C395E79713D74061E753855545C7323
:10234C0067506D783E1C6A766E5B3F065B4F666D20
:10235C007D077F6F0100010053544F50007273656D
:0C236C00740069646C6500656E642000FC
:00000001FF
