:100000000C948E000C94AF000C94AF000C94AD10C7
:100010000C94AF000C94AF000C94AF000C94AF00A4
:100020000C94AF000C94AF000C94AF000C94AF0094
:100030000C94AF000C94AF000C94AF000C94AF0084
:100040000C94AF000C94AF000C94AF000C94AF0074
:100050000C94AF000C94B1000C94AF000C94AF0062
:100060000C94AF000C941A010C94AF000C94AF00E8
:100070000C94AF000C94AF000C94AF000C94AF0044
:100080000C94AF000C94AF000C94AF000C94AF0034
:100090000C94AF000C94AF000C94AF000C94AF0024
:1000A0000C94AF000C94B0120C94AF000C94AF0001
:1000B0000C94AF000C94AF000C949F120C94AF0002
:1000C0000C94AF000C94AF000C94AF000C94AF00F4
:1000D0000C94AF000C94AF000C94AF000C94AF00E4
:1000E0000C94AF000C94A1060C948C060C940007A1
:1000F0000C94400A0C948F070C941A070C948D07EB
:100100000C949F060C948E060C94420A0C941C07C7
:100110000C9428080C94FE060C94F60711241FBEBC
:10012000CFEFD1E2DEBFCDBF00E00CBF12E0A0E018
:10013000B2E0ECE0FDE200E00BBF02C007900D92E0
:10014000AC32B107D9F722E0ACE2B2E001C01D92B7
:10015000AF39B207E1F70E9456060C9476160C945C
:1001600000001F920F920FB60F9211240BB60F9240
:100170002F933F934F935F936F937F938F939F93AF
:10018000AF93BF93EF93FF93CF93DF9300D00F9282
:10019000CDB7DEB780912C0290912D02A0912E0256
:1001A000B0912F0289839A83AB83BC832FE632E11F
:1001B00043E85AE3BC01CD010E943914462F572F62
:1001C000682F792F40932C0250932D0260932E02BA
:1001D00070932F020F900F900F900F90DF91CF919F
:1001E000FF91EF91BF91AF919F918F917F916F910F
:1001F0005F914F913F912F910F900BBE0F900FBECB
:100200000F901F90189510922C0210922D021092B0
:100210002E0210922F028AEF87BD85B5836085BDBF
:1002200084B5826084BDEEE6F0E0808182608083E8
:10023000789408950F920FB60F921F9211242F9366
:100240002BB72F938F939F93AF93BF93EF93FF930E
:10025000CF93DF930F92CDB7DEB78091C0008C7142
:10026000882331F081E090E090933602809335024C
:100270008091C6008983809137029091380229814C
:10028000FC01E75CFD4F20830196843091052CF43E
:10029000909338028093370219C01092380210925E
:1002A0003702A9E3B2E08C91082E000C990BE0E331
:1002B000F2E09183808311968C911197828312963C
:1002C0008C911297838313968C9184830F90DF9186
:1002D000CF91FF91EF91BF91AF919F918F912F910E
:1002E0002BBF2F911F900F900FBE0F901895CF939B
:1002F000DF93E1ECF0E080818F77808380818F7ED7
:1003000080838081877F8083A4E6B0E08C918D7F9D
:100310008C93A2ECB0E08C918F7B8C938C918F7737
:100320008C9387E690E09093C5008093C400C0EC66
:10033000D0E088818D7F88838C918E7F8C938C9187
:100340008E7F8C938C91877F8C9380818E7F80832E
:100350008C918C938C9181608C938881837E88832F
:1003600080818068808378948081806180838081AF
:1003700088608083DF91CF9108959091C00095FFB0
:1003800005C08093C60081E090E0089580E090E091
:10039000089581E00E94BD010895869A879A859A02
:1003A00008958F9847E050E0E1E0F0E070E06C5F86
:1003B0007F4F8E988D9891B39F01042E02C0220F1B
:1003C000331F0A94E2F7062E02C0359527950A944A
:1003D000E2F7A1E02A2721702295220F207E292B07
:1003E00021BB8E9A4150510920F747E050E0682F19
:1003F00070E08E988D9891B39B01042E02C03595C4
:1004000027950A94E2F7220F331F22953295307F09
:100410003227207F32272072922B91BB8E9A415037
:10042000510938F78F9A0895E82F9FEB980F9A316A
:1004300038F09FE9980F9A3160F0803299F0089572
:100440000E2E000CFF0BE154FE4F80810E94D10163
:1004500008950E2E000CFF0BE156FE4F80810E9486
:10046000D101089580E00E94D101E9CF0F931F933D
:10047000CF93082F192FC0E06C2FF80181918F01C5
:100480000E9414028FE99FE00197F1F700C000007D
:10049000CF5FC43089F760E080E00E94D101CF9146
:1004A0001F910F9108951F93CF93DF93C82FD92FDA
:1004B00013E09E01ADECBCEC0E9429149C01369522
:1004C00027953695279536952795C901880F991F49
:1004D000880F991F820F931F880F991FFE01E81B39
:1004E000F90BE65EFD4F612F80810E94D1019E01D4
:1004F000ADECBCEC0E942914EC01D695C795D695BD
:10050000C795D695C7958FE99FE00197F1F700C091
:100510000000115070F660E080E00E94D101DF9190
:10052000CF911F910895E7E0F1E080818C7F808377
:100530000895CF92DF92EF92FF92CF93DF9300D096
:100540000F92CDB7DEB720912C0230912D02409151
:100550002E0250912F0260914502709146028091C7
:100560004702909148020E940416181644F4109213
:100570004502109246021092470210924802809162
:10058000060180FD43C08091430290914402892B73
:1005900009F055C0C0902C02D0902D02E0902E02A0
:1005A000F0902F022DEC3CEC4CE45DE360914502B1
:1005B0007091460280914702909148020E9439143E
:1005C000A701960169837A838B839C8369817A81F1
:1005D0008B819C810E94A51488230CF06DC081E062
:1005E00090E0909344028093430280912C0290917A
:1005F0002D02A0912E02B0912F028093450290937C
:100600004602A0934702B09348020AC080910601B7
:1006100080FF06C08091430290914402892B99F497
:1006200080914302909144020F900F900F900F9091
:10063000DF91CF91FF90EF90DF90CF900895809160
:10064000060180FFEDCFC0902C02D0902D02E090EB
:100650002E02F0902F022DEC3CEC4CE45DE3609117
:1006600045027091460280914702909148020E9493
:100670003914A701960169837A838B839C836981EE
:100680007A818B819C810E94A51488234CF610925C
:1006900044021092430280912C0290912D02A0916D
:1006A0002E02B0912F028093450290934602A093B0
:1006B0004702B0934802B4CF80910601B1CFCF92E8
:1006C000DF92EF92FF92CF93DF9300D00F92CDB7DE
:1006D000DEB720912C0230912D0240912E025091D4
:1006E0002F0260913F0270914002809141029091EF
:1006F00042020E940416181644F410923F0210920F
:10070000400210924102109242028091060181FD46
:1007100043C080913D0290913E02892B09F055C063
:10072000C0902C02D0902D02E0902E02F0902F026B
:100730002DEC3CEC4CE45DE360913F027091400293
:1007400080914102909142020E943914A7019601C2
:1007500069837A838B839C8369817A818B819C8175
:100760000E94A51488230CF06DC081E090E0909366
:100770003E0280933D0280912C0290912D02A09127
:100780002E02B0912F0280933F0290934002A093DB
:100790004102B09342020AC08091060181FF06C067
:1007A00080913D0290913E02892B99F480913D0207
:1007B00090913E020F900F900F900F90DF91CF918C
:1007C000FF90EF90DF90CF9008958091060181FF18
:1007D000EDCFC0902C02D0902D02E0902E02F09030
:1007E0002F022DEC3CEC4CE45DE360913F027091F4
:1007F000400280914102909142020E943914A70167
:10080000960169837A838B839C8369817A818B814A
:100810009C810E94A51488234CF610923E021092EF
:100820003D0280912C0290912D02A0912E02B09158
:100830002F0280933F0290934002A0934102B09315
:100840004202B4CF80910601B1CF80B3876080BBF4
:1008500081B3876081BB0895CF92DF92EF92FF92C0
:10086000CF93DF9300D00F92CDB7DEB7282F392F6B
:100870002130310509F482C02230310509F4EDC080
:1008800080E090E0232B59F00F900F900F900F9085
:10089000DF91CF91FF90EF90DF90CF90089520915E
:1008A0002C0230912D0240912E0250912F02609126
:1008B0005702709158028091590290915A020E94F9
:1008C0000416181644F4109257021092580210920F
:1008D000590210925A02789943C080915502909122
:1008E0005602892B09F028C1C0902C02D0902D020D
:1008F000E0902E02F0902F022BE037ED43E25CE314
:1009000060915702709158028091590290915A0259
:100910000E943914A701960169837A838B839C8393
:1009200069817A818B819C810E94A51488230CF0B7
:100930003FC181E090E090935602809355028091F0
:100940002C0290912D02A0912E02B0912F02809343
:10095000570290935802A0935902B0935A0209C0CB
:10096000789B07C08091550290915602892B09F01F
:10097000E5C0809155029091560286CF20912C02BD
:1009800030912D0240912E0250912F026091510220
:100990007091520280915302909154020E94041669
:1009A000181644F4109251021092520210925302FF
:1009B000109254027A9943C080914F029091500254
:1009C000892B09F0F7C0C0902C02D0902D02E09046
:1009D0002E02F0902F022BE037ED43E25CE36091B2
:1009E00051027091520280915302909154020E94E0
:1009F0003914A701960169837A838B839C8369816B
:100A00007A818B819C810E94A51488230CF00EC1F1
:100A100081E090E09093500280934F0280912C02ED
:100A200090912D02A0912E02B0912F02809351023D
:100A300090935202A0935302B093540209C07A9B40
:100A400007C080914F0290915002892B09F0B4C0E9
:100A500080914F029091500217CF20912C0230913B
:100A60002D0240912E0250912F0260914B02709105
:100A70004C0280914D0290914E020E94041618166D
:100A800044F410924B0210924C0210924D021092BC
:100A90004E02799943C08091490290914A02892B74
:100AA00009F0C8C0C0902C02D0902D02E0902E0218
:100AB000F0902F022BE037ED43E25CE360914B02B4
:100AC00070914C0280914D0290914E020E94391417
:100AD000A701960169837A838B839C8369817A81DC
:100AE0008B819C810E94A51488230CF0A1C081E019
:100AF00090E090934A028093490280912C02909159
:100B00002D02A0912E02B0912F0280934B02909360
:100B10004C02A0934D02B0934E0209C0799B07C0CE
:100B20008091490290914A02892B09F085C08091F9
:100B3000490290914A02A8CE789B1BCFC0902C020C
:100B4000D0902D02E0902E02F0902F022BE037ED96
:100B500043E25CE360915702709158028091590220
:100B600090915A020E943914A701960169837A83F1
:100B70008B839C8369817A818B819C810E94A514DF
:100B800088230CF0F6CE10925602109255028091F6
:100B90002C0290912D02A0912E02B0912F028093F1
:100BA000570290935802A0935902B0935A02E1CE93
:100BB0008FB1DFCE7A9B4CCFC0902C02D0902D020B
:100BC000E0902E02F0902F022BE037ED43E25CE341
:100BD000609151027091520280915302909154029F
:100BE0000E943914A701960169837A838B839C83C1
:100BF00069817A818B819C810E94A51488230CF0E5
:100C000027CF1092500210924F0280912C029091A7
:100C10002D02A0912E02B0912F0280935102909349
:100C20005202A0935302B093540212CF8FB110CF4F
:100C30008FB17DCF799B7BCFC0902C02D0902D02BD
:100C4000E0902E02F0902F022BE037ED43E25CE3C0
:100C500060914B0270914C0280914D0290914E0236
:100C60000E943914A701960169837A838B839C8340
:100C700069817A818B819C810E94A51488230CF064
:100C800056CF10924A021092490280912C02909104
:100C90002D02A0912E02B0912F0280934B029093CF
:100CA0004C02A0934D02B0934E0241CF00D000D031
:100CB000CDB7DEB720912402309125023A832983F3
:100CC000E980FA800F2EF6E08F2EF02D912C00E3B4
:100CD00012E00F2EF5E04F2EF02D512C6894CC240D
:100CE000C1F8D12CAA24A394B12C6894662462F88C
:100CF000712C8CC0E980FA80FA83E98387C0E9808F
:100D0000FA801A82198282C041E050E05A834983F6
:100D10007DC0FA83E9837AC0E982FA820E94880A58
:100D20000E94EE0F892B59F749815A815093250271
:100D300040932402E980FA801A82198267C0E98010
:100D4000FA8080916B0290916C02892B69F086E2A7
:100D500092E00E94360280E090E00E942C04892BF1
:100D600071F1A982BA8252C00E9403010E942F131E
:100D70000E949A120E94530A60E070E080E490E4BE
:100D80000E94520F60E070E080E490E40E949B0FAC
:100D90000E9493021092900210928F020E94CD0145
:100DA0000E9425040E9477010E94880A60E080E08A
:100DB0000E94D101A0926B02B0926C02C8CF8A2D22
:100DC0009B2D0E942C04892B19F0A982BA821EC087
:100DD0008C2D9D2D0E942C04892B09F095CF10920B
:100DE0006C0210926B0282E090E090932502809357
:100DF000240281E090E09A83898308C0E982FA8224
:100E00000E94880AE980FA80C982DA82E09124028D
:100E1000F091250229813A812E173F0709F439C341
:100E2000E730F10508F066CF8827E858F94E8F4F74
:100E30000C942114E980FA80D80112968C918F3796
:100E400009F444C070E060E090E88FE3392F282F68
:100E5000872F962FA32FB22F809371029093720247
:100E6000A0937302B0937402F8018381282F880F36
:100E7000330B440B550B29833A834B835C83CA01A4
:100E8000B9010E94541569837A838B839C8369819D
:100E90007A818B819C810E94520F0E94950E0E9444
:100EA000351320E030E040E751E469837A838B8397
:100EB0009C8369817A818B819C810E94041618161B
:100EC00054F083E090E09A838983A0CF70E060E0E3
:100ED00090E080E0BBCF0E94AB1320E030E040E721
:100EE00051E469837A838B839C8369817A818B81C6
:100EF0009C810E94041618162CF0A3E0B0E0BA837F
:100F0000A98384CF0E94C901C0922402D0922502F5
:100F100043E050E05A83498379CFE980FA808981A0
:100F20009A818B7F892B81F080916D0290916E0266
:100F3000A0916F02B0917002809367029093680253
:100F4000A0936902B0936A02D80113968C91282F5E
:100F5000880F330B440B550B29833A834B835C83F7
:100F6000CA01B9010E94541569837A838B839C83DB
:100F700069817A818B819C810E94520FD8011296DF
:100F80008C9162E170E0082E000C990B0E94A30A7C
:100F900020916702309168024091690250916A0283
:100FA00060916D0270916E0280916F02909170025B
:100FB0000E94381422EF30EB40E15FE369837A83CB
:100FC0008B839C8369817A818B819C810E9404162A
:100FD00018161CF069827A8219CF0E94C901C0924A
:100FE0002402D092250269827A8210CFE981FA81A7
:100FF000309709F42DC1359709F42DC180916D0208
:1010000090916E02A0916F02B09170028093630282
:1010100090936402A0936502B093660210925F02FF
:10102000109260021092610210926202809171022D
:1010300090917202A0917302B091740280935B024E
:1010400090935C02A0935D02B0935E02E980FA8007
:10105000D80112968C9162E170E0082E000C990B79
:101060000E94A30A20E030E0A90160915F02709124
:10107000600280916102909162020E94A51488230F
:1010800009F4ECC020915F0230916002409161024E
:1010900050916202609163027091640280916502D6
:1010A000909166020E943914262F372F482F592F0E
:1010B00060916D0270916E0280916F02909170024A
:1010C0000E943814262E372E8E839D8322EF30EB1C
:1010D00040E95EE369837A838B839C8369817A81AB
:1010E0008B819C810E94A51488230CF422C122EFDD
:1010F00030EB40E15FE329823A82BE81BB83ED8120
:10110000EC8369817A818B819C810E94A51488235C
:101110000CF43AC120E030E0A90160915B027091CB
:101120005C0280915D0290915E020E94A514811183
:1011300056C170E060E090E88FE3392F282F872FA9
:10114000962FA32FB22F8093710290937202A093D7
:101150007302B0937402F8018381282F880F330B38
:10116000440B550B29833A834B835C83CA01B90135
:101170000E94541569837A838B839C8369817A8169
:101180008B819C810E94520F2091630230916402F6
:10119000409165025091660260916D0270916E02FD
:1011A00080916F02909170020E943814262E372E83
:1011B0008E839D8380915F0290916002A091610275
:1011C000B091620289839A83AB83BC839C01AD0199
:1011D000BC01CD010E94391422EF30EB40E95FE3FE
:1011E00069837A838B839C8369817A818B819C81DB
:1011F0000E943914262F372F482F592F29823A82DF
:101200009E819B83AD81AC8369817A818B819C8136
:101210000E94A51488239CF40E94351320E030E03E
:1012200040E751E469837A838B839C8369817A8167
:101230008B819C810E94A51488230CF4D5C060E0AA
:1012400070E083E090E00E94A30A49825A82DECDDA
:10125000E980FA80FDCEE980FA80FACEF801838138
:10126000282F880F330B440B550B29833A834B836C
:101270005C83CA01B9010E94541569837A838B8308
:101280009C8369817A818B819C810E94520F0E948C
:10129000950ED80112968C91823099F10E943513E7
:1012A000E1E0ED8320E030E040E751E469837A83B8
:1012B0008B839C8369817A818B819C810E94041637
:1012C0001816ACF53D81332309F4DCCE209163027E
:1012D00030916402409165025091660260916D0206
:1012E00070916E0280916F02909170020E9438148A
:1012F00060935F0270936002809361029093620238
:10130000C1CE0E94AB13B1E0BD8320E030E040E7E6
:1013100051E469837A838B839C8369817A818B8191
:101320009C810E94041618166CF21D82CBCF1D8280
:10133000C9CFD80113968C91282F880F330B440BFB
:10134000550B29833A834B835C83CA01B9010E9400
:10135000541569837A838B839C8369817A818B811D
:101360009C810E94520FD80112968C91823049F0D4
:101370008A2D9B2D62E170E00E94A30A49825A8265
:1013800045CD8C2D9D2DF6CFD80113968C91282F0D
:10139000880F330B440B550B29833A834B835C83B3
:1013A000CA01B9010E94541569837A838B839C8397
:1013B00069817A818B819C810E94520FD80112969B
:1013C0008C91823049F08C2D9D2D62E170E00E945D
:1013D000A30A49825A821ACD81E090E0F6CF70E0EC
:1013E00060E090E080E0A9CE0E94AB1320E030E006
:1013F00040E751E469837A838B839C8369817A8196
:101400008B819C810E94A51488230CF018CF0E9428
:10141000351320E030E040E751E469837A838B8321
:101420009C8369817A818B819C810E9404161816A5
:101430009CF40E94AB13E62F20E030E040E751E43B
:10144000E9837A838B839C8369817A818B819C81F8
:101450000E94041618163CF00E94950EE5E0F0E09C
:10146000FA83E983D3CC0E94C90182E090E0909393
:1014700025028093240225E030E03A832983C6CCFC
:10148000E982FA820E94880AE980FA8089829A8237
:10149000BDCCE730F10508F03CCC8827E158F94E87
:1014A0008F4F0C9421141092790210927A021092AC
:1014B0007B0210927C02109285021092860210929A
:1014C00087021092880280E090E0A0E8BFE380935A
:1014D000750290937602A0937702B09378021092EF
:1014E0006D0210926E0210926F0210927002809143
:1014F0002C0290912D02A0912E02B0912F02809388
:10150000810290938202A0938302B0938402089593
:1015100060E070E0CB010E940C1160E070E0CB0154
:101520000E94D3111092790210927A0210927B02DB
:1015300010927C021092850210928602109287020D
:101540001092880208954F925F926F927F928F92CD
:101550009F92AF92BF92EF92FF920F931F93CF9300
:10156000DF9300D000D000D0CDB7DEB7082F192F01
:10157000E62EF72E80912C0290912D02A0912E0242
:10158000B0912F0289839A83AB83BC8380908102C0
:1015900090908202A0908302B0908402A5019401F1
:1015A000BC01CD010E94381420917D0230917E0251
:1015B00040917F025091800269837A838B839C8360
:1015C00069817A818B819C810E940916262F372F91
:1015D000482F592F60916D0270916E0280916F02B9
:1015E000909170020E94391460936D0270936E02A4
:1015F00080936F0290937002809185029091860291
:10160000A0918702B091880289839A83AB83BC83BF
:101610004090790250907A0260907B0270907C0238
:10162000A3019201BC01CD010E94A51488230CF0F6
:1016300093C080912C0290912D02A0912E02B09126
:101640002F028D839E83AF83B887A5019401BC01CF
:10165000CD010E943814209175023091760240919C
:101660007702509178026D837E838F8398876D8196
:101670007E818F8198850E94091629813A814B814C
:101680005C8169837A838B839C8369817A818B8176
:101690009C810E943914A62EB72E8D839983262F04
:1016A000372F482F592FC301B2010E94A514882358
:1016B0000CF449C08A2D9B2DAD81B98180938502A0
:1016C00090938602A0938702B093880280912C02A7
:1016D00090912D02A0912E02B0912F028093810251
:1016E00090938202A0938302B0938402ED82FE82E3
:1016F000AD81BE81199724F489E090E09E838D83AB
:101700000230110509F49AC10330110509F486C2AB
:101710000130110509F482C060E070E0CB010E9445
:101720000C1160E070E0CB010E94D3111092850291
:1017300010928602109287021092880230E020E018
:1017400080E090E05AC140928502509286026092F9
:10175000870270928802BACFA301920169817A81CF
:101760008B819C810E94041618160CF0AFCF8091DB
:101770002C0290912D02A0912E02B0912F028D8308
:101780009E83AF83B887A5019401BC01CD010E945F
:101790003814209175023091760240917702509171
:1017A00078026D837E838F8398876D817E818F81A0
:1017B00098850E940916262F372F482F592F6981A7
:1017C0007A818B819C810E943814A62EB72E89873E
:1017D0009D8320E030E0A90169837A838B839C8319
:1017E00069817A818B819C810E94A51488236CF089
:1017F0008A2D9B2DA985BD818093850290938602B9
:10180000A0938702B093880261CF10928502109254
:101810008602109287021092880258CFAD81BE8155
:10182000AA0FBB1FCD01092E000CAA0BBB0B89838D
:101830009A83AB83BC83BC01CD010E945415062F53
:10184000172F89879D8320E030E044E951E46983C4
:101850007A838B839C8369817A818B819C810E94AE
:101860003914A62EB72EE82EF92E20E030E044E9F8
:1018700051E469817A818B819C810E9438142A2DE0
:101880003B2D4E2D5F2D69837A838B839C836981E9
:101890007A818B819C810E94AA1420E030E844ED7B
:1018A00053E469837A838B839C8369817A818B81FA
:1018B0009C810E94091620918502309186024091F8
:1018C00087025091880269837A838B839C83698124
:1018D0007A818B819C810E940916662E772E882E34
:1018E000992E20E030E0A90160917102709172029E
:1018F00080917302909174020E94A51420E030E060
:1019000040E85FEB811104C020E030E040E85FE395
:1019100069827A828B829C8269817A818B819C81A7
:101920000E94091669837A838B839C8369817A81FB
:101930008B819C810E940C1120E030E844ED53E43F
:101940006091850270918602809187029091880251
:101950000E940916662E772E882E992E20E030E000
:10196000A90160917102709172028091730290914D
:1019700074020E94A51420E030E040E85FEB811182
:1019800004C020E030E040E85FE369827A828B8225
:101990009C8269817A818B819C810E94091669836E
:1019A0007A838B839C8369817A818B819C810E945D
:1019B000D3112A2D3B2D4E2D5F2D09831A83B98516
:1019C000BB838D818C8369817A818B819C810E940C
:1019D000AA1420918502309186024091870250918D
:1019E000880269837A838B839C8369817A818B8166
:1019F0009C810E940916362F272F432F522F682FC4
:101A0000792F40937D0250937E0260937F02709302
:101A1000800229960FB6F894DEBF0FBECDBFDF91CE
:101A2000CF911F910F91FF90EF90BF90AF909F903B
:101A30008F907F906F905F904F90089520E030E8F6
:101A400044ED53E460918502709186028091870293
:101A5000909188020E940916E62EF72E082F192F62
:101A600020E030E0A90160917102709172028091D2
:101A70007302909174020E94A51420E030E040E8C7
:101A80005FEB811104C020E030E040E85FE3E982D1
:101A9000FA820B831C8369817A818B819C810E94ED
:101AA000091669837A838B839C8369817A818B8110
:101AB0009C810E940C11AD81BE81AA0FBB1FCD017C
:101AC000092E000CAA0BBB0B89839A83AB83BC83C2
:101AD000BC01CD010E945415062F172F89879D83C5
:101AE00020E030E044E951E469837A838B839C836E
:101AF00069817A818B819C810E943914A62EB72E30
:101B0000E82EF92E20E030E044E951E469817A8141
:101B10008B819C810E9438142A2D3B2D4E2D5F2DE8
:101B200069837A838B839C8369817A818B819C8191
:101B30000E94AA142091850230918602409187026A
:101B40005091880269837A838B839C8369817A812F
:101B50008B819C810E94091620E030E844ED53E41B
:101B600069837A838B839C8369817A818B819C8151
:101B70000E940916662E772E882E992E20E030E0DE
:101B8000A90160917102709172028091730290912B
:101B900074020E94A51420E030E040E85FEB811160
:101BA00004C020E030E040E85FE369827A828B8203
:101BB0009C8269817A818B819C810E94091669834C
:101BC0007A838B839C8369817A818B819C810E943B
:101BD000D3112A2D3B2D4E2D5F2D09831A83B985F4
:101BE000BB838D818C8369817A818B819C810E94EA
:101BF000AA1420918502309186024091870250916B
:101C0000880269837A838B839C8369817A818B8143
:101C10009C810E940916362F272FEFCE20E030E856
:101C200044ED53E4609185027091860280918702B1
:101C3000909188020E940916062F172F89879D838D
:101C400020E030E0A90160917102709172028091F0
:101C50007302909174020E94A51420E030E040E8E5
:101C60005FEB811104C020E030E040E85FE30983CE
:101C70001A8399859B83AD81AC8369817A818B813D
:101C80009C810E94091669837A838B839C83698176
:101C90007A818B819C810E940C1120E030E844ED18
:101CA00053E4609185027091860280918702909141
:101CB00088020E940916062F172F89879D8320E02E
:101CC00030E0A901609171027091720280917302FB
:101CD000909174020E94A51420E030E040E85FEB90
:101CE000811104C020E030E040E85FE309831A83FB
:101CF000B985BB838D818C8369817A818B819C813D
:101D00000E94091669837A838B839C8369817A8117
:101D10008B819C810E94D311309185022091860293
:101D2000809187029091880268CECF92DF92EF92E5
:101D3000FF920F931F93CF93DF9300D000D0CDB7C6
:101D4000DEB70E943513062F172F8E839D830E94C6
:101D5000AB13C62ED72EE82EF92E20E030E040E05F
:101D60005FE309831A838E818B838D818C836981E4
:101D70007A818B819C810E9439142C2D3D2D4E2D12
:101D80005F2D69837A838B839C8369817A818B81C0
:101D90009C810E94A51488230CF456C020E030E0FA
:101DA00040E05FE3C982DA82EB82FC8269817A815A
:101DB0008B819C810E943914202F312F4E815D81AF
:101DC00069837A838B839C8369817A818B819C81EF
:101DD0000E94A51488230CF05EC02C2D3D2D4E2DA5
:101DE0005F2D09831A838E818B838D818C8369811A
:101DF0007A818B819C810E943814262F372F482F9F
:101E0000592F60E070E080E89FE30E94AA14698384
:101E10007A838B839C8369817A818B819C810E94E8
:101E20001C1581E090E00E94A30A0F900F900F9084
:101E30000F900F900F90DF91CF911F910F91FF9016
:101E4000EF90DF90CF900895202F312F4E815D814C
:101E5000C982DA82EB82FC8269817A818B819C81E2
:101E60000E943814262F372F482F592F60E070E03A
:101E700080E89FE30E94AA1469837A838B839C8302
:101E800069817A818B819C810E941C1582E090E09F
:101E90000E94A30ACACF60E070E083E090E00E9455
:101EA000A30AC3CF0F931F93CF93DF9300D000D02B
:101EB000CDB7DEB7062F172F8E839D832DEC3CEC1C
:101EC0004CE45EE369837A838B839C8369817A81A6
:101ED0008B819C810E94A514882384F420E030E04B
:101EE000A90169817A818B819C810E94A514882334
:101EF0005CF400E010E01E821D8206C00DEC1CECBC
:101F00008CE48E838EE38D83802F912FAE81BD81F3
:101F10008093790290937A02A0937B02B0937C0223
:101F20000F900F900F900F900F900F90DF91CF9127
:101F30001F910F9108950F931F93CF93DF9300D0BC
:101F400000D0CDB7DEB7062F172F8E839D8320E0FC
:101F500030E040E85FE369837A838B839C83698107
:101F60007A818B819C810E94A5148823ECF000E08B
:101F700010E080E88E838FE38D83802F912FAE81D8
:101F8000BD818093750290937602A0937702B093FF
:101F900078020F900F900F900F900F900F90DF919D
:101FA000CF911F910F91089520E030E0A901698140
:101FB0007A818B819C810E94A5148823F4F600E02D
:101FC00010E01E821D82D9CF22982A9AE9E6F0E01D
:101FD000808185608083E99A78940895CF92DF921A
:101FE000EF92FF92CF93DF9300D00F92CDB7DEB781
:101FF00020912C0230912D0240912E0250912F02FF
:1020000060918B0270918C0280918D0290918E0272
:102010000E940416181644F410928B0210928C023F
:1020200010928D0210928E021A9943C080918902FB
:1020300090918A02892B09F053C0C0902C02D09055
:102040002D02E0902E02F0902F022BE037ED43EAB4
:102050005CE360918B0270918C0280918D02909173
:102060008E020E943914A701960169837A838B83BB
:102070009C8369817A818B819C810E94A51488232D
:102080000CF069C081E090E090938A02809389020D
:1020900080912C0290912D02A0912E02B0912F02DE
:1020A00080938B0290938C02A0938D02B0938E024A
:1020B00008C01A9B06C08091890290918A02892BE0
:1020C00089F48091890290918A020F900F900F906D
:1020D0000F90DF91CF91FF90EF90DF90CF90089518
:1020E0001A9BEFCFC0902C02D0902D02E0902E02D0
:1020F000F0902F022BE037ED43EA5CE360918B0216
:1021000070918C0280918D0290918E020E94391400
:10211000A701960169837A838B839C8369817A8185
:102120008B819C810E94A51488235CF610928A0200
:102130001092890280912C0290912D02A0912E0282
:10214000B0912F0280938B0290938C02A0938D020A
:10215000B0938E02B6CF83B1B4CF1F921FB61F9239
:10216000112410922502109224021F901FBE1F906E
:1021700018958091930290919402892B49F00E94C6
:102180009902892BF9F410929402109293021AC0CA
:102190000E949902892B81F081E090E09093940253
:1021A0008093930280918F02909190020196909378
:1021B000900280938F0206C08091930290919402C6
:1021C000892BE9F68091910290919202892B49F036
:1021D0000E945F03892BF9F41092920210929102EF
:1021E0001AC00E945F03892B81F081E090E09093F8
:1021F00092028093910280918F02909190020196B9
:102200009093900280938F02089580919102909113
:102210009202892BE9F60895CF93DF9300D00F92B5
:10222000CDB7DEB7462F572F682F792F49835A83B2
:102230006B837C8320E030E048EC52E469817A8152
:102240008B819C810E94041618165CF120E030E01E
:1022500048EC52EC69817A818B819C810E94A514A3
:1022600088239CF480E090E0A8ECB2EC89839A8308
:10227000AB83BC832D9889819A81AB81BC81B05896
:1022800089839A83AB83BC8315C020E030E0A90129
:1022900069817A818B819C810E94A51488234CF4EA
:1022A000E9CF80E090E0A8ECB2E489839A83AB8325
:1022B000BC832D9A20E030E040EE50E469817A81C1
:1022C0008B819C810E94A51488233CF483E090E0DC
:1022D000909389008093880038C028E134E146E774
:1022E00059E369817A818B819C810E94091620E0E3
:1022F00030E040E857E369837A838B839C8369816C
:102300007A818B819C810E943914262F372F482F88
:10231000592F60E070E088EC92E40E94AA1469836F
:102320007A838B839C8369817A818B819C810E94D3
:102330002315862F972F803AAFE09A0710F480EA92
:102340009FE090938900809388000F900F900F90EA
:102350000F90DF91CF910895E1E8F0E080818E7FCA
:102360008083269AA0E8B0E08C9183608C93808172
:10237000886180838C9180628C938081816080836E
:1023800080EA9FE0909389008093880080E290E04B
:1023900090938B0080938A00259A60E070E0CB01D7
:1023A0000E940C110895CF93DF9300D00F92CDB708
:1023B000DEB7462F572F682F792F49835A836B83B7
:1023C0007C8320E030E048EC52E469817A818B81A3
:1023D0009C810E94041618165CF120E030E048EC65
:1023E00052EC69817A818B819C810E94A51488239B
:1023F0009CF480E090E0A8ECB2EC89839A83AB83F4
:10240000BC83759889819A81AB81BC81B0588983DE
:102410009A83AB83BC8315C020E030E0A9016981B9
:102420007A818B819C810E94A51488234CF4E9CF8A
:1024300080E090E0A8ECB2E489839A83AB83BC830C
:10244000759A20E030E040EE50E469817A818B811A
:102450009C810E94A51488233CF483E090E0909333
:1024600099008093980038C028E134E146E759E3A9
:1024700069817A818B819C810E94091620E030E07D
:1024800040E857E369837A838B839C8369817A81EF
:102490008B819C810E943914262F372F482F592F6A
:1024A00060E070E088EC92E40E94AA1469837A8369
:1024B0008B839C8369817A818B819C810E94231507
:1024C000862F972F803AAFE09A0710F480EA9FE0BA
:1024D00090939900809398000F900F900F900F9019
:1024E000DF91CF910895E1E9F0E080818E7F8083D4
:1024F0006C9AA0E9B0E08C9183608C9380818861B4
:1025000080838C9180628C9380818160808380EA5B
:102510009FE0909399008093980080E290E09093E0
:102520009B0080939A006D9A60E070E0CB010E945E
:10253000D31108950E94AC110E94731208951F9246
:102540001FB61F9211248F9310922501109224011F
:1025500081E0809396028F911F901FBE1F90189567
:102560001F921FB61F9211248F931092A5001092F4
:10257000A40081E0809395028F911F901FBE1F9051
:102580001895E1E2F1E080818C7F80831092270131
:102590001092260110929602AAE0B1E08C9180611F
:1025A0008C938C918D7F8C93A0E2B1E08C918360B1
:1025B0008C938081886180838C9180628C938081F0
:1025C0008360808388E99AE39093290180932801AE
:1025D00083E090E090932B0180932A0180818F7B90
:1025E0008083E3E7F0E08081806280830895E1EA00
:1025F000F0E080818C7F80831092A7001092A6006B
:1026000010929502A1E0B1E08C9180618C93AAE0D8
:10261000B1E08C918E7F8C93A0EAB0E08C918360C6
:102620008C938081886180838C9180628C9380817F
:102630008360808388E99AE39093A9008093A8003F
:1026400083E090E09093AB008093AA0080818F7B21
:102650008083E2E7F0E080818062808308950E94B9
:10266000C1120E94F71278940895CF93DF9300D09F
:102670000F92CDB7DEB780919602882309F456C039
:10268000109296022091260130912701C901A0E005
:10269000B0E02732324070F186529240A109B10970
:1026A000880F991FAA1FBB1F880F991FAA1FBB1F46
:1026B0009C01AD012C7F5F7029833A834B835C833F
:1026C000CA01B9010E94521520E030E048E652E408
:1026D00069837A838B839C8369817A818B819C81D6
:1026E0000E94AA1460939B0270939C0280939D02A7
:1026F00090939E0220E030E040EF51E460919B0215
:1027000070919C0280919D0290919E020E940416FD
:10271000181664F480E090E0A0EFB1E480939B028F
:1027200090939C02A0939D02B0939E0280919B0285
:1027300090919C02A0919D02B0919E0289839A8300
:10274000AB83BC83BC01CD010F900F900F900F9015
:10275000DF91CF910895CF93DF9300D00F92CDB743
:10276000DEB780919502882309F456C01092950235
:102770002091A6003091A700C901A0E0B0E0273267
:10278000324070F186529240A109B109880F991F19
:10279000AA1FBB1F880F991FAA1FBB1F9C01AD0159
:1027A0002C7F5F7029833A834B835C83CA01B90114
:1027B0000E94521520E030E048E652E469837A83B3
:1027C0008B839C8369817A818B819C810E94AA146E
:1027D00060939702709398028093990290939A0263
:1027E00020E030E040EF51E4609197027091980250
:1027F0008091990290919A020E940416181664F42E
:1028000080E090E0A0EFB1E480939702909398026B
:10281000A0939902B0939A028091970290919802A6
:10282000A0919902B0919A0289839A83AB83BC8369
:10283000BC01CD010F900F900F900F90DF91CF91C1
:102840000895EE0FFF1F881F8BBF0790F691E02DB4
:102850001994A29FB001B39FC001A39F700D811D69
:102860001124911DB29F700D811D1124911D089599
:102870005058BB27AA270E9450140C94CA150E94D6
:10288000BC1538F00E94C31520F039F49F3F19F4AD
:1028900026F40C94B9150EF4E095E7FB0C94B315EF
:1028A000E92F0E94DB1558F3BA17620773078407F4
:1028B000950720F079F4A6F50C94FD150EF4E0953B
:1028C0000B2EBA2FA02D0B01B90190010C01CA01EA
:1028D000A0011124FF27591B99F0593F50F4503E95
:1028E00068F11A16F040A22F232F342F4427585F87
:1028F000F3CF469537952795A795F0405395C9F79F
:102900007EF41F16BA0B620B730B840BBAF0915056
:10291000A1F0FF0FBB1F661F771F881FC2F70EC0F5
:10292000BA0F621F731F841F48F4879577956795C8
:10293000B795F7959E3F08F0B0CF9395880F08F0B4
:102940009927EE0F9795879508950E948F1508F4A3
:1029500081E008950E94BE140C94CA150E94C3150C
:1029600058F00E94BC1540F029F45F3F29F00C9408
:10297000B31551110C94FE150C94B9150E94DB157A
:1029800068F39923B1F3552391F3951B550BBB279E
:10299000AA2762177307840738F09F5F5F4F220FE3
:1029A000331F441FAA1FA9F335D00E2E3AF0E0E8DA
:1029B00032D091505040E695001CCAF72BD0FE2F24
:1029C00029D0660F771F881FBB1F261737074807B8
:1029D000AB07B0E809F0BB0B802DBF01FF27935870
:1029E0005F4F3AF09E3F510578F00C94B3150C946C
:1029F000FE155F3FE4F3983ED4F38695779567958F
:102A0000B795F7959F5FC9F7880F911D96958795A4
:102A100097F90895E1E0660F771F881FBB1F6217C3
:102A200073078407BA0720F0621B730B840BBA0B81
:102A3000EE1F88F7E09508950E9423156894B11160
:102A40000C94FE1508950E94E31588F09F5798F0A6
:102A5000B92F9927B751B0F0E1F0660F771F881FA3
:102A6000991F1AF0BA95C9F714C0B13091F00E94BD
:102A7000FD15B1E008950C94FD15672F782F882778
:102A8000B85F39F0B93FCCF3869577956795B395E4
:102A9000D9F73EF490958095709561957F4F8F4F53
:102AA0009F4F0895E89409C097FB3EF49095809558
:102AB000709561957F4F8F4F9F4F9923A9F0F92F04
:102AC00096E9BB279395F695879577956795B79582
:102AD000F111F8CFFAF4BB0F11F460FF1BC06F5F68
:102AE0007F4F8F4F9F4F16C0882311F096E911C07A
:102AF000772321F09EE8872F762F05C0662371F09B
:102B000096E8862F70E060E02AF09A95660F771FAE
:102B1000881FDAF7880F9695879597F90895990F8A
:102B20000008550FAA0BE0E8FEEF16161706E80797
:102B3000F907C0F012161306E407F50798F0621BB8
:102B4000730B840B950B39F40A2661F0232B242B8D
:102B5000252B21F408950A2609F4A140A6958FEFAC
:102B6000811D811D089597F99F6780E870E060E0FE
:102B700008959FEF80EC089500240A941616170616
:102B800018060906089500240A941216130614065E
:102B900005060895092E0394000C11F4882352F0C1
:102BA000BB0F40F4BF2B11F460FF04C06F5F7F4F79
:102BB0008F4F9F4F089557FD9058440F551F59F060
:102BC0005F3F71F04795880F97FB991F61F09F3F1A
:102BD00079F087950895121613061406551FF2CF43
:102BE0004695F1DF08C0161617061806991FF1CF93
:102BF00086957105610508940895E894BB276627BA
:102C00007727CB0197F908950E948F1508F48FEF6D
:102C100008950E941C160C94CA150E94BC1538F029
:102C20000E94C31520F0952311F00C94B3150C9459
:102C3000B91511240C94FE150E94DB1570F3959FB5
:102C4000C1F3950F50E0551F629FF001729FBB27A3
:102C5000F00DB11D639FAA27F00DB11DAA1F649F3F
:102C60006627B00DA11D661F829F2227B00DA11DF2
:102C7000621F739FB00DA11D621F839FA00D611D78
:102C8000221F749F3327A00D611D231F849F600D99
:102C9000211D822F762F6A2F11249F5750409AF0C2
:102CA000F1F088234AF0EE0FFF1FBB1F661F771F4E
:102CB000881F91505040A9F79E3F510580F00C9419
:102CC000B3150C94FE155F3FE4F3983ED4F386955C
:102CD00077956795B795F795E7959F5FC1F7FE2BB9
:102CE000880F911D9695879597F90895F894FFCFD1
:102CF0008E069F0600071A078D07F607420A8C0604
:0C2D0000A106FE061C078F072808400AE9
:102D0C00777C395E79713D74061E753855545C7349
:102D1C0067506D783E1C6A766E5B3F065B4F666D46
:0C2D2C007D077F6F01007273657400006A
:00000001FF
