:100000000C9472000C9493000C9493000C94F207DF
:100010000C9493000C9493000C9493000C94930014
:100020000C9493000C9493000C9493000C94930004
:100030000C9493000C9493000C9493000C949300F4
:100040000C9493000C9493000C9493000C949300E4
:100050000C9493000C9495000C9493000C949300D2
:100060000C9493000C94FE000C9429010C949300C2
:100070000C9493000C9493000C9493000C949300B4
:100080000C9493000C9493000C9493000C949300A4
:100090000C9493000C9493000C9493000C94930094
:1000A0000C9493000C9471080C9493000C9493009E
:1000B0000C9493000C9493000C9460080C9493009F
:1000C0000C9493000C9493000C9493000C94930064
:1000D0000C9493000C9493000C9493000C94930054
:1000E0000C94930011241FBECFEFD1E2DEBFCDBF31
:1000F00000E00CBF12E0A0E0B2E0ECE1F7E100E0CC
:100100000BBF02C007900D92AC33B107D9F722E0C4
:10011000ACE3B2E001C01D92AE37B207E1F70E9436
:10012000A4060C948C0B0C9400001F920F920FB637
:100130000F9211240BB60F922F933F934F935F931F
:100140006F937F938F939F93AF93BF93EF93FF939F
:10015000CF93DF9300D00F92CDB7DEB780913C02F2
:1001600090913D02A0913E02B0913F0289839A8313
:10017000AB83BC832FE632E143E85AE3BC01CD01F7
:100180000E94F209462F572F682F792F40933C0287
:1001900050933D0260933E0270933F020F900F9088
:1001A0000F900F90DF91CF91FF91EF91BF91AF91A1
:1001B0009F918F917F916F915F914F913F912F917F
:1001C0000F900BBE0F900FBE0F901F9018951092BE
:1001D0003C0210923D0210923E0210923F028AEFC2
:1001E00087BD85B5836085BD84B5826084BDEEE63C
:1001F000F0E0808182608083789408950F920FB63A
:100200000F928F939F93CF93DF930F92CDB7DEB76B
:100210008091C0008C71882331F081E090E0909350
:100220004102809340028091C60089838981813098
:1002300049F00F90DF91CF919F918F910F900FBE5A
:100240000F90189581E090E09093430280934202D2
:10025000F0CF1F921FB61F9211248F938BB78F93ED
:100260009F93EF93FF93E0914402F0914502EA5B84
:10027000FD4F80818093C600809144029091450299
:10028000019690934502809344028091440290919C
:10029000450204977CF0E1ECF0E080818F7D808363
:1002A000109245021092440281E090E090934B023C
:1002B00080934A02FF91EF919F918F918BBF8F9115
:1002C0001F901FBE1F901895CF93DF9310924B0283
:1002D00010924A02E1ECF0E080818F778083808188
:1002E0008F7E80838081877F8083A4E6B0E08C91BD
:1002F0008D7F8C93A2ECB0E08C918F7B8C938C9152
:100300008F778C9387E690E09093C5008093C4002C
:10031000C0ECD0E088818D7F88838C918E7F8C9318
:100320008C918E7F8C938C91877F8C9380818E7F34
:1003300080838C918C938C9181608C938881837E57
:1003400088838081806880837894808180618083C5
:1003500080818860808381E090E090934B0280935D
:100360004A02DF91CF910895382F292F80914A02B8
:1003700090914B020097E1F010924B0210924A02CA
:10038000E32FF22F80E090E02191DC01AA5BBD4FCA
:100390002C93019684309105B9F7E1ECF0E080816F
:1003A00080628083109243021092420281E090E0CA
:1003B0000895CF93DF9300D00F92CDB7DEB791E0D1
:1003C00099838A836B834C83CE0101960E94B4018A
:1003D0000F900F900F900F90DF91CF910895CF93D2
:1003E000DF9300D00F92CDB7DEB792E099838A8376
:1003F0006B834C83CE0101960E94B4010F900F9045
:100400000F900F90DF91CF910895CF93DF9300D09D
:100410000F92CDB7DEB793E099838A836B834C83C9
:10042000CE0101960E94B4010F900F900F900F9093
:10043000DF91CF910895869A879A859A08958F982B
:1004400047E050E0E1E0F0E070E06C5F7F4F8E98B5
:100450008D9891B39F01042E02C0220F331F0A947E
:10046000E2F7062E02C0359527950A94E2F7A1E03F
:100470002A2721702295220F207E292B21BB8E9ABC
:100480004150510920F747E050E0682F70E08E9806
:100490008D9891B39B01042E02C0359527950A943F
:1004A000E2F7220F331F22953295307F3227207FCB
:1004B00032272072922B91BB8E9A4150510938F706
:1004C0008F9A0895E82F9FEB980F9A3138F09FE9A3
:1004D000980F9A3160F0803299F008950E2E000C3A
:1004E000FF0BE154FE4F80810E941F0208950E2EE3
:1004F000000CFF0BE156FE4F80810E941F02089501
:1005000080E00E941F02E9CF0F931F93CF93082F23
:10051000192FC0E06C2FF80181918F010E946202B7
:100520008FE99FE00197F1F700C00000CF5FC43072
:1005300089F760E080E00E941F02CF911F910F9128
:1005400008951F93CF93DF93C82FD92F13E09E01F7
:10055000ADECBCEC0E94E2099C01369527953695DE
:10056000279536952795C901880F991F880F991FE0
:10057000820F931F880F991FFE01E81BF90BE65E9F
:10058000FD4F612F80810E941F029E01ADECBCECEB
:100590000E94E209EC01D695C795D695C795D695E8
:1005A000C7958FE99FE00197F1F700C00000115057
:1005B00070F660E080E00E941F02DF91CF911F91F2
:1005C0000895E7E0F1E080818C7F80830895CF92E9
:1005D000DF92EF92FF92CF93DF9300D00F92CDB7CF
:1005E000DEB720913C0230913D0240913E02509195
:1005F0003F02609154027091550280915602909191
:1006000057020E94870B181644F41092540210925D
:10061000550210925602109257028091060180FDF9
:1006200043C08091520290915302892B09F055C02A
:10063000C0903C02D0903D02E0903E02F0903F021C
:100640002DEC3CEC4CE45DE360915402709155025A
:1006500080915602909157020E94F209A7019601DB
:1006600069837A838B839C8369817A818B819C8166
:100670000E945E0A88230CF06DC081E090E09093A8
:1006800053028093520280913C0290913D02A091CE
:100690003E02B0913F028093540290935502A09382
:1006A0005602B09357020AC08091060180FF06C02F
:1006B0008091520290915302892B99F480915202B9
:1006C000909153020F900F900F900F90DF91CF9168
:1006D000FF90EF90DF90CF9008958091060180FF0A
:1006E000EDCFC0903C02D0903D02E0903E02F090F1
:1006F0003F022DEC3CEC4CE45DE3609154027091C0
:10070000550280915602909157020E94F209A7016A
:10071000960169837A838B839C8369817A818B813B
:100720009C810E945E0A88234CF61092530210921C
:10073000520280913C0290913D02A0913E02B09104
:100740003F028093540290935502A0935602B093B7
:100750005702B4CF80910601B1CFCF92DF92EF92D2
:10076000FF92CF93DF9300D00F92CDB7DEB72091E9
:100770003C0230913D0240913E0250913F02609117
:100780004E0270914F0280915002909151020E944E
:10079000870B181644F410924E0210924F021092DA
:1007A0005002109251028091060181FD43C0809158
:1007B0004C0290914D02892B09F055C0C0903C022B
:1007C000D0903D02E0903E02F0903F022DEC3CECD8
:1007D0004CE45DE360914E0270914F0280915002B3
:1007E000909151020E94F209A701960169837A83D0
:1007F0008B839C8369817A818B819C810E945E0AB4
:1008000088230CF06DC081E090E090934D028093BE
:100810004C0280913C0290913D02A0913E02B09129
:100820003F0280934E0290934F02A0935002B093E8
:1008300051020AC08091060181FF06C080914C02DE
:1008400090914D02892B99F480914C0290914D0228
:100850000F900F900F900F90DF91CF91FF90EF903E
:10086000DF90CF9008958091060181FFEDCFC09079
:100870003C02D0903D02E0903E02F0903F022DEC11
:100880003CEC4CE45DE360914E0270914F0280912C
:100890005002909151020E94F209A70196016983CA
:1008A0007A838B839C8369817A818B819C810E946E
:1008B0005E0A88234CF610924D0210924C028091F1
:1008C0003C0290913D02A0913E02B0913F02809384
:1008D0004E0290934F02A0935002B0935102B4CFB6
:1008E00080910601B1CF80B3876080BB81B3876000
:1008F00081BB0895CF92DF92EF92FF92CF93DF9367
:1009000000D00F92CDB7DEB7282F392F2130310517
:1009100009F482C02230310509F4EDC080E090E096
:10092000232B59F00F900F900F900F90DF91CF91E4
:10093000FF90EF90DF90CF90089520913C0230918E
:100940003D0240913E0250913F02609166027091DB
:10095000670280916802909169020E94870B1816C5
:1009600044F410926602109267021092680210928C
:100970006902789943C08091640290916502892B45
:1009800009F028C1C0903C02D0903D02E0903E02A8
:10099000F0903F022BE037ED43E25CE360916602AA
:1009A0007091670280916802909169020E94F20939
:1009B000A701960169837A838B839C8369817A81FD
:1009C0008B819C810E945E0A88230CF03FC181E0EC
:1009D00090E0909365028093640280913C02909134
:1009E0003D02A0913E02B0913F0280936602909337
:1009F0006702A0936802B093690209C0789B07C0A0
:100A00008091640290916502892B09F0E5C0809184
:100A100064029091650286CF20913C0230913D02A4
:100A200040913E0250913F026091600270916102DC
:100A300080916202909163020E94870B181644F421
:100A40001092600210926102109262021092630290
:100A50007A9943C080915E0290915F02892B09F0E0
:100A6000F7C0C0903C02D0903D02E0903E02F09072
:100A70003F022BE037ED43E25CE36091600270914E
:100A8000610280916202909163020E94F209A701C3
:100A9000960169837A838B839C8369817A818B81B8
:100AA0009C810E945E0A88230CF00EC181E090E0D8
:100AB00090935F0280935E0280913C0290913D0290
:100AC000A0913E02B0913F02809360029093610238
:100AD000A0936202B093630209C07A9B07C0809121
:100AE0005E0290915F02892B09F0B4C080915E0292
:100AF00090915F0217CF20913C0230913D024091CE
:100B00003E0250913F0260915A0270915B028091C7
:100B10005C0290915D020E94870B181644F41092BB
:100B20005A0210925B0210925C0210925D02799957
:100B300043C08091580290915902892B09F0C8C096
:100B4000C0903C02D0903D02E0903E02F0903F0207
:100B50002BE037ED43E25CE360915A0270915B0257
:100B600080915C0290915D020E94F209A7019601BA
:100B700069837A838B839C8369817A818B819C8151
:100B80000E945E0A88230CF0A1C081E090E090935F
:100B900059028093580280913C0290913D02A091AD
:100BA0003E02B0913F0280935A0290935B02A09361
:100BB0005C02B0935D0209C0799B07C08091580226
:100BC00090915902892B09F085C08091580290912B
:100BD0005902A8CE789B1BCFC0903C02D0903D021A
:100BE000E0903E02F0903F022BE037ED43E25CE301
:100BF000609166027091670280916802909169022B
:100C00000E94F209A701960169837A838B839C83F2
:100C100069817A818B819C810E945E0A88230CF015
:100C2000F6CE109265021092640280913C0290917F
:100C30003D02A0913E02B0913F02809366029093E4
:100C40006702A0936802B0936902E1CE8FB1DFCE54
:100C50007A9B4CCFC0903C02D0903D02E0903E0287
:100C6000F0903F022BE037ED43E25CE360916002DD
:100C70007091610280916202909163020E94F20978
:100C8000A701960169837A838B839C8369817A812A
:100C90008B819C810E945E0A88230CF027CF1092E2
:100CA0005F0210925E0280913C0290913D02A09101
:100CB0003E02B0913F028093600290936102A09344
:100CC0006202B093630212CF8FB110CF8FB17DCF8C
:100CD000799B7BCFC0903C02D0903D02E0903E02D9
:100CE000F0903F022BE037ED43E25CE360915A0263
:100CF00070915B0280915C0290915D020E94F2090A
:100D0000A701960169837A838B839C8369817A81A9
:100D10008B819C810E945E0A88230CF056CF109232
:100D200059021092580280913C0290913D02A0918C
:100D30003E02B0913F0280935A0290935B02A093CF
:100D40005C02B0935D0241CF0FEF1FEFCFEFDFEFFB
:100D5000EE24E394F12C0F2EF5E08F2EF02D912C44
:100D60000F2EF3E0CF2ED12CF02D6894662462F87C
:100D7000712C6894AA24A1F8B12C01C1CA2DDB2DD5
:100D8000FEC0C62DD72DFBC00C2F1D2FC82DD92D71
:100D9000F6C0009741F181309105D9F4C130D105F9
:100DA00009F46BC00E94E7000E94F0080E94E10273
:100DB00010926F0210926E020E941B020E94730436
:100DC0000E94640160E080E00E941F020C2F1D2F32
:100DD000C9C00C2F1D2FEC01D2C00C2F1D2FEC0110
:100DE000CEC0C02FD12F80913C0290913D02A091A6
:100DF0003E02B0913F0288E292E00E94840280E0CD
:100E000090E00E947A04892BA1F080916C0290916D
:100E10006D02892B59F49E2D8F2D9093240280937F
:100E200025020C2F1D2FC0E0D0E0A9C09C2F8D2FD4
:100E3000F4CF8E2D9F2D0E947A04892B99F09E2D40
:100E40008F2D20916C0230916D02232B11F090E0D8
:100E500080E090936C0280936D020C2F1D2FC0E0F8
:100E6000D0E08DC08A2D9B2D0E947A04892B39F702
:100E70000C2F1D2FC0E0D0E082C00C2F1D2F72C0A0
:100E80008E2D9F2D0E947A04892B19F0CE2DDF2DF7
:100E900076C08A2D9B2D0E947A04C1E0D0E0892B78
:100EA00009F06DC082E090E09093250280932402C7
:100EB000C1E0D0E064C00C2F1D2F82E392E00E94BD
:100EC000840280E090E00E947A04892B09F456CFD6
:100ED000D0922502C0922402CA2DDB2D50C0C3300F
:100EE000D10549F520916A0230916B022F5F3F4F87
:100EF0002230310564F010926B0210926A028092E7
:100F00002402909225020C2F1D2FEC0138C0309343
:100F10006B0220936A020C2F1D2F80914202909148
:100F20004302892B09F42DCFD0922502C0922402CE
:100F3000C62DD72D24C00C2F1D2FEFCF8230910549
:100F400009F4BBCF48F08430910539F3EC010597E3
:100F5000B1F4C02FD12F28C0009709F442CFEC0183
:100F6000019769F48DE292E00E94840280E090E0B3
:100F70000E947A04892B09F483CFCE2DDF2D809136
:100F8000240290912502C817D907C1F28230910539
:100F900009F491CF08F4FDCE8430910509F49FCF78
:100FA0008530910509F019CF87E392E00E94840211
:100FB00080E090E00E947A04892B09F4E5CEE0926B
:100FC0002402F09225020C2F1D2FC82DD92DD7CF2A
:100FD00022982A9AE9E6F0E0808185608083E99A88
:100FE000789408951F921FB61F9211242F938F9308
:100FF0009F9310922502109224022FEF89EF90E028
:10100000215080409040E1F700C000009F918F91F7
:101010002F911F901FBE1F90189580917202909182
:101020007302892B49F00E94E702892BF9F4109290
:101030007302109272021AC00E94E702892B81F09B
:1010400081E090E0909373028093720280916E022F
:1010500090916F02019690936F0280936E0206C08A
:101060008091720290917302892BE9F6809170024F
:1010700090917102892B49F00E94AD03892BF9F4FC
:1010800010927102109270021AC00E94AD03892B57
:1010900081F081E090E090937102809370028091E2
:1010A0006E0290916F02019690936F0280936E0290
:1010B00008958091700290917102892BE9F608954C
:1010C0001F921FB61F9211248F9310922501109228
:1010D000240181E0809375028F911F901FBE1F90A5
:1010E00018951F921FB61F9211248F931092A5007E
:1010F0001092A40081E0809374028F911F901FBE14
:101100001F901895E1E2F1E080818C7F808310923E
:1011100027011092260110927502AAE0B1E08C918D
:1011200080618C938C918D7F8C93A0E2B1E08C9147
:1011300083608C938081886180838C9180628C93A2
:1011400080818360808388E99AE39093290180936A
:10115000280183E090E090932B0180932A01808105
:101160008F7B8083E3E7F0E0808180628083089555
:10117000E1EAF0E080818C7F80831092A7001092DA
:10118000A60010927402A1E0B1E08C9180618C9372
:10119000AAE0B1E08C918E7F8C93A0EAB0E08C91B4
:1011A00083608C938081886180838C9180628C9332
:1011B00080818360808388E99AE39093A90080937B
:1011C000A80083E090E09093AB008093AA00808118
:1011D0008F7B8083E2E7F0E08081806280830895E6
:1011E0000E9482080E94B80878940895CF93DF93F4
:1011F00000D00F92CDB7DEB780917502882309F435
:1012000056C0109275022091260130912701C90124
:10121000A0E0B0E02732324070F186529240A1093E
:10122000B109880F991FAA1FBB1F880F991FAA1FFA
:10123000BB1F9C01AD012C7F5F7029833A834B83D8
:101240005C83CA01B9010E94D50A20E030E048E67B
:1012500052E469837A838B839C8369817A818B8151
:101260009C810E94630A60937A0270937B02809350
:101270007C0290937D0220E030E040EF51E46091E9
:101280007A0270917B0280917C0290917D020E9493
:10129000870B181664F480E090E0A0EFB1E480932F
:1012A0007A0290937B02A0937C02B0937D0280919E
:1012B0007A0290917B02A0917C02B0917D02898399
:1012C0009A83AB83BC83BC01CD010F900F900F902C
:1012D0000F90DF91CF910895CF93DF9300D00F92BD
:1012E000CDB7DEB780917402882309F456C01092FE
:1012F00074022091A6003091A700C901A0E0B0E0DF
:101300002732324070F186529240A109B109880F0C
:10131000991FAA1FBB1F880F991FAA1FBB1F9C01E3
:10132000AD012C7F5F7029833A834B835C83CA01B4
:10133000B9010E94D50A20E030E048E652E4698312
:101340007A838B839C8369817A818B819C810E94C3
:10135000630A609376027093770280937802909389
:10136000790220E030E040EF51E460917602709124
:10137000770280917802909179020E94870B18166B
:1013800064F480E090E0A0EFB1E480937602909363
:101390007702A0937802B0937902809176029091BF
:1013A0007702A0917802B091790289839A83AB8306
:1013B000BC83BC01CD010F900F900F900F90DF9177
:1013C000CF910895A29FB001B39FC001A39F700D5C
:1013D000811D1124911DB29F700D811D1124911D3D
:1013E00008955058BB27AA270E94090A0C944D0B58
:1013F0000E943F0B38F00E94460B20F039F49F3FCB
:1014000019F426F40C943C0B0EF4E095E7FB0C94D5
:10141000360BE92F0E945E0B58F3BA176207730769
:101420008407950720F079F4A6F50C94800B0EF450
:10143000E0950B2EBA2FA02D0B01B90190010C01E4
:10144000CA01A0011124FF27591B99F0593F50F4FC
:10145000503E68F11A16F040A22F232F342F442754
:10146000585FF3CF469537952795A795F04053954C
:10147000C9F77EF41F16BA0B620B730B840BBAF01C
:101480009150A1F0FF0FBB1F661F771F881FC2F787
:101490000EC0BA0F621F731F841F48F4879577959B
:1014A0006795B795F7959E3F08F0B0CF9395880F55
:1014B00008F09927EE0F9795879508950E94120BD3
:1014C00008F481E008950E94770A0C944D0B0E9465
:1014D000460B58F00E943F0B40F029F45F3F29F083
:1014E0000C94360B51110C94810B0C943C0B0E9404
:1014F0005E0B68F39923B1F3552391F3951B550BBC
:10150000BB27AA2762177307840738F09F5F5F4FD6
:10151000220F331F441FAA1FA9F335D00E2E3AF015
:10152000E0E832D091505040E695001CCAF72BD02D
:10153000FE2F29D0660F771F881FBB1F261737077E
:101540004807AB07B0E809F0BB0B802DBF01FF27B0
:1015500093585F4F3AF09E3F510578F00C94360B4C
:101560000C94810B5F3FE4F3983ED4F38695779516
:101570006795B795F7959F5FC9F7880F911D969569
:10158000879597F90895E1E0660F771F881FBB1FC5
:10159000621773078407BA0720F0621B730B840B72
:1015A000BA0BEE1F88F7E0950895E89409C097FB01
:1015B0003EF490958095709561957F4F8F4F9F4F2A
:1015C0009923A9F0F92F96E9BB279395F69587956E
:1015D00077956795B795F111F8CFFAF4BB0F11F431
:1015E00060FF1BC06F5F7F4F8F4F9F4F16C08823D8
:1015F00011F096E911C0772321F09EE8872F762F0E
:1016000005C0662371F096E8862F70E060E02AF04E
:101610009A95660F771F881FDAF7880F969587953A
:1016200097F90895990F0008550FAA0BE0E8FEEF0F
:1016300016161706E807F907C0F012161306E40796
:10164000F50798F0621B730B840B950B39F40A268F
:1016500061F0232B242B252B21F408950A2609F46D
:10166000A140A6958FEF811D811D089597F99F6771
:1016700080E870E060E008959FEF80EC089500241A
:101680000A941616170618060906089500240A94E7
:1016900012161306140605060895092E0394000C6D
:1016A00011F4882352F0BB0F40F4BF2B11F460FFFC
:1016B00004C06F5F7F4F8F4F9F4F089557FD905825
:1016C000440F551F59F05F3F71F04795880F97FB06
:1016D000991F61F09F3F79F08795089512161306C0
:1016E0001406551FF2CF4695F1DF08C016161706EF
:1016F0001806991FF1CF8695710561050894089524
:10170000E894BB2766277727CB0197F908950E94B5
:0C171000120B08F48FEF0895F894FFCF3F
:10171C00777C395E79713D74061E753855545C734F
:10172C0067506D783E1C6A766E5B3F065B4F666D4C
:10173C007D077F6F0100010053544F500072736599
:0C174C00740069646C6500656E64200028
:00000001FF
