:100000000C9480000C94A1000C94A1000C94671235
:100010000C94A1000C94A1000C94A1000C94A100DC
:100020000C94A1000C94A1000C94A1000C94A100CC
:100030000C94A1000C94A1000C94A1000C94A100BC
:100040000C94A1000C94A1000C94A1000C94A100AC
:100050000C94A1000C94A3000C94A1000C94A1009A
:100060000C94A1000C940C010C94A1000C94A10020
:100070000C94A1000C94A1000C94A1000C94A1007C
:100080000C94A1000C94A1000C94A1000C94A1006C
:100090000C94A1000C94A1000C94A1000C94A1005C
:1000A0000C94A1000C946A140C94A1000C94A1006F
:1000B0000C94A1000C94A1000C9459140C94A10070
:1000C0000C94A1000C94A1000C94A1000C94A1002C
:1000D0000C94A1000C94A1000C94A1000C94A1001C
:1000E0000C94A1000C9488060C94C3080C94320A5A
:1000F0000C94AE070C94C9070C9427080C94910635
:1001000011241FBECFEFD1E2DEBFCDBF00E00CBF98
:1001100012E0A0E0B2E0E2E3F1E300E00BBF02C0D6
:1001200007900D92AC32B107D9F722E0ACE2B2E011
:1001300001C01D92A43AB207E1F70E944E060C944A
:1001400090180C9400001F920F920FB60F9211247A
:100150000BB60F922F933F934F935F936F937F93C1
:100160008F939F93AF93BF93EF93FF93CF93DF93BF
:1001700000D00F92CDB7DEB780912C0290912D0266
:10018000A0912E02B0912F0289839A83AB83BC8306
:100190002FE632E143E85AE3BC01CD010E94531639
:1001A000462F572F682F792F40932C0250932D0202
:1001B00060932E0270932F020F900F900F900F906C
:1001C000DF91CF91FF91EF91BF91AF919F918F916F
:1001D0007F916F915F914F913F912F910F900BBE47
:1001E0000F900FBE0F901F90189510922C02109236
:1001F0002D0210922E0210922F028AEF87BD85B534
:10020000836085BD84B5826084BDEEE6F0E08081C8
:1002100082608083789408950F920FB60F921F9298
:1002200011242F932BB72F938F939F93AF93BF934B
:10023000EF93FF93CF93DF930F92CDB7DEB780910B
:10024000C0008C71882331F081E090E090933802F7
:10025000809337028091C600898380913902909102
:100260003A022981FC01E55CFD4F20830196843030
:1002700091052CF490933A02809339021FC010929A
:100280003A0210923902ABE3B2E08C91082E000CD6
:10029000990BE0E3F2E09183808311968C911197A2
:1002A000828312968C911297838313968C91848308
:1002B00081E090E090933602809335020F90DF91B9
:1002C000CF91FF91EF91BF91AF919F918F912F911E
:1002D0002BBF2F911F900F900FBE0F901895CF93AB
:1002E000DF93E1ECF0E080818F77808380818F7EE7
:1002F00080838081877F8083A4E6B0E08C918D7FAE
:100300008C93A2ECB0E08C918F7B8C938C918F7747
:100310008C9387E690E09093C5008093C400C0EC76
:10032000D0E088818D7F88838C918E7F8C938C9197
:100330008E7F8C938C91877F8C9380818E7F80833E
:100340008C918C938C9181608C938881837E88833F
:1003500080818068808378948081806180838081BF
:1003600088608083DF91CF9108959091C00095FFC0
:1003700005C08093C60081E090E0089580E090E0A1
:10038000089581E00E94B5010895869A879A859A1A
:1003900008958F9847E050E0E1E0F0E070E06C5F96
:1003A0007F4F8E988D9891B39F01042E02C0220F2B
:1003B000331F0A94E2F7062E02C0359527950A945A
:1003C000E2F7A1E02A2721702295220F207E292B17
:1003D00021BB8E9A4150510920F747E050E0682F29
:1003E00070E08E988D9891B39B01042E02C03595D4
:1003F00027950A94E2F7220F331F22953295307F1A
:100400003227207F32272072922B91BB8E9A415047
:10041000510938F78F9A0895E82F9FEB980F9A317A
:1004200038F09FE9980F9A3160F0803299F0089582
:100430000E2E000CFF0BE154FE4F80810E94C9017B
:1004400008950E2E000CFF0BE156FE4F80810E9496
:10045000C901089580E00E94C901E9CF0F931F935D
:10046000CF93082F192FC0E06C2FF80181918F01D5
:100470000E940C028FE99FE00197F1F700C0000095
:10048000CF5FC43089F760E080E00E94C901CF915E
:100490001F910F9108951F93CF93DF93C82FD92FEA
:1004A00013E09E01ADECBCEC0E9443169C01369516
:1004B00027953695279536952795C901880F991F59
:1004C000880F991F820F931F880F991FFE01E81B49
:1004D000F90BE65EFD4F612F80810E94C9019E01EC
:1004E000ADECBCEC0E944316EC01D695C795D695B1
:1004F000C795D695C7958FE99FE00197F1F700C0A2
:100500000000115070F660E080E00E94C901DF91A8
:10051000CF911F910895E7E0F1E080818C7F808387
:100520000895CF92DF92EF92FF92CF93DF9300D0A6
:100530000F92CDB7DEB720912C0230912D02409161
:100540002E0250912F0260914702709148028091D3
:10055000490290914A020E941E18181644F4109203
:100560004702109248021092490210924A0280916A
:10057000060180FD43C08091450290914602892B7F
:1005800009F055C0C0902C02D0902D02E0902E02B0
:10059000F0902F022DEC3CEC4CE45DE360914702BF
:1005A000709148028091490290914A020E9453162C
:1005B000A701960169837A838B839C8369817A8101
:1005C0008B819C810E94BF1688230CF06DC081E056
:1005D00090E0909346028093450280912C02909186
:1005E0002D02A0912E02B0912F028093470290938A
:1005F0004802A0934902B0934A020AC080910601C2
:1006000080FF06C08091450290914602892B99F4A3
:1006100080914502909146020F900F900F900F909D
:10062000DF91CF91FF90EF90DF90CF900895809170
:10063000060180FFEDCFC0902C02D0902D02E090FB
:100640002E02F0902F022DEC3CEC4CE45DE3609127
:100650004702709148028091490290914A020E949B
:100660005316A701960169837A838B839C836981E2
:100670007A818B819C810E94BF1688234CF6109250
:1006800046021092450280912C0290912D02A09179
:100690002E02B0912F028093470290934802A093BC
:1006A0004902B0934A02B4CF80910601B1CFCF92F4
:1006B000DF92EF92FF92CF93DF9300D00F92CDB7EE
:1006C000DEB720912C0230912D0240912E025091E4
:1006D0002F026091410270914202809143029091F9
:1006E00044020E941E18181644F4109241021092FF
:1006F000420210924302109244028091060181FD51
:1007000043C080913F0290914002892B09F055C06F
:10071000C0902C02D0902D02E0902E02F0902F027B
:100720002DEC3CEC4CE45DE360914102709142029F
:1007300080914302909144020E945316A7019601B2
:1007400069837A838B839C8369817A818B819C8185
:100750000E94BF1688230CF06DC081E090E090935A
:10076000400280933F0280912C0290912D02A09133
:100770002E02B0912F028093410290934202A093E7
:100780004302B09344020AC08091060181FF06C073
:1007900080913F0290914002892B99F480913F0211
:1007A000909140020F900F900F900F90DF91CF919A
:1007B000FF90EF90DF90CF9008958091060181FF28
:1007C000EDCFC0902C02D0902D02E0902E02F09040
:1007D0002F022DEC3CEC4CE45DE360914102709102
:1007E000420280914302909144020E945316A70155
:1007F000960169837A838B839C8369817A818B815B
:100800009C810E94BF1688234CF6109240021092E1
:100810003F0280912C0290912D02A0912E02B09166
:100820002F028093410290934202A0934302B0931F
:100830004402B4CF80910601B1CF80B3876080BB02
:1008400081B3876081BB0895CF92DF92EF92FF92D0
:10085000CF93DF9300D00F92CDB7DEB7282F392F7B
:100860002130310509F482C02230310509F4EDC090
:1008700080E090E0232B59F00F900F900F900F9095
:10088000DF91CF91FF90EF90DF90CF90089520916E
:100890002C0230912D0240912E0250912F02609136
:1008A000590270915A0280915B0290915C020E9401
:1008B0001E18181644F41092590210925A021092FF
:1008C0005B0210925C02789943C08091570290912C
:1008D0005802892B09F028C1C0902C02D0902D021B
:1008E000E0902E02F0902F022BE037ED43E25CE324
:1008F0006091590270915A0280915B0290915C0262
:100900000E945316A701960169837A838B839C8387
:1009100069817A818B819C810E94BF1688230CF0AB
:100920003FC181E090E090935802809357028091FC
:100930002C0290912D02A0912E02B0912F02809353
:10094000590290935A02A0935B02B0935C0209C0D3
:10095000789B07C08091570290915802892B09F02B
:10096000E5C0809157029091580286CF20912C02C9
:1009700030912D0240912E0250912F02609153022E
:100980007091540280915502909156020E941E1857
:10099000181644F410925302109254021092550209
:1009A000109256027A9943C080915102909152025E
:1009B000892B09F0F7C0C0902C02D0902D02E09056
:1009C0002E02F0902F022BE037ED43E25CE36091C2
:1009D00053027091540280915502909156020E94E8
:1009E0005316A701960169837A838B839C8369815F
:1009F0007A818B819C810E94BF1688230CF00EC1E6
:100A000081E090E0909352028093510280912C02F9
:100A100090912D02A0912E02B0912F02809353024B
:100A200090935402A0935502B093560209C07A9B4A
:100A300007C08091510290915202892B09F0B4C0F5
:100A4000809151029091520217CF20912C02309147
:100A50002D0240912E0250912F0260914D02709113
:100A60004E0280914F02909150020E941E1818165B
:100A700044F410924D0210924E0210924F021092C6
:100A80005002799943C080914B0290914C02892B7E
:100A900009F0C8C0C0902C02D0902D02E0902E0228
:100AA000F0902F022BE037ED43E25CE360914D02C2
:100AB00070914E0280914F02909150020E94531605
:100AC000A701960169837A838B839C8369817A81EC
:100AD0008B819C810E94BF1688230CF0A1C081E00D
:100AE00090E090934C0280934B0280912C02909165
:100AF0002D02A0912E02B0912F0280934D0290936F
:100B00004E02A0934F02B093500209C0799B07C0D8
:100B100080914B0290914C02892B09F085C0809105
:100B20004B0290914C02A8CE789B1BCFC0902C0218
:100B3000D0902D02E0902E02F0902F022BE037EDA6
:100B400043E25CE36091590270915A0280915B022A
:100B500090915C020E945316A701960169837A83E3
:100B60008B839C8369817A818B819C810E94BF16D3
:100B700088230CF0F6CE1092580210925702809102
:100B80002C0290912D02A0912E02B0912F02809301
:100B9000590290935A02A0935B02B0935C02E1CE9B
:100BA0008FB1DFCE7A9B4CCFC0902C02D0902D021B
:100BB000E0902E02F0902F022BE037ED43E25CE351
:100BC00060915302709154028091550290915602A7
:100BD0000E945316A701960169837A838B839C83B5
:100BE00069817A818B819C810E94BF1688230CF0D9
:100BF00027CF109252021092510280912C029091B4
:100C00002D02A0912E02B0912F0280935302909357
:100C10005402A0935502B093560212CF8FB110CF59
:100C20008FB17DCF799B7BCFC0902C02D0902D02CD
:100C3000E0902E02F0902F022BE037ED43E25CE3D0
:100C400060914D0270914E0280914F02909150023E
:100C50000E945316A701960169837A838B839C8334
:100C600069817A818B819C810E94BF1688230CF058
:100C700056CF10924C0210924B0280912C02909110
:100C80002D02A0912E02B0912F0280934D029093DD
:100C90004E02A0934F02B093500241CF00D000D03B
:100CA0000F92CDB7DEB700912402109125020F2ECE
:100CB000F0E3EF2EF2E0FF2EF02D0F2EF5E08F2E59
:100CC000F02D912C66246394712C6894AA24A1F8C9
:100CD000B12C0F2EFDE6CF2EF2E0DF2EF02D42C11B
:100CE0000D811E813FC10E94A811892B09F041C1CD
:100CF00085E0F701D60101900D928A95E1F7D601C2
:100D00008D919C91039749F0A0922402B092250204
:100D10000E948C0A0A2D1B2D25C1809224029092DC
:100D2000250201151105F9F005301105E1F080915A
:100D3000720290917302A0917402B0917502809337
:100D4000630290936402A0936502B09366021092CE
:100D50005F02109260021092610210926202109281
:100D60005E0210925D02F701828162E170E0082E5E
:100D7000000C990B0E94A70A20E030E0A9016091C5
:100D80005F027091600280916102909162020E9404
:100D9000BF16882309F45CC220915F023091600283
:100DA000409161025091620260916302709164020D
:100DB00080916502909166020E945316262F372F6C
:100DC000482F592F609172027091730280917402C2
:100DD000909175020E945216062F172F8F839D83C4
:100DE00022EF30EB40E95EE369837A838B839C8357
:100DF00069817A818B819C810E94BF1688230CF4C3
:100E000089C222EF30EB40E15FE309831A83BF819F
:100E1000BB83ED81EC8369817A818B819C810E9407
:100E2000BF1688230CF4A0C280915D0290915E02EF
:100E3000892BB9F420E030E0A9016091760270912D
:100E4000770280917802909179020E94BF168111F9
:100E5000B6C284E090E00E946C0A60925D027092DB
:100E60005E02F7018381282F880F330B440B550B4B
:100E700029833A834B835C83CA01B9010E946E17B0
:100E800069837A838B839C8369817A818B819C813E
:100E90000E940C112091630230916402409165021E
:100EA0005091660260917202709173028091740297
:100EB000909175020E945216062F172F8F839D83E3
:100EC00080915F0290916002A0916102B0916202F4
:100ED00089839A83AB83BC839C01AD01BC01CD01A6
:100EE0000E94531622EF30EB40E95FE369837A8377
:100EF0008B839C8369817A818B819C810E945316AC
:100F0000262F372F482F592F09831A839F819B83C0
:100F1000AD81AC8369817A818B819C810E94BF16EF
:100F200088239CF40E944F1520E030E040E751E414
:100F300069837A838B839C8369817A818B819C818D
:100F40000E94BF1688230CF445C260E070E083E085
:100F500090E00E94A70A082D192D04C00E948C0A57
:100F60000D811E818091350290913602892B09F006
:100F7000BACEE0912402F0912502FE83ED83E730A2
:100F8000F10508F0ADCE8827EE56F74E8F4F0C9442
:100F90003B1680916B0290916C02892B49F186E29D
:100FA00092E00E942E0280E090E00E9424040D81D5
:100FB0001E81892BB9F6862D972D0E9424040D8160
:100FC0001E81892B79F68A2D9B2D0E9424040D8188
:100FD0001E81892B39F610926C0210926B0282E00E
:100FE00090E090932502809324020D811E81BACF58
:100FF0000E94F5000E9449150E9454140E94370A6D
:1010000060E070E080E490E40E940C1160E070E029
:1010100080E490E40E94551183E090E00E946C0A05
:101020000E948B0210929502109294020E94C501B8
:101030000E941D040E946F010E948C0A60E080E003
:101040000E94C90160926B0270926C02A8CFD60117
:1010500012968C918F3709F462C084E090E00E9470
:101060006C0AF6018381282F880F330B440B550B34
:1010700029833A834B835C83CA01B9010E946E17AE
:1010800069837A838B839C8369817A818B819C813C
:101090000E940C110E944F1520E030E040E751E41F
:1010A00069837A838B839C8369817A818B819C811C
:1010B0000E941E18181694F40E94C51520E030E016
:1010C00040E751E469837A838B839C8369817A81C9
:1010D0008B819C810E941E18181634F10E944F15B6
:1010E00020E030E040E751E469837A838B839C837E
:1010F00069817A818B819C810E941E181816ECF4FC
:101100000E94C51569837A838B839C8369817A8168
:101110008B819C810E9431100D811E8123CF83E041
:1011200090E00E946C0A9DCF0E94C101A09224020F
:10113000B09225020D811E8115CF0E94C51520E0B9
:1011400030E040E751E469837A838B839C83698133
:101150007A818B819C810E941E1818167CF40E9453
:101160004F1569837A838B839C8369817A818B8114
:101170009C810E94560F0D811E81F4CE0E94990E13
:101180000D811E81EFCE0B7F012B81F080917202C9
:1011900090917302A0917402B091750280936702DE
:1011A00090936802A0936902B0936A02D7011396E4
:1011B0008C91282F880F330B440B550B29833A83CE
:1011C0004B835C83CA01B9010E946E1769837A83DD
:1011D0008B839C8369817A818B819C810E940C1115
:1011E000D70112968C9162E170E0082E000C990BE9
:1011F0000E94A70A2091670230916802409169021B
:1012000050916A026091720270917302809174022F
:10121000909175020E94521622EF30EB40E15FE39D
:1012200069837A838B839C8369817A818B819C819A
:101230000E941E180D811E8118160CF093CE0E947C
:10124000C101A0922402B09225020D811E818ACE96
:10125000D70113968C91282F880F330B440B550B15
:1012600029833A834B835C83CA01B9010E946E17BC
:1012700069837A838B839C8369817A818B819C814A
:101280000E940C110E94990ED70112968C91823007
:1012900071F10E944F1520E030E040E751E469838E
:1012A0007A838B839C8369817A818B819C810E9464
:1012B0001E1818160CF070CD209163023091640254
:1012C00040916502509166026091720270917302C2
:1012D00080917402909175020E94521660935F0291
:1012E00070936002809361029093620255CD0E94D8
:1012F000C51520E030E040E751E469837A838B83B1
:101300009C8369817A818B819C810E941E181816AA
:101310009CF242CDF7018381282F880F330B440BB9
:10132000550B29833A834B835C83CA01B9010E9420
:101330006E1769837A838B839C8369817A818B8121
:101340009C810E940C11D70112968C91823049F039
:10135000862D972D62E170E00E94A70A082D192DB5
:1013600001CE8A2D9B2DF6CFD70113968C91282F75
:10137000880F330B440B550B29833A834B835C83D3
:10138000CA01B9010E946E1769837A838B839C839B
:1013900069817A818B819C810E940C11D701129600
:1013A0008C91823049F08A2D9B2D62E170E00E9481
:1013B000A70A082D192DD6CD81E090E0F6CF83E065
:1013C00090E00E946C0A81E090E090935E0280932E
:1013D0005D0247CD0E94C51520E030E040E751E4B2
:1013E00069837A838B839C8369817A818B819C81D9
:1013F0000E94BF1688230CF0A8CD0E944F1520E054
:1014000030E040E751E469837A838B839C83698170
:101410007A818B819C810E941E1818169CF40E9470
:10142000C515E62F20E030E040E751E4E9837A83F8
:101430008B839C8369817A818B819C810E941E1899
:1014400018162CF00E94990E05E010E08BCD0E943A
:10145000C10182E090E0909325028093240205E090
:1014600010E080CD0E948C0A0D811E817BCD1092F0
:101470007E0210927F0210928002109281021092DE
:101480008A0210928B0210928C0210928D0280E0E0
:1014900090E0A0E8BFE380937A0290937B02A09350
:1014A0007C02B0937D02109272021092730210922D
:1014B00074021092750280912C0290912D02A091DD
:1014C0002E02B0912F028093860290938702A09300
:1014D0008802B09389020895049789F080E090E033
:1014E000A0E8BFE38093760290937702A0937802FE
:1014F000B093790281E090E00E947B1408951092ED
:10150000760210927702109278021092790280E0AF
:1015100090E00E947B14089560E070E0CB010E948F
:10152000C61260E070E0CB010E948D1310927E0223
:1015300010927F02109280021092810210928A0211
:1015400010928B0210928C0210928D0208954F928D
:101550005F926F927F928F929F92AF92BF92EF9223
:10156000FF920F931F93CF93DF9300D000D000D052
:10157000CDB7DEB7082F192FE62EF72E80912C025B
:1015800090912D02A0912E02B0912F0289839A830F
:10159000AB83BC838090860290908702A0908802E3
:1015A000B0908902A5019401BC01CD010E945216A0
:1015B00020918202309183024091840250918502F1
:1015C00069837A838B839C8369817A818B819C81F7
:1015D0000E942318262F372F482F592F609172020F
:1015E0007091730280917402909175020E9453165B
:1015F00060937202709373028093740290937502E9
:1016000080918A0290918B02A0918C02B0918D0200
:1016100089839A83AB83BC8340907E0250907F0283
:101620006090800270908102A3019201BC01CD0103
:101630000E94BF1688230CF093C080912C029091D9
:101640002D02A0912E02B0912F028D839E83AF8335
:10165000B887A5019401BC01CD010E9452162091CA
:101660007A0230917B0240917C0250917D026D8321
:101670007E838F8398876D817E818F8198850E947C
:10168000231829813A814B815C8169837A838B831A
:101690009C8369817A818B819C810E945316A62E3E
:1016A000B72E8D839983262F372F482F592FC301AB
:1016B000B2010E94BF1688230CF449C08A2D9B2DCD
:1016C000AD81B98180938A0290938B02A0938C02A2
:1016D000B0938D0280912C0290912D02A0912E0248
:1016E000B0912F028093860290938702A093880284
:1016F000B0938902ED82FE82AD81BE81199724F4F8
:1017000089E090E09E838D830230110509F49AC12F
:101710000330110509F486C20130110509F482C0B5
:1017200060E070E0CB010E94C61260E070E0CB0187
:101730000E948D1310928A0210928B0210928C02DA
:1017400010928D0230E020E080E090E05AC140929B
:101750008A0250928B0260928C0270928D02BACFF4
:10176000A301920169817A818B819C810E941E185C
:1017700018160CF0AFCF80912C0290912D02A09101
:101780002E02B0912F028D839E83AF83B887A5016F
:101790009401BC01CD010E94521620917A02309131
:1017A0007B0240917C0250917D026D837E838F830A
:1017B00098876D817E818F8198850E942318262FBE
:1017C000372F482F592F69817A818B819C810E9404
:1017D0005216A62EB72E89879D8320E030E0A901FE
:1017E00069837A838B839C8369817A818B819C81D5
:1017F0000E94BF1688236CF08A2D9B2DA985BD8180
:1018000080938A0290938B02A0938C02B0938D02F6
:1018100061CF10928A0210928B0210928C02109269
:101820008D0258CFAD81BE81AA0FBB1FCD01092EFD
:10183000000CAA0BBB0B89839A83AB83BC83BC01CE
:10184000CD010E946E17062F172F89879D8320E0F8
:1018500030E044E951E469837A838B839C83698116
:101860007A818B819C810E945316A62EB72EE82E7A
:10187000F92E20E030E044E951E469817A818B81DE
:101880009C810E9452162A2D3B2D4E2D5F2D69837F
:101890007A838B839C8369817A818B819C810E946E
:1018A000C41620E030E844ED53E469837A838B83E7
:1018B0009C8369817A818B819C810E94231820916D
:1018C0008A0230918B0240918C0250918D02698383
:1018D0007A838B839C8369817A818B819C810E942E
:1018E0002318662E772E882E992E20E030E0A9014D
:1018F00060917602709177028091780290917902DE
:101900000E94BF1620E030E040E85FEB811104C088
:1019100020E030E040E85FE369827A828B829C823B
:1019200069817A818B819C810E94231869837A83E3
:101930008B839C8369817A818B819C810E94C612F2
:1019400020E030E844ED53E460918A0270918B020C
:1019500080918C0290918D020E942318662E772E22
:10196000882E992E20E030E0A901609176027091D6
:10197000770280917802909179020E94BF1620E050
:1019800030E040E85FEB811104C020E030E040E847
:101990005FE369827A828B829C8269817A818B8102
:1019A0009C810E94231869837A838B839C8369813D
:1019B0007A818B819C810E948D132A2D3B2D4E2D87
:1019C0005F2D09831A83B985BB838D818C836981DF
:1019D0007A818B819C810E94C41620918A02309169
:1019E0008B0240918C0250918D0269837A838B83A4
:1019F0009C8369817A818B819C810E942318362F78
:101A0000272F432F522F682F792F40938202509314
:101A10008302609384027093850229960FB6F8942E
:101A2000DEBF0FBECDBFDF91CF911F910F91FF9011
:101A3000EF90BF90AF909F908F907F906F905F904E
:101A40004F90089520E030E844ED53E460918A021D
:101A500070918B0280918C0290918D020E942318CC
:101A6000E62EF72E082F192F20E030E0A901609113
:101A700076027091770280917802909179020E94AB
:101A8000BF1620E030E040E85FEB811104C020E0A9
:101A900030E040E85FE3E982FA820B831C836981CE
:101AA0007A818B819C810E94231869837A838B833E
:101AB0009C8369817A818B819C810E94C612AD8151
:101AC000BE81AA0FBB1FCD01092E000CAA0BBB0BB8
:101AD00089839A83AB83BC83BC01CD010E946E17BE
:101AE000062F172F89879D8320E030E044E951E4D9
:101AF00069837A838B839C8369817A818B819C81C2
:101B00000E945316A62EB72EE82EF92E20E030E0C4
:101B100044E951E469817A818B819C810E9452164B
:101B20002A2D3B2D4E2D5F2D69837A838B839C83D9
:101B300069817A818B819C810E94C41620918A02DE
:101B400030918B0240918C0250918D0269837A838F
:101B50008B839C8369817A818B819C810E9423186D
:101B600020E030E844ED53E469837A838B839C83DF
:101B700069817A818B819C810E942318662E772E41
:101B8000882E992E20E030E0A901609176027091B4
:101B9000770280917802909179020E94BF1620E02E
:101BA00030E040E85FEB811104C020E030E040E825
:101BB0005FE369827A828B829C8269817A818B81E0
:101BC0009C810E94231869837A838B839C8369811B
:101BD0007A818B819C810E948D132A2D3B2D4E2D65
:101BE0005F2D09831A83B985BB838D818C836981BD
:101BF0007A818B819C810E94C41620918A02309147
:101C00008B0240918C0250918D0269837A838B8381
:101C10009C8369817A818B819C810E942318362F55
:101C2000272FEFCE20E030E844ED53E460918A02A4
:101C300070918B0280918C0290918D020E942318EA
:101C4000062F172F89879D8320E030E0A90160913E
:101C500076027091770280917802909179020E94C9
:101C6000BF1620E030E040E85FEB811104C020E0C7
:101C700030E040E85FE309831A8399859B83AD8157
:101C8000AC8369817A818B819C810E94231869834E
:101C90007A838B839C8369817A818B819C810E946A
:101CA000C61220E030E844ED53E460918A0270915E
:101CB0008B0280918C0290918D020E942318062F36
:101CC000172F89879D8320E030E0A901609176027B
:101CD0007091770280917802909179020E94BF16EC
:101CE00020E030E040E85FEB811104C020E030E00C
:101CF00040E85FE309831A83B985BB838D818C83B8
:101D000069817A818B819C810E94231869837A83FF
:101D10008B839C8369817A818B819C810E948D1346
:101D200030918A0220918B0280918C0290918D02D9
:101D300068CECF92DF92EF92FF920F931F93CF93D3
:101D4000DF9300D000D0CDB7DEB70E944F15062F2D
:101D5000172F8E839D830E94C515C62ED72EE82E81
:101D6000F92E20E030E040E05FE309831A838E81A2
:101D70008B838D818C8369817A818B819C810E9488
:101D800053162C2D3D2D4E2D5F2D69837A838B8329
:101D90009C8369817A818B819C810E94BF168823F4
:101DA0000CF456C020E030E040E05FE3C982DA8204
:101DB000EB82FC8269817A818B819C810E9453161F
:101DC000202F312F4E815D8169837A838B839C83A1
:101DD00069817A818B819C810E94BF1688230CF0D7
:101DE0005EC02C2D3D2D4E2D5F2D09831A838E81D3
:101DF0008B838D818C8369817A818B819C810E9408
:101E00005216262F372F482F592F60E070E080E8B8
:101E10009FE30E94C41669837A838B839C836981C4
:101E20007A818B819C810E94361781E090E00E942C
:101E3000A70A0F900F900F900F900F900F90DF91C7
:101E4000CF911F910F91FF90EF90DF90CF90089569
:101E5000202F312F4E815D81C982DA82EB82FC8294
:101E600069817A818B819C810E945216262F372F9F
:101E7000482F592F60E070E080E89FE30E94C4166D
:101E800069837A838B839C8369817A818B819C812E
:101E90000E94361782E090E00E94A70ACACF60E055
:101EA00070E083E090E00E94A70AC3CFCF92DF9258
:101EB000EF92FF920F931F93CF93DF9300D000D048
:101EC000CDB7DEB7C62ED72EE82EF92E0E944F15BD
:101ED000062F172F8E839D83262F372F482F592F9C
:101EE000C982DA82EB82FC8269817A818B819C8152
:101EF0000E9452162C2D3D2D4E2D5F2D69837A8325
:101F00008B839C8369817A818B819C810E9453168B
:101F1000C62ED72EE82EF92E20E030E040E05FE319
:101F200009831A838E818B838D818C8369817A8169
:101F30008B819C810E9453162C2D3D2D4E2D5F2DA3
:101F400069837A838B839C8369817A818B819C816D
:101F50000E94BF1688230CF456C020E030E040E019
:101F60005FE3C982DA82EB82FC8269817A818B81AC
:101F70009C810E945316202F312F4E815D816983F1
:101F80007A838B839C8369817A818B819C810E9477
:101F9000BF1688230CF05EC02C2D3D2D4E2D5F2DDD
:101FA00009831A838E818B838D818C8369817A81E9
:101FB0008B819C810E945216262F372F482F592F34
:101FC00060E070E080E89FE30E94C41669837A8332
:101FD0008B839C8369817A818B819C810E943617D7
:101FE00081E090E00E94A70A0F900F900F900F9051
:101FF0000F900F90DF91CF911F910F91FF90EF9075
:10200000DF90CF900895202F312F4E815D81C982BE
:10201000DA82EB82FC8269817A818B819C810E94C9
:102020005216262F372F482F592F60E070E080E896
:102030009FE30E94C41669837A838B839C836981A2
:102040007A818B819C810E94361782E090E00E9409
:10205000A70ACACF60E070E083E090E00E94A70A80
:10206000C3CFCF92DF92EF92FF920F931F93CF9344
:10207000DF9300D000D0CDB7DEB7C62ED72EE82E26
:10208000F92E0E94C515062F172F8E839D83262FAC
:10209000372F482F592FC982DA82EB82FC8269815F
:1020A0007A818B819C810E9452162C2D3D2D4E2DC4
:1020B0005F2D69837A838B839C8369817A818B818D
:1020C0009C810E945316C62ED72EE82EF92E20E0B2
:1020D00030E040E05FE369837A838B839C8369818E
:1020E0007A818B819C810E945316202F312F4E8143
:1020F0005D8169837A838B839C8369817A818B81FB
:102100009C810E94BF1688230CF456C020E030E06A
:1021100040E05FE309831A838E818B838D818C83FA
:1021200069817A818B819C810E9453162C2D3D2DD3
:102130004E2D5F2D69837A838B839C8369817A819D
:102140008B819C810E94BF1688230CF05EC0202FDB
:10215000312F4E815D81C982DA82EB82FC826981F6
:102160007A818B819C810E945216262F372F482F0F
:10217000592F60E070E080E89FE30E94C4166983F5
:102180007A838B839C8369817A818B819C810E9475
:10219000361781E090E00E94A70A0F900F900F90F1
:1021A0000F900F900F90DF91CF911F910F91FF90A3
:1021B000EF90DF90CF9008952C2D3D2D4E2D5F2D6B
:1021C00009831A838E818B838D818C8369817A81C7
:1021D0008B819C810E945216262F372F482F592F12
:1021E00060E070E080E89FE30E94C41669837A8310
:1021F0008B839C8369817A818B819C810E943617B5
:1022000082E090E00E94A70AC8CF60E070E083E01F
:1022100090E00E94A70AC1CF0F931F93CF93DF9343
:1022200000D000D0CDB7DEB7062F172F8E839D8349
:102230002DEC3CEC4CE45EE369837A838B839C83D6
:1022400069817A818B819C810E94BF16882384F4E6
:1022500020E030E0A90169817A818B819C810E9414
:10226000BF1688235CF400E010E01E821D8206C0C9
:102270000DEC1CEC8CE48E838EE38D83802F912FEC
:10228000AE81BD8180937E0290937F02A0938002F5
:10229000B09381020F900F900F900F900F900F90BE
:1022A000DF91CF911F910F9108950F931F93CF93BB
:1022B000DF9300D000D0CDB7DEB7062F172F8E8367
:1022C0009D8320E030E040E85FE369837A838B837D
:1022D0009C8369817A818B819C810E94BF168823AF
:1022E000ECF000E010E080E88E838FE38D83802F98
:1022F000912FAE81BD8180937A0290937B02A0934F
:102300007C02B0937D020F900F900F900F900F9072
:102310000F90DF91CF911F910F91089520E030E051
:10232000A90169817A818B819C810E94BF168823D3
:10233000F4F600E010E01E821D82D9CF22982A9A7E
:10234000E9E6F0E0808185608083E99A78940895D9
:10235000CF92DF92EF92FF92CF93DF9300D00F9254
:10236000CDB7DEB720912C0230912D0240912E0284
:1023700050912F026091900270919102809192028F
:10238000909193020E941E18181644F41092900225
:102390001092910210929202109293021A9943C0E5
:1023A00080918E0290918F02892B09F053C0C090CA
:1023B0002C02D0902D02E0902E02F0902F022BE004
:1023C00037ED43EA5CE36091900270919102809155
:1023D0009202909193020E945316A701960169837D
:1023E0007A838B839C8369817A818B819C810E9413
:1023F000BF1688230CF069C081E090E090938F02B3
:1024000080938E0280912C0290912D02A0912E0239
:10241000B0912F028093900290939102A093920228
:10242000B093930208C01A9B06C080918E029091CF
:102430008F02892B89F480918E0290918F020F90E8
:102440000F900F900F90DF91CF91FF90EF90DF9062
:10245000CF9008951A9BEFCFC0902C02D0902D0200
:10246000E0902E02F0902F022BE037ED43EA5CE380
:1024700060919002709191028091920290919302EA
:102480000E945316A701960169837A838B839C83EC
:1024900069817A818B819C810E94BF1688235CF6BA
:1024A00010928F0210928E0280912C0290912D0238
:1024B000A0912E02B0912F028093900290939102EE
:1024C000A0939202B0939302B6CF83B1B4CF1F9280
:1024D0001FB61F92112410922502109224021F9001
:1024E0001FBE1F9018958091980290919902892B98
:1024F00049F00E949102892BF9F4109299021092EE
:1025000098021AC00E949102892B81F081E090E02C
:1025100090939902809398028091940290919502F1
:102520000196909395028093940206C08091980240
:1025300090919902892BE9F68091960290919702E9
:10254000892B49F00E945703892BF9F410929702C6
:10255000109296021AC00E945703892B81F081E0E5
:1025600090E09093970280939602809194029091CC
:10257000950201969093950280939402089580911C
:10258000960290919702892BE9F60895CF93DF93F5
:1025900000D00F92CDB7DEB7462F572F682F792F77
:1025A00049835A836B837C8320E030E048EC52E41B
:1025B00069817A818B819C810E941E1818165CF1BA
:1025C00020E030E048EC52EC69817A818B819C817B
:1025D0000E94BF1688239CF480E090E0A8ECB2EC47
:1025E00089839A83AB83BC832D9889819A81AB813F
:1025F000BC81B05889839A83AB83BC8315C020E02B
:1026000030E0A90169817A818B819C810E94BF168B
:1026100088234CF4E9CF80E090E0A8ECB2E4898311
:102620009A83AB83BC832D9A20E030E040EE50E4E7
:1026300069817A818B819C810E94BF1688233CF43A
:1026400083E090E0909389008093880038C028E16F
:1026500034E146E759E369817A818B819C810E944C
:10266000231820E030E040E857E369837A838B83C6
:102670009C8369817A818B819C810E945316262FCD
:10268000372F482F592F60E070E088EC92E40E94C9
:10269000C41669837A838B839C8369817A818B8159
:1026A0009C810E943D17862F972F803AAFE09A07B2
:1026B00010F480EA9FE090938900809388000F9047
:1026C0000F900F900F90DF91CF910895E1E8F0E027
:1026D00080818E7F8083269AA0E8B0E08C91836011
:1026E0008C938081886180838C9180628C938081BF
:1026F0008160808380EA9FE09093890080938800C6
:1027000080E290E090938B0080938A00259A60E0AD
:1027100070E0CB010E94C6120895CF93DF9300D0E2
:102720000F92CDB7DEB7462F572F682F792F4983E9
:102730005A836B837C8320E030E048EC52E469816B
:102740007A818B819C810E941E1818165CF120E012
:1027500030E048EC52EC69817A818B819C810E9447
:10276000BF1688239CF480E090E0A8ECB2EC89834B
:102770009A83AB83BC83759889819A81AB81BC8134
:10278000B05889839A83AB83BC8315C020E030E0C6
:10279000A90169817A818B819C810E94BF1688235F
:1027A0004CF4E9CF80E090E0A8ECB2E489839A830E
:1027B000AB83BC83759A20E030E040EE50E4698141
:1027C0007A818B819C810E94BF1688233CF483E030
:1027D00090E0909399008093980038C028E134E10C
:1027E00046E759E369817A818B819C810E94231895
:1027F00020E030E040E857E369837A838B839C8351
:1028000069817A818B819C810E945316262F372FF4
:10281000482F592F60E070E088EC92E40E94C416C3
:1028200069837A838B839C8369817A818B819C8184
:102830000E943D17862F972F803AAFE09A0710F439
:1028400080EA9FE090939900809398000F900F90FA
:102850000F900F90DF91CF910895E1E9F0E0808132
:102860008E7F80836C9AA0E9B0E08C9183608C931A
:102870008081886180838C9180628C93808181606B
:10288000808380EA9FE0909399008093980080E293
:1028900090E090939B0080939A006D9A60E070E0C6
:1028A000CB010E948D1308950E9466130E942D147F
:1028B00008951F921FB61F9211248F931092250125
:1028C0001092240181E080939B028F911F901FBE84
:1028D0001F9018951F921FB61F9211248F9310926C
:1028E000A5001092A40081E080939A028F911F901E
:1028F0001FBE1F901895282F392F1092A9001092F3
:10290000A8001092AB001092AA001092AD00109295
:10291000AC00109229011092280110922B01109204
:102920002A0110922D0110922C012130310589F0DD
:1029300022303105C9F0232B09F0089583E090E09F
:102940009093A9008093A800909329018093280177
:10295000089583E090E09093AB008093AA00909359
:102960002B0180932A01089583E090E09093AD00BD
:102970008093AC0090932D0180932C01DECFCF93F8
:10298000DF93C1E2D1E088818C7F88831092270198
:102990001092260110929B02EAE0F1E080818860AB
:1029A0008083808180618083808180628083808158
:1029B0008D7F8083E0E2F1E0808183608083888185
:1029C0008860888380818062808388818360888337
:1029D000109229011092280110922B0110922A01C5
:1029E00010922D0110922C0181E090E00E947B1446
:1029F00088818F7B8883E3E7F0E080818062808339
:102A0000DF91CF910895CF93DF93C1EAD0E0888121
:102A10008C7F88831092A7001092A60010929A02D1
:102A2000E1E0F1E08081806180838081806180834A
:102A3000808180618083EAE0F1E080818E7F808305
:102A4000E0EAF0E080818360808388818860888309
:102A50008081806280838881836088831092A9004E
:102A60001092A8001092AB001092AA001092AD0034
:102A70001092AC0081E090E00E947B1488818F7BF3
:102A80008883E2E7F0E0808180628083DF91CF91EC
:102A900008950E94BF140E94031578940895CF935F
:102AA000DF9300D00F92CDB7DEB780919B028823D1
:102AB00009F456C010929B02209126013091270103
:102AC000C901A0E0B0E02732324070F18652924056
:102AD000A109B109880F991FAA1FBB1F880F991F51
:102AE000AA1FBB1F9C01AD012C7F5F7029833A8315
:102AF0004B835C83CA01B9010E946C1720E030E06F
:102B000048E652E469837A838B839C8369817A8166
:102B10008B819C810E94C4166093A0027093A102D5
:102B20008093A2029093A30220E030E040EF51E4B2
:102B30006091A0027091A1028091A2029091A302E3
:102B40000E941E18181664F480E090E0A0EFB1E433
:102B50008093A0029093A102A093A202B093A3023B
:102B60008091A0029091A102A091A202B091A30233
:102B700089839A83AB83BC83BC01CD010F900F90F6
:102B80000F900F90DF91CF910895CF93DF9300D0F6
:102B90000F92CDB7DEB780919A02882309F456C010
:102BA00010929A022091A6003091A700C901A0E0DE
:102BB000B0E02732324070F186529240A109B1094B
:102BC000880F991FAA1FBB1F880F991FAA1FBB1F21
:102BD0009C01AD012C7F5F7029833A834B835C831A
:102BE000CA01B9010E946C1720E030E048E652E4C7
:102BF00069837A838B839C8369817A818B819C81B1
:102C00000E94C41660939C0270939D0280939E0262
:102C100090939F0220E030E040EF51E460919C02ED
:102C200070919D0280919E0290919F020E941E18B9
:102C3000181664F480E090E0A0EFB1E480939C0269
:102C400090939D02A0939E02B0939F0280919C025C
:102C500090919D02A0919E02B0919F0289839A83D8
:102C6000AB83BC83BC01CD010F900F900F900F90F0
:102C7000DF91CF910895EE0FFF1F881F8BBF079044
:102C8000F691E02D1994A29FB001B39FC001A39FBC
:102C9000700D811D1124911DB29F700D811D112495
:102CA000911D08955058BB27AA270E946A160C94BC
:102CB000E4170E94D61738F00E94DD1720F039F48F
:102CC0009F3F19F426F40C94D3170EF4E095E7FB1C
:102CD0000C94CD17E92F0E94F51758F3BA17620725
:102CE00073078407950720F079F4A6F50C9417185C
:102CF0000EF4E0950B2EBA2FA02D0B01B901900117
:102D00000C01CA01A0011124FF27591B99F0593F5A
:102D100050F4503E68F11A16F040A22F232F342FA2
:102D20004427585FF3CF469537952795A795F040F0
:102D30005395C9F77EF41F16BA0B620B730B840B05
:102D4000BAF09150A1F0FF0FBB1F661F771F881FBD
:102D5000C2F70EC0BA0F621F731F841F48F4879515
:102D600077956795B795F7959E3F08F0B0CF939507
:102D7000880F08F09927EE0F9795879508950E9480
:102D8000A91708F481E008950E94D8160C94E4175E
:102D90000E94DD1758F00E94D61740F029F45F3FDB
:102DA00029F00C94CD1751110C9418180C94D317CA
:102DB0000E94F51768F39923B1F3552391F3951BFE
:102DC000550BBB27AA2762177307840738F09F5F4C
:102DD0005F4F220F331F441FAA1FA9F335D00E2EB9
:102DE0003AF0E0E832D091505040E695001CCAF726
:102DF0002BD0FE2F29D0660F771F881FBB1F2617E9
:102E000037074807AB07B0E809F0BB0B802DBF01BF
:102E1000FF2793585F4F3AF09E3F510578F00C948E
:102E2000CD170C9418185F3FE4F3983ED4F38695C1
:102E300077956795B795F7959F5FC9F7880F911DAF
:102E40009695879597F90895E1E0660F771F881F9B
:102E5000BB1F621773078407BA0720F0621B730B4E
:102E6000840BBA0BEE1F88F7E09508950E943D177A
:102E70006894B1110C94181808950E94FD1788F0F9
:102E80009F5798F0B92F9927B751B0F0E1F0660F2E
:102E9000771F881F991F1AF0BA95C9F714C0B1306F
:102EA00091F00E941718B1E008950C941718672F3D
:102EB000782F8827B85F39F0B93FCCF3869577959E
:102EC0006795B395D9F73EF4909580957095619587
:102ED0007F4F8F4F9F4F0895E89409C097FB3EF4B2
:102EE00090958095709561957F4F8F4F9F4F992357
:102EF000A9F0F92F96E9BB279395F69587957795D5
:102F00006795B795F111F8CFFAF4BB0F11F460FF94
:102F10001BC06F5F7F4F8F4F9F4F16C0882311F0EC
:102F200096E911C0772321F09EE8872F762F05C000
:102F3000662371F096E8862F70E060E02AF09A959B
:102F4000660F771F881FDAF7880F9695879597F990
:102F50000895990F0008550FAA0BE0E8FEEF16162A
:102F60001706E807F907C0F012161306E407F5077D
:102F700098F0621B730B840B950B39F40A2661F0F1
:102F8000232B242B252B21F408950A2609F4A14094
:102F9000A6958FEF811D811D089597F99F6780E8A1
:102FA00070E060E008959FEF80EC089500240A949B
:102FB0001616170618060906089500240A94121614
:102FC0001306140605060895092E0394000C11F447
:102FD000882352F0BB0F40F4BF2B11F460FF04C0F4
:102FE0006F5F7F4F8F4F9F4F089557FD9058440F4D
:102FF000551F59F05F3F71F04795880F97FB991F58
:1030000061F09F3F79F08795089512161306140614
:10301000551FF2CF4695F1DF08C0161617061806A1
:10302000991FF1CF86957105610508940895E8947C
:10303000BB2766277727CB0197F908950E94A91728
:1030400008F48FEF08950E9436180C94E4170E943C
:10305000D61738F00E94DD1720F0952311F00C945C
:10306000CD170C94D31711240C9418180E94F5173F
:1030700070F3959FC1F3950F50E0551F629FF001CB
:10308000729FBB27F00DB11D639FAA27F00DB11DE4
:10309000AA1F649F6627B00DA11D661F829F22276D
:1030A000B00DA11D621F739FB00DA11D621F839FF4
:1030B000A00D611D221F749F3327A00D611D231FCA
:1030C000849F600D211D822F762F6A2F11249F5718
:1030D00050409AF0F1F088234AF0EE0FFF1FBB1F1B
:1030E000661F771F881F91505040A9F79E3F5105DA
:1030F00080F00C94CD170C9418185F3FE4F3983EC1
:10310000D4F3869577956795B795F795E7959F5F83
:10311000C1F7FE2B880F911D9695879597F9089515
:10312000F894FFCFAE07C90788062708C3089106A1
:02313000320A61
:10313200777C395E79713D74061E753855545C731F
:1031420067506D783E1C6A766E5B3F065B4F666D1C
:0C3152007D077F6F010072736574000040
:00000001FF
