:100000000C9472000C9493000C9493000C948A044A
:100010000C9493000C9493000C9493000C94930014
:100020000C9493000C9493000C9493000C94930004
:100030000C9493000C9493000C9493000C949300F4
:100040000C9493000C9493000C9493000C949300E4
:100050000C9493000C9495000C9493000C949300D2
:100060000C9493000C9493000C9493000C949300C4
:100070000C9493000C9493000C9493000C949300B4
:100080000C9493000C9493000C9493000C949300A4
:100090000C9493000C9493000C9493000C94930094
:1000A0000C9493000C9486060C9493000C9493008B
:1000B0000C9493000C9493000C9475060C9493008C
:1000C0000C9493000C9493000C9493000C94930064
:1000D0000C9493000C9493000C9493000C94930054
:1000E0000C94930011241FBECFEFD1E2DEBFCDBF31
:1000F00000E00CBF12E0A0E0B2E0E8E6F4E100E0CE
:100100000BBF02C007900D92A831B107D9F722E0CA
:10011000A8E1B2E001C01D92A634B207E1F70E9447
:1001200043020C94320A0C9400001F920F920FB6F7
:100130000F9211240BB60F922F933F934F935F931F
:100140006F937F938F939F93AF93BF93EF93FF939F
:10015000CF93DF9300D00F92CDB7DEB78091180216
:1001600090911902A0911A02B0911B0289839A837F
:10017000AB83BC832FE632E143E85AE3BC01CD01F7
:100180000E94F507462F572F682F792F40931802AA
:100190005093190260931A0270931B020F900F90F4
:1001A0000F900F90DF91CF91FF91EF91BF91AF91A1
:1001B0009F918F917F916F915F914F913F912F917F
:1001C0000F900BBE0F900FBE0F901F9018958AEFE7
:1001D00087BD85B5836085BD84B5826084BDEEE64C
:1001E000F0E080818260808378940895869A879A6F
:1001F000859A08958F9847E050E0E1E0F0E070E0E4
:100200006C5F7F4F8E988D9891B39F01042E02C032
:10021000220F331F0A94E2F7062E02C03595279568
:100220000A94E2F7A1E02A2721702295220F207E6E
:10023000292B21BB8E9A4150510920F747E050E00D
:10024000682F70E08E988D9891B39B01042E02C0A8
:10025000359527950A94E2F7220F331F22953295A0
:10026000307F3227207F32272072922B91BB8E9ACB
:100270004150510938F78F9A08951F93CF93DF9318
:10028000C82FD92F13E09E01ADECBCEC0E94E5070E
:100290009C01369527953695279536952795C90162
:1002A000880F991F880F991F820F931F880F991F1E
:1002B000FE01E81BF90BE95FFD4F612F80810E9471
:1002C000FA009E01ADECBCEC0E94E507EC01D6956E
:1002D000C795D695C795D695C7958FE99FE00197A5
:1002E000F1F700C00000115070F660E080E00E945D
:1002F000FA00DF91CF911F91089580911E02909195
:100300001F0244E6489F9001499F300D11248091BF
:100310001C0290911D02820F931F0E943D010895BF
:1003200080911E0290911F0244E6489F9001499FD0
:10033000300D112480911C0290911D02820F931F99
:100340000E943D01089508958091060180FD0DC031
:100350008FE39CE90197F1F700C00000809106014E
:1003600091E08927817090E0089580E090E0089501
:100370008091060181FD0EC08FE39CE90197F1F7A2
:1003800000C0000080910601869591E08927817068
:1003900090E0089580E090E008950E94B801892BD4
:1003A000D1F08091220290912302892B79F48091DF
:1003B00020029091210201969093210280932002C5
:1003C00081E090E0909323028093220280912002AA
:1003D0009091210208950E94A401892BB9F3E1CFE5
:1003E00080B3876080BB8FB187608FB9089578999B
:1003F00012C00895799907C080911C0290911D0246
:10040000833691053CF180911C0290911D020E945F
:100410003D01789BEECF7A99EDCF80911C029091AF
:100420001D021816190634F7019790931D02809348
:100430001C027A99DFCF8FE99FE00197F1F700C0A6
:10044000000080911C0290911D020E943D017A9B48
:10045000F2CFD0CF019690931D0280931C02799920
:10046000D2CF8FE99FE00197F1F700C000008091A3
:100470001C0290911D020E943D01799BF2CFC3CFD7
:10048000789B269A089500D00F92CDB7DEB70E94D0
:10049000E7000E94F3060E94FE040E94A3010E944E
:1004A000F6000E94F0010E946A060E94F7012FC127
:1004B0000E945D0602C00E946A060E94A401892B68
:1004C00009F455C080913E0290913F02892B09F0BA
:1004D0004EC08091180290911902A0911A02B09119
:1004E0001B0289839A83AB83BC8320913A023091AB
:1004F0003B0240913C0250913D02BC01CD010E9463
:10050000C0091816A4F591E090933E0210923F02A4
:100510008091240290912502019690932502809368
:10052000240290931F0280931E02809118029091E2
:100530001902A0911A02B0911B0289839A83AB839E
:10054000BC8320E030E040E85FE3BC01CD010E94C5
:10055000F5076093360270933702809338029093C8
:10056000390291E090933402109235023BC08091A1
:10057000180290911902A0911A02B0911B0289836E
:100580009A83AB83BC83209136023091370240912D
:10059000380250913902BC01CD010E94C0091816E1
:1005A0000CF58091180290911902A0911A02B09155
:1005B0001B0289839A83AB83BC8320913A023091DA
:1005C0003B0240913C0250913D02BC01CD010E9492
:1005D000C00918163CF480913E0290913F02892B8D
:1005E00009F0E9C00E94B801892B09F40EC180917D
:1005F000320290913302892B09F007C180911802D1
:1006000090911902A0911A02B0911B0289839A83DA
:10061000AB83BC8320912E0230912F024091300297
:1006200050913102BC01CD010E94C00918160CF096
:10063000ECC091E090933202109233028091240238
:100640009091250201969093250280932402909325
:100650001F0280931E028091180290911902A091AE
:100660001A02B0911B0289839A83AB83BC8320E07A
:1006700030E040E85FE3BC01CD010E94F5076093E4
:100680002A0270932B0280932C0290932D0291E00A
:10069000909328021092290290E080E0909311023A
:1006A00080931202209124023091250280911C0235
:1006B00090911D02281739070CF41FC110921202E5
:1006C000109211028091180290911902A0911A02C1
:1006D000B0911B0289839A83AB83BC839C01AD01DB
:1006E000BC01CD010E94F50769837A838B839C83CB
:1006F00069817A818B819C810E94D808462F572F6F
:1007000041705527452B09F4F3C00E949001809158
:10071000110290911202892B09F4CDCE0E94F906A4
:10072000E62EF72E082F192F0E946F07A62EB72E40
:10073000C82ED92E2DEC3CEC4CE45DE3E982FA8224
:100740000B831C8369817A818B819C810E94F507D0
:100750002A2D3B2D4C2D5D2D69837A838B839C83C1
:1007600069817A818B819C810E94610888230CF4C5
:100770009FCE2DEC3CEC4CE45DE3A982BA82CB82A7
:10078000DC8269817A818B819C810E94F5072E2D04
:100790003F2D402F512F69837A838B839C836981FE
:1007A0007A818B819C810E94610888230CF085CE20
:1007B0000E94500682CE109235021092340280912F
:1007C000180290911902A0911A02B0911B0289831C
:1007D0009A83AB83BC832DEC3CEC4CEC5DE3BC0119
:1007E000CD010E94F50760933A0270933B0280931B
:1007F0003C0290933D020E94A401892B09F0F2CEA5
:1008000010923F0210923E02EDCE8091180290911C
:100810001902A0911A02B0911B0289839A83AB83BB
:10082000BC8320912A0230912B0240912C025091DE
:100830002D02BC01CD010E94C009181604F580915B
:10084000180290911902A0911A02B0911B0289839B
:100850009A83AB83BC8320912E0230912F0240916A
:10086000300250913102BC01CD010E94C00918161E
:1008700034F48091320290913302892B81F480917B
:100880003402909135022091280230912902822B66
:10089000932B892B09F000CF91E080E0FFCE1092DE
:1008A0002902109228028091180290911902A091B9
:1008B0001A02B0911B0289839A83AB83BC832DEC0F
:1008C0003CEC4CEC5DE3BC01CD010E94F50760936C
:1008D0002E0270932F0280933002909331020E9477
:1008E000B801892B61F61092330210923202C7CF01
:1008F00060E080E00E94FA000ACF0E94900107CFDA
:1009000022982A9AE9E6F0E0808185608083E99A5E
:10091000789408951F920F920FB60F9211240BB680
:100920000F922F933F934F935F936F937F938F9388
:100930009F93AF93BF93EF93FF932FEF89EF90E0D7
:10094000215080409040E1F700C000001A9913C088
:10095000FF91EF91BF91AF919F918F917F916F9197
:100960005F914F913F912F910F900BBE0F900FBE53
:100970000F901F90189588EE93E00E943D01E8CFFC
:10098000269AA0E8B0E08C9183608C93E1E8F0E0D7
:100990008081886180838C9180628C93808181606A
:1009A000808380EA9FE0909389008093880080E2B2
:1009B00090E090938B0080938A00259A08956C9A1A
:1009C000A0E9B0E08C9183608C93E1E9F0E0808154
:1009D000886180838C9180628C9380818160808328
:1009E00080EA9FE0909399008093980080E290E0E5
:1009F00090939B0080939A006D9A08950E94C00482
:100A00000E94DF040895CF93DF9300D00F92CDB7FB
:100A1000DEB7462F572F682F792F49835A836B8370
:100A20007C8320E030E048EC52E469817A818B815C
:100A30009C810E94C00918165CF120E030E048EC6F
:100A400052EC69817A818B819C810E9461088823A4
:100A50009CF480E090E0A8ECB2EC89839A83AB83AD
:100A6000BC832D9889819A81AB81BC81B0588983E0
:100A70009A83AB83BC8315C020E030E0A901698173
:100A80007A818B819C810E94610888234CF4E9CF94
:100A900080E090E0A8ECB2E489839A83AB83BC83C6
:100AA0002D9A20E030E040EE50E469817A818B811C
:100AB0009C810E94610888233CF483E090E090933D
:100AC00089008093880038C028E134E146E759E383
:100AD00069817A818B819C810E94C50920E030E088
:100AE00040E857E369837A838B839C8369817A81A9
:100AF0008B819C810E94F507262F372F482F592F75
:100B000060E070E088EC92E40E94660869837A8372
:100B10008B839C8369817A818B819C810E94DF0811
:100B2000862F972F803AAFE09A0710F480EA9FE073
:100B300090938900809388000F900F900F900F90F2
:100B4000DF91CF910895CF93DF9300D00F92CDB76F
:100B5000DEB7462F572F682F792F49835A836B832F
:100B60007C8320E030E048EC52E469817A818B811B
:100B70009C810E94C00918165CF120E030E048EC2E
:100B800052EC69817A818B819C810E946108882363
:100B90009CF480E090E0A8ECB2EC89839A83AB836C
:100BA000BC83759889819A81AB81BC81B058898357
:100BB0009A83AB83BC8315C020E030E0A901698132
:100BC0007A818B819C810E94610888234CF4E9CF53
:100BD00080E090E0A8ECB2E489839A83AB83BC8385
:100BE000759A20E030E040EE50E469817A818B8193
:100BF0009C810E94610888233CF483E090E09093FC
:100C000099008093980038C028E134E146E759E321
:100C100069817A818B819C810E94C50920E030E046
:100C200040E857E369837A838B839C8369817A8167
:100C30008B819C810E94F507262F372F482F592F33
:100C400060E070E088EC92E40E94660869837A8331
:100C50008B839C8369817A818B819C810E94DF08D0
:100C6000862F972F803AAFE09A0710F480EA9FE032
:100C700090939900809398000F900F900F900F9091
:100C8000DF91CF91089560E070E08CE892E40E94DB
:100C9000030560E070E08CE892E40E94A3050895EB
:100CA00060E070E080EF91E40E94030560E070E096
:100CB0008CE892E40E94A305089560E070E08CE85F
:100CC00092E40E94030560E070E080EF91E40E94EE
:100CD000A305089560E070E0CB010E94030560E089
:100CE00070E0CB010E94A30508951F921FB61F92CA
:100CF00011248F93109225011092240181E080939A
:100D000041028F911F901FBE1F9018951F921FB612
:100D10001F9211248F93109225011092240181E0DB
:100D2000809340028F911F901FBE1F901895EAE09C
:100D3000F1E080818061808380818D7F8083A0E26B
:100D4000B1E08C9183608C93E1E2F1E08081886175
:100D500080838C9180628C9380818360808388E91A
:100D60009AE3909329018093280183E090E0909387
:100D70002B0180932A0180818F7B8083E3E7F0E061
:100D80008081806280830895E1E0F1E0808180616C
:100D90008083EAE0F1E080818E7F8083A0EAB0E08A
:100DA0008C9183608C93E1EAF0E08081886180839C
:100DB0008C9180628C9380818360808388E99AE340
:100DC0009093A9008093A80083E090E09093AB00FB
:100DD0008093AA0080818F7B8083E2E7F0E08081AE
:100DE0008062808308950E9497060E94C4067894CA
:100DF0000895CF93DF9300D00F92CDB7DEB78091E7
:100E00004102882309F456C0109241022091260124
:100E100030912701C901A0E0B0E02732324070F1E3
:100E200086529240A109B109880F991FAA1FBB1FC2
:100E3000880F991FAA1FBB1F9C01AD012C7F5F70FB
:100E400029833A834B835C83CA01B9010E940E094E
:100E500020E030E048E652E469837A838B839C8308
:100E600069817A818B819C810E946608609342022D
:100E700070934302809344029093450220E030E057
:100E800040EF51E46091420270914302809144022C
:100E9000909145020E94C009181664F480E090E029
:100EA000A0EFB1E48093420290934302A0934402E6
:100EB000B09345028091420290914302A091440276
:100EC000B091450289839A83AB83BC83BC01CD0179
:100ED0000F900F900F900F90DF91CF910895CF93C7
:100EE000DF9300D00F92CDB7DEB780914002882308
:100EF00009F456C0109240022091A6003091A7003C
:100F0000C901A0E0B0E02732324070F18652924031
:100F1000A109B109880F991FAA1FBB1F880F991F2C
:100F2000AA1FBB1F9C01AD012C7F5F7029833A83F0
:100F30004B835C83CA01B9010E940E0920E030E0B6
:100F400048E652E469837A838B839C8369817A8142
:100F50008B819C810E946608609313027093140237
:100F6000809315029093160220E030E040EF51E4A8
:100F700060911302709114028091150290911602F3
:100F80000E94C009181664F480E090E0A0EFB1E47C
:100F90008093130290931402A0931502B09316024B
:100FA0008091130290911402A0911502B091160243
:100FB00089839A83AB83BC83BC01CD010F900F90D2
:100FC0000F900F90DF91CF910895A29FB001B39F32
:100FD000C001A39F700D811D1124911DB29F700D42
:100FE000811D1124911D08955058BB27AA270E94E6
:100FF0000C080C9486090E94780938F00E947F0939
:1010000020F039F49F3F19F426F40C9475090EF47E
:10101000E095E7FB0C946F09E92F0E94970958F3BC
:10102000BA17620773078407950720F079F4A6F5CD
:101030000C94B9090EF4E0950B2EBA2FA02D0B01DC
:10104000B90190010C01CA01A0011124FF27591B0D
:1010500099F0593F50F4503E68F11A16F040A22F13
:10106000232F342F4427585FF3CF46953795279584
:10107000A795F0405395C9F77EF41F16BA0B620B83
:10108000730B840BBAF09150A1F0FF0FBB1F661FCA
:10109000771F881FC2F70EC0BA0F621F731F841F0D
:1010A00048F4879577956795B795F7959E3F08F033
:1010B000B0CF9395880F08F09927EE0F97958795F5
:1010C00008950E944B0908F481E008950E947A086F
:1010D0000C9486090E947F0958F00E94780940F01C
:1010E00029F45F3F29F00C946F0951110C94BA094F
:1010F0000C9475090E94970968F39923B1F355235D
:1011000091F3951B550BBB27AA276217730784071A
:1011100038F09F5F5F4F220F331F441FAA1FA9F3B0
:1011200035D00E2E3AF0E0E832D091505040E6959E
:10113000001CCAF72BD0FE2F29D0660F771F881FFF
:10114000BB1F261737074807AB07B0E809F0BB0BF2
:10115000802DBF01FF2793585F4F3AF09E3F510506
:1011600078F00C946F090C94BA095F3FE4F3983E51
:10117000D4F3869577956795B795F7959F5FC9F7EF
:10118000880F911D9695879597F90895E1E0660F70
:10119000771F881FBB1F621773078407BA0720F0E9
:1011A000621B730B840BBA0BEE1F88F7E095089552
:1011B0000E94DF086894B1110C94BA0908950E9446
:1011C0009F0988F09F5798F0B92F9927B751B0F031
:1011D000E1F0660F771F881F991F1AF0BA95C9F7BB
:1011E00014C0B13091F00E94B909B1E008950C9497
:1011F000B909672F782F8827B85F39F0B93FCCF34A
:10120000869577956795B395D9F73EF49095809537
:10121000709561957F4F8F4F9F4F0895E89409C057
:1012200097FB3EF490958095709561957F4F8F4F19
:101230009F4F9923A9F0F92F96E9BB279395F6952F
:10124000879577956795B795F111F8CFFAF4BB0FAD
:1012500011F460FF1BC06F5F7F4F8F4F9F4F16C011
:10126000882311F096E911C0772321F09EE8872F9B
:10127000762F05C0662371F096E8862F70E060E057
:101280002AF09A95660F771F881FDAF7880F9695D0
:10129000879597F90895990F0008550FAA0BE0E874
:1012A000FEEF16161706E807F907C0F01216130628
:1012B000E407F50798F0621B730B840B950B39F468
:1012C0000A2661F0232B242B252B21F408950A26CE
:1012D00009F4A140A6958FEF811D811D089597F90E
:1012E0009F6780E870E060E008959FEF80EC0895CC
:1012F00000240A94161617061806090608950024F5
:101300000A9412161306140605060895092E03946E
:10131000000C11F4882352F0BB0F40F4BF2B11F4E2
:1013200060FF04C06F5F7F4F8F4F9F4F089557FD41
:101330009058440F551F59F05F3F71F04795880F43
:1013400097FB991F61F09F3F79F0879508951216DA
:1013500013061406551FF2CF4695F1DF08C0161686
:1013600017061806991FF1CF869571056105089437
:101370000895E894BB2766277727CB0197F908954E
:101380000E944B0908F48FEF08950E94D8090C942D
:1013900086090E94780938F00E947F0920F0952381
:1013A00011F00C946F090C94750911240C94BA096E
:1013B0000E94970970F3959FC1F3950F50E0551F58
:1013C000629FF001729FBB27F00DB11D639FAA279A
:1013D000F00DB11DAA1F649F6627B00DA11D661FE9
:1013E000829F2227B00DA11D621F739FB00DA11D0A
:1013F000621F839FA00D611D221F749F3327A00DC4
:10140000611D231F849F600D211D822F762F6A2F5F
:1014100011249F5750409AF0F1F088234AF0EE0FC4
:10142000FF1FBB1F661F771F881F91505040A9F7F1
:101430009E3F510580F00C946F090C94BA095F3FF0
:10144000E4F3983ED4F3869577956795B795F7952D
:10145000E7959F5FC1F7FE2B880F911D96958795A5
:0814600097F90895F894FFCFFD
:101468003F777C395E79713F065B4F666D7D077FFC
:081478006F01000000F04100CB
:040000030000048075
:00000001FF
