:100000000C9472000C9493000C9493000C94CA0905
:100010000C9493000C9493000C9493000C94930014
:100020000C9493000C9493000C9493000C94930004
:100030000C9493000C9493000C9493000C949300F4
:100040000C9493000C9493000C9493000C949300E4
:100050000C9493000C9495000C9493000C949300D2
:100060000C9493000C94FE000C9429010C949300C2
:100070000C9493000C9493000C9493000C949300B4
:100080000C9493000C9493000C9493000C949300A4
:100090000C9493000C9493000C9493000C94930094
:1000A0000C9493000C94490A0C9493000C949300C4
:1000B0000C9493000C9493000C94380A0C949300C5
:1000C0000C9493000C9493000C9493000C94930064
:1000D0000C9493000C9493000C9493000C94930054
:1000E0000C94930011241FBECFEFD1E2DEBFCDBF31
:1000F00000E00CBF12E0A0E0B2E0ECECFAE100E0BE
:100100000BBF02C007900D92A634B107D9F722E0C9
:10011000A6E4B2E001C01D92AA39B207E1F70E943D
:10012000A4060C94640D0C9400001F920F920FB65D
:100130000F9211240BB60F922F933F934F935F931F
:100140006F937F938F939F93AF93BF93EF93FF939F
:10015000CF93DF9300D00F92CDB7DEB780914602E8
:1001600090914702A0914802B091490289839A83F5
:10017000AB83BC832FE632E143E85AE3BC01CD01F7
:100180000E94CA0B462F572F682F792F40934602A3
:100190005093470260934802709349020F900F906A
:1001A0000F900F90DF91CF91FF91EF91BF91AF91A1
:1001B0009F918F917F916F915F914F913F912F917F
:1001C0000F900BBE0F900FBE0F901F9018951092BE
:1001D00046021092470210924802109249028AEF9A
:1001E00087BD85B5836085BD84B5826084BDEEE63C
:1001F000F0E0808182608083789408950F920FB63A
:100200000F928F939F93CF93DF930F92CDB7DEB76B
:100210008091C0008C71882331F081E090E0909350
:100220004B0280934A028091C60089838981813084
:1002300049F00F90DF91CF919F918F910F900FBE5A
:100240000F90189581E090E090934D0280934C02BE
:10025000F0CF1F921FB61F9211248F938BB78F93ED
:100260009F93EF93FF93E0914E02F0914F02E05B7A
:10027000FD4F80818093C60080914E0290914F0285
:10028000019690934F0280934E0280914E0290917E
:100290004F0204977CF0E1ECF0E080818F7D808359
:1002A00010924F0210924E0281E090E0909355021E
:1002B00080935402FF91EF919F918F918BBF8F910B
:1002C0001F901FBE1F901895CF93DF931092550279
:1002D00010925402E1ECF0E080818F77808380817E
:1002E0008F7E80838081877F8083A4E6B0E08C91BD
:1002F0008D7F8C93A2ECB0E08C918F7B8C938C9152
:100300008F778C9387E690E09093C5008093C4002C
:10031000C0ECD0E088818D7F88838C918E7F8C9318
:100320008C918E7F8C938C91877F8C9380818E7F34
:1003300080838C918C938C9181608C938881837E57
:1003400088838081806880837894808180618083C5
:1003500080818860808381E090E090935502809353
:100360005402DF91CF910895382F292F80915402A4
:10037000909155020097E1F01092550210925402AC
:10038000E32FF22F80E090E02191DC01A05BBD4FD4
:100390002C93019684309105B9F7E1ECF0E080816F
:1003A0008062808310924D0210924C0281E090E0B6
:1003B0000895CF93DF9300D00F92CDB7DEB791E0D1
:1003C00099838A836B834C83CE0101960E94B4018A
:1003D0000F900F900F900F90DF91CF910895CF93D2
:1003E000DF9300D00F92CDB7DEB792E099838A8376
:1003F0006B834C83CE0101960E94B4010F900F9045
:100400000F900F90DF91CF910895CF93DF9300D09D
:100410000F92CDB7DEB793E099838A836B834C83C9
:10042000CE0101960E94B4010F900F900F900F9093
:10043000DF91CF910895869A879A859A08958F982B
:1004400047E050E0E1E0F0E070E06C5F7F4F8E98B5
:100450008D9891B39F01042E02C0220F331F0A947E
:10046000E2F7062E02C0359527950A94E2F7A1E03F
:100470002A2721702295220F207E292B21BB8E9ABC
:100480004150510920F747E050E0682F70E08E9806
:100490008D9891B39B01042E02C0359527950A943F
:1004A000E2F7220F331F22953295307F3227207FCB
:1004B00032272072922B91BB8E9A4150510938F706
:1004C0008F9A0895E82F9FEB980F9A3138F09FE9A3
:1004D000980F9A3160F0803299F008950E2E000C3A
:1004E000FF0BE154FE4F80810E941F0208950E2EE3
:1004F000000CFF0BE156FE4F80810E941F02089501
:1005000080E00E941F02E9CF0F931F93CF93082F23
:10051000192FC0E06C2FF80181918F010E946202B7
:100520008FE99FE00197F1F700C00000CF5FC43072
:1005300089F760E080E00E941F02CF911F910F9128
:1005400008951F93CF93DF93C82FD92F13E09E01F7
:10055000ADECBCEC0E94BA0B9C0136952795369504
:10056000279536952795C901880F991F880F991FE0
:10057000820F931F880F991FFE01E81BF90BE65E9F
:10058000FD4F612F80810E941F029E01ADECBCECEB
:100590000E94BA0BEC01D695C795D695C795D6950E
:1005A000C7958FE99FE00197F1F700C00000115057
:1005B00070F660E080E00E941F02DF91CF911F91F2
:1005C0000895E7E0F1E080818C7F80830895CF92E9
:1005D000DF92EF92FF92CF93DF9300D00F92CDB7CF
:1005E000DEB7209146023091470240914802509177
:1005F000490260915E0270915F0280916002909169
:1006000061020E945F0D181644F410925E0210926F
:100610005F0210926002109261028091060180FDDB
:1006200043C080915C0290915D02892B09F055C016
:10063000C0904602D0904702E0904802F0904902F4
:100640002DEC3CEC4CE45DE360915E0270915F0246
:1006500080916002909161020E94CA0BA7019601ED
:1006600069837A838B839C8369817A818B819C8166
:100670000E94360C88230CF06DC081E090E09093CE
:100680005D0280935C028091460290914702A091A6
:100690004802B091490280935E0290935F02A0935A
:1006A0006002B09361020AC08091060180FF06C01B
:1006B00080915C0290915D02892B99F480915C029B
:1006C00090915D020F900F900F900F90DF91CF915E
:1006D000FF90EF90DF90CF9008958091060180FF0A
:1006E000EDCFC0904602D0904702E0904802F090D3
:1006F00049022DEC3CEC4CE45DE360915E027091AC
:100700005F0280916002909161020E94CA0BA70172
:10071000960169837A838B839C8369817A818B813B
:100720009C810E94360C88234CF610925D02109238
:100730005C028091460290914702A0914802B091DC
:10074000490280935E0290935F02A0936002B0938F
:100750006102B4CF80910601B1CFCF92DF92EF92C8
:10076000FF92CF93DF9300D00F92CDB7DEB72091E9
:1007700046023091470240914802509149026091EF
:1007800058027091590280915A0290915B020E9426
:100790005F0D181644F410925802109259021092EC
:1007A0005A0210925B028091060181FD43C0809144
:1007B000560290915702892B09F055C0C09046020D
:1007C000D0904702E0904802F09049022DEC3CECBA
:1007D0004CE45DE3609158027091590280915A0295
:1007E00090915B020E94CA0BA701960169837A83EC
:1007F0008B839C8369817A818B819C810E94360CDA
:1008000088230CF06DC081E090E0909357028093B4
:1008100056028091460290914702A0914802B09101
:1008200049028093580290935902A0935A02B093C0
:100830005B020AC08091060181FF06C080915602CA
:1008400090915702892B99F480915602909157020A
:100850000F900F900F900F90DF91CF91FF90EF903E
:10086000DF90CF9008958091060181FFEDCFC09079
:100870004602D0904702E0904802F09049022DECE9
:100880003CEC4CE45DE36091580270915902809118
:100890005A0290915B020E94CA0BA70196016983DC
:1008A0007A838B839C8369817A818B819C810E946E
:1008B000360C88234CF61092570210925602809103
:1008C000460290914702A0914802B091490280935C
:1008D000580290935902A0935A02B0935B02B4CF8E
:1008E00080910601B1CF80B3876080BB81B3876000
:1008F00081BB0895CF92DF92EF92FF92CF93DF9367
:1009000000D00F92CDB7DEB7282F392F2130310517
:1009100009F482C02230310509F4EDC080E090E096
:10092000232B59F00F900F900F900F90DF91CF91E4
:10093000FF90EF90DF90CF90089520914602309184
:1009400047024091480250914902609170027091B3
:10095000710280917202909173020E945F0D1816CD
:1009600044F410927002109271021092720210926E
:100970007302789943C080916E0290916F02892B27
:1009800009F028C1C0904602D0904702E09048028A
:10099000F09049022BE037ED43E25CE36091700296
:1009A0007091710280917202909173020E94CA0B41
:1009B000A701960169837A838B839C8369817A81FD
:1009C0008B819C810E94360C88230CF03FC181E012
:1009D00090E090936F0280936E0280914602909116
:1009E0004702A0914802B09149028093700290930F
:1009F0007102A0937202B093730209C0789B07C082
:100A000080916E0290916F02892B09F0E5C0809170
:100A10006E0290916F0286CF20914602309147027C
:100A2000409148025091490260916A0270916B02B4
:100A300080916C0290916D020E945F0D181644F433
:100A400010926A0210926B0210926C0210926D0268
:100A50007A9943C08091680290916902892B09F0CC
:100A6000F7C0C0904602D0904702E0904802F09054
:100A700049022BE037ED43E25CE360916A0270913A
:100A80006B0280916C0290916D020E94CA0BA701CB
:100A9000960169837A838B839C8369817A818B81B8
:100AA0009C810E94360C88230CF00EC181E090E0FE
:100AB0009093690280936802809146029091470268
:100AC000A0914802B091490280936A0290936B0210
:100AD000A0936C02B0936D0209C07A9B07C080910D
:100AE000680290916902892B09F0B4C08091680274
:100AF0009091690217CF20914602309147024091B0
:100B0000480250914902609164027091650280919F
:100B10006602909167020E945F0D181644F41092CD
:100B2000640210926502109266021092670279992F
:100B300043C08091620290916302892B09F0C8C082
:100B4000C0904602D0904702E0904802F0904902DF
:100B50002BE037ED43E25CE3609164027091650243
:100B600080916602909167020E94CA0BA7019601CC
:100B700069837A838B839C8369817A818B819C8151
:100B80000E94360C88230CF0A1C081E090E0909385
:100B90006302809362028091460290914702A09185
:100BA0004802B09149028093640290936502A09339
:100BB0006602B093670209C0799B07C08091620208
:100BC00090916302892B09F085C080916202909117
:100BD0006302A8CE789B1BCFC0904602D0904702FC
:100BE000E0904802F09049022BE037ED43E25CE3ED
:100BF0006091700270917102809172029091730203
:100C00000E94CA0BA701960169837A838B839C8318
:100C100069817A818B819C810E94360C88230CF03B
:100C2000F6CE10926F0210926E0280914602909161
:100C30004702A0914802B0914902809370029093BC
:100C40007102A0937202B0937302E1CE8FB1DFCE36
:100C50007A9B4CCFC0904602D0904702E090480269
:100C6000F09049022BE037ED43E25CE360916A02C9
:100C700070916B0280916C0290916D020E94CA0B80
:100C8000A701960169837A838B839C8369817A812A
:100C90008B819C810E94360C88230CF027CF109208
:100CA0006902109268028091460290914702A091D9
:100CB0004802B091490280936A0290936B02A0931C
:100CC0006C02B0936D0212CF8FB110CF8FB17DCF78
:100CD000799B7BCFC0904602D0904702E0904802BB
:100CE000F09049022BE037ED43E25CE3609164024F
:100CF0007091650280916602909167020E94CA0B12
:100D0000A701960169837A838B839C8369817A81A9
:100D10008B819C810E94360C88230CF056CF109258
:100D20006302109262028091460290914702A09164
:100D30004802B09149028093640290936502A093A7
:100D40006602B093670241CF00D000D0CDB7DEB7C6
:100D50000FEF1FEF2FEF3FEF3E832D83EE24E39441
:100D6000F12C6894CC24C2F8D12C0F2EF3E08F2EF6
:100D7000F02D912C6894AA24A1F8B12C4AC281E0EC
:100D800090E09E838D8345C2AD82BE8242C20D81BA
:100D90001E8123E030E03E832D833BC20D811E8106
:100DA00083E090E09E838D8334C20D811E8123E019
:100DB00030E03E832D832DC20D811E8183E090E0C3
:100DC0009E838D8326C20D811E8123E030E03E8309
:100DD0002D831FC20D811E8183E090E09E838D8351
:100DE00018C20D811E81CD82DE8213C2009759F197
:100DF00081309105E1F48D819E81019709F46DC0E8
:100E00000E94E7000E94C80A0E94E10210928B0231
:100E100010928A020E941B020E9473040E946401C5
:100E200060E080E00E941F020D811E81E5C10D81FE
:100E30001E819E838D83EDC10D811E819E838D83D6
:100E4000E8C10D831E838091460290914702A091D4
:100E50004802B091490282E392E00E94840280E05D
:100E600090E00E947A04892BA1F0809188029091F1
:100E70008902892B59F49E2D8F2D909328028093FF
:100E800029020D811E811E821D82C3C19D818E811A
:100E9000F4CF8E2D9F2D0E947A04892B99F09E2DE0
:100EA0008F2D2091880230918902232B11F090E040
:100EB00080E090938802809389020D811E811E82BA
:100EC0001D82A7C18A2D9B2D0E947A04892B39F798
:100ED0000D811E811E821D829CC10D811E818CC1CF
:100EE0008E2D9F2D0E947A04892B19F0ED82FE82AF
:100EF00090C18A2D9B2D0E947A04892B09F03FCF47
:100F000082E090E0909329028093280221E030E073
:100F10003E832D837EC10D811E818CE392E00E9471
:100F2000840280E090E00E947A04892B09F42CCF9F
:100F30008092280290922902AD82BE826AC10D83FE
:100F40001E83109287021092860280912602909151
:100F50002702892B09F4D3C02091840230918502A5
:100F6000C901029690938502809384022330310553
:100F70008CF0C0922802D092290210928502109221
:100F80008402E0922602F09227020D811E818D825A
:100F90009E823FC1880F991FFC01E65DFD4F808155
:100FA00091819093250280932402E0928602F09230
:100FB00087028430910509F4B5C108F048C0823039
:100FC000910509F457C18330910509F5809182029A
:100FD0009091830201969093830280938202809184
:100FE000460290914702A0914802B0914902809335
:100FF0007E0290937F02A0938002B09381024FEF14
:101000006FEF8FEF0E94D901892BC9F388C0019738
:10101000C9F480917A0290917B02019690937B02B1
:1010200080937A028091460290914702A0914802F3
:10103000B09149024FEF6FEF81E00E94EF01892BE1
:10104000C9F38AC00D811E818D829E82E2C08530E7
:10105000910509F43BC10697C9F4809174029091FF
:1010600075020196909375028093740280914602F6
:1010700090914702A0914802B09149024FEF6FEF63
:1010800082E00E940502892BC9F385C00D811E8173
:1010900083E090E09E838D83BCC0409046025090D8
:1010A0004702609048027090490220E030E040E83A
:1010B0005FE360917E0270917F0280918002909147
:1010C00081020E94CA0BA301920169837A838B83F8
:1010D0009C8369817A818B819C810E945F0D1816A7
:1010E0002CF54FEF60E08FE70E94D901892BC9F3FF
:1010F00081E090E0909327028093260217C08091B0
:101100002402909125028430910509F423C1E8F569
:101110008230910509F4C6C083309105D9F48091DD
:10112000820290918302029709F4B7CF80914C021A
:1011300090914D02892B09F42ACE81E090E09093A2
:101140002702809326020D811E8123E030E03E833A
:101150002D835FC00197A1F480914C0290914D02C4
:10116000892B09F422CE81E090E0909327028093AE
:1011700026020D811E8123E030E03E832D8349C08D
:101180000D811E818D829E8244C08530910509F4B7
:10119000B5C00697A1F480914C0290914D02892B25
:1011A00009F418CE81E090E0909327028093260204
:1011B0000D811E8183E090E09E838D832AC00D8186
:1011C0001E8123E030E03E832D8323C082309105D1
:1011D00009F4A3CE58F08330910509F4B0CE8430E1
:1011E000910509F044C00D831E832AC0009709F4BD
:1011F00028CE81309105C1F587E392E00E948402F8
:1012000080E090E00E947A04892B09F469CEED8297
:10121000FE8280912802909129022D813E8128171B
:101220003907A1F28230910509F475CE08F4DECDBC
:101230008330910509F485CE8430910509F0FCCD09
:1012400081E492E00E94840280E090E00E947A04AF
:10125000892B09F4C6CDE0922802F09229020D8173
:101260001E81CD82DE82D5CF9E838D83D2CF9E8399
:101270008D83CFCF809178029091790201969093DF
:101280007902809378028091460290914702A09162
:101290004802B09149024FEF6FEF82E00E94EF01E8
:1012A000892BC9F380914C0290914D02892B09F44E
:1012B00083CD81E090E090932702809326020D81F8
:1012C0001E8183E090E09E838D83A3CF8091760280
:1012D00090917702019690937702809376028091A5
:1012E000460290914702A0914802B09149024FEF07
:1012F0006FEF81E00E940502892BC9F380914C02B7
:1013000090914D02892B09F45ECD81E090E090939D
:101310002702809326020D811E8123E030E03E8368
:101320002D8377CF80917C0290917D0201969093DE
:101330007D0280937C028091460290914702A091A9
:101340004802B09149024FEF6FEF80E00E94D9014F
:10135000892BC9F380914C0290914D02892B09F49D
:101360001DCD81E090E090932702809326020D81AD
:101370001E8183E090E09E838D834BCF1895189556
:1013800022982A9AE9E6F0E0808185608083E99AD4
:10139000789408951F921FB61F9211242F938F9354
:1013A0009F9310922902109228022FEF89EF90E06C
:1013B000215080409040E1F700C000009F918F9144
:1013C0002F911F901FBE1F90189580918E029091B3
:1013D0008F02892B49F00E94E702892BF9F41092C1
:1013E0008F0210928E021AC00E94E702892B81F0B0
:1013F00081E090E090938F0280938E0280918A0228
:1014000090918B02019690938B0280938A0206C082
:1014100080918E0290918F02892BE9F680918C0247
:1014200090918D02892B49F00E94AD03892BF9F42C
:1014300010928D0210928C021AC00E94AD03892B6B
:1014400081F081E090E090938D0280938C028091F6
:101450008A0290918B02019690938B0280938A026C
:10146000089580918C0290918D02892BE9F6089560
:101470001F921FB61F9211248F9310922501109274
:10148000240181E0809391028F911F901FBE1F90D5
:1014900018951F921FB61F9211248F931092A500CA
:1014A0001092A40081E0809390028F911F901FBE44
:1014B0001F901895E1E2F1E080818C7F808310928B
:1014C00027011092260110929102AAE0B1E08C91BE
:1014D00080618C938C918D7F8C93A0E2B1E08C9194
:1014E00083608C938081886180838C9180628C93EF
:1014F00080818360808388E99AE3909329018093B7
:10150000280183E090E090932B0180932A01808151
:101510008F7B8083E3E7F0E08081806280830895A1
:10152000E1EAF0E080818C7F80831092A700109226
:10153000A60010929002A1E0B1E08C9180618C93A2
:10154000AAE0B1E08C918E7F8C93A0EAB0E08C9100
:1015500083608C938081886180838C9180628C937E
:1015600080818360808388E99AE39093A9008093C7
:10157000A80083E090E09093AB008093AA00808164
:101580008F7B8083E2E7F0E0808180628083089532
:101590000E945A0A0E94900A78940895CF93DF938C
:1015A00000D00F92CDB7DEB780919102882309F465
:1015B00056C0109291022091260130912701C90155
:1015C000A0E0B0E02732324070F186529240A1098B
:1015D000B109880F991FAA1FBB1F880F991FAA1F47
:1015E000BB1F9C01AD012C7F5F7029833A834B8325
:1015F0005C83CA01B9010E94AD0C20E030E048E6EE
:1016000052E469837A838B839C8369817A818B819D
:101610009C810E943B0C609396027093970280938A
:1016200098029093990220E030E040EF51E46091FD
:1016300096027091970280919802909199020E946F
:101640005F0D181664F480E090E0A0EFB1E48093A1
:10165000960290939702A0939802B093990280917A
:10166000960290919702A0919802B0919902898375
:101670009A83AB83BC83BC01CD010F900F900F9078
:101680000F90DF91CF910895CF93DF9300D00F9209
:10169000CDB7DEB780919002882309F456C010922E
:1016A00090022091A6003091A700C901A0E0B0E00F
:1016B0002732324070F186529240A109B109880F59
:1016C000991FAA1FBB1F880F991FAA1FBB1F9C0130
:1016D000AD012C7F5F7029833A834B835C83CA0101
:1016E000B9010E94AD0C20E030E048E652E4698385
:1016F0007A838B839C8369817A818B819C810E9410
:101700003B0C6093920270939302809394029093A7
:10171000950220E030E040EF51E460919202709138
:10172000930280919402909195020E945F0D181689
:1017300064F480E090E0A0EFB1E480939202909393
:101740009302A0939402B09395028091920290919B
:101750009302A0919402B091950289839A83AB83FE
:10176000BC83BC01CD010F900F900F900F90DF91C3
:10177000CF910895A29FB001B39FC001A39F700DA8
:10178000811D1124911DB29F700D811D1124911D89
:1017900008955058BB27AA270E94E10B0C94250DF1
:1017A0000E94170D38F00E941E0D20F039F49F3F63
:1017B00019F426F40C94140D0EF4E095E7FB0C9448
:1017C0000E0DE92F0E94360D58F3BA176207730702
:1017D0008407950720F079F4A6F50C94580D0EF4C3
:1017E000E0950B2EBA2FA02D0B01B90190010C0131
:1017F000CA01A0011124FF27591B99F0593F50F449
:10180000503E68F11A16F040A22F232F342F4427A0
:10181000585FF3CF469537952795A795F040539598
:10182000C9F77EF41F16BA0B620B730B840BBAF068
:101830009150A1F0FF0FBB1F661F771F881FC2F7D3
:101840000EC0BA0F621F731F841F48F487957795E7
:101850006795B795F7959E3F08F0B0CF9395880FA1
:1018600008F09927EE0F9795879508950E94EA0C46
:1018700008F481E008950E944F0C0C94250D0E94FD
:101880001E0D58F00E94170D40F029F45F3F29F01B
:101890000C940E0D51110C94590D0C94140D0E94C2
:1018A000360D68F39923B1F3552391F3951B550B2E
:1018B000BB27AA2762177307840738F09F5F5F4F23
:1018C000220F331F441FAA1FA9F335D00E2E3AF062
:1018D000E0E832D091505040E695001CCAF72BD07A
:1018E000FE2F29D0660F771F881FBB1F26173707CB
:1018F0004807AB07B0E809F0BB0B802DBF01FF27FD
:1019000093585F4F3AF09E3F510578F00C940E0DBE
:101910000C94590D5F3FE4F3983ED4F38695779588
:101920006795B795F7959F5FC9F7880F911D9695B5
:10193000879597F90895E1E0660F771F881FBB1F11
:10194000621773078407BA0720F0621B730B840BBE
:10195000BA0BEE1F88F7E0950895E89409C097FB4D
:101960003EF490958095709561957F4F8F4F9F4F76
:101970009923A9F0F92F96E9BB279395F6958795BA
:1019800077956795B795F111F8CFFAF4BB0F11F47D
:1019900060FF1BC06F5F7F4F8F4F9F4F16C0882324
:1019A00011F096E911C0772321F09EE8872F762F5A
:1019B00005C0662371F096E8862F70E060E02AF09B
:1019C0009A95660F771F881FDAF7880F9695879587
:1019D00097F90895990F0008550FAA0BE0E8FEEF5C
:1019E00016161706E807F907C0F012161306E407E3
:1019F000F50798F0621B730B840B950B39F40A26DC
:101A000061F0232B242B252B21F408950A2609F4B9
:101A1000A140A6958FEF811D811D089597F99F67BD
:101A200080E870E060E008959FEF80EC0895002466
:101A30000A941616170618060906089500240A9433
:101A400012161306140605060895092E0394000CB9
:101A500011F4882352F0BB0F40F4BF2B11F460FF48
:101A600004C06F5F7F4F8F4F9F4F089557FD905871
:101A7000440F551F59F05F3F71F04795880F97FB52
:101A8000991F61F09F3F79F087950895121613060C
:101A90001406551FF2CF4695F1DF08C0161617063B
:101AA0001806991FF1CF8695710561050894089570
:101AB000E894BB2766277727CB0197F908950E9402
:0C1AC000EA0C08F48FEF0895F894FFCFB3
:101ACC00777C395E79713D74061E753855545C739C
:101ADC0067506D783E1C6A766E5B3F065B4F666D99
:101AEC007D077F6F0300010001000300020003006B
:101AFC00000053544F5000727365740069646C6538
:061B0C0000656E6420007C
:00000001FF
