:100000000C9480000C94DF120C94A1000C94A100BD
:100010000C94A1000C94A1000C94A1000C94A100DC
:100020000C94A1000C94A1000C94A1000C94A100CC
:100030000C94A1000C94A1000C94A1000C94A100BC
:100040000C94A1000C94A1000C94A1000C94A100AC
:100050000C94A1000C94A3000C94A1000C94A1009A
:100060000C94A1000C940C010C94A1000C94A10020
:100070000C94A1000C94A1000C94A1000C94A1007C
:100080000C94A1000C94A1000C94A1000C94A1006C
:100090000C94A1000C94A1000C94A1000C94A1005C
:1000A0000C94A1000C9416150C94A1000C94A100C2
:1000B0000C94A1000C94A1000C94F1140C94A100D8
:1000C0000C94A1000C94A1000C94A1000C94A1002C
:1000D0000C94A1000C94A1000C94A1000C94A1001C
:1000E0000C94A1000C947E060C94E0090C9401077A
:1000F0000C9448080C9410070C94BE060C94F80756
:1001000011241FBECFEFD1E2DEBFCDBF00E00CBF98
:1001100012E0A0E0B2E0EAECF7E300E00BBF02C0BF
:1001200007900D92AC32B107D9F722E0ACE2B2E011
:1001300001C01D92A43DB207E1F70E944E060C9447
:10014000DC1B0C9400001F920F920FB60F9211242B
:100150000BB60F922F933F934F935F936F937F93C1
:100160008F939F93AF93BF93EF93FF93CF93DF93BF
:1001700000D00F92CDB7DEB780912C0290912D0266
:10018000A0912E02B0912F0289839A83AB83BC8306
:100190002FE632E143E85AE3BC01CD010E949F19EA
:1001A000462F572F682F792F40932C0250932D0202
:1001B00060932E0270932F020F900F900F900F906C
:1001C000DF91CF91FF91EF91BF91AF919F918F916F
:1001D0007F916F915F914F913F912F910F900BBE47
:1001E0000F900FBE0F901F90189510922C02109236
:1001F0002D0210922E0210922F028AEF87BD85B534
:10020000836085BD84B5826084BDEEE6F0E08081C8
:1002100082608083789408950F920FB60F921F9298
:1002200011242F932BB72F938F939F93AF93BF934B
:10023000EF93FF93CF93DF930F92CDB7DEB780910B
:10024000C0008C71882331F081E090E090933802F7
:10025000809337028091C600898380913902909102
:100260003A022981FC01E55CFD4F20830196843030
:1002700091052CF490933A02809339021FC010929A
:100280003A0210923902ABE3B2E08C91082E000CD6
:10029000990BE0E3F2E09183808311968C911197A2
:1002A000828312968C911297838313968C91848308
:1002B00081E090E090933602809335020F90DF91B9
:1002C000CF91FF91EF91BF91AF919F918F912F911E
:1002D0002BBF2F911F900F900FBE0F901895CF93AB
:1002E000DF93E1ECF0E080818F77808380818F7EE7
:1002F00080838081877F8083A4E6B0E08C918D7FAE
:100300008C93A2ECB0E08C918F7B8C938C918F7747
:100310008C9387E690E09093C5008093C400C0EC76
:10032000D0E088818D7F88838C918E7F8C938C9197
:100330008E7F8C938C91877F8C9380818E7F80833E
:100340008C918C938C9181608C938881837E88833F
:1003500080818068808378948081806180838081BF
:1003600088608083DF91CF9108959091C00095FFC0
:1003700005C08093C60081E090E0089580E090E0A1
:10038000089581E00E94B5010895869A879A859A1A
:1003900008958F9847E050E0E1E0F0E070E06C5F96
:1003A0007F4F8E988D9891B39F01042E02C0220F2B
:1003B000331F0A94E2F7062E02C0359527950A945A
:1003C000E2F7A1E02A2721702295220F207E292B17
:1003D00021BB8E9A4150510920F747E050E0682F29
:1003E00070E08E988D9891B39B01042E02C03595D4
:1003F00027950A94E2F7220F331F22953295307F1A
:100400003227207F32272072922B91BB8E9A415047
:10041000510938F78F9A0895E82F9FEB980F9A317A
:1004200038F09FE9980F9A3160F0803299F0089582
:100430000E2E000CFF0BE154FE4F80810E94C9017B
:1004400008950E2E000CFF0BE156FE4F80810E9496
:10045000C901089580E00E94C901E9CF0F931F935D
:10046000CF93082F192FC0E06C2FF80181918F01D5
:100470000E940C028FE99FE00197F1F700C0000095
:10048000CF5FC43089F760E080E00E94C901CF915E
:100490001F910F9108951F93CF93DF93C82FD92FEA
:1004A00013E09E01ADECBCEC0E9459199C013695FD
:1004B00027953695279536952795C901880F991F59
:1004C000880F991F820F931F880F991FFE01E81B49
:1004D000F90BE65EFD4F612F80810E94C9019E01EC
:1004E000ADECBCEC0E945919EC01D695C795D69598
:1004F000C795D695C7958FE99FE00197F1F700C0A2
:100500000000115070F660E080E00E94C901DF91A8
:10051000CF911F910895E7E0F1E080818C7F808387
:100520000895CF92DF92EF92FF92CF93DF9300D0A6
:100530000F92CDB7DEB720912C0230912D02409161
:100540002E0250912F0260914702709148028091D3
:10055000490290914A020E946A1B181644F41092B4
:100560004702109248021092490210924A0280916A
:10057000060180FD43C08091450290914602892B7F
:1005800009F055C0C0902C02D0902D02E0902E02B0
:10059000F0902F022DEC3CEC4CE45DE360914702BF
:1005A000709148028091490290914A020E949F19DD
:1005B000A701960169837A838B839C8369817A8101
:1005C0008B819C810E940B1A88230CF06DC081E006
:1005D00090E0909346028093450280912C02909186
:1005E0002D02A0912E02B0912F028093470290938A
:1005F0004802A0934902B0934A020AC080910601C2
:1006000080FF06C08091450290914602892B99F4A3
:1006100080914502909146020F900F900F900F909D
:10062000DF91CF91FF90EF90DF90CF900895809170
:10063000060180FFEDCFC0902C02D0902D02E090FB
:100640002E02F0902F022DEC3CEC4CE45DE3609127
:100650004702709148028091490290914A020E949B
:100660009F19A701960169837A838B839C83698193
:100670007A818B819C810E940B1A88234CF6109200
:1006800046021092450280912C0290912D02A09179
:100690002E02B0912F028093470290934802A093BC
:1006A0004902B0934A02B4CF80910601B1CFCF92F4
:1006B000DF92EF92FF92CF93DF9300D00F92CDB7EE
:1006C000DEB720912C0230912D0240912E025091E4
:1006D0002F026091410270914202809143029091F9
:1006E00044020E946A1B181644F4109241021092B0
:1006F000420210924302109244028091060181FD51
:1007000043C080913F0290914002892B09F055C06F
:10071000C0902C02D0902D02E0902E02F0902F027B
:100720002DEC3CEC4CE45DE360914102709142029F
:1007300080914302909144020E949F19A701960163
:1007400069837A838B839C8369817A818B819C8185
:100750000E940B1A88230CF06DC081E090E090930A
:10076000400280933F0280912C0290912D02A09133
:100770002E02B0912F028093410290934202A093E7
:100780004302B09344020AC08091060181FF06C073
:1007900080913F0290914002892B99F480913F0211
:1007A000909140020F900F900F900F90DF91CF919A
:1007B000FF90EF90DF90CF9008958091060181FF28
:1007C000EDCFC0902C02D0902D02E0902E02F09040
:1007D0002F022DEC3CEC4CE45DE360914102709102
:1007E000420280914302909144020E949F19A70106
:1007F000960169837A838B839C8369817A818B815B
:100800009C810E940B1A88234CF610924002109291
:100810003F0280912C0290912D02A0912E02B09166
:100820002F028093410290934202A0934302B0931F
:100830004402B4CF80910601B1CF80B3876080BB02
:1008400081B3876081BB0895CF92DF92EF92FF92D0
:10085000CF93DF9300D00F92CDB7DEB7282F392F7B
:100860002130310509F482C02230310509F4EDC090
:1008700080E090E0232B59F00F900F900F900F9095
:10088000DF91CF91FF90EF90DF90CF90089520916E
:100890002C0230912D0240912E0250912F02609136
:1008A000590270915A0280915B0290915C020E9401
:1008B0006A1B181644F41092590210925A021092B0
:1008C0005B0210925C02789943C08091570290912C
:1008D0005802892B09F028C1C0902C02D0902D021B
:1008E000E0902E02F0902F022BE037ED43E25CE324
:1008F0006091590270915A0280915B0290915C0262
:100900000E949F19A701960169837A838B839C8338
:1009100069817A818B819C810E940B1A88230CF05B
:100920003FC181E090E090935802809357028091FC
:100930002C0290912D02A0912E02B0912F02809353
:10094000590290935A02A0935B02B0935C0209C0D3
:10095000789B07C08091570290915802892B09F02B
:10096000E5C0809157029091580286CF20912C02C9
:1009700030912D0240912E0250912F02609153022E
:100980007091540280915502909156020E946A1B08
:10099000181644F410925302109254021092550209
:1009A000109256027A9943C080915102909152025E
:1009B000892B09F0F7C0C0902C02D0902D02E09056
:1009C0002E02F0902F022BE037ED43E25CE36091C2
:1009D00053027091540280915502909156020E94E8
:1009E0009F19A701960169837A838B839C83698110
:1009F0007A818B819C810E940B1A88230CF00EC196
:100A000081E090E0909352028093510280912C02F9
:100A100090912D02A0912E02B0912F02809353024B
:100A200090935402A0935502B093560209C07A9B4A
:100A300007C08091510290915202892B09F0B4C0F5
:100A4000809151029091520217CF20912C02309147
:100A50002D0240912E0250912F0260914D02709113
:100A60004E0280914F02909150020E946A1B18160C
:100A700044F410924D0210924E0210924F021092C6
:100A80005002799943C080914B0290914C02892B7E
:100A900009F0C8C0C0902C02D0902D02E0902E0228
:100AA000F0902F022BE037ED43E25CE360914D02C2
:100AB00070914E0280914F02909150020E949F19B6
:100AC000A701960169837A838B839C8369817A81EC
:100AD0008B819C810E940B1A88230CF0A1C081E0BD
:100AE00090E090934C0280934B0280912C02909165
:100AF0002D02A0912E02B0912F0280934D0290936F
:100B00004E02A0934F02B093500209C0799B07C0D8
:100B100080914B0290914C02892B09F085C0809105
:100B20004B0290914C02A8CE789B1BCFC0902C0218
:100B3000D0902D02E0902E02F0902F022BE037EDA6
:100B400043E25CE36091590270915A0280915B022A
:100B500090915C020E949F19A701960169837A8394
:100B60008B839C8369817A818B819C810E940B1A83
:100B700088230CF0F6CE1092580210925702809102
:100B80002C0290912D02A0912E02B0912F02809301
:100B9000590290935A02A0935B02B0935C02E1CE9B
:100BA0008FB1DFCE7A9B4CCFC0902C02D0902D021B
:100BB000E0902E02F0902F022BE037ED43E25CE351
:100BC00060915302709154028091550290915602A7
:100BD0000E949F19A701960169837A838B839C8366
:100BE00069817A818B819C810E940B1A88230CF089
:100BF00027CF109252021092510280912C029091B4
:100C00002D02A0912E02B0912F0280935302909357
:100C10005402A0935502B093560212CF8FB110CF59
:100C20008FB17DCF799B7BCFC0902C02D0902D02CD
:100C3000E0902E02F0902F022BE037ED43E25CE3D0
:100C400060914D0270914E0280914F02909150023E
:100C50000E949F19A701960169837A838B839C83E5
:100C600069817A818B819C810E940B1A88230CF008
:100C700056CF10924C0210924B0280912C02909110
:100C80002D02A0912E02B0912F0280934D029093DD
:100C90004E02A0934F02B093500241CF00D000D03B
:100CA00000D00F92CDB7DEB7C0902402D0902502BD
:100CB0000F2EF0E3EF2EF2E0FF2EF02D05E712E00D
:100CC0000F2EF5E06F2EF02D712C0F2EF3E08F2EEE
:100CD000F02D912C6894AA24A1F8B12C44244394BB
:100CE000512C10C0C984DA840DC094E080E02BC080
:100CF000962D872D28C0982D892D25C00E944F1133
:100D0000C984DA848091350290913602892B31F1C1
:100D1000D7018D919C911197F80191838083129650
:100D20002C911297228313962C9113972383149658
:100D30002C9182309105C9F283309105C9F2019757
:100D4000D1F29A2D8B2DD80114962C9390932402D6
:100D5000809325021092360210923502E09124020F
:100D6000F0912502FA87E987E730F10508F0BACF5C
:100D70008827E252F44E8F4F0C94511980917302E0
:100D800090917402892B79F086E292E00E942E0203
:100D90001092740210927302A0922402B092250263
:100DA000C984DA84AFCF0E94F5000E9416120E9417
:100DB000BF150E94EC140E94E80983E00E947A119A
:100DC00060E070E080E490E40E94CD11882D992DC0
:100DD0000E941D0A0E948B0210929D0210929C029A
:100DE0000E94C5010E941D040E946F010E944F11C4
:100DF00060E080E00E94C901409273025092740248
:100E0000C3CFF2E0CF16D10429F40E944F11C98458
:100E1000DA8478CF84E00E94B501892BD9F3F5CF2D
:100E2000D80112968C918F3790F1882D992D0E94C0
:100E30001D0AF80183810E947A110E94F517892BFF
:100E400021F00E94A318892B39F50E94F517892BF0
:100E500009F469C08091710290917202892B79F135
:100E60001092700210926F0280916B0290916C024E
:100E7000A0916D02B0916E0289839A83AB83BC838B
:100E8000BC01CD010E945810C984DA843BCF84E0B4
:100E900090E00E941D0ACDCF0E94C101892BE1F391
:100EA00010927202109271021092700210926F02F0
:100EB000A0922402B0922502C984DA8423CF409202
:100EC0007102509272020E940E17C62ED72E382E33
:100ED000292E20E030E04CE151E469837A838B8352
:100EE0009C8369817A818B819C810E946A1B181680
:100EF0006CF08C2D9D2DA32DB22D80936B029093C1
:100F00006C02A0936D02B0936E02AACF80E090E0D5
:100F1000ACE1B1E480936B0290936C02A0936D02FC
:100F2000B0936E029DCF0E94A318892B09F453C081
:100F300080916F0290917002892BB9F01092720229
:100F40001092710280916B0290916C02A0916D02DF
:100F5000B0916E0289839A83AB83BC83BC01CD01BF
:100F60000E94610FC984DA84CDCE81E090E0909335
:100F7000700280936F020E942716C62ED72E382E3D
:100F8000292E20E030E04CE151E469837A838B83A1
:100F90009C8369817A818B819C810E946A1B1816CF
:100FA0006CF08C2D9D2DA32DB22D80936B02909310
:100FB0006C02A0936D02B0936E02C0CF80E090E00F
:100FC000ACE1B1E480936B0290936C02A0936D024C
:100FD000B0936E02B3CF1092700210926F02109213
:100FE0007202109271020E942F0EC984DA848ACE96
:100FF000E894C2F8CD2881F080917A0290917B022A
:10100000A0917C02B0917D02809367029093680268
:10101000A0936902B0936A02D80113968C910E9442
:101020007A11F801828162E170E090E00E943D0A4D
:1010300020916702309168024091690250916A02E2
:1010400060917A0270917B0280917C0290917D0286
:101050000E949E1922EF30EB40E15FE369837A83BF
:101060008B839C8369817A818B819C810E946A1B1E
:10107000C984DA8418160CF045CE0E94C101892B70
:10108000E1F3A0922402B0922502C984DA843ACE18
:10109000F5E0CF16D10409F0DDC080915F02909198
:1010A0006002A0916102B091620289839A83AB834E
:1010B000BC8320E030E0A901BC01CD010E940B1AE5
:1010C000882309F4F1C080917A0290917B02A0916B
:1010D0007C02B0917D028D839E83AF83B88720917F
:1010E0006302309164024091650250916602698109
:1010F0007A818B819C810E949F19262E372EC82EC3
:10110000D92E262F372F482F592F6D817E818F8121
:1011100098850E949E1922EF30EB40E95EE36983D7
:101120007A838B839C8369817A818B819C810E94E5
:101130000B1A88230CF4EFC022EF30EB40E95EE39A
:1011400029823A82CB82DC8269817A818B819C817F
:101150000E949F19262F372F482F592F6D817E818E
:101160008F8198850E949E192FE832EC45E75DE358
:1011700069837A838B839C8369817A818B819C814B
:101180000E940B1A88230CF4D9C02FE832EC45E7F3
:101190005DE329823A82CB82DC8269817A818B810C
:1011A0009C810E949F19262F372F482F592F6D8120
:1011B0007E818F8198850E949E1922EF30EB40E15D
:1011C0005FE369837A838B839C8369817A818B81D6
:1011D0009C810E940B1A88230CF4BEC080915D0292
:1011E00090915E02892BC9F420E030E0A901609162
:1011F0007E0270917F0280918002909181020E9414
:101200000B1A8111BEC084E090E00E941D0A81E0AB
:1012100090E090935E0280935D02F80183810E94CA
:101220007A110E94F517892B09F0BFC00E94A318FC
:10123000892B09F0BAC0D80112968C91823009F43A
:10124000ABC060E070E080EA90E40E94610FC98466
:10125000DA8458CD86E40E94B501892BD9F3CD28D4
:1012600009F41BCF80917A0290917B02A0917C02BD
:10127000B0917D028093630290936402A093650213
:10128000B093660210925F021092600210926102A7
:101290001092620210925E0210925D0287E40E9438
:1012A000B501892BD9F3F9CED80113968C910E9400
:1012B0007A110E942F0EF8018281823021F10E9462
:1012C000F517C984DA84892B09F41CCD20916302B7
:1012D00030916402409165025091660260917A02F9
:1012E00070917B0280917C0290917D020E949E19F8
:1012F00060935F0270936002809361029093620238
:10130000C984DA84FFCC0E94A318C984DA84892BAB
:1013100009F4F8CCDBCFD80113968C910E947A1196
:10132000F801828190E0823011F0842D952D62E1E8
:1013300070E00E943D0AC984DA84E4CCD801139697
:101340008C910E947A1160E070E0882D992D0E94A6
:101350003D0AC984DA84D6CCF80183810E947A11CF
:10136000D80112968C91823049F082E090E062E1DF
:1013700070E00E943D0AC984DA84C4CC81E090E028
:10138000F6CF83E090E00E941D0A81E090E0909308
:101390005E0280935D0241CF60E070E080EA90E4FD
:1013A0000E945810C984DA84ADCC0E94C101892BF7
:1013B000E1F3A0922402B0922502C984DA84A2CC7F
:1013C00088E00E94B5010E944F11C984DA849ACC4A
:1013D000109286021092870210928802109289025F
:1013E000109292021092930210929402109295021F
:1013F00080E090E0A0E8BFE38093820290938302B4
:10140000A0938402B093850210927A0210927B021C
:1014100010927C0210927D0280912C0290912D02FC
:10142000A0912E02B0912F0280938E0290938F0292
:10143000A0939002B09391020895049769F01092DE
:101440007E0210927F02109280021092810281E04F
:1014500090E00E94C515089580E090E0A0E8BFE309
:1014600080937E0290937F02A0938002B0938102CA
:1014700080E090E00E94C51508954F925F926F92B0
:101480007F928F929F92AF92BF92EF92FF920F93B3
:101490001F93CF93DF9300D000D000D0CDB7DEB73D
:1014A000082F192FE62EF72E80912C0290912D02F5
:1014B000A0912E02B0912F0289839A83AB83BC83C3
:1014C00080908E0290908F02A0909002B090910236
:1014D000A5019401BC01CD010E949E1920918A02B0
:1014E00030918B0240918C0250918D0269837A83F6
:1014F0008B839C8369817A818B819C810E946F1B85
:10150000262F372F482F592F60917A0270917B0236
:1015100080917C0290917D020E949F1960937A02D3
:1015200070937B0280937C0290937D028091920263
:1015300090919302A0919402B091950289839A832D
:10154000AB83BC83409086025090870260908802F3
:1015500070908902A3019201BC01CD010E940B1A77
:1015600088230CF093C080912C0290912D02A091C1
:101570002E02B0912F028D839E83AF83B887A50181
:101580009401BC01CD010E949E19209182023091EC
:10159000830240918402509185026D837E838F8304
:1015A00098876D817E818F8198850E946F1B29812C
:1015B0003A814B815C8169837A838B839C836981C7
:1015C0007A818B819C810E949F19A62EB72E8D83D4
:1015D0009983262F372F482F592FC301B2010E941C
:1015E0000B1A88230CF449C08A2D9B2DAD81B9813B
:1015F0008093920290939302A0939402B0939502E9
:1016000080912C0290912D02A0912E02B0912F0278
:1016100080938E0290938F02A0939002B0939102D8
:10162000ED82FE82AD81BE811A9724F48AE090E0BB
:101630009E838D830230110509F48AC003301105A1
:1016400009F486C20130110509F492C160E070E02E
:10165000CB010E945E1360E070E0CB010E94251474
:10166000109292021092930210929402109295029C
:1016700030E020E080E090E05AC140929202509227
:1016800093026092940270929502BACFA3019201E4
:1016900069817A818B819C810E946A1B18160CF0EB
:1016A000AFCF80912C0290912D02A0912E02B0918B
:1016B0002F028D839E83AF83B887A5019401BC015F
:1016C000CD010E949E1920918202309183024091A7
:1016D0008402509185026D837E838F8398876D810C
:1016E0007E818F8198850E946F1B262F372F482F70
:1016F000592F69817A818B819C810E949E19A62E27
:10170000B72E89879D8320E030E0A90169837A8321
:101710008B839C8369817A818B819C810E940B1AC7
:1017200088236CF08A2D9B2DA985BD818093920220
:1017300090939302A0939402B093950261CF10927C
:10174000920210929302109294021092950258CF36
:10175000AD81BE81AA0FBB1FCD01092E000CAA0BC3
:10176000BB0B89839A83AB83BC83BC01CD010E94F0
:10177000BA1A062F172F89879D8320E030E040EAB0
:1017800051E469837A838B839C8369817A818B811D
:101790009C810E949F19A62EB72EE82EF92E20E0DC
:1017A00030E040EA51E469817A818B819C810E941A
:1017B0009E192A2D3B2D4E2D5F2D69837A838B83B5
:1017C0009C8369817A818B819C810E94101A20916F
:1017D0009202309193024091940250919502698354
:1017E0007A838B839C8369817A818B819C810E941F
:1017F0006F1B20E030E048E453E469837A838B83F5
:101800009C8369817A818B819C810E946F1B662EEB
:10181000772E882E992E20E030E0A90160917E027B
:1018200070917F0280918002909181020E940B1A38
:1018300020E030E040E85FEB811104C020E030E0C0
:1018400040E85FE369827A828B829C8269817A8137
:101850008B819C810E946F1B69837A838B839C831D
:1018600069817A818B819C810E945E1320E030E047
:1018700048E453E460919202709193028091940243
:10188000909195020E946F1B662E772E882E992EBE
:1018900020E030E0A90160917E0270917F0280918A
:1018A0008002909181020E940B1A20E030E040E813
:1018B0005FEB811104C020E030E040E85FE3698223
:1018C0007A828B829C8269817A818B819C810E9441
:1018D0006F1B69837A838B839C8369817A818B8177
:1018E0009C810E9425142A2D3B2D4E2D5F2D0983AE
:1018F0001A83B985BB838D818C8369817A818B81C1
:101900009C810E94101A2091920230919302409182
:1019100094025091950269837A838B839C836981B9
:101920007A818B819C810E946F1B362F272F432F3A
:10193000522F682F792F40938A0250938B02609325
:101940008C0270938D0229960FB6F894DEBF0FBEFD
:10195000CDBFDF91CF911F910F91FF90EF90BF907E
:10196000AF909F908F907F906F905F904F90089571
:1019700020E030E048E453E46091920270919302D9
:1019800080919402909195020E946F1BE62EF72E93
:10199000082F192F20E030E0A90160917E0270919C
:1019A0007F0280918002909181020E940B1A20E0B8
:1019B00030E040E85FEB811104C020E030E040E817
:1019C0005FE3E982FA820B831C8369817A818B81D0
:1019D0009C810E946F1B69837A838B839C836981BE
:1019E0007A818B819C810E945E13AD81BE81AA0F9A
:1019F000BB1FCD01092E000CAA0BBB0B89839A8358
:101A0000AB83BC83BC01CD010E94BA1A062F172FED
:101A100089879D8320E030E040EA51E469837A833E
:101A20008B839C8369817A818B819C810E949F1921
:101A3000A62EB72EE82EF92E20E030E040EA51E441
:101A400069817A818B819C810E949E192A2D3B2D70
:101A50004E2D5F2D69837A838B839C8369817A8184
:101A60008B819C810E94101A2091920230919302E6
:101A7000409194025091950269837A838B839C8371
:101A800069817A818B819C810E946F1B20E030E00C
:101A900048E453E469837A838B839C8369817A81E8
:101AA0008B819C810E946F1B662E772E882E992E2B
:101AB00020E030E0A90160917E0270917F02809168
:101AC0008002909181020E940B1A20E030E040E8F1
:101AD0005FEB811104C020E030E040E85FE3698201
:101AE0007A828B829C8269817A818B819C810E941F
:101AF0006F1B69837A838B839C8369817A818B8155
:101B00009C810E9425142A2D3B2D4E2D5F2D09838B
:101B10001A83B985BB838D818C8369817A818B819E
:101B20009C810E94101A2091920230919302409160
:101B300094025091950269837A838B839C83698197
:101B40007A818B819C810E946F1B362F272FEFCECD
:101B500020E030E048E453E46091920270919302F7
:101B600080919402909195020E946F1B062F172F6F
:101B700089879D8320E030E0A90160917E02709109
:101B80007F0280918002909181020E940B1A20E0D6
:101B900030E040E85FEB811104C020E030E040E835
:101BA0005FE309831A8399859B83AD81AC83698147
:101BB0007A818B819C810E946F1B69837A838B83DE
:101BC0009C8369817A818B819C810E945E1320E0D5
:101BD00030E048E453E46091920270919302809166
:101BE0009402909195020E946F1B062F172F8987F0
:101BF0009D8320E030E0A90160917E0270917F0218
:101C000080918002909181020E940B1A20E030E0C6
:101C100040E85FEB811104C020E030E040E85FE382
:101C200009831A83B985BB838D818C8369817A810D
:101C30008B819C810E946F1B69837A838B839C8339
:101C400069817A818B819C810E9425143091920256
:101C500020919302809194029091950268CECF9248
:101C6000DF92EF92FF920F931F93CF93DF9300D0F9
:101C700000D0CDB7DEB70E942716062F172F8E8310
:101C80009D830E940E17C62ED72EE82EF92E20E037
:101C900030E040E551E49E818D8109831A839B8366
:101CA0008C8369817A818B819C810E946A1B1816C2
:101CB0000CF09CC020E030E040E551E4C982DA82BB
:101CC000EB82FC8269817A818B819C810E946A1BF4
:101CD00018160CF4EFC00C2D1D2DEE82FD8220E0B5
:101CE00030E040E05FE39E818D8109831A839B830E
:101CF0008C8369817A818B819C810E949F192C2D14
:101D00003D2D4E2D5F2D69837A838B839C83698162
:101D10007A818B819C810E940B1A88230CF493C0DA
:101D200020E030E040E05FE3C982DA82EB82FC82AF
:101D300069817A818B819C810E949F19FE81ED814E
:101D4000202F312F4F2F5E2F69837A838B839C83C3
:101D500069817A818B819C810E940B1A88230CF007
:101D6000A9C02C2D3D2D4E2D5F2D9E818D81098387
:101D70001A839B838C8369817A818B819C810E94E9
:101D80009E19262F372F482F592F60E070E080E8EA
:101D90009FE30E94101A20E030E040E252E46983A1
:101DA0007A838B839C8369817A818B819C810E9459
:101DB0006F1B69837A838B839C8369817A818B8192
:101DC0009C810E94821A81E090E00E943D0A0F905F
:101DD0000F900F900F900F900F90DF91CF911F9168
:101DE0000F91FF90EF90DF90CF90089520E030E0CA
:101DF00040E551E49E818D8109831A839B838C8306
:101E000069817A818B819C810E946A1B1816B4F0CB
:101E100020E030E040E551E4C982DA82EB82FC82C6
:101E200069817A818B819C810E946A1B18160CF053
:101E300056CFC02ED12EEE80FD8051CF0C2D1D2D02
:101E4000EE82FD824CCF9E818D81202F312F492F34
:101E5000582FC982DA82EB82FC8269817A818B8178
:101E60009C810E949E19262F372F482F592F60E002
:101E700070E080E89FE30E94101A20E030E040E22A
:101E800052E469837A838B839C8369817A818B8115
:101E90009C810E946F1B69837A838B839C836981F9
:101EA0007A818B819C810E94821A82E090E00E945C
:101EB0003D0A8DCF60E070E083E090E00E943D0A33
:101EC00086CFCF92DF92EF92FF920F931F93CF9323
:101ED000DF9300D000D0CDB7DEB7C62ED72EE82EC8
:101EE000F92E0E942716062F172F8E839D83262FEB
:101EF000372F482F592FC982DA82EB82FC82698101
:101F00007A818B819C810E949E192C2D3D2D4E2D16
:101F10005F2D69837A838B839C8369817A818B812E
:101F20009C810E949F19C62ED72EE82EF92E20E004
:101F300030E040E05FE309831A838E818B838D81DB
:101F40008C8369817A818B819C810E949F192C2DC1
:101F50003D2D4E2D5F2D69837A838B839C83698110
:101F60007A818B819C810E940B1A88230CF464C0B7
:101F700020E030E040E05FE3C982DA82EB82FC825D
:101F800069817A818B819C810E949F19202F312F3A
:101F90004E815D8169837A838B839C8369817A8199
:101FA0008B819C810E940B1A88230CF07AC02C2D07
:101FB0003D2D4E2D5F2D09831A838E818B838D815C
:101FC0008C8369817A818B819C810E949E19262F46
:101FD000372F482F592F60E070E080E89FE30E9480
:101FE000101A20E030E040E252E469837A838B8368
:101FF0009C8369817A818B819C810E946F1B69839C
:102000007A838B839C8369817A818B819C810E94F6
:10201000821A81E090E00E943D0A0F900F900F908D
:102020000F900F900F90DF91CF911F910F91FF9024
:10203000EF90DF90CF900895202F312F4E815D815A
:10204000C982DA82EB82FC8269817A818B819C81F0
:102050000E949E19262F372F482F592F60E070E0DD
:1020600080E89FE30E94101A20E030E040E252E452
:1020700069837A838B839C8369817A818B819C813C
:102080000E946F1B69837A838B839C8369817A8129
:102090008B819C810E94821A82E090E00E943D0A1E
:1020A000BCCF60E070E083E090E00E943D0AB5CFD5
:1020B000CF92DF92EF92FF920F931F93CF93DF9314
:1020C00000D000D0CDB7DEB7C62ED72EE82EF92E21
:1020D0000E940E17062F172F8E839D83262F372FD2
:1020E000482F592FC982DA82EB82FC8269817A817A
:1020F0008B819C810E949E192C2D3D2D4E2D5F2D94
:1021000069837A838B839C8369817A818B819C81AB
:102110000E949F19C62ED72EE82EF92E20E030E01F
:1021200040E05FE369837A838B839C8369817A8152
:102130008B819C810E949F19202F312F4E815D81C0
:1021400069837A838B839C8369817A818B819C816B
:102150000E940B1A88230CF464C020E030E040E0B9
:102160005FE309831A838E818B838D818C836981E0
:102170007A818B819C810E949F192C2D3D2D4E2DA3
:102180005F2D69837A838B839C8369817A818B81BC
:102190009C810E940B1A88230CF07AC0202F312FCB
:1021A0004E815D81C982DA82EB82FC8269817A810B
:1021B0008B819C810E949E19262F372F482F592FE3
:1021C00060E070E080E89FE30E94101A20E030E0B9
:1021D00040E252E469837A838B839C8369817A81AC
:1021E0008B819C810E946F1B69837A838B839C8384
:1021F00069817A818B819C810E94821A81E090E0C2
:102200000E943D0A0F900F900F900F900F900F902B
:10221000DF91CF911F910F91FF90EF90DF90CF90C2
:1022200008952C2D3D2D4E2D5F2D09831A838E810F
:102230008B838D818C8369817A818B819C810E94C3
:102240009E19262F372F482F592F60E070E080E825
:102250009FE30E94101A20E030E040E252E46983DC
:102260007A838B839C8369817A818B819C810E9494
:102270006F1B69837A838B839C8369817A818B81CD
:102280009C810E94821A82E090E00E943D0ABACFAF
:1022900060E070E083E090E00E943D0AB3CF60E030
:1022A00070E0CB010E945E1360E070E0CB010E9401
:1022B00025141092860210928702109288021092C2
:1022C000890210929202109293021092940210923C
:1022D000950260E070E080E090E00E943D0A60E0DE
:1022E00070E0CB010E945E1360E070E0CB010E94C1
:1022F000251408950F931F93CF93DF9300D000D040
:10230000CDB7DEB7282F30E040E050E029833A8394
:102310004B835C83CA01B9010E94BA1A20E030E005
:1023200048EC52E469837A838B839C8369817A8148
:102330008B819C810E94101A062F172F8E839D83FC
:102340002DEC3CEC4CE45EE369837A838B839C83C5
:1023500069817A818B819C810E940B1A882334F0D9
:102360000DEC1CEC2CE42E833EE33D83402F512FDB
:102370006E817D814093860250938702609388022C
:10238000709389020F900F900F900F900F900F9005
:10239000DF91CF911F910F9108950F931F93CF93CA
:1023A000DF9300D000D0CDB7DEB7062F172F8E8376
:1023B0009D8320E030E040E85FE369837A838B838C
:1023C0009C8369817A818B819C810E940B1A88236E
:1023D000ECF000E010E080E88E838FE38D83802FA7
:1023E000912FAE81BD818093820290938302A0934E
:1023F0008402B09385020F900F900F900F900F9072
:102400000F90DF91CF911F910F91089520E030E060
:10241000A90169817A818B819C810E940B1A882392
:10242000F4F600E010E01E821D82D9CF5098589A31
:10243000E9E6F0E080818E7F8083E89A78940895C1
:10244000CF92DF92EF92FF92CF93DF9300D00F9263
:10245000CDB7DEB720912C0230912D0240912E0293
:1024600050912F02609198027091990280919A0286
:1024700090919B020E946A1B181644F410929802D5
:102480001092990210929A0210929B02489943C0AE
:102490008091960290919702892B09F053C0C090C9
:1024A0002C02D0902D02E0902E02F0902F022BE013
:1024B00037ED43EA5CE36091980270919902809154
:1024C0009A0290919B020E949F19A701960169832D
:1024D0007A838B839C8369817A818B819C810E9422
:1024E0000B1A88230CF069C081E090E0909397026A
:1024F0008093960280912C0290912D02A0912E0241
:10250000B0912F028093980290939902A0939A021F
:10251000B0939B0208C0489B06C0809196029091A0
:102520009702892B89F480919602909197020F90DF
:102530000F900F900F90DF91CF91FF90EF90DF9071
:10254000CF900895489BEFCFC0902C02D0902D02E1
:10255000E0902E02F0902F022BE037ED43EA5CE38F
:10256000609198027091990280919A0290919B02D9
:102570000E949F19A701960169837A838B839C83AC
:1025800069817A818B819C810E940B1A88235CF679
:10259000109297021092960280912C0290912D0237
:1025A000A0912E02B0912F028093980290939902ED
:1025B000A0939A02B0939B02B6CF89B1B4CF1F9279
:1025C0000F920FB60F9211240BB60F922F933F93D9
:1025D0004F935F936F937F938F939F93AF93BF932B
:1025E000EF93FF930E944F11109225021092240244
:1025F000FF91EF91BF91AF919F918F917F916F91DB
:102600005F914F913F912F910F900BBE0F900FBE96
:102610000F901F9018958091A0029091A102892B94
:1026200049F00E949102892BF9F41092A1021092B4
:10263000A0021AC00E949102892B81F081E090E0F3
:102640009093A1028093A00280919C0290919D02A0
:10265000019690939D0280939C0206C08091A002F7
:102660009091A102892BE9F680919E0290919F02A0
:10267000892B49F00E945703892BF9F410929F028D
:1026800010929E021AC00E945703892B81F081E0AC
:1026900090E090939F0280939E0280919C02909183
:1026A0009D02019690939D0280939C0208958091D3
:1026B0009E0290919F02892BE9F60895CF93DF93B4
:1026C00000D00F92CDB7DEB7462F572F682F792F46
:1026D00049835A836B837C8320E030E048EC52E4EA
:1026E00069817A818B819C810E946A1B18165CF13A
:1026F00020E030E048EC52EC69817A818B819C814A
:102700000E940B1A88239CF480E090E0A8ECB2ECC5
:1027100089839A83AB83BC832D9889819A81AB810D
:10272000BC81B05889839A83AB83BC8315C020E0F9
:1027300030E0A90169817A818B819C810E940B1A0A
:1027400088234CF4E9CF80E090E0A8ECB2E48983E0
:102750009A83AB83BC832D9A20E030E040EE50E4B6
:1027600069817A818B819C810E940B1A88233CF4B9
:1027700083E090E0909389008093880038C028E13E
:1027800034E146E759E369817A818B819C810E941B
:102790006F1B20E030E040E857E369837A838B8346
:1027A0009C8369817A818B819C810E949F19262F4D
:1027B000372F482F592F60E070E088EC92E40E9498
:1027C000101A69837A838B839C8369817A818B81D8
:1027D0009C810E94891A862F972F803AAFE09A0732
:1027E00010F480EA9FE090938900809388000F9016
:1027F0000F900F900F90DF91CF910895E1E8F0E0F6
:1028000080818E7F8083269AA0E8B0E08C918360DF
:102810008C938081886180838C9180628C9380818D
:102820008160808380EA9FE0909389008093880094
:1028300080E290E090938B0080938A00259A60E07C
:1028400070E0CB010E945E130895CF93DF9300D018
:102850000F92CDB7DEB7462F572F682F792F4983B8
:102860005A836B837C8320E030E048EC52E469813A
:102870007A818B819C810E946A1B18165CF120E092
:1028800030E048EC52EC69817A818B819C810E9416
:102890000B1A88239CF480E090E0A8ECB2EC8983CA
:1028A0009A83AB83BC83759889819A81AB81BC8103
:1028B000B05889839A83AB83BC8315C020E030E095
:1028C000A90169817A818B819C810E940B1A8823DE
:1028D0004CF4E9CF80E090E0A8ECB2E489839A83DD
:1028E000AB83BC83759A20E030E040EE50E4698110
:1028F0007A818B819C810E940B1A88233CF483E0AF
:1029000090E0909399008093980038C028E134E1DA
:1029100046E759E369817A818B819C810E946F1B14
:1029200020E030E040E857E369837A838B839C831F
:1029300069817A818B819C810E949F19262F372F74
:10294000482F592F60E070E088EC92E40E94101A42
:1029500069837A838B839C8369817A818B819C8153
:102960000E94891A862F972F803AAFE09A0710F4B9
:1029700080EA9FE090939900809398000F900F90C9
:102980000F900F90DF91CF910895E1E9F0E0808101
:102990008E7F80836C9AA0E9B0E08C9183608C93E9
:1029A0008081886180838C9180628C93808181603A
:1029B000808380EA9FE0909399008093980080E262
:1029C00090E090939B0080939A006D9A60E070E095
:1029D000CB010E94251408950E94FE130E94C51485
:1029E00008951F921FB61F9211248F939F93AF9348
:1029F000BF9310922501109224018091260190919D
:102A00002701A0E0B0E08093A6029093A702A093D4
:102A1000A802B093A90281E08093AB02BF91AF916D
:102A20009F918F911F901FBE1F9018951F921FB6E8
:102A30001F9211248F939F93AF93BF931092A50081
:102A40001092A4008091A6009091A700A0E0B0E0B1
:102A50008093A2029093A302A093A402B093A50234
:102A600081E08093AA02BF91AF919F918F911F90B7
:102A70001FBE1F901895E1E2F1E080818C7F80837A
:102A800010922701109226011092AB02AAE0B1E049
:102A90008C9188608C938C9180618C938C918062F6
:102AA0008C938C918D7F8C93A0E2B1E08C918360AC
:102AB0008C938081886080838C9180628C938C91D0
:102AC00088688C938081836080838FEF93E09093FC
:102AD00029018093280190932B0180932A019093E0
:102AE0002D0180932C0180818F7B8083E3E7F0E0D0
:102AF0008081806280830895E1EAF0E080818C7FAC
:102B000080831092A7001092A6001092AA02A1E062
:102B1000B1E08C9188608C938C9180618C938C91C6
:102B200080628C93AAE0B1E08C918E7F8C93A0EAB6
:102B3000B0E08C9183608C938081886080838C91DD
:102B400080628C938C9188688C9380818360808371
:102B50008FEF93E09093A9008093A8009093AB002F
:102B60008093AA009093AD008093AC0080818F7B0E
:102B70008083E2E7F0E080818062808308950E9494
:102B80003B150E947C1578940895282F392F213009
:102B9000310519F122303105E9F1232B09F00895AF
:102BA00083E090E09093A9008093A800909329017E
:102BB000809328018FEF93E09093AB008093AA005D
:102BC0009093AD008093AC0090932B0180932A01E9
:102BD00090932D0180932C01089583E090E09093D1
:102BE000AB008093AA0090932B0180932A018FEF72
:102BF00093E09093A9008093A8009093AD008093F8
:102C0000AC00909329018093280190932D0180932B
:102C10002C01089583E090E09093AD008093AC0088
:102C200090932D0180932C018FEF93E09093AB0054
:102C30008093AA009093A9008093A80090932B0101
:102C400080932A019093290180932801A8CF0F93A4
:102C50001F93CF93DF93CDB7DEB72D970FB6F894C0
:102C6000DEBF0FBECDBF8091AB02882309F4A4C0A4
:102C70001092AB028091A6029091A702A091A802A7
:102C8000B091A902873202E09007A105B10508F4CE
:102C90006BC086529240A109B1098C019D0140E0B0
:102CA00050E0BA018D831E832F83388749875A8766
:102CB0006B877C87282F312F4F81588560E070E02B
:102CC00080E090E006E00E94681904E00E94831909
:102CD000842F952F622F732F0E94B81A20E030E0C6
:102CE00048E652E469837A838B839C8369817A8185
:102CF0008B819C810E94101A062F172F8D879D8330
:102D0000862F912FAD85BD818093D0029093D10203
:102D1000A093D202B093D30220E030E040EA51E425
:102D200009831A83AB83BC8369817A818B819C81FF
:102D30000E946A1B8823C4F420E030E040E85FE38F
:102D400009831A830D850B831D811C8369817A8118
:102D50008B819C810E940B1A88230CF44EC0109228
:102D6000CF021092CE0228C080E090E0A0EAB1E449
:102D70008093D0029093D102A093D202B093D30259
:102D80008091CE029091CF02892B81F48091CA026A
:102D90009091CB02A091CC02B091CD028093D00251
:102DA0009093D102A093D202B093D30281E090E03D
:102DB0009093CF028093CE022091D0023091D10225
:102DC0004091D2025091D30229833A834B835C8392
:102DD0002093CA023093CB024093CC025093CD0291
:102DE000CA01B9012D960FB6F894DEBF0FBECDBF54
:102DF000DF91CF911F910F91089580E090E0A0E8BE
:102E0000BFE38093D0029093D102A093D202B093FB
:102E1000D3021092CF021092CE02CECF0F931F9307
:102E2000CF93DF93CDB7DEB72D970FB6F894DEBF03
:102E30000FBECDBF8091AA02882309F4A4C01092CE
:102E4000AA028091A2029091A302A091A402B09143
:102E5000A502873202E09007A105B10508F46BC016
:102E600086529240A109B1098C019D0140E050E0D9
:102E7000BA018D831E832F83388749875A876B87D2
:102E80007C87282F312F4F81588560E070E080E0EB
:102E900090E006E00E94681904E00E948319842FE4
:102EA000952F622F732F0E94B81A20E030E048E679
:102EB00052E469837A838B839C8369817A818B81D5
:102EC0009C810E94101A062F172F8D879D83862FB5
:102ED000912FAD85BD818093C6029093C702A093C8
:102EE000C802B093C90220E030E040EA51E409830F
:102EF0001A83AB83BC8369817A818B819C810E9418
:102F00006A1B8823C4F420E030E040E85FE30983D3
:102F10001A830D850B831D811C8369817A818B81C6
:102F20009C810E940B1A88230CF44EC01092C5029B
:102F30001092C40228C080E090E0A0EAB1E480933F
:102F4000C6029093C702A093C802B093C9028091B1
:102F5000C4029091C502892B81F48091C0029091A6
:102F6000C102A091C202B091C3028093C6029093A5
:102F7000C702A093C802B093C90281E090E0909389
:102F8000C5028093C4022091C6023091C7024091CD
:102F9000C8025091C90229833A834B835C832093F2
:102FA000C0023093C1024093C2025093C302CA01CF
:102FB000B9012D960FB6F894DEBF0FBECDBFDF91DD
:102FC000CF911F910F91089580E090E0A0E8BFE3BA
:102FD0008093C6029093C702A093C802B093C9021F
:102FE0001092C5021092C402CECFCF93DF9300D0CF
:102FF0000F92CDB7DEB780912C0290912D02A09157
:103000002E02B0912F0289839A83AB83BC832091D7
:10301000BC023091BD024091BE025091BF02BC0182
:10302000CD010E949E192AE939E949E95DE36983E6
:103030007A838B839C8369817A818B819C810E94B6
:103040006A1B181684F480912C0290912D02A09195
:103050002E02B0912F028093B8029093B902A093F0
:10306000BA02B093BB0280912C0290912D02A091E4
:103070002E02B0912F028093BC029093BD02A093C8
:10308000BE02B093BF020E94271620E030E040E568
:1030900051E469837A838B839C8369817A818B81F4
:1030A0009C810E946A1B18167CF580912C029091DD
:1030B0002D02A0912E02B0912F0289839A83AB83B7
:1030C000BC832091B8023091B9024091BA0250916C
:1030D000BB02BC01CD010E949E192AE939E949E9E8
:1030E0005DE369837A838B839C8369817A818B8199
:1030F0009C810E946A1B1816DCF481E090E090939A
:10310000B7028093B60214C080912C0290912D02D8
:10311000A0912E02B0912F028093B8029093B90231
:10312000A093BA02B093BB021092B7021092B602FB
:103130008091B6029091B7020F900F900F900F9070
:10314000DF91CF910895CF93DF9300D00F92CDB749
:10315000DEB780912C0290912D02A0912E02B091A9
:103160002F0289839A83AB83BC832091B202309172
:10317000B3024091B4025091B502BC01CD010E944E
:103180009E192AE939E949E95DE369837A838B83EA
:103190009C8369817A818B819C810E946A1B1816AD
:1031A00084F480912C0290912D02A0912E02B09176
:1031B0002F028093AE029093AF02A093B002B0931F
:1031C000B10280912C0290912D02A0912E02B0911B
:1031D0002F028093B2029093B302A093B402B093F3
:1031E000B5020E940E1720E030E040E551E469830B
:1031F0007A838B839C8369817A818B819C810E94F5
:103200006A1B18167CF580912C0290912D02A091DA
:103210002E02B0912F0289839A83AB83BC832091C5
:10322000AE023091AF024091B0025091B102BC01A8
:10323000CD010E949E192AE939E949E95DE36983D4
:103240007A838B839C8369817A818B819C810E94A4
:103250006A1B1816DCF481E090E09093AD02809335
:10326000AC0214C080912C0290912D02A0912E02EC
:10327000B0912F028093AE029093AF02A093B00260
:10328000B093B1021092AD021092AC028091AC02E8
:103290009091AD020F900F900F900F90DF91CF9112
:1032A0000895EE0FFF1F881F8BBF0790F691E02D4A
:1032B0001994A29FB001B39FC001A39F700D811DFF
:1032C0001124911DB29F700D811D1124911D08952F
:1032D000002E083090F0982F872F762F652F542FCF
:1032E000432F322F22270850F4CF220F331F441FC1
:1032F000551F661F771F881F991F0A95B2F7002D6B
:10330000089597FD1094002E083098F00850232F50
:10331000342F452F562F672F782F892F912DF4CFDB
:103320001594979587957795679557954795379510
:1033300027950A95AAF71124002D08955058BB2708
:10334000AA270E94B6190C94301B0E94221B38F049
:103350000E94291B20F039F49F3F19F426F40C94A5
:103360001F1B0EF4E095E7FB0C94191BE92F0E943C
:10337000411B58F3BA17620773078407950720F0BB
:1033800079F4A6F50C94631B0EF4E0950B2EBA2F7E
:10339000A02D0B01B90190010C01CA01A00111245B
:1033A000FF27591B99F0593F50F4503E68F11A1607
:1033B000F040A22F232F342F4427585FF3CF469598
:1033C00037952795A795F0405395C9F77EF41F16BA
:1033D000BA0B620B730B840BBAF09150A1F0FF0F84
:1033E000BB1F661F771F881FC2F70EC0BA0F621F70
:1033F000731F841F48F4879577956795B795F79560
:103400009E3F08F0B0CF9395880F08F09927EE0FF4
:103410009795879508950E94F51A08F481E008951C
:103420000E94241A0C94301B0E94291B58F00E9401
:10343000221B40F029F45F3F29F00C94191B511115
:103440000C94641B0C941F1B0E94411B68F399236E
:10345000B1F3552391F3951B550BBB27AA27621790
:103460007307840738F09F5F5F4F220F331F441F9D
:10347000AA1FA9F335D00E2E3AF0E0E832D09150D1
:103480005040E695001CCAF72BD0FE2F29D0660FBE
:10349000771F881FBB1F261737074807AB07B0E801
:1034A00009F0BB0B802DBF01FF2793585F4F3AF007
:1034B0009E3F510578F00C94191B0C94641B5F3FE0
:1034C000E4F3983ED4F3869577956795B795F7958D
:1034D0009F5FC9F7880F911D9695879597F9089575
:1034E000E1E0660F771F881FBB1F62177307840711
:1034F000BA0720F0621B730B840BBA0BEE1F88F720
:10350000E09508950E94891A6894B1110C94641B87
:1035100008950E94491B88F09F5798F0B92F99276A
:10352000B751B0F0E1F0660F771F881F991F1AF0AE
:10353000BA95C9F714C0B13091F00E94631BB1E095
:1035400008950C94631B672F782F8827B85F39F094
:10355000B93FCCF3869577956795B395D9F73EF447
:1035600090958095709561957F4F8F4F9F4F0895EF
:10357000E89409C097FB3EF490958095709561950D
:103580007F4F8F4F9F4F9923A9F0F92F96E9BB27C3
:103590009395F695879577956795B795F111F8CF3F
:1035A000FAF4BB0F11F460FF1BC06F5F7F4F8F4FAA
:1035B0009F4F16C0882311F096E911C0772321F0A0
:1035C0009EE8872F762F05C0662371F096E8862F38
:1035D00070E060E02AF09A95660F771F881FDAF78F
:1035E000880F9695879597F90895990F0008550FBC
:1035F000AA0BE0E8FEEF16161706E807F907C0F079
:1036000012161306E407F50798F0621B730B840B80
:10361000950B39F40A2661F0232B242B252B21F45A
:1036200008950A2609F4A140A6958FEF811D811DFA
:10363000089597F99F6780E870E060E008959FEF34
:1036400080EC089500240A94161617061806090639
:10365000089500240A941216130614060506089508
:10366000092E0394000C11F4882352F0BB0F40F490
:10367000BF2B11F460FF04C06F5F7F4F8F4F9F4FD0
:10368000089557FD9058440F551F59F05F3F71F052
:103690004795880F97FB991F61F09F3F79F08795B9
:1036A0000895121613061406551FF2CF4695F1DF42
:1036B00008C0161617061806991FF1CF86957105D2
:1036C000610508940895E894BB2766277727CB0106
:1036D00097F908950E94F51A08F48FEF08950E9453
:1036E000821B0C94301B0E94221B38F00E94291B65
:1036F00020F0952311F00C94191B0C941F1B11241E
:103700000C94641B0E94411B70F3959FC1F3950FAD
:1037100050E0551F629FF001729FBB27F00DB11D55
:10372000639FAA27F00DB11DAA1F649F6627B00DE5
:10373000A11D661F829F2227B00DA11D621F739FCE
:10374000B00DA11D621F839FA00D611D221F749FDC
:103750003327A00D611D231F849F600D211D822F23
:10376000762F6A2F11249F5750409AF0F1F088234A
:103770004AF0EE0FFF1FBB1F661F771F881F915077
:103780005040A9F79E3F510580F00C94191B0C94F2
:10379000641B5F3FE4F3983ED4F386957795679575
:1037A000B795F795E7959F5FC1F7FE2B880F911DA1
:1037B0009695879597F90895F894FFCF7E06BE06F3
:0A37C00001071007F8074808E009A8
:1037CA00777C395E79713D74061E753855545C7381
:1037DA0067506D783E1C6A766E5B3F065B4F666D7E
:0C37EA007D077F6F0100727365740000A2
:00000001FF
